{
  "_format": "hh-sol-artifact-1",
  "contractName": "PerpMarketManager",
  "sourceName": "contracts/PerpMarketManager.sol",
  "abi": [
    {
      "inputs": [
        {
          "internalType": "address",
          "name": "_collateralToken",
          "type": "address"
        },
        {
          "internalType": "address",
          "name": "_perpOracle",
          "type": "address"
        }
      ],
      "stateMutability": "nonpayable",
      "type": "constructor"
    },
    {
      "inputs": [
        {
          "internalType": "address",
          "name": "owner",
          "type": "address"
        }
      ],
      "name": "OwnableInvalidOwner",
      "type": "error"
    },
    {
      "inputs": [
        {
          "internalType": "address",
          "name": "account",
          "type": "address"
        }
      ],
      "name": "OwnableUnauthorizedAccount",
      "type": "error"
    },
    {
      "inputs": [],
      "name": "ReentrancyGuardReentrantCall",
      "type": "error"
    },
    {
      "inputs": [
        {
          "internalType": "address",
          "name": "token",
          "type": "address"
        }
      ],
      "name": "SafeERC20FailedOperation",
      "type": "error"
    },
    {
      "anonymous": false,
      "inputs": [
        {
          "indexed": true,
          "internalType": "address",
          "name": "user",
          "type": "address"
        },
        {
          "indexed": false,
          "internalType": "uint256",
          "name": "amount",
          "type": "uint256"
        }
      ],
      "name": "CollateralDeposited",
      "type": "event"
    },
    {
      "anonymous": false,
      "inputs": [
        {
          "indexed": true,
          "internalType": "address",
          "name": "user",
          "type": "address"
        },
        {
          "indexed": false,
          "internalType": "uint256",
          "name": "amount",
          "type": "uint256"
        }
      ],
      "name": "CollateralWithdrawn",
      "type": "event"
    },
    {
      "anonymous": false,
      "inputs": [
        {
          "indexed": true,
          "internalType": "address",
          "name": "perp",
          "type": "address"
        },
        {
          "indexed": false,
          "internalType": "bool",
          "name": "isActive",
          "type": "bool"
        },
        {
          "indexed": false,
          "internalType": "uint256",
          "name": "maxLeverageBps",
          "type": "uint256"
        },
        {
          "indexed": false,
          "internalType": "uint256",
          "name": "initialMarginBps",
          "type": "uint256"
        },
        {
          "indexed": false,
          "internalType": "uint256",
          "name": "maintenanceMarginBps",
          "type": "uint256"
        },
        {
          "indexed": false,
          "internalType": "uint256",
          "name": "takerFeeBps",
          "type": "uint256"
        },
        {
          "indexed": false,
          "internalType": "uint256",
          "name": "makerFeeBps",
          "type": "uint256"
        },
        {
          "indexed": false,
          "internalType": "uint256",
          "name": "liquidationFeeBps",
          "type": "uint256"
        }
      ],
      "name": "MarketConfigured",
      "type": "event"
    },
    {
      "anonymous": false,
      "inputs": [
        {
          "indexed": true,
          "internalType": "address",
          "name": "previousOwner",
          "type": "address"
        },
        {
          "indexed": true,
          "internalType": "address",
          "name": "newOwner",
          "type": "address"
        }
      ],
      "name": "OwnershipTransferred",
      "type": "event"
    },
    {
      "anonymous": false,
      "inputs": [
        {
          "indexed": true,
          "internalType": "address",
          "name": "user",
          "type": "address"
        },
        {
          "indexed": true,
          "internalType": "address",
          "name": "perp",
          "type": "address"
        },
        {
          "indexed": false,
          "internalType": "int256",
          "name": "size",
          "type": "int256"
        },
        {
          "indexed": false,
          "internalType": "uint256",
          "name": "entryPrice",
          "type": "uint256"
        },
        {
          "indexed": false,
          "internalType": "uint256",
          "name": "exitPrice",
          "type": "uint256"
        },
        {
          "indexed": false,
          "internalType": "int256",
          "name": "pnl",
          "type": "int256"
        },
        {
          "indexed": false,
          "internalType": "uint256",
          "name": "marginReleased",
          "type": "uint256"
        }
      ],
      "name": "PositionClosed",
      "type": "event"
    },
    {
      "anonymous": false,
      "inputs": [
        {
          "indexed": true,
          "internalType": "address",
          "name": "user",
          "type": "address"
        },
        {
          "indexed": true,
          "internalType": "address",
          "name": "perp",
          "type": "address"
        },
        {
          "indexed": false,
          "internalType": "bool",
          "name": "isLong",
          "type": "bool"
        },
        {
          "indexed": false,
          "internalType": "int256",
          "name": "size",
          "type": "int256"
        },
        {
          "indexed": false,
          "internalType": "uint256",
          "name": "entryPrice",
          "type": "uint256"
        },
        {
          "indexed": false,
          "internalType": "uint256",
          "name": "margin",
          "type": "uint256"
        }
      ],
      "name": "PositionOpened",
      "type": "event"
    },
    {
      "inputs": [],
      "name": "BPS_DENOMINATOR",
      "outputs": [
        {
          "internalType": "uint256",
          "name": "",
          "type": "uint256"
        }
      ],
      "stateMutability": "view",
      "type": "function"
    },
    {
      "inputs": [],
      "name": "ONE",
      "outputs": [
        {
          "internalType": "uint256",
          "name": "",
          "type": "uint256"
        }
      ],
      "stateMutability": "view",
      "type": "function"
    },
    {
      "inputs": [
        {
          "internalType": "address",
          "name": "perp",
          "type": "address"
        }
      ],
      "name": "closePosition",
      "outputs": [],
      "stateMutability": "nonpayable",
      "type": "function"
    },
    {
      "inputs": [
        {
          "internalType": "address",
          "name": "",
          "type": "address"
        }
      ],
      "name": "collateralBalance",
      "outputs": [
        {
          "internalType": "uint256",
          "name": "",
          "type": "uint256"
        }
      ],
      "stateMutability": "view",
      "type": "function"
    },
    {
      "inputs": [],
      "name": "collateralToken",
      "outputs": [
        {
          "internalType": "contract IERC20",
          "name": "",
          "type": "address"
        }
      ],
      "stateMutability": "view",
      "type": "function"
    },
    {
      "inputs": [
        {
          "internalType": "address",
          "name": "perp",
          "type": "address"
        },
        {
          "internalType": "bool",
          "name": "isActive",
          "type": "bool"
        },
        {
          "internalType": "uint256",
          "name": "maxLeverageBps",
          "type": "uint256"
        },
        {
          "internalType": "uint256",
          "name": "initialMarginBps",
          "type": "uint256"
        },
        {
          "internalType": "uint256",
          "name": "maintenanceMarginBps",
          "type": "uint256"
        },
        {
          "internalType": "uint256",
          "name": "takerFeeBps",
          "type": "uint256"
        },
        {
          "internalType": "uint256",
          "name": "makerFeeBps",
          "type": "uint256"
        },
        {
          "internalType": "uint256",
          "name": "liquidationFeeBps",
          "type": "uint256"
        }
      ],
      "name": "configureMarket",
      "outputs": [],
      "stateMutability": "nonpayable",
      "type": "function"
    },
    {
      "inputs": [
        {
          "internalType": "uint256",
          "name": "amount",
          "type": "uint256"
        }
      ],
      "name": "depositCollateral",
      "outputs": [],
      "stateMutability": "nonpayable",
      "type": "function"
    },
    {
      "inputs": [
        {
          "internalType": "address",
          "name": "user",
          "type": "address"
        },
        {
          "internalType": "address",
          "name": "perp",
          "type": "address"
        }
      ],
      "name": "forceClosePosition",
      "outputs": [],
      "stateMutability": "nonpayable",
      "type": "function"
    },
    {
      "inputs": [
        {
          "internalType": "address",
          "name": "user",
          "type": "address"
        },
        {
          "internalType": "address",
          "name": "perp",
          "type": "address"
        }
      ],
      "name": "getPosition",
      "outputs": [
        {
          "internalType": "bool",
          "name": "isLong",
          "type": "bool"
        },
        {
          "internalType": "bool",
          "name": "isOpen",
          "type": "bool"
        },
        {
          "internalType": "int256",
          "name": "size",
          "type": "int256"
        },
        {
          "internalType": "uint256",
          "name": "entryPrice",
          "type": "uint256"
        },
        {
          "internalType": "uint256",
          "name": "margin",
          "type": "uint256"
        }
      ],
      "stateMutability": "view",
      "type": "function"
    },
    {
      "inputs": [
        {
          "internalType": "address",
          "name": "user",
          "type": "address"
        },
        {
          "internalType": "address",
          "name": "perp",
          "type": "address"
        }
      ],
      "name": "getPositionState",
      "outputs": [
        {
          "internalType": "int256",
          "name": "pnl",
          "type": "int256"
        },
        {
          "internalType": "uint256",
          "name": "notionalUsd",
          "type": "uint256"
        },
        {
          "internalType": "uint256",
          "name": "equityUsd",
          "type": "uint256"
        },
        {
          "internalType": "bool",
          "name": "canBeLiquidated",
          "type": "bool"
        }
      ],
      "stateMutability": "view",
      "type": "function"
    },
    {
      "inputs": [
        {
          "internalType": "address",
          "name": "",
          "type": "address"
        }
      ],
      "name": "marketConfigs",
      "outputs": [
        {
          "internalType": "bool",
          "name": "isActive",
          "type": "bool"
        },
        {
          "internalType": "uint256",
          "name": "maxLeverageBps",
          "type": "uint256"
        },
        {
          "internalType": "uint256",
          "name": "initialMarginBps",
          "type": "uint256"
        },
        {
          "internalType": "uint256",
          "name": "maintenanceMarginBps",
          "type": "uint256"
        },
        {
          "internalType": "uint256",
          "name": "takerFeeBps",
          "type": "uint256"
        },
        {
          "internalType": "uint256",
          "name": "makerFeeBps",
          "type": "uint256"
        },
        {
          "internalType": "uint256",
          "name": "liquidationFeeBps",
          "type": "uint256"
        }
      ],
      "stateMutability": "view",
      "type": "function"
    },
    {
      "inputs": [
        {
          "internalType": "address",
          "name": "perp",
          "type": "address"
        },
        {
          "internalType": "bool",
          "name": "isLong",
          "type": "bool"
        },
        {
          "internalType": "uint256",
          "name": "marginAmount",
          "type": "uint256"
        },
        {
          "internalType": "uint256",
          "name": "leverageBps",
          "type": "uint256"
        }
      ],
      "name": "openPosition",
      "outputs": [],
      "stateMutability": "nonpayable",
      "type": "function"
    },
    {
      "inputs": [],
      "name": "owner",
      "outputs": [
        {
          "internalType": "address",
          "name": "",
          "type": "address"
        }
      ],
      "stateMutability": "view",
      "type": "function"
    },
    {
      "inputs": [],
      "name": "perpOracle",
      "outputs": [
        {
          "internalType": "contract IPerpOracle",
          "name": "",
          "type": "address"
        }
      ],
      "stateMutability": "view",
      "type": "function"
    },
    {
      "inputs": [
        {
          "internalType": "address",
          "name": "",
          "type": "address"
        },
        {
          "internalType": "address",
          "name": "",
          "type": "address"
        }
      ],
      "name": "positions",
      "outputs": [
        {
          "internalType": "bool",
          "name": "isLong",
          "type": "bool"
        },
        {
          "internalType": "bool",
          "name": "isOpen",
          "type": "bool"
        },
        {
          "internalType": "int256",
          "name": "size",
          "type": "int256"
        },
        {
          "internalType": "uint256",
          "name": "entryPrice",
          "type": "uint256"
        },
        {
          "internalType": "uint256",
          "name": "margin",
          "type": "uint256"
        }
      ],
      "stateMutability": "view",
      "type": "function"
    },
    {
      "inputs": [],
      "name": "protocolBadDebt",
      "outputs": [
        {
          "internalType": "uint256",
          "name": "",
          "type": "uint256"
        }
      ],
      "stateMutability": "view",
      "type": "function"
    },
    {
      "inputs": [],
      "name": "renounceOwnership",
      "outputs": [],
      "stateMutability": "nonpayable",
      "type": "function"
    },
    {
      "inputs": [
        {
          "internalType": "address",
          "name": "newOwner",
          "type": "address"
        }
      ],
      "name": "transferOwnership",
      "outputs": [],
      "stateMutability": "nonpayable",
      "type": "function"
    },
    {
      "inputs": [
        {
          "internalType": "address",
          "name": "",
          "type": "address"
        }
      ],
      "name": "usedCollateral",
      "outputs": [
        {
          "internalType": "uint256",
          "name": "",
          "type": "uint256"
        }
      ],
      "stateMutability": "view",
      "type": "function"
    },
    {
      "inputs": [
        {
          "internalType": "uint256",
          "name": "amount",
          "type": "uint256"
        }
      ],
      "name": "withdrawCollateral",
      "outputs": [],
      "stateMutability": "nonpayable",
      "type": "function"
    }
  ],
  "bytecode": "0x60c03461019857601f6116c338819003918201601f19168301916001600160401b0383118484101761019d57808492604094855283398101031261019857610052602061004b836101b3565b92016101b3565b600160005533156101825760018054336001600160a01b0319821681179092556040519391906001600160a01b03167f8be0079c531659141344cd1fd0a4f28419497f9722a3daafe3b4186f6b6457e0600080a36001600160a01b031691821561014057506001600160a01b031690811561010a5760805260a0526040516114fb90816101c8823960805181818161069001526107b1015260a0518181816102d001528181610d7e01528181610f9a01526111980152f35b60405162461bcd60e51b815260206004820152600e60248201526d496e76616c6964206f7261636c6560901b6044820152606490fd5b62461bcd60e51b815260206004820152601860248201527f496e76616c696420636f6c6c61746572616c20746f6b656e00000000000000006044820152606490fd5b631e4fbdf760e01b600052600060045260246000fd5b600080fd5b634e487b7160e01b600052604160045260246000fd5b51906001600160a01b03821682036101985756fe608080604052600436101561001357600080fd5b60003560e01c9081630772d1c114610d6b575080632f86e2dd14610d415780634bd2144514610ca95780635b81aa6914610c8b5780636056527f14610bfb5780636112fe2e14610ae6578063715018a614610a895780637690ef09146108c35780638da5cb5b1461089a57806390f20d15146108605780639822bcc01461081a578063a1bf2840146107e0578063b2016bd41461079b578063b33dc19014610702578063bad4a01f14610633578063c2ee3a0814610610578063cf83fad8146105cf578063dba0ae3a146101a7578063e1a452181461018a5763f2fde38b146100fb57600080fd5b3461018557602036600319011261018557610114610dad565b61011c611379565b6001600160a01b0316801561016f57600180546001600160a01b0319811683179091556001600160a01b03167f8be0079c531659141344cd1fd0a4f28419497f9722a3daafe3b4186f6b6457e0600080a3005b631e4fbdf760e01b600052600060045260246000fd5b600080fd5b346101855760003660031901126101855760206040516127108152f35b34610185576080366003190112610185576101c0610dad565b6101c8610dd9565b604435606435926101d7611115565b60018060a01b03169283600052600260205260406000206040516101fa81610e75565b60ff82541615908115815260c0600660018501549460208401958652600281015460408501526003810154606085015260048101546080850152600581015460a0850152015491015261059657821561055c57610261908215159081610550575b50610e36565b3360005260036020526040806000206000908682526020522060ff815460081c16610513573360005260046020526102ad60406000205433600052600560205260406000205490610e29565b83116104ce5760405163175be70560e21b815260048101869052916020836024817f00000000000000000000000000000000000000000000000000000000000000006001600160a01b03165afa9283156104c257600093610489575b506103176127109185610f1e565b04801561044f57670de0b6b3a76400008102908104670de0b6b3a7640000036104395760008315610425575082900480156103ef5760038491866000146103e057925b805461ffff191687151560ff161761010017815560018101849055600281018590550155336000908152600560205260409020805461039a9085906110f7565b905560405193151584526020840152604083015260608201527ffb4b82dd31dac2694b7e7424fd36b5553b13677303dc25512ffb5838f3a59aa660803392a36001600055005b6103e990611104565b9261035a565b60405162461bcd60e51b815260206004820152600e60248201526d14da5e99481d1bdbc81cdb585b1b60921b6044820152606490fd5b634e487b7160e01b81526012600452602490fd5b634e487b7160e01b600052601160045260246000fd5b60405162461bcd60e51b8152602060048201526012602482015271139bdd1a5bdb985b081d1bdbc81cdb585b1b60721b6044820152606490fd5b90926020823d6020116104ba575b816104a460209383610ea7565b810103126104b757505191610317610309565b80fd5b3d9150610497565b6040513d6000823e3d90fd5b60405162461bcd60e51b815260206004820152601760248201527f496e73756666696369656e7420636f6c6c61746572616c0000000000000000006044820152606490fd5b60405162461bcd60e51b81526020600482015260156024820152742837b9b4ba34b7b71030b63932b0b23c9037b832b760591b6044820152606490fd5b9050518211158661025b565b60405162461bcd60e51b815260206004820152601260248201527104d617267696e206d757374206265203e20360741b6044820152606490fd5b60405162461bcd60e51b81526020600482015260116024820152704d61726b6574206e6f742061637469766560781b6044820152606490fd5b34610185576040366003190112610185576106096105eb610dad565b6105f3610dc3565b906105fc611379565b610604611115565b611137565b6001600055005b34610185576000366003190112610185576020604051670de0b6b3a76400008152f35b346101855760203660031901126101855760043561064f611115565b61065a811515610de8565b6106b46040516323b872dd60e01b60208201523360248201523060448201528260648201526064815261068e608482610ea7565b7f000000000000000000000000000000000000000000000000000000000000000061146a565b33600052600460205260406000206106cd8282546110f7565b90556040519081527fd7243f6f8212d5188fd054141cf6ea89cfc0d91facb8c3afe2f88a135848014260203392a26001600055005b346101855760403660031901126101855761071b610dad565b610723610dc3565b9060018060a01b0316600052600360205260406000209060018060a01b03166000526020526107556040600020610ec9565b8051602080830151604080850151606080870151608097880151845197151588529415159587019590955291850152830191909152918101919091528060a081015b0390f35b34610185576000366003190112610185576040517f00000000000000000000000000000000000000000000000000000000000000006001600160a01b03168152602090f35b34610185576020366003190112610185576001600160a01b03610801610dad565b1660005260046020526020604060002054604051908152f35b34610185576040366003190112610185576080610846610838610dad565b610840610dc3565b90610f31565b916040519384526020840152604083015215156060820152f35b34610185576020366003190112610185576001600160a01b03610881610dad565b1660005260056020526020604060002054604051908152f35b34610185576000366003190112610185576001546040516001600160a01b039091168152602090f35b3461018557610100366003190112610185576108dd610dad565b6108e5610dd9565b604435606435916084359260a4359460c43560e43591610903611379565b6001600160a01b0316968715610a4d5761091e861515610e36565b838711610a10577f01c8ff52feac2151a8a7e42c99f35c16e631d31b1f0599529cd71d465052079096610a0b9460405161095781610e75565b871515815260068b602083018b81526040840185815260608501878152608086019189835260a08701938b855260c08801958d875260005260026020526109b2604060002098511515899060ff801983541691151516179055565b516001880155516002870155516003860155516004850155516005840155519101556040519788978893909796959260c0959260e086019915158652602086015260408501526060840152608083015260a08201520152565b0390a2005b60405162461bcd60e51b815260206004820152601560248201527413585a5b9d195b985b98d9480f881a5b9a5d1a585b605a1b6044820152606490fd5b60405162461bcd60e51b8152602060048201526014602482015273496e76616c69642070657270206164647265737360601b6044820152606490fd5b3461018557600036600319011261018557610aa2611379565b600180546001600160a01b031981169091556000906001600160a01b03167f8be0079c531659141344cd1fd0a4f28419497f9722a3daafe3b4186f6b6457e08280a3005b3461018557602036600319011261018557600435610b02611115565b610b0d811515610de8565b336000526004602052610b3460406000205433600052600560205260406000205490610e29565b8111610bb6573360005260046020526040600020610b53828254610e29565b9055610b8360405163a9059cbb60e01b60208201523360248201528260448201526044815261068e606482610ea7565b6040519081527fc30fcfbcaac9e0deffa719714eaa82396ff506a0d0d0eebe170830177288715d60203392a26001600055005b60405162461bcd60e51b815260206004820152601c60248201527f496e73756666696369656e74206672656520636f6c6c61746572616c000000006044820152606490fd5b34610185576020366003190112610185576001600160a01b03610c1c610dad565b166000526002602052604060002060ff815416610797600183015492600281015490600381015460048201549060066005840154930154936040519788978893909796959260c0959260e086019915158652602086015260408501526060840152608083015260a08201520152565b34610185576000366003190112610185576020600654604051908152f35b34610185576040366003190112610185576040610cc4610dad565b610ccc610dc3565b9060018060a01b031660005260036020528160002060009160018060a01b031682526020522080546107976001830154926003600282015491015490604051948460ff80889760081c169116869192608093969594919660a08401971515845215156020840152604083015260608201520152565b3461018557602036600319011261018557610609610d5d610dad565b610d65611115565b33611137565b34610185576000366003190112610185577f00000000000000000000000000000000000000000000000000000000000000006001600160a01b03168152602090f35b600435906001600160a01b038216820361018557565b602435906001600160a01b038216820361018557565b60243590811515820361018557565b15610def57565b60405162461bcd60e51b81526020600482015260126024820152710416d6f756e74206d757374206265203e20360741b6044820152606490fd5b9190820391821161043957565b15610e3d57565b60405162461bcd60e51b815260206004820152601060248201526f496e76616c6964206c6576657261676560801b6044820152606490fd5b60e0810190811067ffffffffffffffff821117610e9157604052565b634e487b7160e01b600052604160045260246000fd5b90601f8019910116810190811067ffffffffffffffff821117610e9157604052565b9060405160a0810181811067ffffffffffffffff821117610e915760405260806003829460ff81548181161515865260081c161515602085015260018101546040850152600281015460608501520154910152565b8181029291811591840414171561043957565b6001600160a01b039081166000908152600360209081526040808320938516835292905220610f5f90610ec9565b916020830151156110ea5760405163175be70560e21b81526001600160a01b03928316600482018190529092909190602090849060249082907f0000000000000000000000000000000000000000000000000000000000000000165afa9283156104c2576000936110b6575b506080610fe2610fdb85876113a2565b9486611416565b9401518381019060008583129112908015821691151617610439576000808213156110ae5750925b6000926000526002602052604060002060405161102681610e75565b60ff82541615158152600182015460208201526002820154604082015260c0600660038401549384606085015260048101546080850152600581015460a08501520154910152801515806110a5575b611081575b5093929190565b61108e6127109187610f1e565b04841061109c575b3861107a565b60019250611096565b50851515611075565b90509261100a565b90926020823d6020116110e2575b816110d160209383610ea7565b810103126104b75750519138610fcb565b3d91506110c4565b6000925082915081908190565b9190820180921161043957565b600160ff1b81146104395760000390565b600260005414611126576002600055565b633ee5aeb560e01b60005260046000fd5b6001600160a01b039081166000818152600360209081526040808320948616835293905291909120805460081c60ff16156113415760405163175be70560e21b81526001600160a01b039384166004820181905293602090829060249082907f0000000000000000000000000000000000000000000000000000000000000000165afa9081156104c2576000916112ef575b50808261120160a0936111fc7f9d927bf842732ad23e1f067f26526adb8c09e939a7542cd6cad388b0128225d396610ec9565b6113a2565b60038201928354928760005260056020526040600020611222858254610e29565b9055600083126112855787600052600460205260406000206112458482546110f7565b90555b600060018201958187549781600286019182549661ffff1981541690555555556040519485526020850152604084015260608301526080820152a3565b61128e83611104565b600089815260046020526040902054908181106112d2576112ba916112b291610e29565b6006546110f7565b60065587600052600460205260006040812055611248565b6112db91610e29565b886000526004602052604060002055611248565b906020823d602011611339575b8161130960209383610ea7565b810103126104b75750517f9d927bf842732ad23e1f067f26526adb8c09e939a7542cd6cad388b0128225d36111c9565b3d91506112fc565b60405162461bcd60e51b815260206004820152601060248201526f27379037b832b7103837b9b4ba34b7b760811b6044820152606490fd5b6001546001600160a01b0316330361138d57565b63118cdaa760e01b6000523360045260246000fd5b90602082015115801561140a575b61140357606082015180820392600082128385128116908486139015161761043957604001518381029360008112600160ff1b831416610439578405149114171561043957670de0b6b3a7640000900590565b5050600090565b506040820151156113b0565b602081015115801561145e575b611403576040018051670de0b6b3a76400009261144b9290916000811261144f575051610f1e565b0490565b6114599150611104565b610f1e565b50604081015115611423565b906000602091828151910182855af1156104c2576000513d6114bc57506001600160a01b0381163b155b61149b5750565b635274afe760e01b60009081526001600160a01b0391909116600452602490fd5b6001141561149456fea26469706673582212205c32a492b8a773f4d3e5bc7e09f7b2130acd422087dff54f179035bb1d72a4d564736f6c634300081b0033",
  "linkReferences": {},
  "deployedLinkReferences": {}
}