{
  "_format": "hh-sol-artifact-1",
  "contractName": "PerpOracle",
  "sourceName": "contracts/PerpOracle.sol",
  "abi": [
    {
      "inputs": [],
      "stateMutability": "nonpayable",
      "type": "constructor"
    },
    {
      "inputs": [
        {
          "internalType": "address",
          "name": "owner",
          "type": "address"
        }
      ],
      "name": "OwnableInvalidOwner",
      "type": "error"
    },
    {
      "inputs": [
        {
          "internalType": "address",
          "name": "account",
          "type": "address"
        }
      ],
      "name": "OwnableUnauthorizedAccount",
      "type": "error"
    },
    {
      "anonymous": false,
      "inputs": [
        {
          "indexed": true,
          "internalType": "address",
          "name": "previousOwner",
          "type": "address"
        },
        {
          "indexed": true,
          "internalType": "address",
          "name": "newOwner",
          "type": "address"
        }
      ],
      "name": "OwnershipTransferred",
      "type": "event"
    },
    {
      "anonymous": false,
      "inputs": [
        {
          "indexed": true,
          "internalType": "address",
          "name": "perp",
          "type": "address"
        },
        {
          "indexed": false,
          "internalType": "uint256",
          "name": "indexPrice",
          "type": "uint256"
        },
        {
          "indexed": false,
          "internalType": "uint256",
          "name": "markPrice",
          "type": "uint256"
        },
        {
          "indexed": false,
          "internalType": "int256",
          "name": "sumUnitaryFunding",
          "type": "int256"
        },
        {
          "indexed": false,
          "internalType": "int256",
          "name": "estFundingRate",
          "type": "int256"
        },
        {
          "indexed": false,
          "internalType": "int256",
          "name": "lastFundingRate",
          "type": "int256"
        },
        {
          "indexed": false,
          "internalType": "uint256",
          "name": "nextFundingTime",
          "type": "uint256"
        },
        {
          "indexed": false,
          "internalType": "uint256",
          "name": "timestamp",
          "type": "uint256"
        }
      ],
      "name": "PerpMarketUpdated",
      "type": "event"
    },
    {
      "anonymous": false,
      "inputs": [
        {
          "indexed": false,
          "internalType": "uint256",
          "name": "count",
          "type": "uint256"
        },
        {
          "indexed": false,
          "internalType": "uint256",
          "name": "timestamp",
          "type": "uint256"
        }
      ],
      "name": "PerpMarketsBatchUpdated",
      "type": "event"
    },
    {
      "inputs": [],
      "name": "FUNDING_DECIMALS",
      "outputs": [
        {
          "internalType": "uint8",
          "name": "",
          "type": "uint8"
        }
      ],
      "stateMutability": "view",
      "type": "function"
    },
    {
      "inputs": [],
      "name": "PRICE_DECIMALS",
      "outputs": [
        {
          "internalType": "uint8",
          "name": "",
          "type": "uint8"
        }
      ],
      "stateMutability": "view",
      "type": "function"
    },
    {
      "inputs": [
        {
          "internalType": "address",
          "name": "perp",
          "type": "address"
        }
      ],
      "name": "getIndexPrice",
      "outputs": [
        {
          "internalType": "uint256",
          "name": "",
          "type": "uint256"
        }
      ],
      "stateMutability": "view",
      "type": "function"
    },
    {
      "inputs": [
        {
          "internalType": "address",
          "name": "perp",
          "type": "address"
        }
      ],
      "name": "getMarkPrice",
      "outputs": [
        {
          "internalType": "uint256",
          "name": "",
          "type": "uint256"
        }
      ],
      "stateMutability": "view",
      "type": "function"
    },
    {
      "inputs": [
        {
          "internalType": "address",
          "name": "perp",
          "type": "address"
        }
      ],
      "name": "getPerpData",
      "outputs": [
        {
          "internalType": "uint256",
          "name": "indexPrice",
          "type": "uint256"
        },
        {
          "internalType": "uint256",
          "name": "markPrice",
          "type": "uint256"
        },
        {
          "internalType": "int256",
          "name": "sumUnitaryFunding",
          "type": "int256"
        },
        {
          "internalType": "int256",
          "name": "estFundingRate",
          "type": "int256"
        },
        {
          "internalType": "int256",
          "name": "lastFundingRate",
          "type": "int256"
        },
        {
          "internalType": "uint256",
          "name": "nextFundingTime",
          "type": "uint256"
        },
        {
          "internalType": "uint256",
          "name": "lastUpdated",
          "type": "uint256"
        }
      ],
      "stateMutability": "view",
      "type": "function"
    },
    {
      "inputs": [
        {
          "internalType": "address",
          "name": "perp",
          "type": "address"
        }
      ],
      "name": "hasPerpData",
      "outputs": [
        {
          "internalType": "bool",
          "name": "",
          "type": "bool"
        }
      ],
      "stateMutability": "view",
      "type": "function"
    },
    {
      "inputs": [],
      "name": "owner",
      "outputs": [
        {
          "internalType": "address",
          "name": "",
          "type": "address"
        }
      ],
      "stateMutability": "view",
      "type": "function"
    },
    {
      "inputs": [],
      "name": "renounceOwnership",
      "outputs": [],
      "stateMutability": "nonpayable",
      "type": "function"
    },
    {
      "inputs": [
        {
          "internalType": "address",
          "name": "newOwner",
          "type": "address"
        }
      ],
      "name": "transferOwnership",
      "outputs": [],
      "stateMutability": "nonpayable",
      "type": "function"
    },
    {
      "inputs": [
        {
          "internalType": "address[]",
          "name": "perps",
          "type": "address[]"
        },
        {
          "internalType": "int256[]",
          "name": "sumUnitaryFundings",
          "type": "int256[]"
        },
        {
          "internalType": "int256[]",
          "name": "estFundingRates",
          "type": "int256[]"
        },
        {
          "internalType": "int256[]",
          "name": "lastFundingRates",
          "type": "int256[]"
        },
        {
          "internalType": "uint256[]",
          "name": "nextFundingTimes",
          "type": "uint256[]"
        }
      ],
      "name": "updatePerpFunding",
      "outputs": [],
      "stateMutability": "nonpayable",
      "type": "function"
    },
    {
      "inputs": [
        {
          "internalType": "address",
          "name": "perp",
          "type": "address"
        },
        {
          "internalType": "uint256",
          "name": "indexPrice",
          "type": "uint256"
        },
        {
          "internalType": "uint256",
          "name": "markPrice",
          "type": "uint256"
        },
        {
          "internalType": "int256",
          "name": "sumUnitaryFunding",
          "type": "int256"
        },
        {
          "internalType": "int256",
          "name": "estFundingRate",
          "type": "int256"
        },
        {
          "internalType": "int256",
          "name": "lastFundingRate",
          "type": "int256"
        },
        {
          "internalType": "uint256",
          "name": "nextFundingTime",
          "type": "uint256"
        }
      ],
      "name": "updatePerpMarket",
      "outputs": [],
      "stateMutability": "nonpayable",
      "type": "function"
    },
    {
      "inputs": [
        {
          "internalType": "address[]",
          "name": "perps",
          "type": "address[]"
        },
        {
          "internalType": "uint256[]",
          "name": "indexPrices",
          "type": "uint256[]"
        },
        {
          "internalType": "uint256[]",
          "name": "markPrices",
          "type": "uint256[]"
        }
      ],
      "name": "updatePerpPrices",
      "outputs": [],
      "stateMutability": "nonpayable",
      "type": "function"
    }
  ],
  "bytecode": "0x608080604052346075573315605f5760008054336001600160a01b0319821681178355916001600160a01b03909116907f8be0079c531659141344cd1fd0a4f28419497f9722a3daafe3b4186f6b6457e09080a3610b20908161007b8239f35b631e4fbdf760e01b600052600060045260246000fd5b600080fdfe6080604052600436101561001257600080fd5b60003560e01c8063289fe2341461072657806330d585b01461051b57806340999de2146104dc5780635012eedc146103f35780635d6f9c14146103b3578063715018a61461035a5780638da5cb5b1461033157806398f9f3ee1461012e578063b263e010146102ec578063c58a375614610133578063f1a640f81461012e5763f2fde38b146100a057600080fd5b34610129576020366003190112610129576100b961082c565b6100c1610ac1565b6001600160a01b0316801561011357600080546001600160a01b03198116831782556001600160a01b0316907f8be0079c531659141344cd1fd0a4f28419497f9722a3daafe3b4186f6b6457e09080a3005b631e4fbdf760e01b600052600060045260246000fd5b600080fd5b6108a1565b346101295760603660031901126101295760043567ffffffffffffffff811161012957610164903690600401610842565b9060243567ffffffffffffffff811161012957610185903690600401610842565b9060443567ffffffffffffffff8111610129576101a6903690600401610842565b6101ae610ac1565b838614806102e3575b6101c0906109c7565b6101cb861515610a0b565b60005b868110610207577f40bfd8ac3755b4946b5551dcf93248663b34de94cfd69be716468d8d5f1528176040888151908152426020820152a1005b6001906001600160a01b03610225610220838b8b610a46565b610a6c565b166102318115156108bd565b61024761023f838989610a46565b351515610900565b61025d610255838688610a46565b35151561094c565b80600052826020527fa0545f999327b2305baba95b9b47e44833bc9b634f26ae1563c843ee81bf36df6040600020610296848a8a610a46565b358082556102da6102a886898b610a46565b359182888501554260068501556002840154936003810154906005600482015491015491604051968796429588610873565b0390a2016101ce565b508581146101b7565b34610129576020366003190112610129576001600160a01b0361030d61082c565b1660005260016020526020604060002054610329811515610a80565b604051908152f35b34610129576000366003190112610129576000546040516001600160a01b039091168152602090f35b3461012957600036600319011261012957610373610ac1565b600080546001600160a01b0319811682556001600160a01b03167f8be0079c531659141344cd1fd0a4f28419497f9722a3daafe3b4186f6b6457e08280a3005b34610129576020366003190112610129576001600160a01b036103d461082c565b1660005260016020526020600160406000200154610329811515610a80565b34610129576020366003190112610129576001600160a01b0361041461082c565b166000526001602052604060002061042a610991565b908054825260018101549160208101918383526002810154936040830194855260038201549160608401928352600481015460808501908152600660058301549260a0870193845201549260c08601938452156104a35761049f94519551965193519051915192519360405197889788610873565b0390f35b60405162461bcd60e51b815260206004820152601160248201527014195c9c0819185d18481b9bdd081cd95d607a1b6044820152606490fd5b34610129576020366003190112610129576001600160a01b036104fd61082c565b16600052600160205260206001604060002001541515604051908152f35b346101295760a03660031901126101295760043567ffffffffffffffff81116101295761054c903690600401610842565b9060243567ffffffffffffffff81116101295761056d903690600401610842565b60443567ffffffffffffffff81116101295761058d903690600401610842565b909160643567ffffffffffffffff8111610129576105af903690600401610842565b9360843567ffffffffffffffff8111610129576105d0903690600401610842565b9290916105db610ac1565b848a148061071d575b80610714575b8061070b575b6105f9906109c7565b6106048a1515610a0b565b60005b8a8110610640577f40bfd8ac3755b4946b5551dcf93248663b34de94cfd69be716468d8d5f15281760408c8151908152426020820152a1005b6001600160a01b03610653828d8d610a46565b61065c90610a6c565b166106688115156108bd565b806000526001602052604060002061068183898d610a46565b35806002830155610693848b87610a46565b35918260038201556106a6858d89610a46565b358060048301556106b8868b8b610a46565b35806005840155426006840155825492600101549160405195869542946106df9688610873565b037fa0545f999327b2305baba95b9b47e44833bc9b634f26ae1563c843ee81bf36df91a2600101610607565b508984146105f0565b50868a146105ea565b50858a146105e4565b346101295760e03660031901126101295761073f61082c565b7fa0545f999327b2305baba95b9b47e44833bc9b634f26ae1563c843ee81bf36df602435604435610827606435926084359560a43560c43591610780610ac1565b6001600160a01b0316976107958915156108bd565b6107a0841515610900565b6107ab86151561094c565b6107b3610991565b84815260068a60208301898152604084018b815260608501868152608086019188835260a08701938a855260c0880195428752600052600160205260406000209751885551600188015551600287015551600386015551600485015551600584015551910155604051968796429588610873565b0390a2005b600435906001600160a01b038216820361012957565b9181601f840112156101295782359167ffffffffffffffff8311610129576020808501948460051b01011161012957565b93909796959260c0959260e08601998652602086015260408501526060840152608083015260a08201520152565b3461012957600036600319011261012957602060405160128152f35b156108c457565b60405162461bcd60e51b8152602060048201526014602482015273496e76616c69642070657270206164647265737360601b6044820152606490fd5b1561090757565b60405162461bcd60e51b815260206004820152601760248201527f496e646578207072696365206d757374206265203e20300000000000000000006044820152606490fd5b1561095357565b60405162461bcd60e51b815260206004820152601660248201527504d61726b207072696365206d757374206265203e20360541b6044820152606490fd5b6040519060e0820182811067ffffffffffffffff8211176109b157604052565b634e487b7160e01b600052604160045260246000fd5b156109ce57565b60405162461bcd60e51b8152602060048201526015602482015274082e4e4c2f240d8cadccee8d040dad2e6dac2e8c6d605b1b6044820152606490fd5b15610a1257565b60405162461bcd60e51b815260206004820152600c60248201526b456d7074792061727261797360a01b6044820152606490fd5b9190811015610a565760051b0190565b634e487b7160e01b600052603260045260246000fd5b356001600160a01b03811681036101295790565b15610a8757565b60405162461bcd60e51b815260206004820152601260248201527114195c9c081c1c9a58d9481b9bdd081cd95d60721b6044820152606490fd5b6000546001600160a01b03163303610ad557565b63118cdaa760e01b6000523360045260246000fdfea2646970667358221220e5038294099bef99dcdfdcb82e96c4e52f27477b7f49f30300fb3abae6991d8164736f6c634300081b0033",
  "linkReferences": {},
  "deployedLinkReferences": {}
}