{
  "_format": "hh-sol-artifact-1",
  "contractName": "HybridDEX",
  "sourceName": "contracts/HybridDEX.sol",
  "abi": [
    {
      "inputs": [
        {
          "internalType": "address",
          "name": "_usdc",
          "type": "address"
        },
        {
          "internalType": "address",
          "name": "_feeCollector",
          "type": "address"
        }
      ],
      "stateMutability": "nonpayable",
      "type": "constructor"
    },
    {
      "inputs": [
        {
          "internalType": "address",
          "name": "owner",
          "type": "address"
        }
      ],
      "name": "OwnableInvalidOwner",
      "type": "error"
    },
    {
      "inputs": [
        {
          "internalType": "address",
          "name": "account",
          "type": "address"
        }
      ],
      "name": "OwnableUnauthorizedAccount",
      "type": "error"
    },
    {
      "inputs": [],
      "name": "ReentrancyGuardReentrantCall",
      "type": "error"
    },
    {
      "inputs": [
        {
          "internalType": "address",
          "name": "token",
          "type": "address"
        }
      ],
      "name": "SafeERC20FailedOperation",
      "type": "error"
    },
    {
      "anonymous": false,
      "inputs": [
        {
          "indexed": true,
          "internalType": "address",
          "name": "provider",
          "type": "address"
        },
        {
          "indexed": false,
          "internalType": "uint256",
          "name": "usdcAmount",
          "type": "uint256"
        },
        {
          "indexed": false,
          "internalType": "uint256",
          "name": "paxAmount",
          "type": "uint256"
        },
        {
          "indexed": false,
          "internalType": "uint256",
          "name": "liquidity",
          "type": "uint256"
        }
      ],
      "name": "LiquidityAdded",
      "type": "event"
    },
    {
      "anonymous": false,
      "inputs": [
        {
          "indexed": true,
          "internalType": "address",
          "name": "provider",
          "type": "address"
        },
        {
          "indexed": false,
          "internalType": "uint256",
          "name": "usdcAmount",
          "type": "uint256"
        },
        {
          "indexed": false,
          "internalType": "uint256",
          "name": "paxAmount",
          "type": "uint256"
        },
        {
          "indexed": false,
          "internalType": "uint256",
          "name": "liquidity",
          "type": "uint256"
        }
      ],
      "name": "LiquidityRemoved",
      "type": "event"
    },
    {
      "anonymous": false,
      "inputs": [
        {
          "indexed": true,
          "internalType": "uint256",
          "name": "orderId",
          "type": "uint256"
        }
      ],
      "name": "OrderCancelled",
      "type": "event"
    },
    {
      "anonymous": false,
      "inputs": [
        {
          "indexed": true,
          "internalType": "uint256",
          "name": "orderId",
          "type": "uint256"
        },
        {
          "indexed": false,
          "internalType": "uint256",
          "name": "filledAmount",
          "type": "uint256"
        },
        {
          "indexed": false,
          "internalType": "uint256",
          "name": "remainingAmount",
          "type": "uint256"
        }
      ],
      "name": "OrderFilled",
      "type": "event"
    },
    {
      "anonymous": false,
      "inputs": [
        {
          "indexed": true,
          "internalType": "uint256",
          "name": "orderId",
          "type": "uint256"
        },
        {
          "indexed": true,
          "internalType": "address",
          "name": "trader",
          "type": "address"
        },
        {
          "indexed": false,
          "internalType": "enum HybridDEX.OrderType",
          "name": "orderType",
          "type": "uint8"
        },
        {
          "indexed": false,
          "internalType": "uint256",
          "name": "price",
          "type": "uint256"
        },
        {
          "indexed": false,
          "internalType": "uint256",
          "name": "amount",
          "type": "uint256"
        }
      ],
      "name": "OrderPlaced",
      "type": "event"
    },
    {
      "anonymous": false,
      "inputs": [
        {
          "indexed": true,
          "internalType": "address",
          "name": "previousOwner",
          "type": "address"
        },
        {
          "indexed": true,
          "internalType": "address",
          "name": "newOwner",
          "type": "address"
        }
      ],
      "name": "OwnershipTransferred",
      "type": "event"
    },
    {
      "anonymous": false,
      "inputs": [
        {
          "indexed": false,
          "internalType": "uint256",
          "name": "newPrice",
          "type": "uint256"
        }
      ],
      "name": "PriceUpdated",
      "type": "event"
    },
    {
      "anonymous": false,
      "inputs": [
        {
          "indexed": true,
          "internalType": "address",
          "name": "trader",
          "type": "address"
        },
        {
          "indexed": false,
          "internalType": "bool",
          "name": "buyPAX",
          "type": "bool"
        },
        {
          "indexed": false,
          "internalType": "uint256",
          "name": "amountIn",
          "type": "uint256"
        },
        {
          "indexed": false,
          "internalType": "uint256",
          "name": "amountOut",
          "type": "uint256"
        },
        {
          "indexed": false,
          "internalType": "uint256",
          "name": "fee",
          "type": "uint256"
        }
      ],
      "name": "SwapExecuted",
      "type": "event"
    },
    {
      "inputs": [],
      "name": "FEE_DENOMINATOR",
      "outputs": [
        {
          "internalType": "uint256",
          "name": "",
          "type": "uint256"
        }
      ],
      "stateMutability": "view",
      "type": "function"
    },
    {
      "inputs": [],
      "name": "USDC",
      "outputs": [
        {
          "internalType": "contract IERC20",
          "name": "",
          "type": "address"
        }
      ],
      "stateMutability": "view",
      "type": "function"
    },
    {
      "inputs": [
        {
          "internalType": "uint256",
          "name": "usdcAmount",
          "type": "uint256"
        }
      ],
      "name": "addLiquidity",
      "outputs": [
        {
          "internalType": "uint256",
          "name": "liquidity",
          "type": "uint256"
        }
      ],
      "stateMutability": "payable",
      "type": "function"
    },
    {
      "inputs": [
        {
          "internalType": "uint256",
          "name": "",
          "type": "uint256"
        }
      ],
      "name": "buyOrderIds",
      "outputs": [
        {
          "internalType": "uint256",
          "name": "",
          "type": "uint256"
        }
      ],
      "stateMutability": "view",
      "type": "function"
    },
    {
      "inputs": [
        {
          "internalType": "uint256",
          "name": "orderId",
          "type": "uint256"
        }
      ],
      "name": "cancelOrder",
      "outputs": [],
      "stateMutability": "nonpayable",
      "type": "function"
    },
    {
      "inputs": [],
      "name": "collectFees",
      "outputs": [],
      "stateMutability": "nonpayable",
      "type": "function"
    },
    {
      "inputs": [],
      "name": "collectedFeesPAX",
      "outputs": [
        {
          "internalType": "uint256",
          "name": "",
          "type": "uint256"
        }
      ],
      "stateMutability": "view",
      "type": "function"
    },
    {
      "inputs": [],
      "name": "collectedFeesUSDC",
      "outputs": [
        {
          "internalType": "uint256",
          "name": "",
          "type": "uint256"
        }
      ],
      "stateMutability": "view",
      "type": "function"
    },
    {
      "inputs": [],
      "name": "feeCollector",
      "outputs": [
        {
          "internalType": "address",
          "name": "",
          "type": "address"
        }
      ],
      "stateMutability": "view",
      "type": "function"
    },
    {
      "inputs": [],
      "name": "getAMMPrice",
      "outputs": [
        {
          "internalType": "uint256",
          "name": "",
          "type": "uint256"
        }
      ],
      "stateMutability": "view",
      "type": "function"
    },
    {
      "inputs": [
        {
          "internalType": "uint256",
          "name": "depth",
          "type": "uint256"
        }
      ],
      "name": "getOrderBook",
      "outputs": [
        {
          "internalType": "uint256[]",
          "name": "buyPrices",
          "type": "uint256[]"
        },
        {
          "internalType": "uint256[]",
          "name": "buyAmounts",
          "type": "uint256[]"
        },
        {
          "internalType": "uint256[]",
          "name": "sellPrices",
          "type": "uint256[]"
        },
        {
          "internalType": "uint256[]",
          "name": "sellAmounts",
          "type": "uint256[]"
        }
      ],
      "stateMutability": "view",
      "type": "function"
    },
    {
      "inputs": [
        {
          "internalType": "address",
          "name": "user",
          "type": "address"
        }
      ],
      "name": "getUserOrders",
      "outputs": [
        {
          "internalType": "uint256[]",
          "name": "",
          "type": "uint256[]"
        }
      ],
      "stateMutability": "view",
      "type": "function"
    },
    {
      "inputs": [],
      "name": "lastPrice",
      "outputs": [
        {
          "internalType": "uint256",
          "name": "",
          "type": "uint256"
        }
      ],
      "stateMutability": "view",
      "type": "function"
    },
    {
      "inputs": [
        {
          "internalType": "address",
          "name": "",
          "type": "address"
        }
      ],
      "name": "liquidityBalances",
      "outputs": [
        {
          "internalType": "uint256",
          "name": "",
          "type": "uint256"
        }
      ],
      "stateMutability": "view",
      "type": "function"
    },
    {
      "inputs": [],
      "name": "makerFee",
      "outputs": [
        {
          "internalType": "uint256",
          "name": "",
          "type": "uint256"
        }
      ],
      "stateMutability": "view",
      "type": "function"
    },
    {
      "inputs": [],
      "name": "maxPriceDeviation",
      "outputs": [
        {
          "internalType": "uint256",
          "name": "",
          "type": "uint256"
        }
      ],
      "stateMutability": "view",
      "type": "function"
    },
    {
      "inputs": [],
      "name": "minTradeAmount",
      "outputs": [
        {
          "internalType": "uint256",
          "name": "",
          "type": "uint256"
        }
      ],
      "stateMutability": "view",
      "type": "function"
    },
    {
      "inputs": [
        {
          "internalType": "uint256",
          "name": "",
          "type": "uint256"
        }
      ],
      "name": "orders",
      "outputs": [
        {
          "internalType": "uint256",
          "name": "orderId",
          "type": "uint256"
        },
        {
          "internalType": "address",
          "name": "trader",
          "type": "address"
        },
        {
          "internalType": "enum HybridDEX.OrderType",
          "name": "orderType",
          "type": "uint8"
        },
        {
          "internalType": "uint256",
          "name": "price",
          "type": "uint256"
        },
        {
          "internalType": "uint256",
          "name": "amount",
          "type": "uint256"
        },
        {
          "internalType": "uint256",
          "name": "filledAmount",
          "type": "uint256"
        },
        {
          "internalType": "enum HybridDEX.OrderStatus",
          "name": "status",
          "type": "uint8"
        },
        {
          "internalType": "uint256",
          "name": "timestamp",
          "type": "uint256"
        }
      ],
      "stateMutability": "view",
      "type": "function"
    },
    {
      "inputs": [],
      "name": "owner",
      "outputs": [
        {
          "internalType": "address",
          "name": "",
          "type": "address"
        }
      ],
      "stateMutability": "view",
      "type": "function"
    },
    {
      "inputs": [
        {
          "internalType": "uint256",
          "name": "price",
          "type": "uint256"
        },
        {
          "internalType": "uint256",
          "name": "amount",
          "type": "uint256"
        }
      ],
      "name": "placeBuyOrder",
      "outputs": [
        {
          "internalType": "uint256",
          "name": "orderId",
          "type": "uint256"
        }
      ],
      "stateMutability": "nonpayable",
      "type": "function"
    },
    {
      "inputs": [
        {
          "internalType": "uint256",
          "name": "price",
          "type": "uint256"
        },
        {
          "internalType": "uint256",
          "name": "amount",
          "type": "uint256"
        }
      ],
      "name": "placeSellOrder",
      "outputs": [
        {
          "internalType": "uint256",
          "name": "orderId",
          "type": "uint256"
        }
      ],
      "stateMutability": "payable",
      "type": "function"
    },
    {
      "inputs": [
        {
          "internalType": "uint256",
          "name": "liquidity",
          "type": "uint256"
        }
      ],
      "name": "removeLiquidity",
      "outputs": [
        {
          "internalType": "uint256",
          "name": "usdcAmount",
          "type": "uint256"
        },
        {
          "internalType": "uint256",
          "name": "paxAmount",
          "type": "uint256"
        }
      ],
      "stateMutability": "nonpayable",
      "type": "function"
    },
    {
      "inputs": [],
      "name": "renounceOwnership",
      "outputs": [],
      "stateMutability": "nonpayable",
      "type": "function"
    },
    {
      "inputs": [],
      "name": "reservePAX",
      "outputs": [
        {
          "internalType": "uint256",
          "name": "",
          "type": "uint256"
        }
      ],
      "stateMutability": "view",
      "type": "function"
    },
    {
      "inputs": [],
      "name": "reserveUSDC",
      "outputs": [
        {
          "internalType": "uint256",
          "name": "",
          "type": "uint256"
        }
      ],
      "stateMutability": "view",
      "type": "function"
    },
    {
      "inputs": [
        {
          "internalType": "uint256",
          "name": "",
          "type": "uint256"
        }
      ],
      "name": "sellOrderIds",
      "outputs": [
        {
          "internalType": "uint256",
          "name": "",
          "type": "uint256"
        }
      ],
      "stateMutability": "view",
      "type": "function"
    },
    {
      "inputs": [
        {
          "internalType": "uint256",
          "name": "_tradingFee",
          "type": "uint256"
        },
        {
          "internalType": "uint256",
          "name": "_makerFee",
          "type": "uint256"
        },
        {
          "internalType": "uint256",
          "name": "_takerFee",
          "type": "uint256"
        }
      ],
      "name": "setFees",
      "outputs": [],
      "stateMutability": "nonpayable",
      "type": "function"
    },
    {
      "inputs": [
        {
          "internalType": "uint256",
          "name": "_maxDeviation",
          "type": "uint256"
        }
      ],
      "name": "setMaxPriceDeviation",
      "outputs": [],
      "stateMutability": "nonpayable",
      "type": "function"
    },
    {
      "inputs": [
        {
          "internalType": "uint256",
          "name": "minUsdcOut",
          "type": "uint256"
        }
      ],
      "name": "swapPAXForUSDC",
      "outputs": [
        {
          "internalType": "uint256",
          "name": "usdcOut",
          "type": "uint256"
        }
      ],
      "stateMutability": "payable",
      "type": "function"
    },
    {
      "inputs": [
        {
          "internalType": "uint256",
          "name": "usdcAmount",
          "type": "uint256"
        },
        {
          "internalType": "uint256",
          "name": "minPaxOut",
          "type": "uint256"
        }
      ],
      "name": "swapUSDCForPAX",
      "outputs": [
        {
          "internalType": "uint256",
          "name": "paxOut",
          "type": "uint256"
        }
      ],
      "stateMutability": "nonpayable",
      "type": "function"
    },
    {
      "inputs": [],
      "name": "takerFee",
      "outputs": [
        {
          "internalType": "uint256",
          "name": "",
          "type": "uint256"
        }
      ],
      "stateMutability": "view",
      "type": "function"
    },
    {
      "inputs": [],
      "name": "totalLiquidity",
      "outputs": [
        {
          "internalType": "uint256",
          "name": "",
          "type": "uint256"
        }
      ],
      "stateMutability": "view",
      "type": "function"
    },
    {
      "inputs": [],
      "name": "tradingFee",
      "outputs": [
        {
          "internalType": "uint256",
          "name": "",
          "type": "uint256"
        }
      ],
      "stateMutability": "view",
      "type": "function"
    },
    {
      "inputs": [
        {
          "internalType": "address",
          "name": "newOwner",
          "type": "address"
        }
      ],
      "name": "transferOwnership",
      "outputs": [],
      "stateMutability": "nonpayable",
      "type": "function"
    },
    {
      "stateMutability": "payable",
      "type": "receive"
    }
  ],
  "bytecode": "0x60a0346101f857601f61266038819003918201601f19168301916001600160401b038311848410176101fd5780849260409485528339810103126101f857610052602061004b83610213565b9201610213565b600160005533156101e25760018054336001600160a01b0319821681179092556040519391906001600160a01b03167f8be0079c531659141344cd1fd0a4f28419497f9722a3daafe3b4186f6b6457e0600080a3601e600a908155600b556014600c55670de0b6b3a76400006011556103e86012556001600160a01b03169182156101a057506001600160a01b031690811561015b57608052600d80546001600160a01b031916919091179055672fbd55c62b580000601055604051612438908161022882396080518181816102a1015281816108d801528181610daa01528181610f290152818161100101528181611352015281816115870152818161171501526120930152f35b60405162461bcd60e51b815260206004820152601560248201527f496e76616c69642066656520636f6c6c6563746f7200000000000000000000006044820152606490fd5b62461bcd60e51b815260206004820152601460248201527f496e76616c6964205553444320616464726573730000000000000000000000006044820152606490fd5b631e4fbdf760e01b600052600060045260246000fd5b600080fd5b634e487b7160e01b600052604160045260246000fd5b51906001600160a01b03821682036101f85756fe608080604052600436101561001d575b50361561001b57600080fd5b005b60003560e01c908163053f14da146118e6575080630995213c146118c357806315770f92146118a55780631fba6846146118875780632b788bd4146118695780632c15665f1461182b5780633ba7d41a1461180d5780633bfc40de1461169957806343f0179b1461167b578063514fcac7146114d157806351c6590a146112fb57806356f43352146112dd57806363c69f0814611143578063715018a6146110e657806381490bff146110bd5780638932340b14610f5857806389a3027114610f135780638b3e4ec514610edb5780638da5cb5b14610eb2578063975b866214610e945780639c8f9f2314610cff5780639ee4c05714610c9b578063a4406bcd14610a0d578063a85c38ef14610976578063c415b95c1461094d578063c879657214610820578063c87b502e14610802578063cec10c1114610774578063d368f976146105a5578063d73792a914610588578063dda9046f1461056a578063ee36d4ab14610251578063f2fde38b146101c35763fc741c7c146101a0573861000f565b346101be5760003660031901126101be576020600b54604051908152f35b600080fd5b346101be5760203660031901126101be576004356001600160a01b038116908190036101be576101f1611f93565b801561023b57600180546001600160a01b0319811683179091556001600160a01b03167f8be0079c531659141344cd1fd0a4f28419497f9722a3daafe3b4186f6b6457e0600080a3005b631e4fbdf760e01b600052600060045260246000fd5b346101be5761025f36611901565b610267611cfa565b610275601154821015611a9e565b61028661028183611fbc565b611c96565b6102c5670de0b6b3a764000061029c8385611a15565b0430337f0000000000000000000000000000000000000000000000000000000000000000611d1c565b6102d0600654611c29565b80600655604051926102e184611b3a565b81845260208401933385526040810160008152606082018381526080830186815260a08401906000825260c08501926000845260e0860194428652886000526007602052604060002096518755600187019a60018060a01b039060018060a01b03905116166bffffffffffffffffffffffff60a01b8c5416178b55519960028b10156105545760009a81549060ff60a01b9060a01b169060ff60a01b191617905551600286015551600385015551600484015551600481101561054057906103ae60069260058501611c11565b51910155818452600760205260408420600201546008549390855b85811080610519575b156103e5576103e090611c29565b6103c9565b9050859450600854600160401b8110156105055780600161040b920160085560086119fd565b8154906000199060031b1b1916905560085460001981019081116104f1575b8181116104a75750916020949161045f8561044660019661194b565b90919082549060031b91821b91600019901b1916179055565b610467612046565b60405191838352868301526040820152837f28ee76b520925c614b94784e5bd4b8d8ad21fd9930aea487e678e1e5a5f4051360603393a355604051908152f35b60001981018181116104dd57906104d36104c36104d89361194b565b90549060031b1c6104468361194b565b612039565b61042a565b634e487b7160e01b87526011600452602487fd5b634e487b7160e01b86526011600452602486fd5b634e487b7160e01b86526041600452602486fd5b506105238161194b565b90549060031b1c87526007602052816002604089200154116103d2565b634e487b7160e01b87526021600452602487fd5b634e487b7160e01b600052602160045260246000fd5b346101be5760003660031901126101be576020601154604051908152f35b346101be5760003660031901126101be5760206040516127108152f35b346101be5760203660031901126101be5760043560085480821160001461076d57905b60095490818111156107655750905b6105e081611c50565b906105ea81611c50565b6105f384611c50565b936105fd81611c50565b9260005b81811061072557505060005b8181106106665761063885610662866106548a61064689604051978897608089526080890190611917565b908782036020890152611917565b908582036040870152611917565b908382036060850152611917565b0390f35b8061067260019261197c565b90549060031b1c6000526007602052610714604060002060405161069581611b3a565b815481526106bc60ff86840154878060a01b038116602085015260a01c1660408301611ce2565b6002820154606082019081526003830154916080810192835260e0600660048601549560a084019687526106fa60ff60058301541660c08601611cee565b01549101525161070a858c611c82565b5251905190611ae0565b61071e8287611c82565b520161060d565b8061073160019261194b565b90549060031b1c6000526007602052610754604060002060405161069581611b3a565b61075e8287611c82565b5201610601565b9050906105d7565b50806105c8565b346101be5760603660031901126101be57604435602435600435610796611f93565b6064811115806107f7575b806107ec575b156107b757600a55600b55600c55005b60405162461bcd60e51b815260206004820152600d60248201526c08ccacae640e8dede40d0d2ced609b1b6044820152606490fd5b5060328311156107a7565b5060328211156107a1565b346101be5760003660031901126101be576020600254604051908152f35b346101be5760003660031901126101be57600d546001600160a01b03163381148015610939575b1561090357600e54806108cd575b5050600f548061086157005b60008080809381600f5560018060a01b03600d54165af1610880611b8f565b501561088857005b60405162461bcd60e51b815260206004820152601760248201527f50415820666565207472616e73666572206661696c65640000000000000000006044820152606490fd5b6108fc916000600e557f0000000000000000000000000000000000000000000000000000000000000000611e92565b8080610855565b60405162461bcd60e51b815260206004820152600e60248201526d139bdd08185d5d1a1bdc9a5e995960921b6044820152606490fd5b506001546001600160a01b03163314610847565b346101be5760003660031901126101be57600d546040516001600160a01b039091168152602090f35b346101be5760203660031901126101be57600435600052600760205260406000208054600182015460ff8160a01c166002840154600385015490600486015492600660ff6005890154169701549460405196875260018060a01b0316602087015260028110156105545760408601526060850152608084015260a08301526004831015610554576101009260c083015260e0820152f35b610a1636611901565b610a1e611cfa565b803403610c6057610a33601154821015611a9e565b610a3f61028183611fbc565b610a4a600654611c29565b8060065560405192610a5b84611b3a565b81845260208401933385526040810160018152606082018381526080830186815260a08401906000825260c08501926000845260e0860194428652886000526007602052604060002096518755600187019a60018060a01b039060018060a01b03905116166bffffffffffffffffffffffff60a01b8c5416178b55519960028b10156105545760009a81549060ff60a01b9060a01b169060ff60a01b19161790555160028601555160038501555160048401555160048110156105405790610b2860069260058501611c11565b51910155818452600760205260408420600201546009549390855b85811080610c39575b15610b5f57610b5a90611c29565b610b43565b9050859450600954600160401b81101561050557806001610b85920160095560096119fd565b8154906000199060031b1b1916905560095460001981019081116104f1575b818111610c0857509160209491610bc08561044660019661197c565b610bc8612046565b60405191848352868301526040820152837f28ee76b520925c614b94784e5bd4b8d8ad21fd9930aea487e678e1e5a5f4051360603393a355604051908152f35b60001981018181116104dd57906104d3610c24610c349361197c565b90549060031b1c6104468361197c565b610ba4565b50610c438161197c565b90549060031b1c8752600760205281600260408920015410610b4c565b60405162461bcd60e51b81526020600482015260136024820152720a082b040c2dadeeadce840dad2e6dac2e8c6d606b1b6044820152606490fd5b346101be5760203660031901126101be57600435610cb7611f93565b6113888111610cc557601255005b60405162461bcd60e51b8152602060048201526012602482015271088caecd2c2e8d2dedc40e8dede40d0d2ced60731b6044820152606490fd5b346101be5760203660031901126101be57600435610d1b611cfa565b80151580610e7c575b15610e3e57604090610d3860025482611a15565b90610d5b610d496004548094611a3e565b92610d5660035484611a15565b611a3e565b9033600052600560205283600020610d74828254611ae0565b9055610d8281600454611ae0565b600455610d9183600254611ae0565b600255610da082600354611ae0565b600355610dce83337f0000000000000000000000000000000000000000000000000000000000000000611e92565b610de8600080808086335af1610de2611b8f565b50611bcf565b7f1dc8bb69df2b8e91fbdcbfcf93d951b3f0000f085a95fe3f7946d6161439245d845180610e2a33948688846040919493926060820195825260208201520152565b0390a2600160005582519182526020820152f35b60405162461bcd60e51b8152602060048201526016602482015275496e73756666696369656e74206c697175696469747960501b6044820152606490fd5b50336000526005602052806040600020541015610d24565b346101be5760003660031901126101be576020601254604051908152f35b346101be5760003660031901126101be576001546040516001600160a01b039091168152602090f35b346101be5760203660031901126101be576004356009548110156101be57610f0460209161197c565b90549060031b1c604051908152f35b346101be5760003660031901126101be576040517f00000000000000000000000000000000000000000000000000000000000000006001600160a01b03168152602090f35b60203660031901126101be57610f6c611cfa565b610f7a601154341015611a9e565b612710610f89600a5434611a15565b04610f948134611ae0565b60025491610fa28383611a15565b610fb960035491610fb38584611aed565b90611a3e565b92610fc8600435851015611afa565b84841161107857602094610fe08592610fe894611aed565b600355611ae0565b600255610ff781600f54611aed565b600f5561102582337f0000000000000000000000000000000000000000000000000000000000000000611e92565b61102d611d67565b6040519060008252348483015282604083015260608201527f1b43ddf90e971181a7faf41549e512675072e84befadbba7873086509dec1fdc60803392a26001600055604051908152f35b60405162461bcd60e51b815260206004820152601b60248201527f496e73756666696369656e742055534443206c697175696469747900000000006044820152606490fd5b346101be5760203660031901126101be576004356008548110156101be57610f0460209161194b565b346101be5760003660031901126101be576110ff611f93565b600180546001600160a01b031981169091556000906001600160a01b03167f8be0079c531659141344cd1fd0a4f28419497f9722a3daafe3b4186f6b6457e08280a3005b346101be5760203660031901126101be576004356001600160a01b038116908190036101be57600654600060015b82811115611246575061118390611c50565b9060009260015b828111156111a8576040516020808252819061066290820187611917565b6000818152600760205260409020600101546001600160a01b03168214806111f8575b906111d9916111de57611c29565b61118a565b806111f26111eb88611c29565b9787611c82565b52611c29565b5080600052600760205260ff6005604060002001541660048110156105545715806111cb575080600052600760205260ff6005604060002001541690600482101561055457906003146111cb565b6000818152600760205260409020600101546001600160a01b0316841480611291575b61127c575b61127790611c29565b611171565b9061128961127791611c29565b91905061126e565b5080600052600760205260ff600560406000200154166004811015610554571580611269575080600052600760205260ff60056040600020015416600481101561055457600314611269565b346101be5760003660031901126101be576020600a54604051908152f35b60203660031901126101be57600435611312611cfa565b600090801515806114c8575b1561149157600454806114495750905061134061133b3483611a15565b611f52565b8015611404576020915b6113768130337f0000000000000000000000000000000000000000000000000000000000000000611d1c565b61138281600254611aed565b60025561139134600354611aed565b6003556113a082600454611aed565b600455336000526005835260406000206113bb838254611aed565b905560408051918252346020830152810182905233907f64b83944e79c3ce8d4c297411de637c3e102d064677aac0c163976ebdcd6f50e90606090a26001600055604051908152f35b60405162461bcd60e51b815260206004820152601d60248201527f496e73756666696369656e74206c6971756964697479206d696e7465640000006044820152606490fd5b60209261147861146f61146861145f8587611a15565b60025490611a3e565b9334611a15565b60035490611a3e565b90508082101561148a57505b9061134a565b9050611484565b60405162461bcd60e51b815260206004820152600f60248201526e496e76616c696420616d6f756e747360881b6044820152606490fd5b5034151561131e565b346101be5760203660031901126101be576004356114ed611cfa565b60008181526007602052604090206001810180549091906001600160a01b0316330361164457600581019160ff8354166004811015610554578015908115611639575b50156116035760ff9061154c6003840154600485015490611ae0565b93600283198254161790555460a01c166002811015610554576115e0576115836115ab926002670de0b6b3a7640000930154611a15565b04337f0000000000000000000000000000000000000000000000000000000000000000611e92565b6115b481611ecd565b7f61b9399f2f0f32ca39ce8d7be32caed5ec22fe07a6daba3a467ed479ec606582600080a26001600055005b5060008080806115f594335af1610de2611b8f565b6115fe81611de2565b6115b4565b60405162461bcd60e51b815260206004820152600e60248201526d27b93232b9103737ba1037b832b760911b6044820152606490fd5b600391501485611530565b60405162461bcd60e51b815260206004820152600f60248201526e2737ba1037b93232b91037bbb732b960891b6044820152606490fd5b346101be5760003660031901126101be576020600c54604051908152f35b346101be576116a736611901565b6116af611cfa565b6116bd601154831015611a9e565b6127106116cc600a5484611a15565b04916116d88382611ae0565b926003546117016116f86116ec8388611a15565b610fb388600254611aed565b94851015611afa565b83116117c8576117416020946117398430337f0000000000000000000000000000000000000000000000000000000000000000611d1c565b600254611aed565b60025561175083600354611ae0565b60035561175f81600e54611aed565b600e55611776600080808087335af1610de2611b8f565b61177e611d67565b60405191600183528483015282604083015260608201527f1b43ddf90e971181a7faf41549e512675072e84befadbba7873086509dec1fdc60803392a26001600055604051908152f35b60405162461bcd60e51b815260206004820152601a60248201527f496e73756666696369656e7420504158206c69717569646974790000000000006044820152606490fd5b346101be5760003660031901126101be576020600e54604051908152f35b346101be5760203660031901126101be576004356001600160a01b038116908190036101be5760005260056020526020604060002054604051908152f35b346101be5760003660031901126101be576020600f54604051908152f35b346101be5760003660031901126101be576020600354604051908152f35b346101be5760003660031901126101be576020600454604051908152f35b346101be5760003660031901126101be5760206118de611a5e565b604051908152f35b346101be5760003660031901126101be576020906010548152f35b60409060031901126101be576004359060243590565b906020808351928381520192019060005b8181106119355750505090565b8251845260209384019390920191600101611928565b60085481101561196657600860005260206000200190600090565b634e487b7160e01b600052603260045260246000fd5b60095481101561196657600960005260206000200190600090565b6008541561196657600860009081527ff3f7a9fe364faab93b216da50a3214154f22a0a2b415b23a84c8169e8b636ee391565b6009541561196657600960009081527f6e1540171b6c0c960b71a7020d9f60077f6af931a8bbf590da0223dacf75c7af91565b80548210156119665760005260206000200190600090565b81810292918115918404141715611a2857565b634e487b7160e01b600052601160045260246000fd5b8115611a48570490565b634e487b7160e01b600052601260045260246000fd5b6003548015611a985760025490670de0b6b3a7640000820291808304670de0b6b3a76400001490151715611a2857611a9591611a3e565b90565b50600090565b15611aa557565b60405162461bcd60e51b815260206004820152601360248201527242656c6f77206d696e696d756d20747261646560681b6044820152606490fd5b91908203918211611a2857565b91908201809211611a2857565b15611b0157565b60405162461bcd60e51b815260206004820152601160248201527014db1a5c1c1859d948195e18d959591959607a1b6044820152606490fd5b610100810190811067ffffffffffffffff821117611b5757604052565b634e487b7160e01b600052604160045260246000fd5b90601f8019910116810190811067ffffffffffffffff821117611b5757604052565b3d15611bca573d9067ffffffffffffffff8211611b575760405191611bbe601f8201601f191660200184611b6d565b82523d6000602084013e565b606090565b15611bd657565b60405162461bcd60e51b8152602060048201526013602482015272141056081d1c985b9cd9995c8819985a5b1959606a1b6044820152606490fd5b9060048110156105545760ff80198354169116179055565b6000198114611a285760010190565b67ffffffffffffffff8111611b575760051b60200190565b90611c5a82611c38565b611c676040519182611b6d565b8281528092611c78601f1991611c38565b0190602036910137565b80518210156119665760209160051b010190565b15611c9d57565b60405162461bcd60e51b815260206004820152601860248201527f507269636520646576696174696f6e20746f6f206869676800000000000000006044820152606490fd5b60028210156105545752565b60048210156105545752565b600260005414611d0b576002600055565b633ee5aeb560e01b60005260046000fd5b6040516323b872dd60e01b60208201526001600160a01b039283166024820152929091166044830152606480830193909352918152611d6591611d60608483611b6d565b61239b565b565b6002548015801580611dd7575b611d7c575050565b670de0b6b3a76400008202918204670de0b6b3a7640000141715611a28576020611dca7f66cbca4f3c64fecf1dcb9ce094abcf7f68c3450a1d4e3a8e917dd621edb4ebe09260035490611a3e565b80601055604051908152a1565b506003541515611d74565b60005b600954811015611e8e5781611df98261197c565b90549060031b1c14611e0d57600101611de5565b90505b6009546000198101908111611a2857811015611e46576001810190818111611a2857611e40610c2460019361197c565b01611e10565b506009548015611e785760001901611e73611e628260096119fd565b8154906000199060031b1b19169055565b600955565b634e487b7160e01b600052603160045260246000fd5b5050565b60405163a9059cbb60e01b60208201526001600160a01b039092166024830152604480830193909352918152611d6591611d60606483611b6d565b60005b600854811015611e8e5781611ee48261194b565b90549060031b1c14611ef857600101611ed0565b90505b6008546000198101908111611a2857811015611f31576001810190818111611a2857611f2b6104c360019361194b565b01611efb565b506008548015611e785760001901611f4d611e628260086119fd565b600855565b8015611a985760018101808211611a285760011c815b828210611f7457505090565b909150611f8a82611f858184611a3e565b611aed565b60011c90611f68565b6001546001600160a01b03163303611fa757565b63118cdaa760e01b6000523360045260246000fd5b611fc4611a5e565b90811561203257818082111561200457611fdd91611ae0565b906127108202918083046127101490151715611a2857611ffc91611a3e565b601254101590565b9061200e91611ae0565b906127108202918083046127101490151715611a285761202d91611a3e565b611ffc565b5050600190565b8015611a28576000190190565b600854158015612391575b611d655761205d611997565b90549060031b1c61206c6119ca565b90549060031b1c9080600052600760205260406000209082600052600760205260406000207f0000000000000000000000000000000000000000000000000000000000000000935b6002840154600283019283548092101580612376575b8061235b575b1561235257600386019182549660048101966120ee8854809a611ae0565b906003850190670de0b6b3a764000061212383549461211360048a0196875490611ae0565b8082101561234957508097611a15565b0493612710612134600b5487611a15565b049461215087612710612149600c5485611a15565b049e611aed565b8c5561215d878654611aed565b855560008080808a60018060a01b036001880154165af161217c611b8f565b50156123045761225660209c8f9a7f66cbca4f3c64fecf1dcb9ce094abcf7f68c3450a1d4e3a8e917dd621edb4ebe09f60409b60057fc75938696bc974b3973ac0c1440e2ee3e9240af3b97c884edc4dc153be013e7b9e978f988f988561226a9f611f8561220e9461220694612200899b60018060a01b0360018d01541692611ae0565b91611e92565b600e54611aed565b600e5585548554036122f35701805460ff1916600117905561222f88611ecd565b89548954036122e25701805460ff1916600117905561224d8d611de2565b54905490611ae0565b8151908882528d820152a254905490611ae0565b825191825286820152a25480601055604051908152a16008541580156122d8575b6122d557612297611997565b90549060031b1c906122a76119ca565b90549060031b1c918060005260076020526040600020928060005260076020526040600020909392936120b4565b50565b506009541561228b565b01805460ff1916600317905561224d565b01805460ff1916600317905561222f565b60405162461bcd60e51b815260206004820152601c60248201527f504158207472616e7366657220746f206275796572206661696c6564000000006044820152606490fd5b90508097611a15565b50505050505050565b5060ff600582015416600481101561055457600114156120d0565b5060ff600587015416600481101561055457600114156120ca565b5060095415612051565b906000602091828151910182855af1156123f6576000513d6123ed57506001600160a01b0381163b155b6123cc5750565b635274afe760e01b60009081526001600160a01b0391909116600452602490fd5b600114156123c5565b6040513d6000823e3d90fdfea2646970667358221220645ce3d36e7c6f88f7589be057a570bea51eaab7592ab761800e82041874855964736f6c634300081b0033",
  "linkReferences": {},
  "deployedLinkReferences": {}
}