{
  "_format": "hh-sol-artifact-1",
  "contractName": "FxVault",
  "sourceName": "contracts/FxVault.sol",
  "abi": [
    {
      "inputs": [
        {
          "internalType": "address",
          "name": "_priceOracle",
          "type": "address"
        }
      ],
      "stateMutability": "nonpayable",
      "type": "constructor"
    },
    {
      "inputs": [],
      "name": "ECDSAInvalidSignature",
      "type": "error"
    },
    {
      "inputs": [
        {
          "internalType": "uint256",
          "name": "length",
          "type": "uint256"
        }
      ],
      "name": "ECDSAInvalidSignatureLength",
      "type": "error"
    },
    {
      "inputs": [
        {
          "internalType": "bytes32",
          "name": "s",
          "type": "bytes32"
        }
      ],
      "name": "ECDSAInvalidSignatureS",
      "type": "error"
    },
    {
      "inputs": [
        {
          "internalType": "address",
          "name": "owner",
          "type": "address"
        }
      ],
      "name": "OwnableInvalidOwner",
      "type": "error"
    },
    {
      "inputs": [
        {
          "internalType": "address",
          "name": "account",
          "type": "address"
        }
      ],
      "name": "OwnableUnauthorizedAccount",
      "type": "error"
    },
    {
      "inputs": [],
      "name": "ReentrancyGuardReentrantCall",
      "type": "error"
    },
    {
      "anonymous": false,
      "inputs": [
        {
          "indexed": true,
          "internalType": "address",
          "name": "account",
          "type": "address"
        },
        {
          "indexed": true,
          "internalType": "address",
          "name": "token",
          "type": "address"
        },
        {
          "indexed": false,
          "internalType": "uint256",
          "name": "amount",
          "type": "uint256"
        }
      ],
      "name": "CollateralDeposited",
      "type": "event"
    },
    {
      "anonymous": false,
      "inputs": [
        {
          "indexed": true,
          "internalType": "address",
          "name": "token",
          "type": "address"
        },
        {
          "indexed": false,
          "internalType": "uint8",
          "name": "decimals",
          "type": "uint8"
        }
      ],
      "name": "CollateralTokenRegistered",
      "type": "event"
    },
    {
      "anonymous": false,
      "inputs": [
        {
          "indexed": true,
          "internalType": "address",
          "name": "account",
          "type": "address"
        },
        {
          "indexed": true,
          "internalType": "address",
          "name": "token",
          "type": "address"
        },
        {
          "indexed": false,
          "internalType": "uint256",
          "name": "amount",
          "type": "uint256"
        }
      ],
      "name": "CollateralWithdrawn",
      "type": "event"
    },
    {
      "anonymous": false,
      "inputs": [
        {
          "indexed": true,
          "internalType": "bytes32",
          "name": "marketId",
          "type": "bytes32"
        },
        {
          "indexed": false,
          "internalType": "address",
          "name": "longToken",
          "type": "address"
        },
        {
          "indexed": false,
          "internalType": "address",
          "name": "shortToken",
          "type": "address"
        }
      ],
      "name": "MarketRegistered",
      "type": "event"
    },
    {
      "anonymous": false,
      "inputs": [
        {
          "indexed": true,
          "internalType": "address",
          "name": "previousOwner",
          "type": "address"
        },
        {
          "indexed": true,
          "internalType": "address",
          "name": "newOwner",
          "type": "address"
        }
      ],
      "name": "OwnershipTransferred",
      "type": "event"
    },
    {
      "anonymous": false,
      "inputs": [
        {
          "indexed": true,
          "internalType": "address",
          "name": "account",
          "type": "address"
        },
        {
          "indexed": true,
          "internalType": "bytes32",
          "name": "marketId",
          "type": "bytes32"
        },
        {
          "indexed": false,
          "internalType": "bool",
          "name": "isLong",
          "type": "bool"
        },
        {
          "indexed": false,
          "internalType": "uint256",
          "name": "sizeBaseClosed",
          "type": "uint256"
        },
        {
          "indexed": false,
          "internalType": "int256",
          "name": "pnlUsd",
          "type": "int256"
        }
      ],
      "name": "PositionClosed",
      "type": "event"
    },
    {
      "anonymous": false,
      "inputs": [
        {
          "indexed": true,
          "internalType": "address",
          "name": "account",
          "type": "address"
        },
        {
          "indexed": true,
          "internalType": "bytes32",
          "name": "marketId",
          "type": "bytes32"
        },
        {
          "indexed": false,
          "internalType": "bool",
          "name": "isLong",
          "type": "bool"
        },
        {
          "indexed": false,
          "internalType": "uint256",
          "name": "sizeBase",
          "type": "uint256"
        },
        {
          "indexed": false,
          "internalType": "uint256",
          "name": "marginUsd",
          "type": "uint256"
        },
        {
          "indexed": false,
          "internalType": "uint256",
          "name": "leverage",
          "type": "uint256"
        }
      ],
      "name": "PositionOpened",
      "type": "event"
    },
    {
      "anonymous": false,
      "inputs": [
        {
          "indexed": true,
          "internalType": "address",
          "name": "caller",
          "type": "address"
        },
        {
          "indexed": true,
          "internalType": "address",
          "name": "account",
          "type": "address"
        },
        {
          "indexed": true,
          "internalType": "bytes32",
          "name": "marketId",
          "type": "bytes32"
        },
        {
          "indexed": false,
          "internalType": "bool",
          "name": "isLong",
          "type": "bool"
        },
        {
          "indexed": false,
          "internalType": "uint256",
          "name": "sizeUsdToClose",
          "type": "uint256"
        },
        {
          "indexed": false,
          "internalType": "uint256",
          "name": "nonce",
          "type": "uint256"
        }
      ],
      "name": "PreSignedCloseExecuted",
      "type": "event"
    },
    {
      "inputs": [],
      "name": "BPS_DENOMINATOR",
      "outputs": [
        {
          "internalType": "uint256",
          "name": "",
          "type": "uint256"
        }
      ],
      "stateMutability": "view",
      "type": "function"
    },
    {
      "inputs": [
        {
          "internalType": "bytes32",
          "name": "marketId",
          "type": "bytes32"
        },
        {
          "internalType": "bool",
          "name": "isLong",
          "type": "bool"
        },
        {
          "internalType": "uint256",
          "name": "sizeUsdToClose",
          "type": "uint256"
        }
      ],
      "name": "closePosition",
      "outputs": [],
      "stateMutability": "nonpayable",
      "type": "function"
    },
    {
      "inputs": [
        {
          "internalType": "address",
          "name": "",
          "type": "address"
        },
        {
          "internalType": "address",
          "name": "",
          "type": "address"
        }
      ],
      "name": "collateralBalances",
      "outputs": [
        {
          "internalType": "uint256",
          "name": "",
          "type": "uint256"
        }
      ],
      "stateMutability": "view",
      "type": "function"
    },
    {
      "inputs": [
        {
          "internalType": "address",
          "name": "",
          "type": "address"
        }
      ],
      "name": "collateralDecimals",
      "outputs": [
        {
          "internalType": "uint8",
          "name": "",
          "type": "uint8"
        }
      ],
      "stateMutability": "view",
      "type": "function"
    },
    {
      "inputs": [
        {
          "internalType": "address",
          "name": "token",
          "type": "address"
        },
        {
          "internalType": "uint256",
          "name": "amount",
          "type": "uint256"
        }
      ],
      "name": "depositCollateral",
      "outputs": [],
      "stateMutability": "nonpayable",
      "type": "function"
    },
    {
      "inputs": [
        {
          "components": [
            {
              "internalType": "address",
              "name": "account",
              "type": "address"
            },
            {
              "internalType": "bytes32",
              "name": "marketId",
              "type": "bytes32"
            },
            {
              "internalType": "bool",
              "name": "isLong",
              "type": "bool"
            },
            {
              "internalType": "uint256",
              "name": "sizeUsdToClose",
              "type": "uint256"
            },
            {
              "internalType": "uint256",
              "name": "maxSlippageBps",
              "type": "uint256"
            },
            {
              "internalType": "uint256",
              "name": "deadline",
              "type": "uint256"
            },
            {
              "internalType": "uint256",
              "name": "nonce",
              "type": "uint256"
            }
          ],
          "internalType": "struct FxVault.ClosePositionPayload",
          "name": "payload",
          "type": "tuple"
        },
        {
          "internalType": "bytes",
          "name": "signature",
          "type": "bytes"
        }
      ],
      "name": "executePreSignedClose",
      "outputs": [],
      "stateMutability": "nonpayable",
      "type": "function"
    },
    {
      "inputs": [
        {
          "internalType": "address",
          "name": "",
          "type": "address"
        }
      ],
      "name": "isCollateralToken",
      "outputs": [
        {
          "internalType": "bool",
          "name": "",
          "type": "bool"
        }
      ],
      "stateMutability": "view",
      "type": "function"
    },
    {
      "inputs": [
        {
          "internalType": "bytes32",
          "name": "",
          "type": "bytes32"
        }
      ],
      "name": "markets",
      "outputs": [
        {
          "internalType": "bool",
          "name": "isActive",
          "type": "bool"
        },
        {
          "internalType": "bytes32",
          "name": "marketId",
          "type": "bytes32"
        },
        {
          "internalType": "contract FxPositionToken",
          "name": "longToken",
          "type": "address"
        },
        {
          "internalType": "contract FxPositionToken",
          "name": "shortToken",
          "type": "address"
        },
        {
          "internalType": "uint256",
          "name": "maxLeverage",
          "type": "uint256"
        },
        {
          "internalType": "uint256",
          "name": "defaultLeverage",
          "type": "uint256"
        },
        {
          "internalType": "uint256",
          "name": "minInitialMarginBps",
          "type": "uint256"
        },
        {
          "internalType": "uint256",
          "name": "tradeFeeBps",
          "type": "uint256"
        }
      ],
      "stateMutability": "view",
      "type": "function"
    },
    {
      "inputs": [
        {
          "internalType": "bytes32",
          "name": "marketId",
          "type": "bytes32"
        },
        {
          "internalType": "address",
          "name": "collateralToken",
          "type": "address"
        },
        {
          "internalType": "uint256",
          "name": "collateralAmount",
          "type": "uint256"
        },
        {
          "internalType": "uint256",
          "name": "leverage",
          "type": "uint256"
        },
        {
          "components": [
            {
              "internalType": "address",
              "name": "account",
              "type": "address"
            },
            {
              "internalType": "bytes32",
              "name": "marketId",
              "type": "bytes32"
            },
            {
              "internalType": "bool",
              "name": "isLong",
              "type": "bool"
            },
            {
              "internalType": "uint256",
              "name": "sizeUsdToClose",
              "type": "uint256"
            },
            {
              "internalType": "uint256",
              "name": "maxSlippageBps",
              "type": "uint256"
            },
            {
              "internalType": "uint256",
              "name": "deadline",
              "type": "uint256"
            },
            {
              "internalType": "uint256",
              "name": "nonce",
              "type": "uint256"
            }
          ],
          "internalType": "struct FxVault.ClosePositionPayload",
          "name": "closePayload",
          "type": "tuple"
        },
        {
          "internalType": "bytes",
          "name": "closeSignature",
          "type": "bytes"
        }
      ],
      "name": "openLong",
      "outputs": [],
      "stateMutability": "nonpayable",
      "type": "function"
    },
    {
      "inputs": [
        {
          "internalType": "bytes32",
          "name": "marketId",
          "type": "bytes32"
        },
        {
          "internalType": "address",
          "name": "collateralToken",
          "type": "address"
        },
        {
          "internalType": "uint256",
          "name": "collateralAmount",
          "type": "uint256"
        },
        {
          "components": [
            {
              "internalType": "address",
              "name": "account",
              "type": "address"
            },
            {
              "internalType": "bytes32",
              "name": "marketId",
              "type": "bytes32"
            },
            {
              "internalType": "bool",
              "name": "isLong",
              "type": "bool"
            },
            {
              "internalType": "uint256",
              "name": "sizeUsdToClose",
              "type": "uint256"
            },
            {
              "internalType": "uint256",
              "name": "maxSlippageBps",
              "type": "uint256"
            },
            {
              "internalType": "uint256",
              "name": "deadline",
              "type": "uint256"
            },
            {
              "internalType": "uint256",
              "name": "nonce",
              "type": "uint256"
            }
          ],
          "internalType": "struct FxVault.ClosePositionPayload",
          "name": "closePayload",
          "type": "tuple"
        },
        {
          "internalType": "bytes",
          "name": "closeSignature",
          "type": "bytes"
        }
      ],
      "name": "openShortCashSecured",
      "outputs": [],
      "stateMutability": "nonpayable",
      "type": "function"
    },
    {
      "inputs": [],
      "name": "owner",
      "outputs": [
        {
          "internalType": "address",
          "name": "",
          "type": "address"
        }
      ],
      "stateMutability": "view",
      "type": "function"
    },
    {
      "inputs": [
        {
          "internalType": "address",
          "name": "",
          "type": "address"
        },
        {
          "internalType": "bytes32",
          "name": "",
          "type": "bytes32"
        },
        {
          "internalType": "bool",
          "name": "",
          "type": "bool"
        }
      ],
      "name": "positions",
      "outputs": [
        {
          "internalType": "bool",
          "name": "exists",
          "type": "bool"
        },
        {
          "internalType": "bytes32",
          "name": "marketId",
          "type": "bytes32"
        },
        {
          "internalType": "bool",
          "name": "isLong",
          "type": "bool"
        },
        {
          "internalType": "uint256",
          "name": "sizeBase",
          "type": "uint256"
        },
        {
          "internalType": "uint256",
          "name": "entryPrice",
          "type": "uint256"
        },
        {
          "internalType": "uint256",
          "name": "marginUsd",
          "type": "uint256"
        },
        {
          "internalType": "uint256",
          "name": "leverage",
          "type": "uint256"
        },
        {
          "internalType": "bytes32",
          "name": "closeAuthHash",
          "type": "bytes32"
        }
      ],
      "stateMutability": "view",
      "type": "function"
    },
    {
      "inputs": [],
      "name": "priceOracle",
      "outputs": [
        {
          "internalType": "contract FxPriceOracle",
          "name": "",
          "type": "address"
        }
      ],
      "stateMutability": "view",
      "type": "function"
    },
    {
      "inputs": [
        {
          "internalType": "address",
          "name": "token",
          "type": "address"
        }
      ],
      "name": "registerCollateralToken",
      "outputs": [],
      "stateMutability": "nonpayable",
      "type": "function"
    },
    {
      "inputs": [
        {
          "internalType": "bytes32",
          "name": "marketId",
          "type": "bytes32"
        },
        {
          "internalType": "address",
          "name": "longToken",
          "type": "address"
        },
        {
          "internalType": "address",
          "name": "shortToken",
          "type": "address"
        },
        {
          "internalType": "uint256",
          "name": "maxLeverage",
          "type": "uint256"
        },
        {
          "internalType": "uint256",
          "name": "defaultLeverage",
          "type": "uint256"
        },
        {
          "internalType": "uint256",
          "name": "minInitialMarginBps",
          "type": "uint256"
        },
        {
          "internalType": "uint256",
          "name": "tradeFeeBps",
          "type": "uint256"
        }
      ],
      "name": "registerMarket",
      "outputs": [],
      "stateMutability": "nonpayable",
      "type": "function"
    },
    {
      "inputs": [],
      "name": "renounceOwnership",
      "outputs": [],
      "stateMutability": "nonpayable",
      "type": "function"
    },
    {
      "inputs": [
        {
          "internalType": "address",
          "name": "newOwner",
          "type": "address"
        }
      ],
      "name": "transferOwnership",
      "outputs": [],
      "stateMutability": "nonpayable",
      "type": "function"
    },
    {
      "inputs": [
        {
          "internalType": "address",
          "name": "",
          "type": "address"
        },
        {
          "internalType": "uint256",
          "name": "",
          "type": "uint256"
        }
      ],
      "name": "usedCloseNonces",
      "outputs": [
        {
          "internalType": "bool",
          "name": "",
          "type": "bool"
        }
      ],
      "stateMutability": "view",
      "type": "function"
    },
    {
      "inputs": [
        {
          "internalType": "address",
          "name": "token",
          "type": "address"
        },
        {
          "internalType": "uint256",
          "name": "amount",
          "type": "uint256"
        }
      ],
      "name": "withdrawCollateral",
      "outputs": [],
      "stateMutability": "nonpayable",
      "type": "function"
    }
  ],
  "bytecode": "0x60a03461013957601f61296338819003918201601f19168301916001600160401b0383118484101761013e5780849260209460405283398101031261013957516001600160a01b038116908190036101395733156101235760008054336001600160a01b03198216811783556040519290916001600160a01b0316907f8be0079c531659141344cd1fd0a4f28419497f9722a3daafe3b4186f6b6457e09080a36001805581156100e1575060805260405161280e90816101558239608051818181610682015281816110ba015281816118ca01528181611c800152611edb0152f35b62461bcd60e51b815260206004820152601660248201527f496e76616c6964206f7261636c652061646472657373000000000000000000006044820152606490fd5b631e4fbdf760e01b600052600060045260246000fd5b600080fd5b634e487b7160e01b600052604160045260246000fdfe6080604052600436101561001257600080fd5b6000803560e01c8062d615f314611cf85780630e453f6414611caf5780632630c12f14611c6a578063350c35e914611b1a57806339ecf9ba14611ac55780634766162c14611a865780634d1a62651461170457806352dcc83314611541578063715018a6146114e757806374d3be02146114345780637564912b146113a757806384c55a5814610d865780638da5cb5b14610d5f578063a5d5db0c14610c66578063a6ee73fb14610499578063e1a452181461047c578063f1ae3c7f1461043f578063f2fde38b146103b95763fec60957146100ed57600080fd5b346103b65760e03660031901126103b65760043561010961218e565b6044356001600160a01b03811691908290036103b457606435916084359161012f6125ec565b841561037c57848652600560205260ff604087205416610347576001600160a01b0316908115158061033e575b1561030857670de0b6b3a764000084106102cd57670de0b6b3a7640000831015806102c3575b1561027e577f393bf4ff2983ac2030da8f04a013ff4ac3176d2440549a516edff6f881c4db3b93600786886040968751946101bc8661227f565b600180875260208088018681528b89018b815260608a018b815260808b0195865260a08b0196875260a43560c08c0190815260c43560e08d019081529989526005808652988f90209b518c5460ff191690151560ff16178c559251948b01949094555160028a0180546001600160a01b039283166001600160a01b031991821617909155935160038b0180549190921694169390931790925591516004880155915192860192909255516006850155905191909201558351928352820152a280f35b60405162461bcd60e51b815260206004820152601760248201527f496e76616c69642064656661756c744c657665726167650000000000000000006044820152606490fd5b5083831115610182565b60405162461bcd60e51b8152602060048201526013602482015272496e76616c6964206d61784c6576657261676560681b6044820152606490fd5b60405162461bcd60e51b815260206004820152600e60248201526d496e76616c696420746f6b656e7360901b6044820152606490fd5b5080151561015c565b60405162461bcd60e51b815260206004820152600d60248201526c4d61726b65742065786973747360981b6044820152606490fd5b60405162461bcd60e51b815260206004820152601060248201526f125b9d985b1a59081b585c9ad95d125960821b6044820152606490fd5b835b80fd5b50346103b65760203660031901126103b6576103d36121a4565b6103db6125ec565b6001600160a01b0316801561042b5781546001600160a01b03198116821783556001600160a01b03167f8be0079c531659141344cd1fd0a4f28419497f9722a3daafe3b4186f6b6457e08380a380f35b631e4fbdf760e01b82526004829052602482fd5b50346103b65760203660031901126103b65760209060ff906040906001600160a01b0361046a6121a4565b16815260038452205416604051908152f35b50346103b657806003193601126103b65760206040516127108152f35b50346103b6576101803660031901126103b6576004356104b761218e565b60643560443560e0366083190112610965576101643567ffffffffffffffff8111610c62576104ea9036906004016121ba565b90916104f46124b1565b858752600560205260408720946040519586926105108461227f565b60ff8254161515928385526001830154602086015261058260018060a01b03600285015416946040870195865260018060a01b03600386015416606088015260e0600760048701549660808a01978852600581015460a08b015260c060068201549a01998a5201549b019a8b526124d3565b6001600160a01b0316808b52600260205260408b20549092906105a79060ff166121e8565b8115610c2e57670de0b6b3a76400008810159081610c22575b5015610bea576040516323b872dd60e01b815233600482015230602482015260448101829052916020836064818e855af1928315610bdf576106479361060d918d91610bb0575b506122ec565b338b52600460205260408b208160005260205260406000206106308382546124a4565b90558a52600360205260ff60408b20541690612626565b93670de0b6b3a764000061065b8787612511565b04928051610b4f575b506040516331d98b3f60e01b815260048101899052946020866024817f00000000000000000000000000000000000000000000000000000000000000006001600160a01b03165afa958615610b44578a96610b0b575b506106c6861515612544565b670de0b6b3a76400008402848104670de0b6b3a76400001485151715610af7579061271061070d6106fa8961071495612524565b9a6107068c151561257b565b5187612511565b049061225c565b948515610ac157338a52600660205260408a20898b5260205260408a2060018b5260205260408a2080549060ff8216610a8a578892600160069360ff19161782558b600183015560028201600160ff198254161790558a6003830155600482015587600582015501556084359360018060a01b038516808603610a86573303610a535760a43594898603610a1f5760c435801515808203610a1b57600019016109eb5760e435928684116109b55761012435428110610978578d986108a295610834610889956108268d610883966108929a33835260076020526040832092610144359384825260205261080f60ff60408320541615612340565b50604051968795602087019961010435938b612388565b03601f1981018352826122b2565b5190209560405160208101907f19457468657265756d205369676e6564204d6573736167653a0a333200000000825288603c820152603c8152610878605c826122b2565b5190209236916123e7565b9061267f565b909291926126bb565b6001600160a01b0316331461242e565b3384526006602090815260408086208a8752825280862060018752909152842060070155516001600160a01b0316803b15610974576040516340c10f1960e01b8152336004820152602481019290925282908290604490829084905af1801561096957610950575b505060405192600184526020840152604083015260608201527f3b42d27f70ad0fdd7eeb05c9a1716722579dc5cd8a7f7c3d405751b15ca7dd6260803392a36001805580f35b8161095a916122b2565b61096557843861090a565b8480fd5b6040513d84823e3d90fd5b8280fd5b60405162461bcd60e51b815260206004820152601560248201527410db1bdcd9481c185e5b1bd85908195e1c1a5c9959605a1b6044820152606490fd5b60405162461bcd60e51b815260206004820152600e60248201526d546f6f206c617267652073697a6560901b6044820152606490fd5b60405162461bcd60e51b8152602060048201526008602482015267426164207369646560c01b6044820152606490fd5b8c80fd5b60405162461bcd60e51b815260206004820152600c60248201526b109859081b585c9ad95d125960a21b6044820152606490fd5b60405162461bcd60e51b815260206004820152600b60248201526a109859081858d8dbdd5b9d60aa1b6044820152606490fd5b8a80fd5b60405162461bcd60e51b815260206004820152600f60248201526e506f736974696f6e2065786973747360881b6044820152606490fd5b60405162461bcd60e51b815260206004820152600e60248201526d1199594f98dbdb1b185d195c985b60921b6044820152606490fd5b634e487b7160e01b8b52601160045260248bfd5b9095506020813d602011610b3c575b81610b27602093836122b2565b81010312610b37575194386106ba565b600080fd5b3d9150610b1a565b6040513d8c823e3d90fd5b6127108602908682046127101487151715610af757610b6f905185612511565b11610b7a5738610664565b60405162461bcd60e51b815260206004820152600e60248201526d4d617267696e20746f6f206c6f7760901b6044820152606490fd5b610bd2915060203d602011610bd8575b610bca81836122b2565b8101906122d4565b38610607565b503d610bc0565b6040513d8d823e3d90fd5b60405162461bcd60e51b815260206004820152601060248201526f496e76616c6964206c6576657261676560801b6044820152606490fd5b905051871115386105c0565b60405162461bcd60e51b815260206004820152600c60248201526b0436f6c6c61746572616c3d360a41b6044820152606490fd5b8580fd5b50346103b65760403660031901126103b657610c806121a4565b60243590610c8c6124b1565b6001600160a01b031680835260026020526040832054909190610cb19060ff166121e8565b610cbc811515612225565b6040516323b872dd60e01b81523360048201523060248201526044810182905260208160648187875af18015610d5457610cfc918591610bb057506122ec565b338352600460205260408320826000526020526040600020610d1f8282546124a4565b90556040519081527ff1c0dd7e9b98bbff859029005ef89b127af049cd18df1a8d79f0b7e019911e5660203392a36001805580f35b6040513d86823e3d90fd5b50346103b657806003193601126103b657546040516001600160a01b039091168152602090f35b50346103b6573660031901610100811261128a5760e0136103b65760e43567ffffffffffffffff811161128a57610dc19036906004016121ba565b90610dca6124b1565b60a43590428210611378576001600160a01b03610de561232a565b1684526007602052604084209060c43591828652602052610e0d60ff60408720541615612340565b610e74610e51610889610e1e61232a565b966108836024358099610834610e32612379565b6108268b6064359d8e956040519687956020870199608435938b612388565b6001600160a01b03610e6161232a565b6001600160a01b0390921691161461242e565b6001600160a01b03610e8461232a565b16855260066020526040852084865260205260408520610ea2612379565b15158652602052600760408620610ebc60ff82541661246a565b015403611343576001600160a01b03610ed361232a565b16845260076020526040842081855260205260408420600160ff19825416179055610efc61232a565b610f04612379565b831591610f11831561257b565b85875260056020526040872060405190610f2a8261227f565b610f9760ff82541615158084526001830154602085015260018060a01b03600284015416936040810194855260e0600760018060a01b03600387015416956060840196875260048101546080850152600581015460a0850152600681015460c085015201549101526124d3565b60018060a01b03831693848a52600660205260408a20898b5260205260408a209381151594858c5260205260408b2091610fd460ff84541661246a565b60038301918254958b600486019a670de0b6b3a7640000610ff68d548b612511565b04809211611312578d90670de0b6b3a76400008202918204670de0b6b3a76400001417156112fd578f9493929161103961104091670de0b6b3a764000093612524565b809a612511565b0496831561128e5750516001600160a01b0316803b156103b457604051632770a7eb60e21b81526001600160a01b03929092166004830152602482018d905283908290604490829084905af190811561126a578391611275575b50505b6040516331d98b3f60e01b8152600481018d90529860208a6024817f00000000000000000000000000000000000000000000000000000000000000006001600160a01b03165afa91821561126a578d9a849361121f575b509282670de0b6b3a76400009260609997956111357ff16c0216bcc5d9774e18f914d8b1e51775546c2f5a06eadd105f7e398bbc410f9c9a98961515612544565b156112085761114f916111499154906125b0565b866125c9565b905005935b6111866005840191670de0b6b3a764000061117184549283612511565b049061117e87865461225c565b80955561225c565b9055156111fa575b5060405192835260208301526040820152a36111a861232a565b906111b1612379565b9260405193151584526020840152604083015260018060a01b0316907f75e9c89de7f7735aec154359d78686bbdc92e4a8e6e99f38daf3f6cac7f6948660603392a46001805580f35b805460ff191690553861118e565b6112169161114991546125b0565b90500593611154565b98969492509694925098506020873d602011611262575b81611243602093836122b2565b81010312610b375795518b989496939592949193928d929060606110f4565b3d9150611236565b6040513d85823e3d90fd5b8161127f916122b2565b61128a57813861109a565b5080fd5b516001600160a01b03169050803b156103b457604051632770a7eb60e21b81526001600160a01b03929092166004830152602482018d905283908290604490829084905af190811561126a5783916112e8575b505061109d565b816112f2916122b2565b61128a5781386112e1565b50634e487b7160e01b8f52601160045260248ffd5b60405162461bcd60e51b8152602060048201526009602482015268546f6f206c6172676560b81b6044820152606490fd5b60405162461bcd60e51b815260206004820152600d60248201526c082eae8d040dad2e6dac2e8c6d609b1b6044820152606490fd5b60405162461bcd60e51b8152602060048201526007602482015266115e1c1a5c995960ca1b6044820152606490fd5b50346103b65760203660031901126103b657604061010091600435815260056020522060ff8154169060018101549060018060a01b0360028201541660018060a01b0360038301541660048301549060058401549260076006860154950154956040519715158852602088015260408701526060860152608085015260a084015260c083015260e0820152f35b50346103b65760603660031901126103b65761144e6121a4565b6044359081151580920361097457916040916101009360018060a01b03168252600660205282822060243583526020528282209082526020522060ff8154169060018101549060ff6002820154166003820154600483015490600584015492600760068601549501549560405197151588526020880152151560408701526060860152608085015260a084015260c083015260e0820152f35b50346103b657806003193601126103b6576115006125ec565b80546001600160a01b03198116825581906001600160a01b03167f8be0079c531659141344cd1fd0a4f28419497f9722a3daafe3b4186f6b6457e08280a380f35b50346103b65760203660031901126103b65761155b6121a4565b6115636125ec565b6001600160a01b031680156116cf57808252600260205260ff6040832054166116955760405163313ce56760e01b8152602081600481855afa801561126a578390611658575b60ff9150168015158061164d575b156116155760207fb294e40d4778adde6ba5c3ffe754b39514f1cb27896988847a038ecb3bda1e60918385526002825260408520600160ff1982541617905583855260038252604085208160ff19825416179055604051908152a280f35b60405162461bcd60e51b815260206004820152601060248201526f496e76616c696420646563696d616c7360801b6044820152606490fd5b5060128111156115b7565b506020813d60201161168d575b81611672602093836122b2565b81010312610974575160ff811681036109745760ff906115a9565b3d9150611665565b60405162461bcd60e51b8152602060048201526012602482015271105b1c9958591e4818dbdb1b185d195c985b60721b6044820152606490fd5b60405162461bcd60e51b815260206004820152600d60248201526c24b73b30b634b2103a37b5b2b760991b6044820152606490fd5b50346103b65760603660031901126103b657600435602435801515908181036103b4576044356117326124b1565b80159161173f831561257b565b84865260056020526040862091604051936117598561227f565b6117c660ff85541615158087526001860154602088015260018060a01b03600287015416966040810197885260e0600760018060a01b0360038a0154169860608401998a5260048101546080850152600581015460a0850152600681015460c085015201549101526124d3565b3388526006602052604088208789526020526040882086895260205260408820926117f460ff85541661246a565b60038401928354966004860193670de0b6b3a764000061181586548b612511565b049081841161131257670de0b6b3a7640000840290848204670de0b6b3a7640000141715611a725761185d6118568e959493670de0b6b3a764000093612524565b809b612511565b04978415611a105750516001600160a01b0316803b1561097457604051632770a7eb60e21b8152336004820152602481019290925282908290604490829084905af18015610969576119f7575b50505b6040516331d98b3f60e01b815260048101899052916020836024817f00000000000000000000000000000000000000000000000000000000000000006001600160a01b03165afa918215610b44578a926119bb575b670de0b6b3a76400009350611918831515612544565b156119a6576119329161192c9154906125b0565b856125c9565b05935b6119526005840191670de0b6b3a764000061117184549283612511565b905515611998575b50604051928352602083015260408201527ff16c0216bcc5d9774e18f914d8b1e51775546c2f5a06eadd105f7e398bbc410f60603392a36001805580f35b805460ff191690553861195a565b6119b49161192c91546125b0565b0593611935565b91506020833d6020116119ef575b816119d6602093836122b2565b81010312610b3757670de0b6b3a7640000925191611902565b3d91506119c9565b81611a01916122b2565b611a0c5788386118aa565b8880fd5b516001600160a01b03169050803b1561097457604051632770a7eb60e21b8152336004820152602481019290925282908290604490829084905af1801561096957611a5d575b50506118ad565b81611a67916122b2565b611a0c578838611a56565b634e487b7160e01b8d52601160045260248dfd5b50346103b65760203660031901126103b65760209060ff906040906001600160a01b03611ab16121a4565b168152600284522054166040519015158152f35b50346103b65760403660031901126103b6576040611ae16121a4565b91611aea61218e565b9260018060a01b031681526004602052209060018060a01b03166000526020526020604060002054604051908152f35b50346103b65760403660031901126103b657611b346121a4565b60243590611b406124b1565b6001600160a01b031680835260026020526040832054909190611b659060ff166121e8565b611b70811515612225565b33835260046020526040832082600052602052604060002054818110611c255781611b9a9161225c565b33808552600460208181526040808820600088815290835281902094909455925163a9059cbb60e01b81529081019190915260248101839052908160448187875af18015610d5457611bf2918591610bb057506122ec565b6040519081527f45892a46e6cef329bb642da6d69846d324db43d19008edc141ed82382eda1bee60203392a36001805580f35b60405162461bcd60e51b815260206004820152601760248201527f496e73756666696369656e7420636f6c6c61746572616c0000000000000000006044820152606490fd5b50346103b657806003193601126103b6576040517f00000000000000000000000000000000000000000000000000000000000000006001600160a01b03168152602090f35b50346103b65760403660031901126103b65760209060ff906040906001600160a01b03611cda6121a4565b16815260078452818120602435825284522054166040519015158152f35b50346103b6576101603660031901126103b657600435611d1661218e565b6044359060e03660631901126103b4576101443567ffffffffffffffff811161096557611d479036906004016121ba565b611d529291926124b1565b84865260056020526040862060405194611d6b8661227f565b815460ff1615158087526001830154602088015260028301546001600160a01b03908116604089015260038401541660608801908152600484015460808901908152600585015460a08a0152600685015460c08a0190815260079095015460e09099019889529095909291611ddf906124d3565b6001600160a01b0316808a52600260205260408a2054909290611e049060ff166121e8565b8115610c2e5751670de0b6b3a764000011610bea576040516323b872dd60e01b815233600482015230602482015260448101829052916020836064818d855af1928315610b4457611e9793611e5f918c91610bb057506122ec565b338a52600460205260408a20818b5260205260408a20611e808382546124a4565b90558952600360205260ff60408a20541690612626565b92670de0b6b3a76400009485850285810487148615171561217a5786900492805161214f575b506040516331d98b3f60e01b815260048101899052946020866024817f00000000000000000000000000000000000000000000000000000000000000006001600160a01b03165afa958615610b44578a96612117575b50611f1f861515612544565b868402848104881485151715610af7579061271061070d6106fa89611f4395612524565b948515610ac157338a52600660205260408a20898b5260205260408a208a805260205260408a2080549060ff8216610a8a578892600160069360ff19161782558b60018301556002820160ff1981541690558a6003830155600482015587600582015501556064359360018060a01b038516808603610a86573303610a535760843594898603610a1f5760a435801515808203610a1b576109eb5760c435928684116109b55761010435428110610978578d9861204c95610834610889956108268d610883966108929a33835260076020526040832092610124359384825260205261203660ff60408320541615612340565b50604051968795602087019960e435938b612388565b3384526006602090815260408086208a87528252808620868052909152842060070155516001600160a01b031690813b15610974576040516340c10f1960e01b8152336004820152602481019190915291908290604490829084905af1801561210c576120f8575b50604051928584526020840152604083015260608201527f3b42d27f70ad0fdd7eeb05c9a1716722579dc5cd8a7f7c3d405751b15ca7dd6260803392a36001805580f35b85612105919692966122b2565b93386120b4565b6040513d88823e3d90fd5b9095506020813d602011612147575b81612133602093836122b2565b8101031261214357519438611f13565b8980fd5b3d9150612126565b6127108602908682046127101487151715610af75761216f905185612511565b11610b7a5738611ebd565b634e487b7160e01b8a52601160045260248afd5b602435906001600160a01b0382168203610b3757565b600435906001600160a01b0382168203610b3757565b9181601f84011215610b375782359167ffffffffffffffff8311610b375760208381860195010111610b3757565b156121ef57565b60405162461bcd60e51b815260206004820152600e60248201526d139bdd0818dbdb1b185d195c985b60921b6044820152606490fd5b1561222c57565b60405162461bcd60e51b81526020600482015260086024820152670416d6f756e743d360c41b6044820152606490fd5b9190820391821161226957565b634e487b7160e01b600052601160045260246000fd5b610100810190811067ffffffffffffffff82111761229c57604052565b634e487b7160e01b600052604160045260246000fd5b90601f8019910116810190811067ffffffffffffffff82111761229c57604052565b90816020910312610b3757518015158103610b375790565b156122f357565b60405162461bcd60e51b815260206004820152600f60248201526e151c985b9cd9995c8819985a5b1959608a1b6044820152606490fd5b6004356001600160a01b0381168103610b375790565b1561234757565b60405162461bcd60e51b815260206004820152600a602482015269139bdb98d9481d5cd95960b21b6044820152606490fd5b6044358015158103610b375790565b93909796959260e095926101008601997f7d0d6d6052cdac14d130981ee83f7f07aa261f2ca2c69409944d1bfc9ad72641875260018060a01b03166020870152604086015215156060850152608084015260a083015260c08201520152565b92919267ffffffffffffffff821161229c5760405191612411601f8201601f1916602001846122b2565b829481845281830111610b37578281602093846000960137010152565b1561243557565b60405162461bcd60e51b815260206004820152600d60248201526c426164207369676e617475726560981b6044820152606490fd5b1561247157565b60405162461bcd60e51b815260206004820152600b60248201526a2737903837b9b4ba34b7b760a91b6044820152606490fd5b9190820180921161226957565b6002600154146124c2576002600155565b633ee5aeb560e01b60005260046000fd5b156124da57565b60405162461bcd60e51b815260206004820152600f60248201526e4d61726b657420696e61637469766560881b6044820152606490fd5b8181029291811591840414171561226957565b811561252e570490565b634e487b7160e01b600052601260045260246000fd5b1561254b57565b60405162461bcd60e51b81526020600482015260086024820152674e6f20707269636560c01b6044820152606490fd5b1561258257565b60405162461bcd60e51b8152602060048201526006602482015265053697a653d360d41b6044820152606490fd5b8181039291600013801582851316918412161761226957565b818102929160008212600160ff1b82141661226957818405149015171561226957565b6000546001600160a01b0316330361260057565b63118cdaa760e01b6000523360045260246000fd5b60ff16604d811161226957600a0a90565b9060ff1660128103612636575090565b6012811015612660576012039060ff82116122695761265761265d92612615565b90612511565b90565b601119019060ff82116122695761267961265d92612615565b90612524565b81519190604183036126b0576126a992506020820151906060604084015193015160001a90612743565b9192909190565b505060009160029190565b919091600481101561272d57806126d157509050565b6000600182036126ec5763f645eedf60e01b60005260046000fd5b506002810361270a578263fce698f760e01b60005260045260246000fd5b909160036000921461271a575050565b6335e2f38360e21b825260045260249150fd5b634e487b7160e01b600052602160045260246000fd5b91907f7fffffffffffffffffffffffffffffff5d576e7357a4501ddfe92f46681b20a084116127cc579160209360809260ff60009560405194855216868401526040830152606082015282805260015afa156127c0576000516001600160a01b038116156127b45790600090600090565b50600090600190600090565b6040513d6000823e3d90fd5b5050506000916003919056fea2646970667358221220a4b06b70c5a5e962c1d65adb9aa0428eef0ad40e5d6f2826f51bf66a47dcee8a64736f6c634300081b0033",
  "linkReferences": {},
  "deployedLinkReferences": {}
}