{
  "_format": "hh-sol-artifact-1",
  "contractName": "FxPositionToken",
  "sourceName": "contracts/FxPositionToken.sol",
  "abi": [
    {
      "inputs": [
        {
          "internalType": "string",
          "name": "name_",
          "type": "string"
        },
        {
          "internalType": "string",
          "name": "symbol_",
          "type": "string"
        },
        {
          "internalType": "address",
          "name": "initialVault",
          "type": "address"
        }
      ],
      "stateMutability": "nonpayable",
      "type": "constructor"
    },
    {
      "inputs": [
        {
          "internalType": "address",
          "name": "spender",
          "type": "address"
        },
        {
          "internalType": "uint256",
          "name": "allowance",
          "type": "uint256"
        },
        {
          "internalType": "uint256",
          "name": "needed",
          "type": "uint256"
        }
      ],
      "name": "ERC20InsufficientAllowance",
      "type": "error"
    },
    {
      "inputs": [
        {
          "internalType": "address",
          "name": "sender",
          "type": "address"
        },
        {
          "internalType": "uint256",
          "name": "balance",
          "type": "uint256"
        },
        {
          "internalType": "uint256",
          "name": "needed",
          "type": "uint256"
        }
      ],
      "name": "ERC20InsufficientBalance",
      "type": "error"
    },
    {
      "inputs": [
        {
          "internalType": "address",
          "name": "approver",
          "type": "address"
        }
      ],
      "name": "ERC20InvalidApprover",
      "type": "error"
    },
    {
      "inputs": [
        {
          "internalType": "address",
          "name": "receiver",
          "type": "address"
        }
      ],
      "name": "ERC20InvalidReceiver",
      "type": "error"
    },
    {
      "inputs": [
        {
          "internalType": "address",
          "name": "sender",
          "type": "address"
        }
      ],
      "name": "ERC20InvalidSender",
      "type": "error"
    },
    {
      "inputs": [
        {
          "internalType": "address",
          "name": "spender",
          "type": "address"
        }
      ],
      "name": "ERC20InvalidSpender",
      "type": "error"
    },
    {
      "inputs": [
        {
          "internalType": "address",
          "name": "owner",
          "type": "address"
        }
      ],
      "name": "OwnableInvalidOwner",
      "type": "error"
    },
    {
      "inputs": [
        {
          "internalType": "address",
          "name": "account",
          "type": "address"
        }
      ],
      "name": "OwnableUnauthorizedAccount",
      "type": "error"
    },
    {
      "anonymous": false,
      "inputs": [
        {
          "indexed": true,
          "internalType": "address",
          "name": "owner",
          "type": "address"
        },
        {
          "indexed": true,
          "internalType": "address",
          "name": "spender",
          "type": "address"
        },
        {
          "indexed": false,
          "internalType": "uint256",
          "name": "value",
          "type": "uint256"
        }
      ],
      "name": "Approval",
      "type": "event"
    },
    {
      "anonymous": false,
      "inputs": [
        {
          "indexed": true,
          "internalType": "address",
          "name": "previousOwner",
          "type": "address"
        },
        {
          "indexed": true,
          "internalType": "address",
          "name": "newOwner",
          "type": "address"
        }
      ],
      "name": "OwnershipTransferred",
      "type": "event"
    },
    {
      "anonymous": false,
      "inputs": [
        {
          "indexed": true,
          "internalType": "address",
          "name": "from",
          "type": "address"
        },
        {
          "indexed": true,
          "internalType": "address",
          "name": "to",
          "type": "address"
        },
        {
          "indexed": false,
          "internalType": "uint256",
          "name": "value",
          "type": "uint256"
        }
      ],
      "name": "Transfer",
      "type": "event"
    },
    {
      "anonymous": false,
      "inputs": [
        {
          "indexed": true,
          "internalType": "address",
          "name": "oldVault",
          "type": "address"
        },
        {
          "indexed": true,
          "internalType": "address",
          "name": "newVault",
          "type": "address"
        }
      ],
      "name": "VaultUpdated",
      "type": "event"
    },
    {
      "inputs": [
        {
          "internalType": "address",
          "name": "owner",
          "type": "address"
        },
        {
          "internalType": "address",
          "name": "spender",
          "type": "address"
        }
      ],
      "name": "allowance",
      "outputs": [
        {
          "internalType": "uint256",
          "name": "",
          "type": "uint256"
        }
      ],
      "stateMutability": "view",
      "type": "function"
    },
    {
      "inputs": [
        {
          "internalType": "address",
          "name": "spender",
          "type": "address"
        },
        {
          "internalType": "uint256",
          "name": "value",
          "type": "uint256"
        }
      ],
      "name": "approve",
      "outputs": [
        {
          "internalType": "bool",
          "name": "",
          "type": "bool"
        }
      ],
      "stateMutability": "nonpayable",
      "type": "function"
    },
    {
      "inputs": [
        {
          "internalType": "address",
          "name": "account",
          "type": "address"
        }
      ],
      "name": "balanceOf",
      "outputs": [
        {
          "internalType": "uint256",
          "name": "",
          "type": "uint256"
        }
      ],
      "stateMutability": "view",
      "type": "function"
    },
    {
      "inputs": [
        {
          "internalType": "address",
          "name": "from",
          "type": "address"
        },
        {
          "internalType": "uint256",
          "name": "amount",
          "type": "uint256"
        }
      ],
      "name": "burn",
      "outputs": [],
      "stateMutability": "nonpayable",
      "type": "function"
    },
    {
      "inputs": [],
      "name": "decimals",
      "outputs": [
        {
          "internalType": "uint8",
          "name": "",
          "type": "uint8"
        }
      ],
      "stateMutability": "view",
      "type": "function"
    },
    {
      "inputs": [
        {
          "internalType": "address",
          "name": "to",
          "type": "address"
        },
        {
          "internalType": "uint256",
          "name": "amount",
          "type": "uint256"
        }
      ],
      "name": "mint",
      "outputs": [],
      "stateMutability": "nonpayable",
      "type": "function"
    },
    {
      "inputs": [],
      "name": "name",
      "outputs": [
        {
          "internalType": "string",
          "name": "",
          "type": "string"
        }
      ],
      "stateMutability": "view",
      "type": "function"
    },
    {
      "inputs": [],
      "name": "owner",
      "outputs": [
        {
          "internalType": "address",
          "name": "",
          "type": "address"
        }
      ],
      "stateMutability": "view",
      "type": "function"
    },
    {
      "inputs": [],
      "name": "renounceOwnership",
      "outputs": [],
      "stateMutability": "nonpayable",
      "type": "function"
    },
    {
      "inputs": [
        {
          "internalType": "address",
          "name": "newVault",
          "type": "address"
        }
      ],
      "name": "setVault",
      "outputs": [],
      "stateMutability": "nonpayable",
      "type": "function"
    },
    {
      "inputs": [],
      "name": "symbol",
      "outputs": [
        {
          "internalType": "string",
          "name": "",
          "type": "string"
        }
      ],
      "stateMutability": "view",
      "type": "function"
    },
    {
      "inputs": [],
      "name": "totalSupply",
      "outputs": [
        {
          "internalType": "uint256",
          "name": "",
          "type": "uint256"
        }
      ],
      "stateMutability": "view",
      "type": "function"
    },
    {
      "inputs": [
        {
          "internalType": "address",
          "name": "to",
          "type": "address"
        },
        {
          "internalType": "uint256",
          "name": "value",
          "type": "uint256"
        }
      ],
      "name": "transfer",
      "outputs": [
        {
          "internalType": "bool",
          "name": "",
          "type": "bool"
        }
      ],
      "stateMutability": "nonpayable",
      "type": "function"
    },
    {
      "inputs": [
        {
          "internalType": "address",
          "name": "from",
          "type": "address"
        },
        {
          "internalType": "address",
          "name": "to",
          "type": "address"
        },
        {
          "internalType": "uint256",
          "name": "value",
          "type": "uint256"
        }
      ],
      "name": "transferFrom",
      "outputs": [
        {
          "internalType": "bool",
          "name": "",
          "type": "bool"
        }
      ],
      "stateMutability": "nonpayable",
      "type": "function"
    },
    {
      "inputs": [
        {
          "internalType": "address",
          "name": "newOwner",
          "type": "address"
        }
      ],
      "name": "transferOwnership",
      "outputs": [],
      "stateMutability": "nonpayable",
      "type": "function"
    },
    {
      "inputs": [],
      "name": "vault",
      "outputs": [
        {
          "internalType": "address",
          "name": "",
          "type": "address"
        }
      ],
      "stateMutability": "view",
      "type": "function"
    }
  ],
  "bytecode": "0x60806040523461040157610f318038038061001981610406565b9283398101906060818303126104015780516001600160401b038111610401578261004591830161042b565b60208201519092906001600160401b0381116104015760409161006991840161042b565b9101516001600160a01b038116908190036104015782516001600160401b03811161030a57600354600181811c911680156103f7575b60208210146102ea57601f8111610392575b506020601f821160011461032b5781929394600092610320575b50508160011b916000199060031b1c1916176003555b81516001600160401b03811161030a57600454600181811c91168015610300575b60208210146102ea57601f8111610285575b50602092601f82116001146102205792819293600092610215575b50508160011b916000199060031b1c1916176004555b33156101ff5760058054336001600160a01b03198216811790925560405191906001600160a01b03167f8be0079c531659141344cd1fd0a4f28419497f9722a3daafe3b4186f6b6457e0600080a381156101bd5750600680546001600160a01b031916919091179055604051610a9a90816104978239f35b62461bcd60e51b815260206004820152601560248201527f496e76616c6964207661756c74206164647265737300000000000000000000006044820152606490fd5b631e4fbdf760e01b600052600060045260246000fd5b01519050388061012f565b601f198216936004600052806000209160005b86811061026d5750836001959610610254575b505050811b01600455610145565b015160001960f88460031b161c19169055388080610246565b91926020600181928685015181550194019201610233565b60046000527f8a35acfbc15ff81a39ae7d344fd709f28e8600b4aa8c65c6b64bfe7fe36bd19b601f830160051c810191602084106102e0575b601f0160051c01905b8181106102d45750610114565b600081556001016102c7565b90915081906102be565b634e487b7160e01b600052602260045260246000fd5b90607f1690610102565b634e487b7160e01b600052604160045260246000fd5b0151905038806100cb565b601f198216906003600052806000209160005b81811061037a57509583600195969710610361575b505050811b016003556100e1565b015160001960f88460031b161c19169055388080610353565b9192602060018192868b01518155019401920161033e565b60036000527fc2575a0e9e593c00f959f8c92f12db2869c3395a3b0502d05e2516446f71f85b601f830160051c810191602084106103ed575b601f0160051c01905b8181106103e157506100b1565b600081556001016103d4565b90915081906103cb565b90607f169061009f565b600080fd5b6040519190601f01601f191682016001600160401b0381118382101761030a57604052565b81601f82011215610401578051906001600160401b03821161030a5761045a601f8301601f1916602001610406565b92828452602083830101116104015760005b82811061048157505060206000918301015290565b8060208092840101518282870101520161046c56fe608080604052600436101561001357600080fd5b600090813560e01c90816306fdde031461081757508063095ea7b31461076d57806318160ddd1461074f57806323b872dd14610676578063313ce5671461065a57806340c10f19146105975780636817031b146104e557806370a08231146104ad578063715018a6146104505780638da5cb5b1461042757806395d89b411461030b5780639dc29fac146101fe578063a9059cbb146101da578063dd62ed3e14610185578063f2fde38b146100fc5763fbfa77cf146100d157600080fd5b346100f957806003193601126100f9576006546040516001600160a01b039091168152602090f35b80fd5b50346100f95760203660031901126100f957610116610935565b61011e610a3b565b6001600160a01b0316801561017157600580546001600160a01b0319811683179091556001600160a01b03167f8be0079c531659141344cd1fd0a4f28419497f9722a3daafe3b4186f6b6457e08380a380f35b631e4fbdf760e01b82526004829052602482fd5b50346100f95760403660031901126100f95760406101a1610935565b916101aa610950565b9260018060a01b031681526001602052209060018060a01b03166000526020526020604060002054604051908152f35b50346100f95760403660031901126100f9576101f4610935565b60243590336109b2565b50346100f95760403660031901126100f957610218610935565b6024359061023160018060a01b03600654163314610966565b6001600160a01b03169182156102f7576102b9576000908282528160205260408220548181106102a15760208285937fddf252ad1be2c89b69c2b068fc378daa952ba7f163c4a11628f55a4df523b3ef93869787528684520360408620558060025403600255604051908152a380f35b60649363391434e360e21b8452600452602452604452fd5b60405162461bcd60e51b81526020600482015260166024820152752737b716ba3930b739b332b930b13632903a37b5b2b760511b6044820152606490fd5b634b637e8f60e11b81526004819052602490fd5b50346100f957806003193601126100f957604051816004548060011c9060018116801561041d575b602083108114610409578285529081156103ed5750600114610399575b50819003601f01601f191681019167ffffffffffffffff8311828410176103855750610381829182604052826108ec565b0390f35b634e487b7160e01b81526041600452602490fd5b600484529050827f8a35acfbc15ff81a39ae7d344fd709f28e8600b4aa8c65c6b64bfe7fe36bd19b5b8282106103d757506020915082010138610350565b60018160209254838588010152019101906103c2565b90506020925060ff191682840152151560051b82010138610350565b634e487b7160e01b86526022600452602486fd5b91607f1691610333565b50346100f957806003193601126100f9576005546040516001600160a01b039091168152602090f35b50346100f957806003193601126100f957610469610a3b565b600580546001600160a01b0319811690915581906001600160a01b03167f8be0079c531659141344cd1fd0a4f28419497f9722a3daafe3b4186f6b6457e08280a380f35b50346100f95760203660031901126100f9576020906040906001600160a01b036104d5610935565b1681528083522054604051908152f35b50346100f95760203660031901126100f9576104ff610935565b610507610a3b565b6001600160a01b0316801561055a57600680546001600160a01b0319811683179091556001600160a01b03167f483bdedaaf23706a9800ac1af0d852b34927780d79f9d6ba60a80c7cad75ea398380a380f35b60405162461bcd60e51b8152602060048201526015602482015274496e76616c6964207661756c74206164647265737360581b6044820152606490fd5b50346100f95760403660031901126100f9576105b1610935565b90602435916105cb60018060a01b03600654163314610966565b6001600160a01b0316908115610646575060025491808301809311610630576020926002557fddf252ad1be2c89b69c2b068fc378daa952ba7f163c4a11628f55a4df523b3ef600093849284845283825260408420818154019055604051908152a380f35b634e487b7160e01b600052601160045260246000fd5b63ec442f0560e01b81526004819052602490fd5b50346100f957806003193601126100f957602060405160128152f35b50346100f95760603660031901126100f957610690610935565b610698610950565b6001600160a01b03821680845260016020908152604080862033875290915284205460443594929392909160001983106106d5575b5050506109b2565b85831061073457801561072057331561070c57815260016020908152604080832033845290915290209084900390553880806106cd565b634a1406b160e11b82526004829052602482fd5b63e602df0560e01b82526004829052602482fd5b5084606492637dc7a0d960e11b835233600452602452604452fd5b50346100f957806003193601126100f9576020600254604051908152f35b50346100f95760403660031901126100f957610787610935565b602435903315610803576001600160a01b03169182156107ef5760408291338152600160205281812085825260205220556040519081527f8c5be1e5ebec7d5bd14f71427d1e84f3dd0314c0f7b2291e5b200ac8c7c3b92560203392a3602060405160018152f35b634a1406b160e11b81526004819052602490fd5b63e602df0560e01b83526004839052602483fd5b9050346108e857816003193601126108e857816003548060011c906001811680156108de575b602083108114610409578285529081156103ed575060011461088a5750819003601f01601f191681019167ffffffffffffffff8311828410176103855750610381829182604052826108ec565b600384529050827fc2575a0e9e593c00f959f8c92f12db2869c3395a3b0502d05e2516446f71f85b5b8282106108c857506020915082010138610350565b60018160209254838588010152019101906108b3565b91607f169161083d565b5080fd5b91909160208152825180602083015260005b81811061091f575060409293506000838284010152601f8019910116010190565b80602080928701015160408286010152016108fe565b600435906001600160a01b038216820361094b57565b600080fd5b602435906001600160a01b038216820361094b57565b1561096d57565b60405162461bcd60e51b815260206004820152601760248201527f43616c6c6572206973206e6f7420746865207661756c740000000000000000006044820152606490fd5b9091506001600160a01b031615610a25576001600160a01b031615610a0f5760405162461bcd60e51b81526020600482015260166024820152752737b716ba3930b739b332b930b13632903a37b5b2b760511b6044820152606490fd5b63ec442f0560e01b600052600060045260246000fd5b634b637e8f60e11b600052600060045260246000fd5b6005546001600160a01b03163303610a4f57565b63118cdaa760e01b6000523360045260246000fdfea2646970667358221220670ab89d00a2a8414af7cbdf334ec5c899928759343845249a2f094601ca53ce64736f6c634300081b0033",
  "linkReferences": {},
  "deployedLinkReferences": {}
}