{
  "_format": "hh-sol-artifact-1",
  "contractName": "USDC",
  "sourceName": "contracts/usdc.sol",
  "abi": [
    {
      "inputs": [
        {
          "internalType": "address",
          "name": "tokenBridge_",
          "type": "address"
        },
        {
          "internalType": "address",
          "name": "recipient",
          "type": "address"
        }
      ],
      "stateMutability": "nonpayable",
      "type": "constructor"
    },
    {
      "inputs": [],
      "name": "ECDSAInvalidSignature",
      "type": "error"
    },
    {
      "inputs": [
        {
          "internalType": "uint256",
          "name": "length",
          "type": "uint256"
        }
      ],
      "name": "ECDSAInvalidSignatureLength",
      "type": "error"
    },
    {
      "inputs": [
        {
          "internalType": "bytes32",
          "name": "s",
          "type": "bytes32"
        }
      ],
      "name": "ECDSAInvalidSignatureS",
      "type": "error"
    },
    {
      "inputs": [
        {
          "internalType": "address",
          "name": "spender",
          "type": "address"
        },
        {
          "internalType": "uint256",
          "name": "value",
          "type": "uint256"
        }
      ],
      "name": "ERC1363ApproveFailed",
      "type": "error"
    },
    {
      "inputs": [
        {
          "internalType": "address",
          "name": "receiver",
          "type": "address"
        }
      ],
      "name": "ERC1363InvalidReceiver",
      "type": "error"
    },
    {
      "inputs": [
        {
          "internalType": "address",
          "name": "spender",
          "type": "address"
        }
      ],
      "name": "ERC1363InvalidSpender",
      "type": "error"
    },
    {
      "inputs": [
        {
          "internalType": "address",
          "name": "receiver",
          "type": "address"
        },
        {
          "internalType": "uint256",
          "name": "value",
          "type": "uint256"
        }
      ],
      "name": "ERC1363TransferFailed",
      "type": "error"
    },
    {
      "inputs": [
        {
          "internalType": "address",
          "name": "sender",
          "type": "address"
        },
        {
          "internalType": "address",
          "name": "receiver",
          "type": "address"
        },
        {
          "internalType": "uint256",
          "name": "value",
          "type": "uint256"
        }
      ],
      "name": "ERC1363TransferFromFailed",
      "type": "error"
    },
    {
      "inputs": [
        {
          "internalType": "address",
          "name": "spender",
          "type": "address"
        },
        {
          "internalType": "uint256",
          "name": "allowance",
          "type": "uint256"
        },
        {
          "internalType": "uint256",
          "name": "needed",
          "type": "uint256"
        }
      ],
      "name": "ERC20InsufficientAllowance",
      "type": "error"
    },
    {
      "inputs": [
        {
          "internalType": "address",
          "name": "sender",
          "type": "address"
        },
        {
          "internalType": "uint256",
          "name": "balance",
          "type": "uint256"
        },
        {
          "internalType": "uint256",
          "name": "needed",
          "type": "uint256"
        }
      ],
      "name": "ERC20InsufficientBalance",
      "type": "error"
    },
    {
      "inputs": [
        {
          "internalType": "address",
          "name": "approver",
          "type": "address"
        }
      ],
      "name": "ERC20InvalidApprover",
      "type": "error"
    },
    {
      "inputs": [
        {
          "internalType": "address",
          "name": "receiver",
          "type": "address"
        }
      ],
      "name": "ERC20InvalidReceiver",
      "type": "error"
    },
    {
      "inputs": [
        {
          "internalType": "address",
          "name": "sender",
          "type": "address"
        }
      ],
      "name": "ERC20InvalidSender",
      "type": "error"
    },
    {
      "inputs": [
        {
          "internalType": "address",
          "name": "spender",
          "type": "address"
        }
      ],
      "name": "ERC20InvalidSpender",
      "type": "error"
    },
    {
      "inputs": [
        {
          "internalType": "uint256",
          "name": "deadline",
          "type": "uint256"
        }
      ],
      "name": "ERC2612ExpiredSignature",
      "type": "error"
    },
    {
      "inputs": [
        {
          "internalType": "address",
          "name": "signer",
          "type": "address"
        },
        {
          "internalType": "address",
          "name": "owner",
          "type": "address"
        }
      ],
      "name": "ERC2612InvalidSigner",
      "type": "error"
    },
    {
      "inputs": [
        {
          "internalType": "uint256",
          "name": "maxLoan",
          "type": "uint256"
        }
      ],
      "name": "ERC3156ExceededMaxLoan",
      "type": "error"
    },
    {
      "inputs": [
        {
          "internalType": "address",
          "name": "receiver",
          "type": "address"
        }
      ],
      "name": "ERC3156InvalidReceiver",
      "type": "error"
    },
    {
      "inputs": [
        {
          "internalType": "address",
          "name": "token",
          "type": "address"
        }
      ],
      "name": "ERC3156UnsupportedToken",
      "type": "error"
    },
    {
      "inputs": [
        {
          "internalType": "address",
          "name": "account",
          "type": "address"
        },
        {
          "internalType": "uint256",
          "name": "currentNonce",
          "type": "uint256"
        }
      ],
      "name": "InvalidAccountNonce",
      "type": "error"
    },
    {
      "inputs": [],
      "name": "InvalidShortString",
      "type": "error"
    },
    {
      "inputs": [
        {
          "internalType": "string",
          "name": "str",
          "type": "string"
        }
      ],
      "name": "StringTooLong",
      "type": "error"
    },
    {
      "inputs": [],
      "name": "Unauthorized",
      "type": "error"
    },
    {
      "anonymous": false,
      "inputs": [
        {
          "indexed": true,
          "internalType": "address",
          "name": "owner",
          "type": "address"
        },
        {
          "indexed": true,
          "internalType": "address",
          "name": "spender",
          "type": "address"
        },
        {
          "indexed": false,
          "internalType": "uint256",
          "name": "value",
          "type": "uint256"
        }
      ],
      "name": "Approval",
      "type": "event"
    },
    {
      "anonymous": false,
      "inputs": [
        {
          "indexed": true,
          "internalType": "address",
          "name": "from",
          "type": "address"
        },
        {
          "indexed": false,
          "internalType": "uint256",
          "name": "amount",
          "type": "uint256"
        },
        {
          "indexed": true,
          "internalType": "address",
          "name": "sender",
          "type": "address"
        }
      ],
      "name": "CrosschainBurn",
      "type": "event"
    },
    {
      "anonymous": false,
      "inputs": [
        {
          "indexed": true,
          "internalType": "address",
          "name": "to",
          "type": "address"
        },
        {
          "indexed": false,
          "internalType": "uint256",
          "name": "amount",
          "type": "uint256"
        },
        {
          "indexed": true,
          "internalType": "address",
          "name": "sender",
          "type": "address"
        }
      ],
      "name": "CrosschainMint",
      "type": "event"
    },
    {
      "anonymous": false,
      "inputs": [],
      "name": "EIP712DomainChanged",
      "type": "event"
    },
    {
      "anonymous": false,
      "inputs": [
        {
          "indexed": true,
          "internalType": "address",
          "name": "from",
          "type": "address"
        },
        {
          "indexed": true,
          "internalType": "address",
          "name": "to",
          "type": "address"
        },
        {
          "indexed": false,
          "internalType": "uint256",
          "name": "value",
          "type": "uint256"
        }
      ],
      "name": "Transfer",
      "type": "event"
    },
    {
      "inputs": [],
      "name": "DOMAIN_SEPARATOR",
      "outputs": [
        {
          "internalType": "bytes32",
          "name": "",
          "type": "bytes32"
        }
      ],
      "stateMutability": "view",
      "type": "function"
    },
    {
      "inputs": [
        {
          "internalType": "address",
          "name": "owner",
          "type": "address"
        },
        {
          "internalType": "address",
          "name": "spender",
          "type": "address"
        }
      ],
      "name": "allowance",
      "outputs": [
        {
          "internalType": "uint256",
          "name": "",
          "type": "uint256"
        }
      ],
      "stateMutability": "view",
      "type": "function"
    },
    {
      "inputs": [
        {
          "internalType": "address",
          "name": "spender",
          "type": "address"
        },
        {
          "internalType": "uint256",
          "name": "value",
          "type": "uint256"
        }
      ],
      "name": "approve",
      "outputs": [
        {
          "internalType": "bool",
          "name": "",
          "type": "bool"
        }
      ],
      "stateMutability": "nonpayable",
      "type": "function"
    },
    {
      "inputs": [
        {
          "internalType": "address",
          "name": "spender",
          "type": "address"
        },
        {
          "internalType": "uint256",
          "name": "value",
          "type": "uint256"
        }
      ],
      "name": "approveAndCall",
      "outputs": [
        {
          "internalType": "bool",
          "name": "",
          "type": "bool"
        }
      ],
      "stateMutability": "nonpayable",
      "type": "function"
    },
    {
      "inputs": [
        {
          "internalType": "address",
          "name": "spender",
          "type": "address"
        },
        {
          "internalType": "uint256",
          "name": "value",
          "type": "uint256"
        },
        {
          "internalType": "bytes",
          "name": "data",
          "type": "bytes"
        }
      ],
      "name": "approveAndCall",
      "outputs": [
        {
          "internalType": "bool",
          "name": "",
          "type": "bool"
        }
      ],
      "stateMutability": "nonpayable",
      "type": "function"
    },
    {
      "inputs": [
        {
          "internalType": "address",
          "name": "account",
          "type": "address"
        }
      ],
      "name": "balanceOf",
      "outputs": [
        {
          "internalType": "uint256",
          "name": "",
          "type": "uint256"
        }
      ],
      "stateMutability": "view",
      "type": "function"
    },
    {
      "inputs": [
        {
          "internalType": "uint256",
          "name": "value",
          "type": "uint256"
        }
      ],
      "name": "burn",
      "outputs": [],
      "stateMutability": "nonpayable",
      "type": "function"
    },
    {
      "inputs": [
        {
          "internalType": "address",
          "name": "account",
          "type": "address"
        },
        {
          "internalType": "uint256",
          "name": "value",
          "type": "uint256"
        }
      ],
      "name": "burnFrom",
      "outputs": [],
      "stateMutability": "nonpayable",
      "type": "function"
    },
    {
      "inputs": [
        {
          "internalType": "address",
          "name": "from",
          "type": "address"
        },
        {
          "internalType": "uint256",
          "name": "value",
          "type": "uint256"
        }
      ],
      "name": "crosschainBurn",
      "outputs": [],
      "stateMutability": "nonpayable",
      "type": "function"
    },
    {
      "inputs": [
        {
          "internalType": "address",
          "name": "to",
          "type": "address"
        },
        {
          "internalType": "uint256",
          "name": "value",
          "type": "uint256"
        }
      ],
      "name": "crosschainMint",
      "outputs": [],
      "stateMutability": "nonpayable",
      "type": "function"
    },
    {
      "inputs": [],
      "name": "decimals",
      "outputs": [
        {
          "internalType": "uint8",
          "name": "",
          "type": "uint8"
        }
      ],
      "stateMutability": "pure",
      "type": "function"
    },
    {
      "inputs": [],
      "name": "eip712Domain",
      "outputs": [
        {
          "internalType": "bytes1",
          "name": "fields",
          "type": "bytes1"
        },
        {
          "internalType": "string",
          "name": "name",
          "type": "string"
        },
        {
          "internalType": "string",
          "name": "version",
          "type": "string"
        },
        {
          "internalType": "uint256",
          "name": "chainId",
          "type": "uint256"
        },
        {
          "internalType": "address",
          "name": "verifyingContract",
          "type": "address"
        },
        {
          "internalType": "bytes32",
          "name": "salt",
          "type": "bytes32"
        },
        {
          "internalType": "uint256[]",
          "name": "extensions",
          "type": "uint256[]"
        }
      ],
      "stateMutability": "view",
      "type": "function"
    },
    {
      "inputs": [
        {
          "internalType": "address",
          "name": "token",
          "type": "address"
        },
        {
          "internalType": "uint256",
          "name": "value",
          "type": "uint256"
        }
      ],
      "name": "flashFee",
      "outputs": [
        {
          "internalType": "uint256",
          "name": "",
          "type": "uint256"
        }
      ],
      "stateMutability": "view",
      "type": "function"
    },
    {
      "inputs": [
        {
          "internalType": "contract IERC3156FlashBorrower",
          "name": "receiver",
          "type": "address"
        },
        {
          "internalType": "address",
          "name": "token",
          "type": "address"
        },
        {
          "internalType": "uint256",
          "name": "value",
          "type": "uint256"
        },
        {
          "internalType": "bytes",
          "name": "data",
          "type": "bytes"
        }
      ],
      "name": "flashLoan",
      "outputs": [
        {
          "internalType": "bool",
          "name": "",
          "type": "bool"
        }
      ],
      "stateMutability": "nonpayable",
      "type": "function"
    },
    {
      "inputs": [
        {
          "internalType": "address",
          "name": "token",
          "type": "address"
        }
      ],
      "name": "maxFlashLoan",
      "outputs": [
        {
          "internalType": "uint256",
          "name": "",
          "type": "uint256"
        }
      ],
      "stateMutability": "view",
      "type": "function"
    },
    {
      "inputs": [],
      "name": "name",
      "outputs": [
        {
          "internalType": "string",
          "name": "",
          "type": "string"
        }
      ],
      "stateMutability": "view",
      "type": "function"
    },
    {
      "inputs": [
        {
          "internalType": "address",
          "name": "owner",
          "type": "address"
        }
      ],
      "name": "nonces",
      "outputs": [
        {
          "internalType": "uint256",
          "name": "",
          "type": "uint256"
        }
      ],
      "stateMutability": "view",
      "type": "function"
    },
    {
      "inputs": [
        {
          "internalType": "address",
          "name": "owner",
          "type": "address"
        },
        {
          "internalType": "address",
          "name": "spender",
          "type": "address"
        },
        {
          "internalType": "uint256",
          "name": "value",
          "type": "uint256"
        },
        {
          "internalType": "uint256",
          "name": "deadline",
          "type": "uint256"
        },
        {
          "internalType": "uint8",
          "name": "v",
          "type": "uint8"
        },
        {
          "internalType": "bytes32",
          "name": "r",
          "type": "bytes32"
        },
        {
          "internalType": "bytes32",
          "name": "s",
          "type": "bytes32"
        }
      ],
      "name": "permit",
      "outputs": [],
      "stateMutability": "nonpayable",
      "type": "function"
    },
    {
      "inputs": [
        {
          "internalType": "bytes4",
          "name": "interfaceId",
          "type": "bytes4"
        }
      ],
      "name": "supportsInterface",
      "outputs": [
        {
          "internalType": "bool",
          "name": "",
          "type": "bool"
        }
      ],
      "stateMutability": "view",
      "type": "function"
    },
    {
      "inputs": [],
      "name": "symbol",
      "outputs": [
        {
          "internalType": "string",
          "name": "",
          "type": "string"
        }
      ],
      "stateMutability": "view",
      "type": "function"
    },
    {
      "inputs": [],
      "name": "tokenBridge",
      "outputs": [
        {
          "internalType": "address",
          "name": "",
          "type": "address"
        }
      ],
      "stateMutability": "view",
      "type": "function"
    },
    {
      "inputs": [],
      "name": "totalSupply",
      "outputs": [
        {
          "internalType": "uint256",
          "name": "",
          "type": "uint256"
        }
      ],
      "stateMutability": "view",
      "type": "function"
    },
    {
      "inputs": [
        {
          "internalType": "address",
          "name": "to",
          "type": "address"
        },
        {
          "internalType": "uint256",
          "name": "value",
          "type": "uint256"
        }
      ],
      "name": "transfer",
      "outputs": [
        {
          "internalType": "bool",
          "name": "",
          "type": "bool"
        }
      ],
      "stateMutability": "nonpayable",
      "type": "function"
    },
    {
      "inputs": [
        {
          "internalType": "address",
          "name": "to",
          "type": "address"
        },
        {
          "internalType": "uint256",
          "name": "value",
          "type": "uint256"
        }
      ],
      "name": "transferAndCall",
      "outputs": [
        {
          "internalType": "bool",
          "name": "",
          "type": "bool"
        }
      ],
      "stateMutability": "nonpayable",
      "type": "function"
    },
    {
      "inputs": [
        {
          "internalType": "address",
          "name": "to",
          "type": "address"
        },
        {
          "internalType": "uint256",
          "name": "value",
          "type": "uint256"
        },
        {
          "internalType": "bytes",
          "name": "data",
          "type": "bytes"
        }
      ],
      "name": "transferAndCall",
      "outputs": [
        {
          "internalType": "bool",
          "name": "",
          "type": "bool"
        }
      ],
      "stateMutability": "nonpayable",
      "type": "function"
    },
    {
      "inputs": [
        {
          "internalType": "address",
          "name": "from",
          "type": "address"
        },
        {
          "internalType": "address",
          "name": "to",
          "type": "address"
        },
        {
          "internalType": "uint256",
          "name": "value",
          "type": "uint256"
        }
      ],
      "name": "transferFrom",
      "outputs": [
        {
          "internalType": "bool",
          "name": "",
          "type": "bool"
        }
      ],
      "stateMutability": "nonpayable",
      "type": "function"
    },
    {
      "inputs": [
        {
          "internalType": "address",
          "name": "from",
          "type": "address"
        },
        {
          "internalType": "address",
          "name": "to",
          "type": "address"
        },
        {
          "internalType": "uint256",
          "name": "value",
          "type": "uint256"
        },
        {
          "internalType": "bytes",
          "name": "data",
          "type": "bytes"
        }
      ],
      "name": "transferFromAndCall",
      "outputs": [
        {
          "internalType": "bool",
          "name": "",
          "type": "bool"
        }
      ],
      "stateMutability": "nonpayable",
      "type": "function"
    },
    {
      "inputs": [
        {
          "internalType": "address",
          "name": "from",
          "type": "address"
        },
        {
          "internalType": "address",
          "name": "to",
          "type": "address"
        },
        {
          "internalType": "uint256",
          "name": "value",
          "type": "uint256"
        }
      ],
      "name": "transferFromAndCall",
      "outputs": [
        {
          "internalType": "bool",
          "name": "",
          "type": "bool"
        }
      ],
      "stateMutability": "nonpayable",
      "type": "function"
    }
  ],
  "bytecode": "0x610160806040523461057c5760408161209f80380380916100208285610581565b83398101031261057c5761003f6020610038836105a4565b92016105a4565b9060405161004e604082610581565b6004815260208101635553444360e01b81526040519061006f604083610581565b60048252635553444360e01b60208301526040519261008f604085610581565b60048452635553444360e01b6020850152604051936100af604086610581565b60018552603160f81b60208601908152845190946001600160401b0382116104795760035490600182811c92168015610572575b60208310146104595781601f849311610502575b50602090601f831160011461049a5760009261048f575b50508160011b916000199060031b1c1916176003555b8051906001600160401b0382116104795760045490600182811c9216801561046f575b60208310146104595781601f8493116103e9575b50602090601f831160011461038157600092610376575b50508160011b916000199060031b1c1916176004555b610191816105b8565b6101205261019e84610766565b61014052519020918260e05251902080610100524660a0526040519060208201927f8b73c3c69bb8fe3d512ecc4cf759cc79239f7b179b0ffacaa9a75d522b39400f8452604083015260608201524660808201523060a082015260a0815261020760c082610581565b5190206080523060c0526001600160a01b0316801561033157600880546001600160a01b0319169190911790554660e51461028e575b60405161179a90816109058239608051816112fd015260a051816113ba015260c051816112c7015260e0518161134c01526101005181611372015261012051816105340152610140518161055d0152f35b6001600160a01b0316801561031b576002546601c6bf52634000810180911161030557600255600081815280602052604081206601c6bf5263400081540190557fddf252ad1be2c89b69c2b068fc378daa952ba7f163c4a11628f55a4df523b3ef60206040516601c6bf526340008152a33861023d565b634e487b7160e01b600052601160045260246000fd5b63ec442f0560e01b600052600060045260246000fd5b60405162461bcd60e51b815260206004820152601c60248201527f496e76616c696420746f6b656e4272696467655f2061646472657373000000006044820152606490fd5b015190503880610172565b600460009081528281209350601f198516905b8181106103d157509084600195949392106103b8575b505050811b01600455610188565b015160001960f88460031b161c191690553880806103aa565b92936020600181928786015181550195019301610394565b60046000529091507f8a35acfbc15ff81a39ae7d344fd709f28e8600b4aa8c65c6b64bfe7fe36bd19b601f840160051c8101916020851061044f575b90601f859493920160051c01905b818110610440575061015b565b60008155849350600101610433565b9091508190610425565b634e487b7160e01b600052602260045260246000fd5b91607f1691610147565b634e487b7160e01b600052604160045260246000fd5b01519050388061010e565b600360009081528281209350601f198516905b8181106104ea57509084600195949392106104d1575b505050811b01600355610124565b015160001960f88460031b161c191690553880806104c3565b929360206001819287860151815501950193016104ad565b60036000529091507fc2575a0e9e593c00f959f8c92f12db2869c3395a3b0502d05e2516446f71f85b601f840160051c81019160208510610568575b90601f859493920160051c01905b81811061055957506100f7565b6000815584935060010161054c565b909150819061053e565b91607f16916100e3565b600080fd5b601f909101601f19168101906001600160401b0382119082101761047957604052565b51906001600160a01b038216820361057c57565b90815160208110600014610650575090601f8151116105f45760208151910151602082106105e4571790565b6000198260200360031b1b161790565b6040519063305a27a960e01b8252602060048301528181519182602483015260005b8381106106385750508160006044809484010152601f80199101168101030190fd5b60208282018101516044878401015285935001610616565b6001600160401b03811161047957600554600181811c9116801561075c575b602082101461045957601f8111610726575b50602092601f82116001146106c157928192936000926106b6575b50508160011b916000199060031b1c19161760055560ff90565b01519050388061069c565b601f198216936005600052806000209160005b86811061070e57508360019596106106f5575b505050811b0160055560ff90565b015160001960f88460031b161c191690553880806106e7565b919260206001819286850151815501940192016106d4565b6005600052601f6020600020910160051c810190601f830160051c015b8181106107505750610681565b60008155600101610743565b90607f169061066f565b908151602081106000146107ee575090601f8151116107925760208151910151602082106105e4571790565b6040519063305a27a960e01b8252602060048301528181519182602483015260005b8381106107d65750508160006044809484010152601f80199101168101030190fd5b602082820181015160448784010152859350016107b4565b6001600160401b03811161047957600654600181811c911680156108fa575b602082101461045957601f81116108c4575b50602092601f821160011461085f5792819293600092610854575b50508160011b916000199060031b1c19161760065560ff90565b01519050388061083a565b601f198216936006600052806000209160005b8681106108ac5750836001959610610893575b505050811b0160065560ff90565b015160001960f88460031b161c19169055388080610885565b91926020600181928685015181550194019201610872565b6006600052601f6020600020910160051c810190601f830160051c015b8181106108ee575061081f565b600081556001016108e1565b90607f169061080d56fe608080604052600436101561001357600080fd5b60003560e01c90816301ffc9a714610bdc5750806306fdde0314610b34578063095ea7b314610b0e5780631296ee6214610ad157806318160ddd14610ab357806318bf507714610a4a57806323b872dd14610a285780632b8c49e3146109bf578063313ce567146109a35780633177029f1461096a5780633644e5151461094f5780634000aea01461092b57806342966c681461090e5780635cffe9de146106df578063613255ab146106bc57806370a082311461068257806379cc6790146106525780637ecebe001461061857806384b0196e1461051b57806395d89b4114610436578063a9059cbb14610410578063c1d34b89146103bb578063c6328a4614610392578063cae9ca511461036f578063d505accf14610224578063d8fbe994146101d8578063d9d98ce4146101a95763dd62ed3e1461015357600080fd5b346101a45760403660031901126101a45761016c610c8a565b610174610ca0565b6001600160a01b039182166000908152600160209081526040808320949093168252928352819020549051908152f35b600080fd5b346101a45760403660031901126101a45760206101d06101c7610c8a565b60243590610fe6565b604051908152f35b346101a4576102196101e936610cb6565b90604051926101f9602085610cf0565b6000845261020883338361109b565b610213838383611172565b33611430565b602060405160018152f35b346101a45760e03660031901126101a45761023d610c8a565b610245610ca0565b604435906064359260843560ff811681036101a45784421161035a5761031b6103249160018060a01b038416968760005260076020526040600020908154916001830190556040519060208201927f6e71edae12b1b97f4d1f60370fef10105fa2faae0126114a169c64845d6126c984528a604084015260018060a01b038916606084015289608084015260a083015260c082015260c081526102e960e082610cf0565b5190206102f46112c4565b906040519161190160f01b83526002830152602282015260c43591604260a4359220611633565b909291926116bc565b6001600160a01b0316848103610341575061033f9350611531565b005b84906325c0072360e11b60005260045260245260446000fd5b8463313c898160e11b60005260045260246000fd5b346101a457602061038861038236610d8b565b91610ecc565b6040519015158152f35b346101a45760003660031901126101a4576008546040516001600160a01b039091168152602090f35b346101a45760803660031901126101a4576103d4610c8a565b6103dc610ca0565b906044356064359267ffffffffffffffff84116101a457610404610219943690600401610d44565b9261020883338361109b565b346101a45760403660031901126101a45761021961042c610c8a565b6024359033611172565b346101a45760003660031901126101a457604051600060045461045881610dd1565b80845290600181169081156104f75750600114610498575b6104948361048081850382610cf0565b604051918291602083526020830190610c49565b0390f35b600460009081527f8a35acfbc15ff81a39ae7d344fd709f28e8600b4aa8c65c6b64bfe7fe36bd19b939250905b8082106104dd57509091508101602001610480610470565b9192600181602092548385880101520191019092916104c5565b60ff191660208086019190915291151560051b840190910191506104809050610470565b346101a45760003660031901126101a4576105ba6105587f0000000000000000000000000000000000000000000000000000000000000000611598565b6105817f00000000000000000000000000000000000000000000000000000000000000006115fc565b60206105c8604051926105948385610cf0565b600084526000368137604051958695600f60f81b875260e08588015260e0870190610c49565b908582036040870152610c49565b466060850152306080850152600060a085015283810360c085015281808451928381520193019160005b82811061060157505050500390f35b8351855286955093810193928101926001016105f2565b346101a45760203660031901126101a4576001600160a01b03610639610c8a565b1660005260076020526020604060002054604051908152f35b346101a45760403660031901126101a45761033f61066e610c8a565b6024359061067d82338361109b565b611255565b346101a45760203660031901126101a4576001600160a01b036106a3610c8a565b1660005260006020526020604060002054604051908152f35b346101a45760203660031901126101a45760206101d06106da610c8a565b610eb1565b346101a45760803660031901126101a4576004356001600160a01b038116908190036101a45761070d610ca0565b60443560643567ffffffffffffffff81116101a457366023820112156101a45780600401359267ffffffffffffffff84116101a45736602485840101116101a45761075781610eb1565b8084116108fa575060249160c48261077186602095610fe6565b9661077c878a611039565b8060405196879586946323e30c8b60e01b865233600487015260018060a01b0316828601528960448601528a606486015260a060848601528260a486015201848401376000838284010152601f801991011681010301816000885af180156108ee5760009061089c575b7f439148f0bbc682ca079e46d6e2c2f0c1e3b820f1a291b069d8882abf8cf18dd99150036108885761082261081b8383610e8e565b308561109b565b81158015610880575b1561084457610219929161083e91610e8e565b90611255565b61084f915082611255565b1561086a5763ec442f0560e01b600052600060045260246000fd5b634b637e8f60e11b600052600060045260246000fd5b50600161082b565b8262678c5b60e81b60005260045260246000fd5b506020813d6020116108e6575b816108b660209383610cf0565b810103126101a4577f439148f0bbc682ca079e46d6e2c2f0c1e3b820f1a291b069d8882abf8cf18dd990516107e6565b3d91506108a9565b6040513d6000823e3d90fd5b63fd9a760960e01b60005260045260246000fd5b346101a45760203660031901126101a45761033f60043533611255565b346101a45761021961093c36610d8b565b91610948828233611172565b3333611430565b346101a45760003660031901126101a45760206101d06112c4565b346101a45760403660031901126101a4576020610388610988610c8a565b604051906109968483610cf0565b6000825260243590610ecc565b346101a45760003660031901126101a457602060405160068152f35b346101a45760403660031901126101a4576109d8610c8a565b6024356109e433611012565b6109ee8183611255565b60405190815233916001600160a01b0316907fb90795a66650155983e242cac3e1ac1a4dc26f8ed2987f3ce416a34e00111fd490602090a3005b346101a457610219610a3936610cb6565b91610a4583338361109b565b611172565b346101a45760403660031901126101a457610a63610c8a565b602435610a6f33611012565b610a798183611039565b60405190815233916001600160a01b0316907fde22baff038e3a3e08407cbdf617deed74e869a7ba517df611e33131c6e6ea0490602090a3005b346101a45760003660031901126101a4576020600254604051908152f35b346101a45760403660031901126101a457610219610aed610c8a565b60243560405191610aff602084610cf0565b60008352610948828233611172565b346101a45760403660031901126101a457610219610b2a610c8a565b6024359033611531565b346101a45760003660031901126101a4576040516000600354610b5681610dd1565b80845290600181169081156104f75750600114610b7d576104948361048081850382610cf0565b600360009081527fc2575a0e9e593c00f959f8c92f12db2869c3395a3b0502d05e2516446f71f85b939250905b808210610bc257509091508101602001610480610470565b919260018160209254838588010152019101909291610baa565b346101a45760203660031901126101a4576004359063ffffffff60e01b82168092036101a45760209163b0202a1160e01b8114908115610c1e575b5015158152f35b630cccc66560e21b811491508115610c38575b5083610c17565b6301ffc9a760e01b14905083610c31565b919082519283825260005b848110610c75575050826000602080949584010152601f8019910116010190565b80602080928401015182828601015201610c54565b600435906001600160a01b03821682036101a457565b602435906001600160a01b03821682036101a457565b60609060031901126101a4576004356001600160a01b03811681036101a457906024356001600160a01b03811681036101a4579060443590565b90601f8019910116810190811067ffffffffffffffff821117610d1257604052565b634e487b7160e01b600052604160045260246000fd5b67ffffffffffffffff8111610d1257601f01601f191660200190565b81601f820112156101a457803590610d5b82610d28565b92610d696040519485610cf0565b828452602083830101116101a457816000926020809301838601378301015290565b60606003198201126101a4576004356001600160a01b03811681036101a45791602435916044359067ffffffffffffffff82116101a457610dce91600401610d44565b90565b90600182811c92168015610e01575b6020831014610deb57565b634e487b7160e01b600052602260045260246000fd5b91607f1691610de0565b60009291815491610e1b83610dd1565b8083529260018116908115610e715750600114610e3757505050565b60009081526020812093945091925b838310610e57575060209250010190565b600181602092949394548385870101520191019190610e46565b915050602093945060ff929192191683830152151560051b010190565b91908201809211610e9b57565b634e487b7160e01b600052601160045260246000fd5b6001600160a01b03163003610ec7576002541990565b600090565b919091610eda838233611531565b803b15610fc5576040516307b04a2d60e41b81523360048201526024810193909352606060448401526001600160a01b0316919060209082908190610f23906064830190610c49565b03816000865af160009181610f94575b50610f635750610f41611400565b80519081610f5e578263deb6d3ed60e01b60005260045260246000fd5b602001fd5b6001600160e01b03191663084fb5d360e41b01610f805750600190565b63deb6d3ed60e01b60005260045260246000fd5b610fb791925060203d602011610fbe575b610faf8183610cf0565b8101906113e0565b9038610f33565b503d610fa5565b63deb6d3ed60e01b60009081526001600160a01b0391909116600452602490fd5b6001600160a01b03169050308103610ffe5750600090565b635ad3edc960e11b60005260045260246000fd5b6008546001600160a01b0390811691160361102957565b6282b42960e81b60005260046000fd5b6001600160a01b03169081156110855761105581600254610e8e565b600255600080516020611745833981519152602060009284845283825260408420818154019055604051908152a3565b63ec442f0560e01b600052600060045260246000fd5b6001600160a01b0390811660008181526001602090815260408083209486168352939052919091205492919060001984106110d7575b50505050565b82841061114d578015611137576001600160a01b0382161561112157600052600160205260406000209060018060a01b0316600052602052604060002091039055388080806110d1565b634a1406b160e11b600052600060045260246000fd5b63e602df0560e01b600052600060045260246000fd5b508290637dc7a0d960e11b60005260018060a01b031660045260245260445260646000fd5b6001600160a01b0381161561086a576001600160a01b03821615611085576001600160a01b031690816111fa576020600080516020611745833981519152916111bd85600254610e8e565b6002555b6001600160a01b031693846111e25780600254036002555b604051908152a3565b846000526000825260406000208181540190556111d9565b8160005260006020526040600020548381106112385760008051602061174583398151915291846020928560005260008452036040600020556111c1565b91905063391434e360e21b60005260045260245260445260646000fd5b6001600160a01b0316801561086a576000918183528260205260408320548181106112ab5781600080516020611745833981519152926020928587528684520360408620558060025403600255604051908152a3565b6064939263391434e360e21b8452600452602452604452fd5b307f00000000000000000000000000000000000000000000000000000000000000006001600160a01b031614806113b7575b1561131f577f000000000000000000000000000000000000000000000000000000000000000090565b60405160208101907f8b73c3c69bb8fe3d512ecc4cf759cc79239f7b179b0ffacaa9a75d522b39400f82527f000000000000000000000000000000000000000000000000000000000000000060408201527f000000000000000000000000000000000000000000000000000000000000000060608201524660808201523060a082015260a081526113b160c082610cf0565b51902090565b507f000000000000000000000000000000000000000000000000000000000000000046146112f6565b908160209103126101a457516001600160e01b0319811681036101a45790565b3d1561142b573d9061141182610d28565b9161141f6040519384610cf0565b82523d6000602084013e565b606090565b9091803b1561151057604051632229f29760e21b81526001600160a01b03928316600482015292821660248401526044830193909352608060648301529091169160209082908190611486906084830190610c49565b03816000865af1600091816114ef575b506114c157506114a4611400565b80519081610f5e57826322a5b36760e21b60005260045260246000fd5b6001600160e01b031916631dd60d6960e21b016114db5750565b6322a5b36760e21b60005260045260246000fd5b61150991925060203d602011610fbe57610faf8183610cf0565b9038611496565b6322a5b36760e21b60009081526001600160a01b0391909116600452602490fd5b6001600160a01b0316908115611137576001600160a01b03169182156111215760207f8c5be1e5ebec7d5bd14f71427d1e84f3dd0314c0f7b2291e5b200ac8c7c3b925918360005260018252604060002085600052825280604060002055604051908152a3565b60ff81146115e25760ff811690601f82116115d15760408051926115bc8285610cf0565b6020808552840191601f190136833783525290565b632cd44ac360e21b60005260046000fd5b50604051610dce816115f5816005610e0b565b0382610cf0565b60ff81146116205760ff811690601f82116115d15760408051926115bc8285610cf0565b50604051610dce816115f5816006610e0b565b91907f7fffffffffffffffffffffffffffffff5d576e7357a4501ddfe92f46681b20a084116116b0579160209360809260ff60009560405194855216868401526040830152606082015282805260015afa156108ee576000516001600160a01b038116156116a45790600090600090565b50600090600190600090565b50505060009160039190565b919091600481101561172e57806116d257509050565b6000600182036116ed5763f645eedf60e01b60005260046000fd5b506002810361170b578263fce698f760e01b60005260045260246000fd5b909160036000921461171b575050565b6335e2f38360e21b825260045260249150fd5b634e487b7160e01b600052602160045260246000fdfeddf252ad1be2c89b69c2b068fc378daa952ba7f163c4a11628f55a4df523b3efa2646970667358221220d61e22f7b2f493c741db042930b21c6da6a250a36a9ae18ffa5b30770ea4ac3a64736f6c634300081b0033",
  "linkReferences": {},
  "deployedLinkReferences": {}
}