{
  "_format": "hh-sol-artifact-1",
  "contractName": "MultiAssetVault",
  "sourceName": "contracts/MultiAssetVault.sol",
  "abi": [
    {
      "inputs": [
        {
          "internalType": "address",
          "name": "_priceOracle",
          "type": "address"
        },
        {
          "internalType": "address",
          "name": "_usdc",
          "type": "address"
        }
      ],
      "stateMutability": "nonpayable",
      "type": "constructor"
    },
    {
      "inputs": [
        {
          "internalType": "address",
          "name": "owner",
          "type": "address"
        }
      ],
      "name": "OwnableInvalidOwner",
      "type": "error"
    },
    {
      "inputs": [
        {
          "internalType": "address",
          "name": "account",
          "type": "address"
        }
      ],
      "name": "OwnableUnauthorizedAccount",
      "type": "error"
    },
    {
      "inputs": [],
      "name": "ReentrancyGuardReentrantCall",
      "type": "error"
    },
    {
      "anonymous": false,
      "inputs": [
        {
          "indexed": true,
          "internalType": "address",
          "name": "token",
          "type": "address"
        },
        {
          "indexed": true,
          "internalType": "address",
          "name": "depositor",
          "type": "address"
        },
        {
          "indexed": false,
          "internalType": "uint256",
          "name": "amount",
          "type": "uint256"
        }
      ],
      "name": "Deposit",
      "type": "event"
    },
    {
      "anonymous": false,
      "inputs": [
        {
          "indexed": true,
          "internalType": "address",
          "name": "previousOwner",
          "type": "address"
        },
        {
          "indexed": true,
          "internalType": "address",
          "name": "newOwner",
          "type": "address"
        }
      ],
      "name": "OwnershipTransferred",
      "type": "event"
    },
    {
      "anonymous": false,
      "inputs": [
        {
          "indexed": true,
          "internalType": "address",
          "name": "user",
          "type": "address"
        },
        {
          "indexed": true,
          "internalType": "address",
          "name": "tokenIn",
          "type": "address"
        },
        {
          "indexed": true,
          "internalType": "address",
          "name": "tokenOut",
          "type": "address"
        },
        {
          "indexed": false,
          "internalType": "uint256",
          "name": "amountIn",
          "type": "uint256"
        },
        {
          "indexed": false,
          "internalType": "uint256",
          "name": "amountOut",
          "type": "uint256"
        }
      ],
      "name": "Swap",
      "type": "event"
    },
    {
      "anonymous": false,
      "inputs": [
        {
          "indexed": true,
          "internalType": "address",
          "name": "token",
          "type": "address"
        },
        {
          "indexed": false,
          "internalType": "uint8",
          "name": "decimals",
          "type": "uint8"
        }
      ],
      "name": "TokenRegistered",
      "type": "event"
    },
    {
      "inputs": [],
      "name": "BPS_DENOMINATOR",
      "outputs": [
        {
          "internalType": "uint256",
          "name": "",
          "type": "uint256"
        }
      ],
      "stateMutability": "view",
      "type": "function"
    },
    {
      "inputs": [],
      "name": "PRICE_TOLERANCE_BPS",
      "outputs": [
        {
          "internalType": "uint256",
          "name": "",
          "type": "uint256"
        }
      ],
      "stateMutability": "view",
      "type": "function"
    },
    {
      "inputs": [],
      "name": "USDC",
      "outputs": [
        {
          "internalType": "address",
          "name": "",
          "type": "address"
        }
      ],
      "stateMutability": "view",
      "type": "function"
    },
    {
      "inputs": [
        {
          "internalType": "address",
          "name": "token",
          "type": "address"
        },
        {
          "internalType": "uint256",
          "name": "amount",
          "type": "uint256"
        }
      ],
      "name": "deposit",
      "outputs": [],
      "stateMutability": "nonpayable",
      "type": "function"
    },
    {
      "inputs": [
        {
          "internalType": "address",
          "name": "token",
          "type": "address"
        },
        {
          "internalType": "uint256",
          "name": "amount",
          "type": "uint256"
        }
      ],
      "name": "emergencyWithdraw",
      "outputs": [],
      "stateMutability": "nonpayable",
      "type": "function"
    },
    {
      "inputs": [],
      "name": "getRegisteredTokens",
      "outputs": [
        {
          "internalType": "address[]",
          "name": "",
          "type": "address[]"
        }
      ],
      "stateMutability": "view",
      "type": "function"
    },
    {
      "inputs": [
        {
          "internalType": "address",
          "name": "token",
          "type": "address"
        }
      ],
      "name": "getReserves",
      "outputs": [
        {
          "internalType": "uint256",
          "name": "",
          "type": "uint256"
        }
      ],
      "stateMutability": "view",
      "type": "function"
    },
    {
      "inputs": [
        {
          "internalType": "address",
          "name": "token",
          "type": "address"
        }
      ],
      "name": "getTokenInfo",
      "outputs": [
        {
          "internalType": "bool",
          "name": "isRegistered",
          "type": "bool"
        },
        {
          "internalType": "uint8",
          "name": "decimals",
          "type": "uint8"
        },
        {
          "internalType": "uint256",
          "name": "reserves",
          "type": "uint256"
        }
      ],
      "stateMutability": "view",
      "type": "function"
    },
    {
      "inputs": [
        {
          "internalType": "address",
          "name": "token",
          "type": "address"
        },
        {
          "internalType": "uint256",
          "name": "amount",
          "type": "uint256"
        }
      ],
      "name": "onTokenReceived",
      "outputs": [],
      "stateMutability": "nonpayable",
      "type": "function"
    },
    {
      "inputs": [],
      "name": "owner",
      "outputs": [
        {
          "internalType": "address",
          "name": "",
          "type": "address"
        }
      ],
      "stateMutability": "view",
      "type": "function"
    },
    {
      "inputs": [],
      "name": "priceOracle",
      "outputs": [
        {
          "internalType": "contract IPriceOracle",
          "name": "",
          "type": "address"
        }
      ],
      "stateMutability": "view",
      "type": "function"
    },
    {
      "inputs": [
        {
          "internalType": "address",
          "name": "token",
          "type": "address"
        }
      ],
      "name": "registerToken",
      "outputs": [],
      "stateMutability": "nonpayable",
      "type": "function"
    },
    {
      "inputs": [
        {
          "internalType": "uint256",
          "name": "",
          "type": "uint256"
        }
      ],
      "name": "registeredTokens",
      "outputs": [
        {
          "internalType": "address",
          "name": "",
          "type": "address"
        }
      ],
      "stateMutability": "view",
      "type": "function"
    },
    {
      "inputs": [],
      "name": "renounceOwnership",
      "outputs": [],
      "stateMutability": "nonpayable",
      "type": "function"
    },
    {
      "inputs": [
        {
          "internalType": "address",
          "name": "tokenIn",
          "type": "address"
        },
        {
          "internalType": "address",
          "name": "tokenOut",
          "type": "address"
        },
        {
          "internalType": "uint256",
          "name": "amountIn",
          "type": "uint256"
        },
        {
          "internalType": "uint256",
          "name": "amountOutMin",
          "type": "uint256"
        },
        {
          "internalType": "uint256",
          "name": "priceTokenIn",
          "type": "uint256"
        },
        {
          "internalType": "uint256",
          "name": "priceTokenOut",
          "type": "uint256"
        }
      ],
      "name": "swapExactIn",
      "outputs": [],
      "stateMutability": "nonpayable",
      "type": "function"
    },
    {
      "inputs": [
        {
          "internalType": "address",
          "name": "tokenIn",
          "type": "address"
        },
        {
          "internalType": "address",
          "name": "tokenOut",
          "type": "address"
        },
        {
          "internalType": "uint256",
          "name": "amountOut",
          "type": "uint256"
        },
        {
          "internalType": "uint256",
          "name": "amountInMax",
          "type": "uint256"
        },
        {
          "internalType": "uint256",
          "name": "priceTokenIn",
          "type": "uint256"
        },
        {
          "internalType": "uint256",
          "name": "priceTokenOut",
          "type": "uint256"
        }
      ],
      "name": "swapExactOut",
      "outputs": [],
      "stateMutability": "nonpayable",
      "type": "function"
    },
    {
      "inputs": [
        {
          "internalType": "address",
          "name": "",
          "type": "address"
        }
      ],
      "name": "tokens",
      "outputs": [
        {
          "internalType": "bool",
          "name": "isRegistered",
          "type": "bool"
        },
        {
          "internalType": "uint8",
          "name": "decimals",
          "type": "uint8"
        },
        {
          "internalType": "uint256",
          "name": "reserves",
          "type": "uint256"
        }
      ],
      "stateMutability": "view",
      "type": "function"
    },
    {
      "inputs": [
        {
          "internalType": "address",
          "name": "newOwner",
          "type": "address"
        }
      ],
      "name": "transferOwnership",
      "outputs": [],
      "stateMutability": "nonpayable",
      "type": "function"
    }
  ],
  "bytecode": "0x60c0346101ad57601f61191b38819003918201601f19168301916001600160401b038311848410176101b25780849260409485528339810103126101ad57610052602061004b836101c8565b92016101c8565b9033156101975760008054336001600160a01b0319821681178355604051939290916001600160a01b0316907f8be0079c531659141344cd1fd0a4f28419497f9722a3daafe3b4186f6b6457e09080a3600180556001600160a01b031690811561015557506001600160a01b038216156101105760805260a05260405161173e90816101dd823960805181818161048c0152818161084501528181610d9a01526116af015260a0518181816103cb015281816105120152610e1c0152f35b60405162461bcd60e51b815260206004820152601460248201527f496e76616c6964205553444320616464726573730000000000000000000000006044820152606490fd5b62461bcd60e51b815260206004820152601660248201527f496e76616c6964206f7261636c652061646472657373000000000000000000006044820152606490fd5b631e4fbdf760e01b600052600060045260246000fd5b600080fd5b634e487b7160e01b600052604160045260246000fd5b51906001600160a01b03821682036101ad5756fe6080604052600436101561001257600080fd5b60003560e01c806303c832d914610ceb57806309824a8014610a9f5780631035fb5c146109b957806314cbd993146108ed5780631f69565f146108745780632630c12f1461082f5780633e99c1e4146107d857806347e7ef24146106d35780635cb8e293146106b6578063715018a61461065d578063884fbbc6146103fa57806389a30271146103b55780638da5cb5b1461038c57806395ccea67146102395780639a0ba2ea146101f7578063e1a45218146101da578063e4860339146101705763f2fde38b146100e257600080fd5b3461016b57602036600319011261016b576100fb610f3f565b610103611635565b6001600160a01b0316801561015557600080546001600160a01b03198116831782556001600160a01b0316907f8be0079c531659141344cd1fd0a4f28419497f9722a3daafe3b4186f6b6457e09080a3005b631e4fbdf760e01b600052600060045260246000fd5b600080fd5b3461016b57602036600319011261016b576001600160a01b03610191610f3f565b166000526002602052604060002060018154910154906101d6604051928260ff80869560081c1691168460ff6040929594936060830196151583521660208201520152565b0390f35b3461016b57600036600319011261016b5760206040516127108152f35b3461016b57602036600319011261016b5760043560035481101561016b57610220602091610f9b565b905460405160039290921b1c6001600160a01b03168152f35b3461016b57604036600319011261016b57610252610f3f565b6024359061025e611635565b6001600160a01b03166000818152600260205260409020546102829060ff16611189565b806000526002602052816001604060002001541061034f576102f691816020926000526002835260016040600020016102bc838254611245565b90556000805460405163a9059cbb60e01b81526001600160a01b039091166004820152602481019390935291938492839182906044820190565b03925af180156103435761031291600091610314575b50611207565b005b610336915060203d60201161033c575b61032e818361114e565b8101906111ef565b8261030c565b503d610324565b6040513d6000823e3d90fd5b60405162461bcd60e51b8152602060048201526015602482015274496e73756666696369656e7420726573657276657360581b6044820152606490fd5b3461016b57600036600319011261016b576000546040516001600160a01b039091168152602090f35b3461016b57600036600319011261016b576040517f00000000000000000000000000000000000000000000000000000000000000006001600160a01b03168152602090f35b3461016b5761040836610f55565b610416959195949294611252565b60018060a01b0382169586600052600260205261043a60ff60406000205416610fcc565b60018060a01b0384169687600052600260205261045e60ff60406000205416611011565b61046a8882141561105d565b6104758615156110a2565b6040516341976e0960e01b815260048101829052927f00000000000000000000000000000000000000000000000000000000000000006001600160a01b0316602085602481845afa94851561034357600095610629575b5060208a6024604051809481936341976e0960e01b835260048301525afa9384156103435785916000956105eb575b509161050b8592610510946112a7565b6112a7565b7f00000000000000000000000000000000000000000000000000000000000000006001600160a01b03169081149081156105e1575b50156105cf576105579185858561165e565b935b841061058a5761058494600052600260205261057f8460016040600020015410156110ed565b611481565b60018055005b60405162461bcd60e51b815260206004820152601a60248201527f496e73756666696369656e74206f757470757420616d6f756e740000000000006044820152606490fd5b6105db9185858561165e565b93610559565b9050871488610545565b915092936020823d602011610621575b816106086020938361114e565b8101031261061e5750519291849061050b6104fb565b80fd5b3d91506105fb565b90946020823d602011610655575b816106446020938361114e565b8101031261061e575051938a6104cc565b3d9150610637565b3461016b57600036600319011261016b57610676611635565b600080546001600160a01b0319811682556001600160a01b03167f8be0079c531659141344cd1fd0a4f28419497f9722a3daafe3b4186f6b6457e08280a3005b3461016b57600036600319011261016b5760206040516103e88152f35b3461016b57604036600319011261016b576106ec610f3f565b602435906106f8611252565b6001600160a01b031660008181526002602052604090205461071c9060ff16611189565b6107278215156110a2565b6040516323b872dd60e01b8152336004820152306024820152604481018390526020816064816000865af1801561034357610769916000916107b95750611207565b80600052600260205260016040600020016107858382546111cc565b90556040519182527f5548c837ab068cf56a2c2479df0882a4922fd203edb7517321831d95078c5f6260203393a360018055005b6107d2915060203d60201161033c5761032e818361114e565b8461030c565b3461016b57602036600319011261016b576001600160a01b036107f9610f3f565b1680600052600260205261081460ff60406000205416611189565b60005260026020526020600160406000200154604051908152f35b3461016b57600036600319011261016b576040517f00000000000000000000000000000000000000000000000000000000000000006001600160a01b03168152602090f35b3461016b57602036600319011261016b576001600160a01b03610895610f3f565b16600052600260205260406000206040516108af81611132565b815460ff808216151580845260089290921c166020808401829052600190940154604093840181905283519283529382015290810191909152606090f35b3461016b57600036600319011261016b576040518060206003549283815201809260036000527fc2575a0e9e593c00f959f8c92f12db2869c3395a3b0502d05e2516446f71f85b9060005b81811061099a575050508161094e91038261114e565b6040519182916020830190602084525180915260408301919060005b818110610978575050500390f35b82516001600160a01b031684528594506020938401939092019160010161096a565b82546001600160a01b0316845260209093019260019283019201610938565b3461016b57604036600319011261016b576109d2610f3f565b6001600160a01b031660008181526002602052604090205460243591906109fb9060ff16611189565b803303610a4e578060005260026020526001604060002001610a1e8382546111cc565b90556040519182527f5548c837ab068cf56a2c2479df0882a4922fd203edb7517321831d95078c5f6260203293a3005b60405162461bcd60e51b8152602060048201526024808201527f43616e206f6e6c792062652063616c6c656420627920746f6b656e20636f6e746044820152631c9858dd60e21b6064820152608490fd5b3461016b57602036600319011261016b57610ab8610f3f565b610ac0611635565b6001600160a01b03168015610cae5780600052600260205260ff60406000205416610c695760405163313ce56760e01b8152602081600481855afa80156103435760ff91600091610c3a575b501680151580610c2f575b15610bf157604051610b2881611132565b600181526001602082018381526040830190600082528560005260026020526040600020935115159060ff61ff008654925160081b1692169061ffff1916171783555191015560035468010000000000000000811015610bdb577ff8e3a4cfaafcdb52d0ac189a429a77e4cf8c7644038859ffc9f7d0c860ff049b91610bb682600160209401600355610f9b565b81546001600160a01b0360039290921b91821b19169086901b179055604051908152a2005b634e487b7160e01b600052604160045260246000fd5b60405162461bcd60e51b8152602060048201526016602482015275496e76616c696420746f6b656e20646563696d616c7360501b6044820152606490fd5b506012811115610b17565b610c5c915060203d602011610c62575b610c54818361114e565b810190611170565b83610b0c565b503d610c4a565b60405162461bcd60e51b815260206004820152601860248201527f546f6b656e20616c7265616479207265676973746572656400000000000000006044820152606490fd5b60405162461bcd60e51b8152602060048201526015602482015274496e76616c696420746f6b656e206164647265737360581b6044820152606490fd5b3461016b57610cf936610f55565b90610d0694929394611252565b6001600160a01b038616600081815260026020526040902054610d2b9060ff16610fcc565b60018060a01b03841690816000526002602052610d4f60ff60406000205416611011565b610d5b8282141561105d565b610d668715156110a2565b816000526002602052610d838760016040600020015410156110ed565b6040516341976e0960e01b815260048101829052937f00000000000000000000000000000000000000000000000000000000000000006001600160a01b0316602086602481845afa95861561034357600096610f0a575b506020602491604051928380926341976e0960e01b82528860048301525afa948515610343578691600096610ecd575b509161050b8692610e1a946112a7565b7f00000000000000000000000000000000000000000000000000000000000000006001600160a01b0316908114918215610ec3575b505015610eb157610e62918584886113db565b915b8211610e735761058493611481565b60405162461bcd60e51b8152602060048201526016602482015275115e18d95cdcda5d99481a5b9c1d5d08185b5bdd5b9d60521b6044820152606490fd5b610ebd918584886113db565b91610e64565b1490508780610e4f565b91509293946020823d602011610f02575b81610eeb6020938361114e565b8101031261061e575051939291859061050b610e0a565b3d9150610ede565b90956020823d602011610f37575b81610f256020938361114e565b8101031261061e575051946020610dda565b3d9150610f18565b600435906001600160a01b038216820361016b57565b60c090600319011261016b576004356001600160a01b038116810361016b57906024356001600160a01b038116810361016b579060443590606435906084359060a43590565b600354811015610fb657600360005260206000200190600090565b634e487b7160e01b600052603260045260246000fd5b15610fd357565b60405162461bcd60e51b8152602060048201526016602482015275151bdad95b925b881b9bdd081c9959da5cdd195c995960521b6044820152606490fd5b1561101857565b60405162461bcd60e51b815260206004820152601760248201527f546f6b656e4f7574206e6f7420726567697374657265640000000000000000006044820152606490fd5b1561106457565b60405162461bcd60e51b815260206004820152601660248201527521b0b73737ba1039bbb0b81039b0b6b2903a37b5b2b760511b6044820152606490fd5b156110a957565b606460405162461bcd60e51b815260206004820152602060248201527f416d6f756e74206d7573742062652067726561746572207468616e207a65726f6044820152fd5b156110f457565b60405162461bcd60e51b8152602060048201526016602482015275496e73756666696369656e74206c697175696469747960501b6044820152606490fd5b6060810190811067ffffffffffffffff821117610bdb57604052565b90601f8019910116810190811067ffffffffffffffff821117610bdb57604052565b9081602091031261016b575160ff8116810361016b5790565b1561119057565b60405162461bcd60e51b8152602060048201526014602482015273151bdad95b881b9bdd081c9959da5cdd195c995960621b6044820152606490fd5b919082018092116111d957565b634e487b7160e01b600052601160045260246000fd5b9081602091031261016b5751801515810361016b5790565b1561120e57565b60405162461bcd60e51b815260206004820152600f60248201526e151c985b9cd9995c8819985a5b1959608a1b6044820152606490fd5b919082039182116111d957565b600260015414611263576002600155565b633ee5aeb560e01b60005260046000fd5b818102929181159184041417156111d957565b8115611291570490565b634e487b7160e01b600052601260045260246000fd5b801561137c578115611340576123288202828104612328036111d957612af88302928304612af8036111d95761271090048110159182611330575b5050156112eb57565b60405162461bcd60e51b815260206004820152601e60248201527f5072696365206f7574736964652061636365707461626c652072616e676500006044820152606490fd5b61271091925004101538806112e2565b60405162461bcd60e51b8152602060048201526014602482015273496e76616c6964206f7261636c6520707269636560601b6044820152606490fd5b60405162461bcd60e51b8152602060048201526012602482015271496e76616c6964207573657220707269636560701b6044820152606490fd5b9060ff8091169116039060ff82116111d957565b60ff16604d81116111d957600a0a90565b611451946114259193929360018060a01b0316600052600260205260ff60406000205460081c169360018060a01b0316600052600260205260ff60406000205460081c1692611274565b918382821115611454575061144161144c9392611446926113b6565b6113ca565b90611274565b611287565b90565b91818111611465575b505050611287565b61147893945061144691611441916113b6565b9038808061145d565b6040516323b872dd60e01b8152336004820152306024820152604481018490526001600160a01b03919091169291906020816064816000885af190811561034357600091611616575b50156115dc5782600052600260205260016040600020016114ec8382546111cc565b905560018060a01b0316928360005260026020526001604060002001611513828254611245565b905560405163a9059cbb60e01b8152336004820152602481018290526020816044816000895af1908115610343576000916115bd575b50156115825760405191825260208201527fcd3829a3813dc3cdd188fd3d01dcf3268c16be2fdd2dd21d0665418816e4606260403392a4565b60405162461bcd60e51b8152602060048201526013602482015272151c985b9cd9995c881bdd5d0819985a5b1959606a1b6044820152606490fd5b6115d6915060203d60201161033c5761032e818361114e565b38611549565b60405162461bcd60e51b8152602060048201526012602482015271151c985b9cd9995c881a5b8819985a5b195960721b6044820152606490fd5b61162f915060203d60201161033c5761032e818361114e565b386114ca565b6000546001600160a01b0316330361164957565b63118cdaa760e01b6000523360045260246000fd5b6001600160a01b03908116600090815260026020908152604080832054948416835291829020549151631e34c81f60e31b8152969560ff600893841c8116969590931c9092169392879060049082907f0000000000000000000000000000000000000000000000000000000000000000165afa9182156103435761145196611425936116eb575b50611274565b6117039060203d602011610c6257610c54818361114e565b6116e556fea2646970667358221220d76df05d2d0634572ea8329ba72276f41307bfc1f09cc9a02bd7a669a5f571cb64736f6c634300081b0033",
  "linkReferences": {},
  "deployedLinkReferences": {}
}