{
  "_format": "hh-sol-artifact-1",
  "contractName": "FxPriceOracle",
  "sourceName": "contracts/FxPriceOracle.sol",
  "abi": [
    {
      "inputs": [],
      "stateMutability": "nonpayable",
      "type": "constructor"
    },
    {
      "inputs": [
        {
          "internalType": "address",
          "name": "owner",
          "type": "address"
        }
      ],
      "name": "OwnableInvalidOwner",
      "type": "error"
    },
    {
      "inputs": [
        {
          "internalType": "address",
          "name": "account",
          "type": "address"
        }
      ],
      "name": "OwnableUnauthorizedAccount",
      "type": "error"
    },
    {
      "anonymous": false,
      "inputs": [
        {
          "indexed": true,
          "internalType": "address",
          "name": "previousOwner",
          "type": "address"
        },
        {
          "indexed": true,
          "internalType": "address",
          "name": "newOwner",
          "type": "address"
        }
      ],
      "name": "OwnershipTransferred",
      "type": "event"
    },
    {
      "anonymous": false,
      "inputs": [
        {
          "indexed": true,
          "internalType": "bytes32",
          "name": "marketId",
          "type": "bytes32"
        },
        {
          "indexed": false,
          "internalType": "uint256",
          "name": "price",
          "type": "uint256"
        },
        {
          "indexed": false,
          "internalType": "uint256",
          "name": "timestamp",
          "type": "uint256"
        }
      ],
      "name": "PriceUpdated",
      "type": "event"
    },
    {
      "anonymous": false,
      "inputs": [
        {
          "indexed": false,
          "internalType": "bytes32[]",
          "name": "marketIds",
          "type": "bytes32[]"
        },
        {
          "indexed": false,
          "internalType": "uint256[]",
          "name": "prices",
          "type": "uint256[]"
        },
        {
          "indexed": false,
          "internalType": "uint256",
          "name": "timestamp",
          "type": "uint256"
        }
      ],
      "name": "PricesBatchUpdated",
      "type": "event"
    },
    {
      "inputs": [],
      "name": "PRICE_DECIMALS",
      "outputs": [
        {
          "internalType": "uint8",
          "name": "",
          "type": "uint8"
        }
      ],
      "stateMutability": "view",
      "type": "function"
    },
    {
      "inputs": [
        {
          "internalType": "bytes32",
          "name": "marketId",
          "type": "bytes32"
        }
      ],
      "name": "getLastUpdated",
      "outputs": [
        {
          "internalType": "uint256",
          "name": "",
          "type": "uint256"
        }
      ],
      "stateMutability": "view",
      "type": "function"
    },
    {
      "inputs": [
        {
          "internalType": "bytes32",
          "name": "marketId",
          "type": "bytes32"
        }
      ],
      "name": "getPrice",
      "outputs": [
        {
          "internalType": "uint256",
          "name": "",
          "type": "uint256"
        }
      ],
      "stateMutability": "view",
      "type": "function"
    },
    {
      "inputs": [
        {
          "internalType": "bytes32[]",
          "name": "marketIds",
          "type": "bytes32[]"
        }
      ],
      "name": "getPrices",
      "outputs": [
        {
          "internalType": "uint256[]",
          "name": "",
          "type": "uint256[]"
        }
      ],
      "stateMutability": "view",
      "type": "function"
    },
    {
      "inputs": [
        {
          "internalType": "bytes32",
          "name": "marketId",
          "type": "bytes32"
        }
      ],
      "name": "hasPrice",
      "outputs": [
        {
          "internalType": "bool",
          "name": "",
          "type": "bool"
        }
      ],
      "stateMutability": "view",
      "type": "function"
    },
    {
      "inputs": [],
      "name": "owner",
      "outputs": [
        {
          "internalType": "address",
          "name": "",
          "type": "address"
        }
      ],
      "stateMutability": "view",
      "type": "function"
    },
    {
      "inputs": [],
      "name": "renounceOwnership",
      "outputs": [],
      "stateMutability": "nonpayable",
      "type": "function"
    },
    {
      "inputs": [
        {
          "internalType": "address",
          "name": "newOwner",
          "type": "address"
        }
      ],
      "name": "transferOwnership",
      "outputs": [],
      "stateMutability": "nonpayable",
      "type": "function"
    },
    {
      "inputs": [
        {
          "internalType": "bytes32",
          "name": "marketId",
          "type": "bytes32"
        },
        {
          "internalType": "uint256",
          "name": "price",
          "type": "uint256"
        }
      ],
      "name": "updatePrice",
      "outputs": [],
      "stateMutability": "nonpayable",
      "type": "function"
    },
    {
      "inputs": [
        {
          "internalType": "bytes32[]",
          "name": "marketIds",
          "type": "bytes32[]"
        },
        {
          "internalType": "uint256[]",
          "name": "newPrices",
          "type": "uint256[]"
        }
      ],
      "name": "updatePrices",
      "outputs": [],
      "stateMutability": "nonpayable",
      "type": "function"
    }
  ],
  "bytecode": "0x608080604052346075573315605f5760008054336001600160a01b0319821681178355916001600160a01b03909116907f8be0079c531659141344cd1fd0a4f28419497f9722a3daafe3b4186f6b6457e09080a3610773908161007b8239f35b631e4fbdf760e01b600052600060045260246000fd5b600080fdfe6080604052600436101561001257600080fd5b60003560e01c8063082d2c601461040e57806326ee4836146102cf57806331d98b3f1461029857806337c482021461026a5780634e900d481461023e5780635f704f3e146101ba578063715018a6146101615780638da5cb5b14610138578063f1a640f81461011c5763f2fde38b1461008a57600080fd5b34610117576020366003190112610117576004356001600160a01b03811690819003610117576100b8610714565b801561010157600080546001600160a01b03198116831782556001600160a01b0316907f8be0079c531659141344cd1fd0a4f28419497f9722a3daafe3b4186f6b6457e09080a3005b631e4fbdf760e01b600052600060045260246000fd5b600080fd5b3461011757600036600319011261011757602060405160128152f35b34610117576000366003190112610117576000546040516001600160a01b039091168152602090f35b346101175760003660031901126101175761017a610714565b600080546001600160a01b0319811682556001600160a01b03167f8be0079c531659141344cd1fd0a4f28419497f9722a3daafe3b4186f6b6457e08280a3005b34610117576040366003190112610117576004357fbcd10d64fce9dcf9568572ed92e371df336d32649e8960a045c9548794a44b2660406024356101fc610714565b610207841515610601565b610212811515610640565b8360005260016020528082600020558360005260026020524282600020558151908152426020820152a2005b346101175760203660031901126101175760043560005260026020526020604060002054604051908152f35b3461011757602036600319011261011757600435600052600160205260206040600020541515604051908152f35b3461011757602036600319011261011757600435600052600160205260206040600020546102c78115156106c8565b604051908152f35b346101175760203660031901126101175760043567ffffffffffffffff8111610117576103009036906004016105c0565b9061030a826106b0565b6040519290601f01601f1916830167ffffffffffffffff8111848210176103f857604052808352828261033c836106b0565b602083019390601f190136853760005b818110610399575050506040519182916020830190602084525180915260408301919060005b818110610380575050500390f35b8251845285945060209384019390920191600101610372565b6103a78183859697956105f1565b356000526001602052604060002054906103c28215156106c8565b85518110156103e25760019160208260051b88010152019392919361034c565b634e487b7160e01b600052603260045260246000fd5b634e487b7160e01b600052604160045260246000fd5b346101175760403660031901126101175760043567ffffffffffffffff81116101175761043f9036906004016105c0565b9060243567ffffffffffffffff8111610117576104609036906004016105c0565b61046b939193610714565b80820361058257811561054e5760005b8281106104d957507f02e2c3883459fcf82cb05b06ab698fcde18a7aaf590a9c9b4d6c69e4d281ffd0936104ce916104c060405195869560608752606087019161068c565b91848303602086015261068c565b4260408301520390a1005b806104f26104ea60019386886105f1565b351515610601565b6105086105008285896105f1565b351515610640565b6105138184886105f1565b3561051f8286886105f1565b35600052826020526040600020556105388185876105f1565b356000526002602052426040600020550161047b565b60405162461bcd60e51b815260206004820152600c60248201526b456d7074792061727261797360a01b6044820152606490fd5b60405162461bcd60e51b8152602060048201526016602482015275082e4e4c2f2e640d8cadccee8d040dad2e6dac2e8c6d60531b6044820152606490fd5b9181601f840112156101175782359167ffffffffffffffff8311610117576020808501948460051b01011161011757565b91908110156103e25760051b0190565b1561060857565b60405162461bcd60e51b815260206004820152601060248201526f125b9d985b1a59081b585c9ad95d125960821b6044820152606490fd5b1561064757565b60405162461bcd60e51b815260206004820152601f60248201527f5072696365206d7573742062652067726561746572207468616e207a65726f006044820152606490fd5b81835290916001600160fb1b0383116101175760209260051b809284830137010190565b67ffffffffffffffff81116103f85760051b60200190565b156106cf57565b60405162461bcd60e51b815260206004820152601860248201527f5072696365206e6f742073657420666f72206d61726b657400000000000000006044820152606490fd5b6000546001600160a01b0316330361072857565b63118cdaa760e01b6000523360045260246000fdfea26469706673582212202c7c65502d39fe8c7006f41de6333489d98a70124aa40ba67b5484b665469e4a64736f6c634300081b0033",
  "linkReferences": {},
  "deployedLinkReferences": {}
}