{"contracts/StockVault.sol":{"StockVault":{"abi":[{"inputs":[{"internalType":"address","name":"_priceOracle","type":"address"},{"internalType":"address","name":"_cusd","type":"address"},{"internalType":"address","name":"_usdc","type":"address"},{"internalType":"address","name":"_usdt","type":"address"}],"stateMutability":"nonpayable","type":"constructor"},{"inputs":[{"internalType":"address","name":"owner","type":"address"}],"name":"OwnableInvalidOwner","type":"error"},{"inputs":[{"internalType":"address","name":"account","type":"address"}],"name":"OwnableUnauthorizedAccount","type":"error"},{"inputs":[],"name":"ReentrancyGuardReentrantCall","type":"error"},{"inputs":[{"internalType":"address","name":"token","type":"address"}],"name":"SafeERC20FailedOperation","type":"error"},{"anonymous":false,"inputs":[{"indexed":true,"internalType":"address","name":"user","type":"address"},{"indexed":true,"internalType":"address","name":"stableToken","type":"address"},{"indexed":true,"internalType":"address","name":"stockToken","type":"address"},{"indexed":false,"internalType":"uint256","name":"stableAmountIn","type":"uint256"},{"indexed":false,"internalType":"uint256","name":"stockAmountOut","type":"uint256"}],"name":"BuyStock","type":"event"},{"anonymous":false,"inputs":[{"indexed":true,"internalType":"address","name":"previousOwner","type":"address"},{"indexed":true,"internalType":"address","name":"newOwner","type":"address"}],"name":"OwnershipTransferred","type":"event"},{"anonymous":false,"inputs":[{"indexed":true,"internalType":"address","name":"user","type":"address"},{"indexed":true,"internalType":"address","name":"stableToken","type":"address"},{"indexed":true,"internalType":"address","name":"stockToken","type":"address"},{"indexed":false,"internalType":"uint256","name":"stockAmountIn","type":"uint256"},{"indexed":false,"internalType":"uint256","name":"stableAmountOut","type":"uint256"}],"name":"SellStock","type":"event"},{"anonymous":false,"inputs":[{"indexed":true,"internalType":"address","name":"stock","type":"address"},{"indexed":false,"internalType":"uint8","name":"decimals","type":"uint8"}],"name":"StockRegistered","type":"event"},{"inputs":[],"name":"CUSD","outputs":[{"internalType":"address","name":"","type":"address"}],"stateMutability":"view","type":"function"},{"inputs":[],"name":"USDC","outputs":[{"internalType":"address","name":"","type":"address"}],"stateMutability":"view","type":"function"},{"inputs":[],"name":"USDT","outputs":[{"internalType":"address","name":"","type":"address"}],"stateMutability":"view","type":"function"},{"inputs":[{"internalType":"address","name":"stableToken","type":"address"},{"internalType":"address","name":"stockToken","type":"address"},{"internalType":"uint256","name":"stableAmount","type":"uint256"},{"internalType":"uint256","name":"minStockOut","type":"uint256"}],"name":"buyStock","outputs":[],"stateMutability":"nonpayable","type":"function"},{"inputs":[{"internalType":"address","name":"token","type":"address"},{"internalType":"uint256","name":"amount","type":"uint256"}],"name":"emergencyWithdraw","outputs":[],"stateMutability":"nonpayable","type":"function"},{"inputs":[{"internalType":"address","name":"token","type":"address"}],"name":"getStableInfo","outputs":[{"internalType":"bool","name":"isStable","type":"bool"},{"internalType":"uint8","name":"decimals","type":"uint8"}],"stateMutability":"view","type":"function"},{"inputs":[{"internalType":"address","name":"token","type":"address"}],"name":"getStockInfo","outputs":[{"internalType":"bool","name":"isStock","type":"bool"},{"internalType":"uint8","name":"decimals","type":"uint8"}],"stateMutability":"view","type":"function"},{"inputs":[],"name":"owner","outputs":[{"internalType":"address","name":"","type":"address"}],"stateMutability":"view","type":"function"},{"inputs":[],"name":"priceOracle","outputs":[{"internalType":"contract IStockPriceOracle","name":"","type":"address"}],"stateMutability":"view","type":"function"},{"inputs":[{"internalType":"address","name":"stableToken","type":"address"},{"internalType":"address","name":"stockToken","type":"address"},{"internalType":"uint256","name":"stableAmount","type":"uint256"}],"name":"quoteBuy","outputs":[{"internalType":"uint256","name":"","type":"uint256"}],"stateMutability":"view","type":"function"},{"inputs":[{"internalType":"address","name":"stockToken","type":"address"},{"internalType":"address","name":"stableToken","type":"address"},{"internalType":"uint256","name":"stockAmount","type":"uint256"}],"name":"quoteSell","outputs":[{"internalType":"uint256","name":"","type":"uint256"}],"stateMutability":"view","type":"function"},{"inputs":[{"internalType":"address","name":"stockToken","type":"address"}],"name":"registerStock","outputs":[],"stateMutability":"nonpayable","type":"function"},{"inputs":[],"name":"renounceOwnership","outputs":[],"stateMutability":"nonpayable","type":"function"},{"inputs":[{"internalType":"address","name":"stockToken","type":"address"},{"internalType":"address","name":"stableToken","type":"address"},{"internalType":"uint256","name":"stockAmount","type":"uint256"},{"internalType":"uint256","name":"minStableOut","type":"uint256"}],"name":"sellStock","outputs":[],"stateMutability":"nonpayable","type":"function"},{"inputs":[{"internalType":"address","name":"","type":"address"}],"name":"stables","outputs":[{"internalType":"bool","name":"isStable","type":"bool"},{"internalType":"uint8","name":"decimals","type":"uint8"}],"stateMutability":"view","type":"function"},{"inputs":[{"internalType":"address","name":"","type":"address"}],"name":"stocks","outputs":[{"internalType":"bool","name":"isStock","type":"bool"},{"internalType":"uint8","name":"decimals","type":"uint8"}],"stateMutability":"view","type":"function"},{"inputs":[{"internalType":"address","name":"newOwner","type":"address"}],"name":"transferOwnership","outputs":[],"stateMutability":"nonpayable","type":"function"}],"evm":{"bytecode":{"linkReferences":{},"object":"6101008060405234610292576080816115f080380380916100208285610297565b83398101031261029257610033816102d0565b90610040602082016102d0565b6100586060610051604085016102d0565b93016102d0565b91331561027c5760008054336001600160a01b0319821681178355604051969290916001600160a01b0316907f8be0079c531659141344cd1fd0a4f28419497f9722a3daafe3b4186f6b6457e09080a3600180556001600160a01b031693841561023a57506001600160a01b038216156101f5576001600160a01b038116156101b0576001600160a01b0383161561016b576101096101099261010e956080528060a0528260c0528460e0526102e4565b6102e4565b60405161123190816103bf8239608051818181610251015281816105110152818161077a01528181610b9001528181610c2201528181610f2001526110f1015260a05181610663015260c0518161061e015260e051816104610152f35b60405162461bcd60e51b815260206004820152601460248201527f496e76616c6964205553445420616464726573730000000000000000000000006044820152606490fd5b60405162461bcd60e51b815260206004820152601460248201527f496e76616c6964205553444320616464726573730000000000000000000000006044820152606490fd5b60405162461bcd60e51b815260206004820152601460248201527f496e76616c6964204355534420616464726573730000000000000000000000006044820152606490fd5b62461bcd60e51b815260206004820152601660248201527f496e76616c6964206f7261636c652061646472657373000000000000000000006044820152606490fd5b631e4fbdf760e01b600052600060045260246000fd5b600080fd5b601f909101601f19168101906001600160401b038211908210176102ba57604052565b634e487b7160e01b600052604160045260246000fd5b51906001600160a01b038216820361029257565b60405163313ce56760e01b81526001600160a01b039190911690602081600481855afa9081156103b25760009161036f575b5060408051929083016001600160401b038111848210176102ba576040526001835260ff602084019216825260005260026020526040600020915115159060ff61ff008454925160081b1692169061ffff191617179055565b6020813d6020116103aa575b8161038860209383610297565b810103126103a657519060ff821682036103a3575038610316565b80fd5b5080fd5b3d915061037b565b6040513d6000823e3d90fdfe608080604052600436101561001357600080fd5b600090813560e01c9081632630c12f14610c0e5750806334259b1b14610b1157806339e2846b14610ada5780634743a51014610a7f5780635269b58c146108e8578063543a1178146108925780636fe5793c146106ec578063715018a614610692578063758316c91461064d57806389a30271146106085780638da5cb5b146105e157806395ccea67146105a15780639981d63214610490578063c54e44eb1461044b578063db6c7f1d146101c3578063e5792884146101645763f2fde38b146100dc57600080fd5b34610161576020366003190112610161576100f5610c55565b6100fd610fc7565b6001600160a01b0316801561014d5781546001600160a01b03198116821783556001600160a01b03167f8be0079c531659141344cd1fd0a4f28419497f9722a3daafe3b4186f6b6457e08380a380f35b631e4fbdf760e01b82526004829052602482fd5b80fd5b5034610161576020366003190112610161576101bf906040906001600160a01b0361018d610c55565b16815260036020522054604051918160ff80859460081c1691168390929160ff60209160408401951515845216910152565b0390f35b5034610161576101d236610ca5565b6101dd939293610ff0565b6001600160a01b038416808652600260205260408620549093906102039060ff16610ce3565b6001600160a01b038116808752600360205260408720549095906102299060ff16610d24565b610234841515610d64565b6040516341976e0960e01b815260048101879052906020826024817f00000000000000000000000000000000000000000000000000000000000000006001600160a01b03165afa9283156104405785928994610404575b50916102a4939161029b93611099565b91821015610e36565b6040516370a0823160e01b8152306004820152602081602481875afa80156103f957829187916103bf575b5010610381576102e182303387611012565b833b1561037257604051632770a7eb60e21b81523060048201526024810183905285908181604481838a5af180156103765761035d575b505061032581338561105d565b60405191825260208201527fe0af7bd1c7af549f1358ffb9853efb55d890ff7d77578bb809df4c6687632ba060403392a46001805580f35b8161036791610dd7565b610372578438610318565b8480fd5b6040513d84823e3d90fd5b60405162461bcd60e51b8152602060048201526016602482015275496e73756666696369656e74206c697175696469747960501b6044820152606490fd5b9150506020813d6020116103f1575b816103db60209383610dd7565b810103126103ec57819051386102cf565b600080fd5b3d91506103ce565b6040513d88823e3d90fd5b93509091506020833d602011610438575b8161042260209383610dd7565b810103126103ec5791519184919061029b61028b565b3d9150610415565b6040513d8a823e3d90fd5b50346101615780600319360112610161576040517f00000000000000000000000000000000000000000000000000000000000000006001600160a01b03168152602090f35b50346101615761049f36610c6b565b6001600160a01b03821684526002602052604084205491939290916104c69060ff16610ce3565b6001600160a01b038116808452600360205260408420546104e99060ff16610d24565b6104f4831515610d64565b6040516341976e0960e01b815260048101919091526020816024817f00000000000000000000000000000000000000000000000000000000000000006001600160a01b03165afa938415610595579361055e575b602061055685858886611099565b604051908152f35b9250906020833d60201161058d575b8161057a60209383610dd7565b810103126103ec57915191906020610548565b3d915061056d565b604051903d90823e3d90fd5b5034610161576040366003190112610161576105de6105be610c55565b6105c6610fc7565b8254602435916001600160a01b03918216911661105d565b80f35b5034610161578060031936011261016157546040516001600160a01b039091168152602090f35b50346101615780600319360112610161576040517f00000000000000000000000000000000000000000000000000000000000000006001600160a01b03168152602090f35b50346101615780600319360112610161576040517f00000000000000000000000000000000000000000000000000000000000000006001600160a01b03168152602090f35b50346101615780600319360112610161576106ab610fc7565b80546001600160a01b03198116825581906001600160a01b03167f8be0079c531659141344cd1fd0a4f28419497f9722a3daafe3b4186f6b6457e08280a380f35b5034610161576106fb36610ca5565b610706939293610ff0565b6001600160a01b0383168086526002602052604086205490939061072c9060ff16610ce3565b6001600160a01b038516808752600360205260408720549095906107529060ff16610d24565b61075d841515610d64565b6040516341976e0960e01b815260048101879052906020826024817f00000000000000000000000000000000000000000000000000000000000000006001600160a01b03165afa9283156104405785928994610852575b50916107c4939161029b93610ec7565b6107d082303386611012565b833b15610372576040516340c10f1960e01b815233600482015260248101829052858160448183895af180156103f95761083e575b5060405191825260208201527ff4e116c5af669bd0b672b4498a0a9b172a0029e608d2ab109e51480f6abc841460403392a46001805580f35b8561084b91969296610dd7565b9338610805565b93509091506020833d60201161088a575b8161087060209383610dd7565b810103126108865791519184919061029b6107b4565b8780fd5b3d9150610863565b5034610161576020366003190112610161576108c9906040906001600160a01b036108bb610c55565b168152600360205220610df9565b805160209182015160408051921515835260ff90911692820192909252f35b503461016157602036600319011261016157610902610c55565b61090a610fc7565b6001600160a01b03168015610a4257808252600360205260ff6040832054166109fd5760405163313ce56760e01b8152602081600481855afa9081156109f2577f174ad176d0e8343187c8118a29856f0af35e9054d527fd8726319c5e91f9b45d9160209185916109c5575b5060405161098381610da5565b6001815260ff8382019216918281528587526003845260408720915115159060ff61ff008454925160081b1692169061ffff191617179055604051908152a280f35b6109e59150823d84116109eb575b6109dd8183610dd7565b810190610e1d565b38610976565b503d6109d3565b6040513d85823e3d90fd5b60405162461bcd60e51b815260206004820152601860248201527f53746f636b20616c7265616479207265676973746572656400000000000000006044820152606490fd5b60405162461bcd60e51b8152602060048201526015602482015274496e76616c69642073746f636b206164647265737360581b6044820152606490fd5b5034610161576020366003190112610161576101bf906040906001600160a01b03610aa8610c55565b16815260026020522054604051918160ff80859460081c1691168390929160ff60209160408401951515845216910152565b5034610161576020366003190112610161576108c9906040906001600160a01b03610b03610c55565b168152600260205220610df9565b503461016157610b2036610c6b565b6001600160a01b038316845260026020526040842054909290610b459060ff16610ce3565b6001600160a01b03821680855260036020526040852054610b689060ff16610d24565b610b73841515610d64565b6040516341976e0960e01b815260048101919091526020816024817f00000000000000000000000000000000000000000000000000000000000000006001600160a01b03165afa948515610595578095610bd6575b602061055687878787610ec7565b909194506020823d602011610c06575b81610bf360209383610dd7565b8101031261016157505192816020610bc8565b3d9150610be6565b905034610c515781600319360112610c51577f00000000000000000000000000000000000000000000000000000000000000006001600160a01b03168152602090f35b5080fd5b600435906001600160a01b03821682036103ec57565b60609060031901126103ec576004356001600160a01b03811681036103ec57906024356001600160a01b03811681036103ec579060443590565b60809060031901126103ec576004356001600160a01b03811681036103ec57906024356001600160a01b03811681036103ec57906044359060643590565b15610cea57565b60405162461bcd60e51b8152602060048201526012602482015271556e737570706f7274656420737461626c6560701b6044820152606490fd5b15610d2b57565b60405162461bcd60e51b8152602060048201526011602482015270556e737570706f727465642073746f636b60781b6044820152606490fd5b15610d6b57565b60405162461bcd60e51b81526020600482015260126024820152710416d6f756e74206d757374206265203e20360741b6044820152606490fd5b6040810190811067ffffffffffffffff821117610dc157604052565b634e487b7160e01b600052604160045260246000fd5b90601f8019910116810190811067ffffffffffffffff821117610dc157604052565b90604051610e0681610da5565b602060ff8294548181161515845260081c16910152565b908160209103126103ec575160ff811681036103ec5790565b15610e3d57565b60405162461bcd60e51b8152602060048201526008602482015267536c69707061676560c01b6044820152606490fd5b60ff16604d8111610e7e57600a0a90565b634e487b7160e01b600052601160045260246000fd5b81810292918115918404141715610e7e57565b8115610eb1570490565b634e487b7160e01b600052601260045260246000fd5b6001600160a01b0316600090815260026020526040902091929091610eeb90610df9565b9160018060a01b03166000526003602052610f096040600020610df9565b604051631e34c81f60e31b815291906020836004817f00000000000000000000000000000000000000000000000000000000000000006001600160a01b03165afa8015610fbb576020610f8c610f7d93610f7d60ff84610f83610f9b9c610f7d8499610f959d600091610f9e575b50610e6d565b90610e94565b93015116610e6d565b95015116610e6d565b90610ea7565b90565b610fb59150853d87116109eb576109dd8183610dd7565b38610f77565b6040513d6000823e3d90fd5b6000546001600160a01b03163303610fdb57565b63118cdaa760e01b6000523360045260246000fd5b600260015414611001576002600155565b633ee5aeb560e01b60005260046000fd5b6040516323b872dd60e01b60208201526001600160a01b03928316602482015292909116604483015260648083019390935291815261105b91611056608483610dd7565b6111a0565b565b60405163a9059cbb60e01b60208201526001600160a01b0392909216602483015260448083019390935291815261105b91611056606483610dd7565b9092919260018060a01b031660005260026020526110ba6040600020610df9565b9060018060a01b031660005260036020526110d86040600020610df9565b604051631e34c81f60e31b8152909290916020836004817f00000000000000000000000000000000000000000000000000000000000000006001600160a01b03165afa918215610fbb57610f9b95610f959460009461115f575b506020611150610f7d94610f7d60ff84610f83611159988398610e94565b96015116610e6d565b91610e6d565b60ff919450611150610f7d94610f7d846020610f836111599861118f8398843d86116109eb576109dd8183610dd7565b9b9850985050505050945050611132565b906000602091828151910182855af115610fbb576000513d6111f257506001600160a01b0381163b155b6111d15750565b635274afe760e01b60009081526001600160a01b0391909116600452602490fd5b600114156111ca56fea26469706673582212208f5eb3f54ac8109e9b0e72c88ba8d780468364489785ed0059854a2c292313a264736f6c634300081b0033","opcodes":"PUSH2 0x100 DUP1 PUSH1 0x40 MSTORE CALLVALUE PUSH2 0x292 JUMPI PUSH1 0x80 DUP2 PUSH2 0x15F0 DUP1 CODESIZE SUB DUP1 SWAP2 PUSH2 0x20 DUP3 DUP6 PUSH2 0x297 JUMP JUMPDEST DUP4 CODECOPY DUP2 ADD SUB SLT PUSH2 0x292 JUMPI PUSH2 0x33 DUP2 PUSH2 0x2D0 JUMP JUMPDEST SWAP1 PUSH2 0x40 PUSH1 0x20 DUP3 ADD PUSH2 0x2D0 JUMP JUMPDEST PUSH2 0x58 PUSH1 0x60 PUSH2 0x51 PUSH1 0x40 DUP6 ADD PUSH2 0x2D0 JUMP JUMPDEST SWAP4 ADD PUSH2 0x2D0 JUMP JUMPDEST SWAP2 CALLER ISZERO PUSH2 0x27C JUMPI PUSH1 0x0 DUP1 SLOAD CALLER PUSH1 0x1 PUSH1 0x1 PUSH1 0xA0 SHL SUB NOT DUP3 AND DUP2 OR DUP4 SSTORE PUSH1 0x40 MLOAD SWAP7 SWAP3 SWAP1 SWAP2 PUSH1 0x1 PUSH1 0x1 PUSH1 0xA0 SHL SUB AND SWAP1 PUSH32 0x8BE0079C531659141344CD1FD0A4F28419497F9722A3DAAFE3B4186F6B6457E0 SWAP1 DUP1 LOG3 PUSH1 0x1 DUP1 SSTORE PUSH1 0x1 PUSH1 0x1 PUSH1 0xA0 SHL SUB AND SWAP4 DUP5 ISZERO PUSH2 0x23A JUMPI POP PUSH1 0x1 PUSH1 0x1 PUSH1 0xA0 SHL SUB DUP3 AND ISZERO PUSH2 0x1F5 JUMPI PUSH1 0x1 PUSH1 0x1 PUSH1 0xA0 SHL SUB DUP2 AND ISZERO PUSH2 0x1B0 JUMPI PUSH1 0x1 PUSH1 0x1 PUSH1 0xA0 SHL SUB DUP4 AND ISZERO PUSH2 0x16B JUMPI PUSH2 0x109 PUSH2 0x109 SWAP3 PUSH2 0x10E SWAP6 PUSH1 0x80 MSTORE DUP1 PUSH1 0xA0 MSTORE DUP3 PUSH1 0xC0 MSTORE DUP5 PUSH1 0xE0 MSTORE PUSH2 0x2E4 JUMP JUMPDEST PUSH2 0x2E4 JUMP JUMPDEST PUSH1 0x40 MLOAD PUSH2 0x1231 SWAP1 DUP2 PUSH2 0x3BF DUP3 CODECOPY PUSH1 0x80 MLOAD DUP2 DUP2 DUP2 PUSH2 0x251 ADD MSTORE DUP2 DUP2 PUSH2 0x511 ADD MSTORE DUP2 DUP2 PUSH2 0x77A ADD MSTORE DUP2 DUP2 PUSH2 0xB90 ADD MSTORE DUP2 DUP2 PUSH2 0xC22 ADD MSTORE DUP2 DUP2 PUSH2 0xF20 ADD MSTORE PUSH2 0x10F1 ADD MSTORE PUSH1 0xA0 MLOAD DUP2 PUSH2 0x663 ADD MSTORE PUSH1 0xC0 MLOAD DUP2 PUSH2 0x61E ADD MSTORE PUSH1 0xE0 MLOAD DUP2 PUSH2 0x461 ADD MSTORE RETURN JUMPDEST PUSH1 0x40 MLOAD PUSH3 0x461BCD PUSH1 0xE5 SHL DUP2 MSTORE PUSH1 0x20 PUSH1 0x4 DUP3 ADD MSTORE PUSH1 0x14 PUSH1 0x24 DUP3 ADD MSTORE PUSH32 0x496E76616C696420555344542061646472657373000000000000000000000000 PUSH1 0x44 DUP3 ADD MSTORE PUSH1 0x64 SWAP1 REVERT JUMPDEST PUSH1 0x40 MLOAD PUSH3 0x461BCD PUSH1 0xE5 SHL DUP2 MSTORE PUSH1 0x20 PUSH1 0x4 DUP3 ADD MSTORE PUSH1 0x14 PUSH1 0x24 DUP3 ADD MSTORE PUSH32 0x496E76616C696420555344432061646472657373000000000000000000000000 PUSH1 0x44 DUP3 ADD MSTORE PUSH1 0x64 SWAP1 REVERT JUMPDEST PUSH1 0x40 MLOAD PUSH3 0x461BCD PUSH1 0xE5 SHL DUP2 MSTORE PUSH1 0x20 PUSH1 0x4 DUP3 ADD MSTORE PUSH1 0x14 PUSH1 0x24 DUP3 ADD MSTORE PUSH32 0x496E76616C696420435553442061646472657373000000000000000000000000 PUSH1 0x44 DUP3 ADD MSTORE PUSH1 0x64 SWAP1 REVERT JUMPDEST PUSH3 0x461BCD PUSH1 0xE5 SHL DUP2 MSTORE PUSH1 0x20 PUSH1 0x4 DUP3 ADD MSTORE PUSH1 0x16 PUSH1 0x24 DUP3 ADD MSTORE PUSH32 0x496E76616C6964206F7261636C65206164647265737300000000000000000000 PUSH1 0x44 DUP3 ADD MSTORE PUSH1 0x64 SWAP1 REVERT JUMPDEST PUSH4 0x1E4FBDF7 PUSH1 0xE0 SHL PUSH1 0x0 MSTORE PUSH1 0x0 PUSH1 0x4 MSTORE PUSH1 0x24 PUSH1 0x0 REVERT JUMPDEST PUSH1 0x0 DUP1 REVERT JUMPDEST PUSH1 0x1F SWAP1 SWAP2 ADD PUSH1 0x1F NOT AND DUP2 ADD SWAP1 PUSH1 0x1 PUSH1 0x1 PUSH1 0x40 SHL SUB DUP3 GT SWAP1 DUP3 LT OR PUSH2 0x2BA JUMPI PUSH1 0x40 MSTORE JUMP JUMPDEST PUSH4 0x4E487B71 PUSH1 0xE0 SHL PUSH1 0x0 MSTORE PUSH1 0x41 PUSH1 0x4 MSTORE PUSH1 0x24 PUSH1 0x0 REVERT JUMPDEST MLOAD SWAP1 PUSH1 0x1 PUSH1 0x1 PUSH1 0xA0 SHL SUB DUP3 AND DUP3 SUB PUSH2 0x292 JUMPI JUMP JUMPDEST PUSH1 0x40 MLOAD PUSH4 0x313CE567 PUSH1 0xE0 SHL DUP2 MSTORE PUSH1 0x1 PUSH1 0x1 PUSH1 0xA0 SHL SUB SWAP2 SWAP1 SWAP2 AND SWAP1 PUSH1 0x20 DUP2 PUSH1 0x4 DUP2 DUP6 GAS STATICCALL SWAP1 DUP2 ISZERO PUSH2 0x3B2 JUMPI PUSH1 0x0 SWAP2 PUSH2 0x36F JUMPI JUMPDEST POP PUSH1 0x40 DUP1 MLOAD SWAP3 SWAP1 DUP4 ADD PUSH1 0x1 PUSH1 0x1 PUSH1 0x40 SHL SUB DUP2 GT DUP5 DUP3 LT OR PUSH2 0x2BA JUMPI PUSH1 0x40 MSTORE PUSH1 0x1 DUP4 MSTORE PUSH1 0xFF PUSH1 0x20 DUP5 ADD SWAP3 AND DUP3 MSTORE PUSH1 0x0 MSTORE PUSH1 0x2 PUSH1 0x20 MSTORE PUSH1 0x40 PUSH1 0x0 KECCAK256 SWAP2 MLOAD ISZERO ISZERO SWAP1 PUSH1 0xFF PUSH2 0xFF00 DUP5 SLOAD SWAP3 MLOAD PUSH1 0x8 SHL AND SWAP3 AND SWAP1 PUSH2 0xFFFF NOT AND OR OR SWAP1 SSTORE JUMP JUMPDEST PUSH1 0x20 DUP2 RETURNDATASIZE PUSH1 0x20 GT PUSH2 0x3AA JUMPI JUMPDEST DUP2 PUSH2 0x388 PUSH1 0x20 SWAP4 DUP4 PUSH2 0x297 JUMP JUMPDEST DUP2 ADD SUB SLT PUSH2 0x3A6 JUMPI MLOAD SWAP1 PUSH1 0xFF DUP3 AND DUP3 SUB PUSH2 0x3A3 JUMPI POP CODESIZE PUSH2 0x316 JUMP JUMPDEST DUP1 REVERT JUMPDEST POP DUP1 REVERT JUMPDEST RETURNDATASIZE SWAP2 POP PUSH2 0x37B JUMP JUMPDEST PUSH1 0x40 MLOAD RETURNDATASIZE PUSH1 0x0 DUP3 RETURNDATACOPY RETURNDATASIZE SWAP1 REVERT INVALID PUSH1 0x80 DUP1 PUSH1 0x40 MSTORE PUSH1 0x4 CALLDATASIZE LT ISZERO PUSH2 0x13 JUMPI PUSH1 0x0 DUP1 REVERT JUMPDEST PUSH1 0x0 SWAP1 DUP2 CALLDATALOAD PUSH1 0xE0 SHR SWAP1 DUP2 PUSH4 0x2630C12F EQ PUSH2 0xC0E JUMPI POP DUP1 PUSH4 0x34259B1B EQ PUSH2 0xB11 JUMPI DUP1 PUSH4 0x39E2846B EQ PUSH2 0xADA JUMPI DUP1 PUSH4 0x4743A510 EQ PUSH2 0xA7F JUMPI DUP1 PUSH4 0x5269B58C EQ PUSH2 0x8E8 JUMPI DUP1 PUSH4 0x543A1178 EQ PUSH2 0x892 JUMPI DUP1 PUSH4 0x6FE5793C EQ PUSH2 0x6EC JUMPI DUP1 PUSH4 0x715018A6 EQ PUSH2 0x692 JUMPI DUP1 PUSH4 0x758316C9 EQ PUSH2 0x64D JUMPI DUP1 PUSH4 0x89A30271 EQ PUSH2 0x608 JUMPI DUP1 PUSH4 0x8DA5CB5B EQ PUSH2 0x5E1 JUMPI DUP1 PUSH4 0x95CCEA67 EQ PUSH2 0x5A1 JUMPI DUP1 PUSH4 0x9981D632 EQ PUSH2 0x490 JUMPI DUP1 PUSH4 0xC54E44EB EQ PUSH2 0x44B JUMPI DUP1 PUSH4 0xDB6C7F1D EQ PUSH2 0x1C3 JUMPI DUP1 PUSH4 0xE5792884 EQ PUSH2 0x164 JUMPI PUSH4 0xF2FDE38B EQ PUSH2 0xDC JUMPI PUSH1 0x0 DUP1 REVERT JUMPDEST CALLVALUE PUSH2 0x161 JUMPI PUSH1 0x20 CALLDATASIZE PUSH1 0x3 NOT ADD SLT PUSH2 0x161 JUMPI PUSH2 0xF5 PUSH2 0xC55 JUMP JUMPDEST PUSH2 0xFD PUSH2 0xFC7 JUMP JUMPDEST PUSH1 0x1 PUSH1 0x1 PUSH1 0xA0 SHL SUB AND DUP1 ISZERO PUSH2 0x14D JUMPI DUP2 SLOAD PUSH1 0x1 PUSH1 0x1 PUSH1 0xA0 SHL SUB NOT DUP2 AND DUP3 OR DUP4 SSTORE PUSH1 0x1 PUSH1 0x1 PUSH1 0xA0 SHL SUB AND PUSH32 0x8BE0079C531659141344CD1FD0A4F28419497F9722A3DAAFE3B4186F6B6457E0 DUP4 DUP1 LOG3 DUP1 RETURN JUMPDEST PUSH4 0x1E4FBDF7 PUSH1 0xE0 SHL DUP3 MSTORE PUSH1 0x4 DUP3 SWAP1 MSTORE PUSH1 0x24 DUP3 REVERT JUMPDEST DUP1 REVERT JUMPDEST POP CALLVALUE PUSH2 0x161 JUMPI PUSH1 0x20 CALLDATASIZE PUSH1 0x3 NOT ADD SLT PUSH2 0x161 JUMPI PUSH2 0x1BF SWAP1 PUSH1 0x40 SWAP1 PUSH1 0x1 PUSH1 0x1 PUSH1 0xA0 SHL SUB PUSH2 0x18D PUSH2 0xC55 JUMP JUMPDEST AND DUP2 MSTORE PUSH1 0x3 PUSH1 0x20 MSTORE KECCAK256 SLOAD PUSH1 0x40 MLOAD SWAP2 DUP2 PUSH1 0xFF DUP1 DUP6 SWAP5 PUSH1 0x8 SHR AND SWAP2 AND DUP4 SWAP1 SWAP3 SWAP2 PUSH1 0xFF PUSH1 0x20 SWAP2 PUSH1 0x40 DUP5 ADD SWAP6 ISZERO ISZERO DUP5 MSTORE AND SWAP2 ADD MSTORE JUMP JUMPDEST SUB SWAP1 RETURN JUMPDEST POP CALLVALUE PUSH2 0x161 JUMPI PUSH2 0x1D2 CALLDATASIZE PUSH2 0xCA5 JUMP JUMPDEST PUSH2 0x1DD SWAP4 SWAP3 SWAP4 PUSH2 0xFF0 JUMP JUMPDEST PUSH1 0x1 PUSH1 0x1 PUSH1 0xA0 SHL SUB DUP5 AND DUP1 DUP7 MSTORE PUSH1 0x2 PUSH1 0x20 MSTORE PUSH1 0x40 DUP7 KECCAK256 SLOAD SWAP1 SWAP4 SWAP1 PUSH2 0x203 SWAP1 PUSH1 0xFF AND PUSH2 0xCE3 JUMP JUMPDEST PUSH1 0x1 PUSH1 0x1 PUSH1 0xA0 SHL SUB DUP2 AND DUP1 DUP8 MSTORE PUSH1 0x3 PUSH1 0x20 MSTORE PUSH1 0x40 DUP8 KECCAK256 SLOAD SWAP1 SWAP6 SWAP1 PUSH2 0x229 SWAP1 PUSH1 0xFF AND PUSH2 0xD24 JUMP JUMPDEST PUSH2 0x234 DUP5 ISZERO ISZERO PUSH2 0xD64 JUMP JUMPDEST PUSH1 0x40 MLOAD PUSH4 0x41976E09 PUSH1 0xE0 SHL DUP2 MSTORE PUSH1 0x4 DUP2 ADD DUP8 SWAP1 MSTORE SWAP1 PUSH1 0x20 DUP3 PUSH1 0x24 DUP2 PUSH32 0x0 PUSH1 0x1 PUSH1 0x1 PUSH1 0xA0 SHL SUB AND GAS STATICCALL SWAP3 DUP4 ISZERO PUSH2 0x440 JUMPI DUP6 SWAP3 DUP10 SWAP5 PUSH2 0x404 JUMPI JUMPDEST POP SWAP2 PUSH2 0x2A4 SWAP4 SWAP2 PUSH2 0x29B SWAP4 PUSH2 0x1099 JUMP JUMPDEST SWAP2 DUP3 LT ISZERO PUSH2 0xE36 JUMP JUMPDEST PUSH1 0x40 MLOAD PUSH4 0x70A08231 PUSH1 0xE0 SHL DUP2 MSTORE ADDRESS PUSH1 0x4 DUP3 ADD MSTORE PUSH1 0x20 DUP2 PUSH1 0x24 DUP2 DUP8 GAS STATICCALL DUP1 ISZERO PUSH2 0x3F9 JUMPI DUP3 SWAP2 DUP8 SWAP2 PUSH2 0x3BF JUMPI JUMPDEST POP LT PUSH2 0x381 JUMPI PUSH2 0x2E1 DUP3 ADDRESS CALLER DUP8 PUSH2 0x1012 JUMP JUMPDEST DUP4 EXTCODESIZE ISZERO PUSH2 0x372 JUMPI PUSH1 0x40 MLOAD PUSH4 0x2770A7EB PUSH1 0xE2 SHL DUP2 MSTORE ADDRESS PUSH1 0x4 DUP3 ADD MSTORE PUSH1 0x24 DUP2 ADD DUP4 SWAP1 MSTORE DUP6 SWAP1 DUP2 DUP2 PUSH1 0x44 DUP2 DUP4 DUP11 GAS CALL DUP1 ISZERO PUSH2 0x376 JUMPI PUSH2 0x35D JUMPI JUMPDEST POP POP PUSH2 0x325 DUP2 CALLER DUP6 PUSH2 0x105D JUMP JUMPDEST PUSH1 0x40 MLOAD SWAP2 DUP3 MSTORE PUSH1 0x20 DUP3 ADD MSTORE PUSH32 0xE0AF7BD1C7AF549F1358FFB9853EFB55D890FF7D77578BB809DF4C6687632BA0 PUSH1 0x40 CALLER SWAP3 LOG4 PUSH1 0x1 DUP1 SSTORE DUP1 RETURN JUMPDEST DUP2 PUSH2 0x367 SWAP2 PUSH2 0xDD7 JUMP JUMPDEST PUSH2 0x372 JUMPI DUP5 CODESIZE PUSH2 0x318 JUMP JUMPDEST DUP5 DUP1 REVERT JUMPDEST PUSH1 0x40 MLOAD RETURNDATASIZE DUP5 DUP3 RETURNDATACOPY RETURNDATASIZE SWAP1 REVERT JUMPDEST PUSH1 0x40 MLOAD PUSH3 0x461BCD PUSH1 0xE5 SHL DUP2 MSTORE PUSH1 0x20 PUSH1 0x4 DUP3 ADD MSTORE PUSH1 0x16 PUSH1 0x24 DUP3 ADD MSTORE PUSH22 0x496E73756666696369656E74206C6971756964697479 PUSH1 0x50 SHL PUSH1 0x44 DUP3 ADD MSTORE PUSH1 0x64 SWAP1 REVERT JUMPDEST SWAP2 POP POP PUSH1 0x20 DUP2 RETURNDATASIZE PUSH1 0x20 GT PUSH2 0x3F1 JUMPI JUMPDEST DUP2 PUSH2 0x3DB PUSH1 0x20 SWAP4 DUP4 PUSH2 0xDD7 JUMP JUMPDEST DUP2 ADD SUB SLT PUSH2 0x3EC JUMPI DUP2 SWAP1 MLOAD CODESIZE PUSH2 0x2CF JUMP JUMPDEST PUSH1 0x0 DUP1 REVERT JUMPDEST RETURNDATASIZE SWAP2 POP PUSH2 0x3CE JUMP JUMPDEST PUSH1 0x40 MLOAD RETURNDATASIZE DUP9 DUP3 RETURNDATACOPY RETURNDATASIZE SWAP1 REVERT JUMPDEST SWAP4 POP SWAP1 SWAP2 POP PUSH1 0x20 DUP4 RETURNDATASIZE PUSH1 0x20 GT PUSH2 0x438 JUMPI JUMPDEST DUP2 PUSH2 0x422 PUSH1 0x20 SWAP4 DUP4 PUSH2 0xDD7 JUMP JUMPDEST DUP2 ADD SUB SLT PUSH2 0x3EC JUMPI SWAP2 MLOAD SWAP2 DUP5 SWAP2 SWAP1 PUSH2 0x29B PUSH2 0x28B JUMP JUMPDEST RETURNDATASIZE SWAP2 POP PUSH2 0x415 JUMP JUMPDEST PUSH1 0x40 MLOAD RETURNDATASIZE DUP11 DUP3 RETURNDATACOPY RETURNDATASIZE SWAP1 REVERT JUMPDEST POP CALLVALUE PUSH2 0x161 JUMPI DUP1 PUSH1 0x3 NOT CALLDATASIZE ADD SLT PUSH2 0x161 JUMPI PUSH1 0x40 MLOAD PUSH32 0x0 PUSH1 0x1 PUSH1 0x1 PUSH1 0xA0 SHL SUB AND DUP2 MSTORE PUSH1 0x20 SWAP1 RETURN JUMPDEST POP CALLVALUE PUSH2 0x161 JUMPI PUSH2 0x49F CALLDATASIZE PUSH2 0xC6B JUMP JUMPDEST PUSH1 0x1 PUSH1 0x1 PUSH1 0xA0 SHL SUB DUP3 AND DUP5 MSTORE PUSH1 0x2 PUSH1 0x20 MSTORE PUSH1 0x40 DUP5 KECCAK256 SLOAD SWAP2 SWAP4 SWAP3 SWAP1 SWAP2 PUSH2 0x4C6 SWAP1 PUSH1 0xFF AND PUSH2 0xCE3 JUMP JUMPDEST PUSH1 0x1 PUSH1 0x1 PUSH1 0xA0 SHL SUB DUP2 AND DUP1 DUP5 MSTORE PUSH1 0x3 PUSH1 0x20 MSTORE PUSH1 0x40 DUP5 KECCAK256 SLOAD PUSH2 0x4E9 SWAP1 PUSH1 0xFF AND PUSH2 0xD24 JUMP JUMPDEST PUSH2 0x4F4 DUP4 ISZERO ISZERO PUSH2 0xD64 JUMP JUMPDEST PUSH1 0x40 MLOAD PUSH4 0x41976E09 PUSH1 0xE0 SHL DUP2 MSTORE PUSH1 0x4 DUP2 ADD SWAP2 SWAP1 SWAP2 MSTORE PUSH1 0x20 DUP2 PUSH1 0x24 DUP2 PUSH32 0x0 PUSH1 0x1 PUSH1 0x1 PUSH1 0xA0 SHL SUB AND GAS STATICCALL SWAP4 DUP5 ISZERO PUSH2 0x595 JUMPI SWAP4 PUSH2 0x55E JUMPI JUMPDEST PUSH1 0x20 PUSH2 0x556 DUP6 DUP6 DUP9 DUP7 PUSH2 0x1099 JUMP JUMPDEST PUSH1 0x40 MLOAD SWAP1 DUP2 MSTORE RETURN JUMPDEST SWAP3 POP SWAP1 PUSH1 0x20 DUP4 RETURNDATASIZE PUSH1 0x20 GT PUSH2 0x58D JUMPI JUMPDEST DUP2 PUSH2 0x57A PUSH1 0x20 SWAP4 DUP4 PUSH2 0xDD7 JUMP JUMPDEST DUP2 ADD SUB SLT PUSH2 0x3EC JUMPI SWAP2 MLOAD SWAP2 SWAP1 PUSH1 0x20 PUSH2 0x548 JUMP JUMPDEST RETURNDATASIZE SWAP2 POP PUSH2 0x56D JUMP JUMPDEST PUSH1 0x40 MLOAD SWAP1 RETURNDATASIZE SWAP1 DUP3 RETURNDATACOPY RETURNDATASIZE SWAP1 REVERT JUMPDEST POP CALLVALUE PUSH2 0x161 JUMPI PUSH1 0x40 CALLDATASIZE PUSH1 0x3 NOT ADD SLT PUSH2 0x161 JUMPI PUSH2 0x5DE PUSH2 0x5BE PUSH2 0xC55 JUMP JUMPDEST PUSH2 0x5C6 PUSH2 0xFC7 JUMP JUMPDEST DUP3 SLOAD PUSH1 0x24 CALLDATALOAD SWAP2 PUSH1 0x1 PUSH1 0x1 PUSH1 0xA0 SHL SUB SWAP2 DUP3 AND SWAP2 AND PUSH2 0x105D JUMP JUMPDEST DUP1 RETURN JUMPDEST POP CALLVALUE PUSH2 0x161 JUMPI DUP1 PUSH1 0x3 NOT CALLDATASIZE ADD SLT PUSH2 0x161 JUMPI SLOAD PUSH1 0x40 MLOAD PUSH1 0x1 PUSH1 0x1 PUSH1 0xA0 SHL SUB SWAP1 SWAP2 AND DUP2 MSTORE PUSH1 0x20 SWAP1 RETURN JUMPDEST POP CALLVALUE PUSH2 0x161 JUMPI DUP1 PUSH1 0x3 NOT CALLDATASIZE ADD SLT PUSH2 0x161 JUMPI PUSH1 0x40 MLOAD PUSH32 0x0 PUSH1 0x1 PUSH1 0x1 PUSH1 0xA0 SHL SUB AND DUP2 MSTORE PUSH1 0x20 SWAP1 RETURN JUMPDEST POP CALLVALUE PUSH2 0x161 JUMPI DUP1 PUSH1 0x3 NOT CALLDATASIZE ADD SLT PUSH2 0x161 JUMPI PUSH1 0x40 MLOAD PUSH32 0x0 PUSH1 0x1 PUSH1 0x1 PUSH1 0xA0 SHL SUB AND DUP2 MSTORE PUSH1 0x20 SWAP1 RETURN JUMPDEST POP CALLVALUE PUSH2 0x161 JUMPI DUP1 PUSH1 0x3 NOT CALLDATASIZE ADD SLT PUSH2 0x161 JUMPI PUSH2 0x6AB PUSH2 0xFC7 JUMP JUMPDEST DUP1 SLOAD PUSH1 0x1 PUSH1 0x1 PUSH1 0xA0 SHL SUB NOT DUP2 AND DUP3 SSTORE DUP2 SWAP1 PUSH1 0x1 PUSH1 0x1 PUSH1 0xA0 SHL SUB AND PUSH32 0x8BE0079C531659141344CD1FD0A4F28419497F9722A3DAAFE3B4186F6B6457E0 DUP3 DUP1 LOG3 DUP1 RETURN JUMPDEST POP CALLVALUE PUSH2 0x161 JUMPI PUSH2 0x6FB CALLDATASIZE PUSH2 0xCA5 JUMP JUMPDEST PUSH2 0x706 SWAP4 SWAP3 SWAP4 PUSH2 0xFF0 JUMP JUMPDEST PUSH1 0x1 PUSH1 0x1 PUSH1 0xA0 SHL SUB DUP4 AND DUP1 DUP7 MSTORE PUSH1 0x2 PUSH1 0x20 MSTORE PUSH1 0x40 DUP7 KECCAK256 SLOAD SWAP1 SWAP4 SWAP1 PUSH2 0x72C SWAP1 PUSH1 0xFF AND PUSH2 0xCE3 JUMP JUMPDEST PUSH1 0x1 PUSH1 0x1 PUSH1 0xA0 SHL SUB DUP6 AND DUP1 DUP8 MSTORE PUSH1 0x3 PUSH1 0x20 MSTORE PUSH1 0x40 DUP8 KECCAK256 SLOAD SWAP1 SWAP6 SWAP1 PUSH2 0x752 SWAP1 PUSH1 0xFF AND PUSH2 0xD24 JUMP JUMPDEST PUSH2 0x75D DUP5 ISZERO ISZERO PUSH2 0xD64 JUMP JUMPDEST PUSH1 0x40 MLOAD PUSH4 0x41976E09 PUSH1 0xE0 SHL DUP2 MSTORE PUSH1 0x4 DUP2 ADD DUP8 SWAP1 MSTORE SWAP1 PUSH1 0x20 DUP3 PUSH1 0x24 DUP2 PUSH32 0x0 PUSH1 0x1 PUSH1 0x1 PUSH1 0xA0 SHL SUB AND GAS STATICCALL SWAP3 DUP4 ISZERO PUSH2 0x440 JUMPI DUP6 SWAP3 DUP10 SWAP5 PUSH2 0x852 JUMPI JUMPDEST POP SWAP2 PUSH2 0x7C4 SWAP4 SWAP2 PUSH2 0x29B SWAP4 PUSH2 0xEC7 JUMP JUMPDEST PUSH2 0x7D0 DUP3 ADDRESS CALLER DUP7 PUSH2 0x1012 JUMP JUMPDEST DUP4 EXTCODESIZE ISZERO PUSH2 0x372 JUMPI PUSH1 0x40 MLOAD PUSH4 0x40C10F19 PUSH1 0xE0 SHL DUP2 MSTORE CALLER PUSH1 0x4 DUP3 ADD MSTORE PUSH1 0x24 DUP2 ADD DUP3 SWAP1 MSTORE DUP6 DUP2 PUSH1 0x44 DUP2 DUP4 DUP10 GAS CALL DUP1 ISZERO PUSH2 0x3F9 JUMPI PUSH2 0x83E JUMPI JUMPDEST POP PUSH1 0x40 MLOAD SWAP2 DUP3 MSTORE PUSH1 0x20 DUP3 ADD MSTORE PUSH32 0xF4E116C5AF669BD0B672B4498A0A9B172A0029E608D2AB109E51480F6ABC8414 PUSH1 0x40 CALLER SWAP3 LOG4 PUSH1 0x1 DUP1 SSTORE DUP1 RETURN JUMPDEST DUP6 PUSH2 0x84B SWAP2 SWAP7 SWAP3 SWAP7 PUSH2 0xDD7 JUMP JUMPDEST SWAP4 CODESIZE PUSH2 0x805 JUMP JUMPDEST SWAP4 POP SWAP1 SWAP2 POP PUSH1 0x20 DUP4 RETURNDATASIZE PUSH1 0x20 GT PUSH2 0x88A JUMPI JUMPDEST DUP2 PUSH2 0x870 PUSH1 0x20 SWAP4 DUP4 PUSH2 0xDD7 JUMP JUMPDEST DUP2 ADD SUB SLT PUSH2 0x886 JUMPI SWAP2 MLOAD SWAP2 DUP5 SWAP2 SWAP1 PUSH2 0x29B PUSH2 0x7B4 JUMP JUMPDEST DUP8 DUP1 REVERT JUMPDEST RETURNDATASIZE SWAP2 POP PUSH2 0x863 JUMP JUMPDEST POP CALLVALUE PUSH2 0x161 JUMPI PUSH1 0x20 CALLDATASIZE PUSH1 0x3 NOT ADD SLT PUSH2 0x161 JUMPI PUSH2 0x8C9 SWAP1 PUSH1 0x40 SWAP1 PUSH1 0x1 PUSH1 0x1 PUSH1 0xA0 SHL SUB PUSH2 0x8BB PUSH2 0xC55 JUMP JUMPDEST AND DUP2 MSTORE PUSH1 0x3 PUSH1 0x20 MSTORE KECCAK256 PUSH2 0xDF9 JUMP JUMPDEST DUP1 MLOAD PUSH1 0x20 SWAP2 DUP3 ADD MLOAD PUSH1 0x40 DUP1 MLOAD SWAP3 ISZERO ISZERO DUP4 MSTORE PUSH1 0xFF SWAP1 SWAP2 AND SWAP3 DUP3 ADD SWAP3 SWAP1 SWAP3 MSTORE RETURN JUMPDEST POP CALLVALUE PUSH2 0x161 JUMPI PUSH1 0x20 CALLDATASIZE PUSH1 0x3 NOT ADD SLT PUSH2 0x161 JUMPI PUSH2 0x902 PUSH2 0xC55 JUMP JUMPDEST PUSH2 0x90A PUSH2 0xFC7 JUMP JUMPDEST PUSH1 0x1 PUSH1 0x1 PUSH1 0xA0 SHL SUB AND DUP1 ISZERO PUSH2 0xA42 JUMPI DUP1 DUP3 MSTORE PUSH1 0x3 PUSH1 0x20 MSTORE PUSH1 0xFF PUSH1 0x40 DUP4 KECCAK256 SLOAD AND PUSH2 0x9FD JUMPI PUSH1 0x40 MLOAD PUSH4 0x313CE567 PUSH1 0xE0 SHL DUP2 MSTORE PUSH1 0x20 DUP2 PUSH1 0x4 DUP2 DUP6 GAS STATICCALL SWAP1 DUP2 ISZERO PUSH2 0x9F2 JUMPI PUSH32 0x174AD176D0E8343187C8118A29856F0AF35E9054D527FD8726319C5E91F9B45D SWAP2 PUSH1 0x20 SWAP2 DUP6 SWAP2 PUSH2 0x9C5 JUMPI JUMPDEST POP PUSH1 0x40 MLOAD PUSH2 0x983 DUP2 PUSH2 0xDA5 JUMP JUMPDEST PUSH1 0x1 DUP2 MSTORE PUSH1 0xFF DUP4 DUP3 ADD SWAP3 AND SWAP2 DUP3 DUP2 MSTORE DUP6 DUP8 MSTORE PUSH1 0x3 DUP5 MSTORE PUSH1 0x40 DUP8 KECCAK256 SWAP2 MLOAD ISZERO ISZERO SWAP1 PUSH1 0xFF PUSH2 0xFF00 DUP5 SLOAD SWAP3 MLOAD PUSH1 0x8 SHL AND SWAP3 AND SWAP1 PUSH2 0xFFFF NOT AND OR OR SWAP1 SSTORE PUSH1 0x40 MLOAD SWAP1 DUP2 MSTORE LOG2 DUP1 RETURN JUMPDEST PUSH2 0x9E5 SWAP2 POP DUP3 RETURNDATASIZE DUP5 GT PUSH2 0x9EB JUMPI JUMPDEST PUSH2 0x9DD DUP2 DUP4 PUSH2 0xDD7 JUMP JUMPDEST DUP2 ADD SWAP1 PUSH2 0xE1D JUMP JUMPDEST CODESIZE PUSH2 0x976 JUMP JUMPDEST POP RETURNDATASIZE PUSH2 0x9D3 JUMP JUMPDEST PUSH1 0x40 MLOAD RETURNDATASIZE DUP6 DUP3 RETURNDATACOPY RETURNDATASIZE SWAP1 REVERT JUMPDEST PUSH1 0x40 MLOAD PUSH3 0x461BCD PUSH1 0xE5 SHL DUP2 MSTORE PUSH1 0x20 PUSH1 0x4 DUP3 ADD MSTORE PUSH1 0x18 PUSH1 0x24 DUP3 ADD MSTORE PUSH32 0x53746F636B20616C726561647920726567697374657265640000000000000000 PUSH1 0x44 DUP3 ADD MSTORE PUSH1 0x64 SWAP1 REVERT JUMPDEST PUSH1 0x40 MLOAD PUSH3 0x461BCD PUSH1 0xE5 SHL DUP2 MSTORE PUSH1 0x20 PUSH1 0x4 DUP3 ADD MSTORE PUSH1 0x15 PUSH1 0x24 DUP3 ADD MSTORE PUSH21 0x496E76616C69642073746F636B2061646472657373 PUSH1 0x58 SHL PUSH1 0x44 DUP3 ADD MSTORE PUSH1 0x64 SWAP1 REVERT JUMPDEST POP CALLVALUE PUSH2 0x161 JUMPI PUSH1 0x20 CALLDATASIZE PUSH1 0x3 NOT ADD SLT PUSH2 0x161 JUMPI PUSH2 0x1BF SWAP1 PUSH1 0x40 SWAP1 PUSH1 0x1 PUSH1 0x1 PUSH1 0xA0 SHL SUB PUSH2 0xAA8 PUSH2 0xC55 JUMP JUMPDEST AND DUP2 MSTORE PUSH1 0x2 PUSH1 0x20 MSTORE KECCAK256 SLOAD PUSH1 0x40 MLOAD SWAP2 DUP2 PUSH1 0xFF DUP1 DUP6 SWAP5 PUSH1 0x8 SHR AND SWAP2 AND DUP4 SWAP1 SWAP3 SWAP2 PUSH1 0xFF PUSH1 0x20 SWAP2 PUSH1 0x40 DUP5 ADD SWAP6 ISZERO ISZERO DUP5 MSTORE AND SWAP2 ADD MSTORE JUMP JUMPDEST POP CALLVALUE PUSH2 0x161 JUMPI PUSH1 0x20 CALLDATASIZE PUSH1 0x3 NOT ADD SLT PUSH2 0x161 JUMPI PUSH2 0x8C9 SWAP1 PUSH1 0x40 SWAP1 PUSH1 0x1 PUSH1 0x1 PUSH1 0xA0 SHL SUB PUSH2 0xB03 PUSH2 0xC55 JUMP JUMPDEST AND DUP2 MSTORE PUSH1 0x2 PUSH1 0x20 MSTORE KECCAK256 PUSH2 0xDF9 JUMP JUMPDEST POP CALLVALUE PUSH2 0x161 JUMPI PUSH2 0xB20 CALLDATASIZE PUSH2 0xC6B JUMP JUMPDEST PUSH1 0x1 PUSH1 0x1 PUSH1 0xA0 SHL SUB DUP4 AND DUP5 MSTORE PUSH1 0x2 PUSH1 0x20 MSTORE PUSH1 0x40 DUP5 KECCAK256 SLOAD SWAP1 SWAP3 SWAP1 PUSH2 0xB45 SWAP1 PUSH1 0xFF AND PUSH2 0xCE3 JUMP JUMPDEST PUSH1 0x1 PUSH1 0x1 PUSH1 0xA0 SHL SUB DUP3 AND DUP1 DUP6 MSTORE PUSH1 0x3 PUSH1 0x20 MSTORE PUSH1 0x40 DUP6 KECCAK256 SLOAD PUSH2 0xB68 SWAP1 PUSH1 0xFF AND PUSH2 0xD24 JUMP JUMPDEST PUSH2 0xB73 DUP5 ISZERO ISZERO PUSH2 0xD64 JUMP JUMPDEST PUSH1 0x40 MLOAD PUSH4 0x41976E09 PUSH1 0xE0 SHL DUP2 MSTORE PUSH1 0x4 DUP2 ADD SWAP2 SWAP1 SWAP2 MSTORE PUSH1 0x20 DUP2 PUSH1 0x24 DUP2 PUSH32 0x0 PUSH1 0x1 PUSH1 0x1 PUSH1 0xA0 SHL SUB AND GAS STATICCALL SWAP5 DUP6 ISZERO PUSH2 0x595 JUMPI DUP1 SWAP6 PUSH2 0xBD6 JUMPI JUMPDEST PUSH1 0x20 PUSH2 0x556 DUP8 DUP8 DUP8 DUP8 PUSH2 0xEC7 JUMP JUMPDEST SWAP1 SWAP2 SWAP5 POP PUSH1 0x20 DUP3 RETURNDATASIZE PUSH1 0x20 GT PUSH2 0xC06 JUMPI JUMPDEST DUP2 PUSH2 0xBF3 PUSH1 0x20 SWAP4 DUP4 PUSH2 0xDD7 JUMP JUMPDEST DUP2 ADD SUB SLT PUSH2 0x161 JUMPI POP MLOAD SWAP3 DUP2 PUSH1 0x20 PUSH2 0xBC8 JUMP JUMPDEST RETURNDATASIZE SWAP2 POP PUSH2 0xBE6 JUMP JUMPDEST SWAP1 POP CALLVALUE PUSH2 0xC51 JUMPI DUP2 PUSH1 0x3 NOT CALLDATASIZE ADD SLT PUSH2 0xC51 JUMPI PUSH32 0x0 PUSH1 0x1 PUSH1 0x1 PUSH1 0xA0 SHL SUB AND DUP2 MSTORE PUSH1 0x20 SWAP1 RETURN JUMPDEST POP DUP1 REVERT JUMPDEST PUSH1 0x4 CALLDATALOAD SWAP1 PUSH1 0x1 PUSH1 0x1 PUSH1 0xA0 SHL SUB DUP3 AND DUP3 SUB PUSH2 0x3EC JUMPI JUMP JUMPDEST PUSH1 0x60 SWAP1 PUSH1 0x3 NOT ADD SLT PUSH2 0x3EC JUMPI PUSH1 0x4 CALLDATALOAD PUSH1 0x1 PUSH1 0x1 PUSH1 0xA0 SHL SUB DUP2 AND DUP2 SUB PUSH2 0x3EC JUMPI SWAP1 PUSH1 0x24 CALLDATALOAD PUSH1 0x1 PUSH1 0x1 PUSH1 0xA0 SHL SUB DUP2 AND DUP2 SUB PUSH2 0x3EC JUMPI SWAP1 PUSH1 0x44 CALLDATALOAD SWAP1 JUMP JUMPDEST PUSH1 0x80 SWAP1 PUSH1 0x3 NOT ADD SLT PUSH2 0x3EC JUMPI PUSH1 0x4 CALLDATALOAD PUSH1 0x1 PUSH1 0x1 PUSH1 0xA0 SHL SUB DUP2 AND DUP2 SUB PUSH2 0x3EC JUMPI SWAP1 PUSH1 0x24 CALLDATALOAD PUSH1 0x1 PUSH1 0x1 PUSH1 0xA0 SHL SUB DUP2 AND DUP2 SUB PUSH2 0x3EC JUMPI SWAP1 PUSH1 0x44 CALLDATALOAD SWAP1 PUSH1 0x64 CALLDATALOAD SWAP1 JUMP JUMPDEST ISZERO PUSH2 0xCEA JUMPI JUMP JUMPDEST PUSH1 0x40 MLOAD PUSH3 0x461BCD PUSH1 0xE5 SHL DUP2 MSTORE PUSH1 0x20 PUSH1 0x4 DUP3 ADD MSTORE PUSH1 0x12 PUSH1 0x24 DUP3 ADD MSTORE PUSH18 0x556E737570706F7274656420737461626C65 PUSH1 0x70 SHL PUSH1 0x44 DUP3 ADD MSTORE PUSH1 0x64 SWAP1 REVERT JUMPDEST ISZERO PUSH2 0xD2B JUMPI JUMP JUMPDEST PUSH1 0x40 MLOAD PUSH3 0x461BCD PUSH1 0xE5 SHL DUP2 MSTORE PUSH1 0x20 PUSH1 0x4 DUP3 ADD MSTORE PUSH1 0x11 PUSH1 0x24 DUP3 ADD MSTORE PUSH17 0x556E737570706F727465642073746F636B PUSH1 0x78 SHL PUSH1 0x44 DUP3 ADD MSTORE PUSH1 0x64 SWAP1 REVERT JUMPDEST ISZERO PUSH2 0xD6B JUMPI JUMP JUMPDEST PUSH1 0x40 MLOAD PUSH3 0x461BCD PUSH1 0xE5 SHL DUP2 MSTORE PUSH1 0x20 PUSH1 0x4 DUP3 ADD MSTORE PUSH1 0x12 PUSH1 0x24 DUP3 ADD MSTORE PUSH18 0x416D6F756E74206D757374206265203E203 PUSH1 0x74 SHL PUSH1 0x44 DUP3 ADD MSTORE PUSH1 0x64 SWAP1 REVERT JUMPDEST PUSH1 0x40 DUP2 ADD SWAP1 DUP2 LT PUSH8 0xFFFFFFFFFFFFFFFF DUP3 GT OR PUSH2 0xDC1 JUMPI PUSH1 0x40 MSTORE JUMP JUMPDEST PUSH4 0x4E487B71 PUSH1 0xE0 SHL PUSH1 0x0 MSTORE PUSH1 0x41 PUSH1 0x4 MSTORE PUSH1 0x24 PUSH1 0x0 REVERT JUMPDEST SWAP1 PUSH1 0x1F DUP1 NOT SWAP2 ADD AND DUP2 ADD SWAP1 DUP2 LT PUSH8 0xFFFFFFFFFFFFFFFF DUP3 GT OR PUSH2 0xDC1 JUMPI PUSH1 0x40 MSTORE JUMP JUMPDEST SWAP1 PUSH1 0x40 MLOAD PUSH2 0xE06 DUP2 PUSH2 0xDA5 JUMP JUMPDEST PUSH1 0x20 PUSH1 0xFF DUP3 SWAP5 SLOAD DUP2 DUP2 AND ISZERO ISZERO DUP5 MSTORE PUSH1 0x8 SHR AND SWAP2 ADD MSTORE JUMP JUMPDEST SWAP1 DUP2 PUSH1 0x20 SWAP2 SUB SLT PUSH2 0x3EC JUMPI MLOAD PUSH1 0xFF DUP2 AND DUP2 SUB PUSH2 0x3EC JUMPI SWAP1 JUMP JUMPDEST ISZERO PUSH2 0xE3D JUMPI JUMP JUMPDEST PUSH1 0x40 MLOAD PUSH3 0x461BCD PUSH1 0xE5 SHL DUP2 MSTORE PUSH1 0x20 PUSH1 0x4 DUP3 ADD MSTORE PUSH1 0x8 PUSH1 0x24 DUP3 ADD MSTORE PUSH8 0x536C697070616765 PUSH1 0xC0 SHL PUSH1 0x44 DUP3 ADD MSTORE PUSH1 0x64 SWAP1 REVERT JUMPDEST PUSH1 0xFF AND PUSH1 0x4D DUP2 GT PUSH2 0xE7E JUMPI PUSH1 0xA EXP SWAP1 JUMP JUMPDEST PUSH4 0x4E487B71 PUSH1 0xE0 SHL PUSH1 0x0 MSTORE PUSH1 0x11 PUSH1 0x4 MSTORE PUSH1 0x24 PUSH1 0x0 REVERT JUMPDEST DUP2 DUP2 MUL SWAP3 SWAP2 DUP2 ISZERO SWAP2 DUP5 DIV EQ OR ISZERO PUSH2 0xE7E JUMPI JUMP JUMPDEST DUP2 ISZERO PUSH2 0xEB1 JUMPI DIV SWAP1 JUMP JUMPDEST PUSH4 0x4E487B71 PUSH1 0xE0 SHL PUSH1 0x0 MSTORE PUSH1 0x12 PUSH1 0x4 MSTORE PUSH1 0x24 PUSH1 0x0 REVERT JUMPDEST PUSH1 0x1 PUSH1 0x1 PUSH1 0xA0 SHL SUB AND PUSH1 0x0 SWAP1 DUP2 MSTORE PUSH1 0x2 PUSH1 0x20 MSTORE PUSH1 0x40 SWAP1 KECCAK256 SWAP2 SWAP3 SWAP1 SWAP2 PUSH2 0xEEB SWAP1 PUSH2 0xDF9 JUMP JUMPDEST SWAP2 PUSH1 0x1 DUP1 PUSH1 0xA0 SHL SUB AND PUSH1 0x0 MSTORE PUSH1 0x3 PUSH1 0x20 MSTORE PUSH2 0xF09 PUSH1 0x40 PUSH1 0x0 KECCAK256 PUSH2 0xDF9 JUMP JUMPDEST PUSH1 0x40 MLOAD PUSH4 0x1E34C81F PUSH1 0xE3 SHL DUP2 MSTORE SWAP2 SWAP1 PUSH1 0x20 DUP4 PUSH1 0x4 DUP2 PUSH32 0x0 PUSH1 0x1 PUSH1 0x1 PUSH1 0xA0 SHL SUB AND GAS STATICCALL DUP1 ISZERO PUSH2 0xFBB JUMPI PUSH1 0x20 PUSH2 0xF8C PUSH2 0xF7D SWAP4 PUSH2 0xF7D PUSH1 0xFF DUP5 PUSH2 0xF83 PUSH2 0xF9B SWAP13 PUSH2 0xF7D DUP5 SWAP10 PUSH2 0xF95 SWAP14 PUSH1 0x0 SWAP2 PUSH2 0xF9E JUMPI JUMPDEST POP PUSH2 0xE6D JUMP JUMPDEST SWAP1 PUSH2 0xE94 JUMP JUMPDEST SWAP4 ADD MLOAD AND PUSH2 0xE6D JUMP JUMPDEST SWAP6 ADD MLOAD AND PUSH2 0xE6D JUMP JUMPDEST SWAP1 PUSH2 0xEA7 JUMP JUMPDEST SWAP1 JUMP JUMPDEST PUSH2 0xFB5 SWAP2 POP DUP6 RETURNDATASIZE DUP8 GT PUSH2 0x9EB JUMPI PUSH2 0x9DD DUP2 DUP4 PUSH2 0xDD7 JUMP JUMPDEST CODESIZE PUSH2 0xF77 JUMP JUMPDEST PUSH1 0x40 MLOAD RETURNDATASIZE PUSH1 0x0 DUP3 RETURNDATACOPY RETURNDATASIZE SWAP1 REVERT JUMPDEST PUSH1 0x0 SLOAD PUSH1 0x1 PUSH1 0x1 PUSH1 0xA0 SHL SUB AND CALLER SUB PUSH2 0xFDB JUMPI JUMP JUMPDEST PUSH4 0x118CDAA7 PUSH1 0xE0 SHL PUSH1 0x0 MSTORE CALLER PUSH1 0x4 MSTORE PUSH1 0x24 PUSH1 0x0 REVERT JUMPDEST PUSH1 0x2 PUSH1 0x1 SLOAD EQ PUSH2 0x1001 JUMPI PUSH1 0x2 PUSH1 0x1 SSTORE JUMP JUMPDEST PUSH4 0x3EE5AEB5 PUSH1 0xE0 SHL PUSH1 0x0 MSTORE PUSH1 0x4 PUSH1 0x0 REVERT JUMPDEST PUSH1 0x40 MLOAD PUSH4 0x23B872DD PUSH1 0xE0 SHL PUSH1 0x20 DUP3 ADD MSTORE PUSH1 0x1 PUSH1 0x1 PUSH1 0xA0 SHL SUB SWAP3 DUP4 AND PUSH1 0x24 DUP3 ADD MSTORE SWAP3 SWAP1 SWAP2 AND PUSH1 0x44 DUP4 ADD MSTORE PUSH1 0x64 DUP1 DUP4 ADD SWAP4 SWAP1 SWAP4 MSTORE SWAP2 DUP2 MSTORE PUSH2 0x105B SWAP2 PUSH2 0x1056 PUSH1 0x84 DUP4 PUSH2 0xDD7 JUMP JUMPDEST PUSH2 0x11A0 JUMP JUMPDEST JUMP JUMPDEST PUSH1 0x40 MLOAD PUSH4 0xA9059CBB PUSH1 0xE0 SHL PUSH1 0x20 DUP3 ADD MSTORE PUSH1 0x1 PUSH1 0x1 PUSH1 0xA0 SHL SUB SWAP3 SWAP1 SWAP3 AND PUSH1 0x24 DUP4 ADD MSTORE PUSH1 0x44 DUP1 DUP4 ADD SWAP4 SWAP1 SWAP4 MSTORE SWAP2 DUP2 MSTORE PUSH2 0x105B SWAP2 PUSH2 0x1056 PUSH1 0x64 DUP4 PUSH2 0xDD7 JUMP JUMPDEST SWAP1 SWAP3 SWAP2 SWAP3 PUSH1 0x1 DUP1 PUSH1 0xA0 SHL SUB AND PUSH1 0x0 MSTORE PUSH1 0x2 PUSH1 0x20 MSTORE PUSH2 0x10BA PUSH1 0x40 PUSH1 0x0 KECCAK256 PUSH2 0xDF9 JUMP JUMPDEST SWAP1 PUSH1 0x1 DUP1 PUSH1 0xA0 SHL SUB AND PUSH1 0x0 MSTORE PUSH1 0x3 PUSH1 0x20 MSTORE PUSH2 0x10D8 PUSH1 0x40 PUSH1 0x0 KECCAK256 PUSH2 0xDF9 JUMP JUMPDEST PUSH1 0x40 MLOAD PUSH4 0x1E34C81F PUSH1 0xE3 SHL DUP2 MSTORE SWAP1 SWAP3 SWAP1 SWAP2 PUSH1 0x20 DUP4 PUSH1 0x4 DUP2 PUSH32 0x0 PUSH1 0x1 PUSH1 0x1 PUSH1 0xA0 SHL SUB AND GAS STATICCALL SWAP2 DUP3 ISZERO PUSH2 0xFBB JUMPI PUSH2 0xF9B SWAP6 PUSH2 0xF95 SWAP5 PUSH1 0x0 SWAP5 PUSH2 0x115F JUMPI JUMPDEST POP PUSH1 0x20 PUSH2 0x1150 PUSH2 0xF7D SWAP5 PUSH2 0xF7D PUSH1 0xFF DUP5 PUSH2 0xF83 PUSH2 0x1159 SWAP9 DUP4 SWAP9 PUSH2 0xE94 JUMP JUMPDEST SWAP7 ADD MLOAD AND PUSH2 0xE6D JUMP JUMPDEST SWAP2 PUSH2 0xE6D JUMP JUMPDEST PUSH1 0xFF SWAP2 SWAP5 POP PUSH2 0x1150 PUSH2 0xF7D SWAP5 PUSH2 0xF7D DUP5 PUSH1 0x20 PUSH2 0xF83 PUSH2 0x1159 SWAP9 PUSH2 0x118F DUP4 SWAP9 DUP5 RETURNDATASIZE DUP7 GT PUSH2 0x9EB JUMPI PUSH2 0x9DD DUP2 DUP4 PUSH2 0xDD7 JUMP JUMPDEST SWAP12 SWAP9 POP SWAP9 POP POP POP POP POP SWAP5 POP POP PUSH2 0x1132 JUMP JUMPDEST SWAP1 PUSH1 0x0 PUSH1 0x20 SWAP2 DUP3 DUP2 MLOAD SWAP2 ADD DUP3 DUP6 GAS CALL ISZERO PUSH2 0xFBB JUMPI PUSH1 0x0 MLOAD RETURNDATASIZE PUSH2 0x11F2 JUMPI POP PUSH1 0x1 PUSH1 0x1 PUSH1 0xA0 SHL SUB DUP2 AND EXTCODESIZE ISZERO JUMPDEST PUSH2 0x11D1 JUMPI POP JUMP JUMPDEST PUSH4 0x5274AFE7 PUSH1 0xE0 SHL PUSH1 0x0 SWAP1 DUP2 MSTORE PUSH1 0x1 PUSH1 0x1 PUSH1 0xA0 SHL SUB SWAP2 SWAP1 SWAP2 AND PUSH1 0x4 MSTORE PUSH1 0x24 SWAP1 REVERT JUMPDEST PUSH1 0x1 EQ ISZERO PUSH2 0x11CA JUMP INVALID LOG2 PUSH5 0x6970667358 0x22 SLT KECCAK256 DUP16 MCOPY 0xB3 CREATE2 BLOBBASEFEE 0xC8 LT SWAP15 SWAP12 0xE PUSH19 0xC88BA8D780468364489785ED0059854A2C2923 SGT LOG2 PUSH5 0x736F6C6343 STOP ADDMOD SHL STOP CALLER "},"methodIdentifiers":{"CUSD()":"758316c9","USDC()":"89a30271","USDT()":"c54e44eb","buyStock(address,address,uint256,uint256)":"6fe5793c","emergencyWithdraw(address,uint256)":"95ccea67","getStableInfo(address)":"39e2846b","getStockInfo(address)":"543a1178","owner()":"8da5cb5b","priceOracle()":"2630c12f","quoteBuy(address,address,uint256)":"34259b1b","quoteSell(address,address,uint256)":"9981d632","registerStock(address)":"5269b58c","renounceOwnership()":"715018a6","sellStock(address,address,uint256,uint256)":"db6c7f1d","stables(address)":"4743a510","stocks(address)":"e5792884","transferOwnership(address)":"f2fde38b"}},"storageLayout":{"storage":[{"astId":8,"contract":"contracts/StockVault.sol:StockVault","label":"_owner","offset":0,"slot":"0","type":"t_address"},{"astId":1498,"contract":"contracts/StockVault.sol:StockVault","label":"_status","offset":0,"slot":"1","type":"t_uint256"},{"astId":4122,"contract":"contracts/StockVault.sol:StockVault","label":"stables","offset":0,"slot":"2","type":"t_mapping(t_address,t_struct(StableInfo)4112_storage)"},{"astId":4127,"contract":"contracts/StockVault.sol:StockVault","label":"stocks","offset":0,"slot":"3","type":"t_mapping(t_address,t_struct(StockInfo)4117_storage)"}],"types":{"t_address":{"encoding":"inplace","label":"address","numberOfBytes":"20"},"t_bool":{"encoding":"inplace","label":"bool","numberOfBytes":"1"},"t_mapping(t_address,t_struct(StableInfo)4112_storage)":{"encoding":"mapping","key":"t_address","label":"mapping(address => struct StockVault.StableInfo)","numberOfBytes":"32","value":"t_struct(StableInfo)4112_storage"},"t_mapping(t_address,t_struct(StockInfo)4117_storage)":{"encoding":"mapping","key":"t_address","label":"mapping(address => struct StockVault.StockInfo)","numberOfBytes":"32","value":"t_struct(StockInfo)4117_storage"},"t_struct(StableInfo)4112_storage":{"encoding":"inplace","label":"struct StockVault.StableInfo","members":[{"astId":4109,"contract":"contracts/StockVault.sol:StockVault","label":"isStable","offset":0,"slot":"0","type":"t_bool"},{"astId":4111,"contract":"contracts/StockVault.sol:StockVault","label":"decimals","offset":1,"slot":"0","type":"t_uint8"}],"numberOfBytes":"32"},"t_struct(StockInfo)4117_storage":{"encoding":"inplace","label":"struct StockVault.StockInfo","members":[{"astId":4114,"contract":"contracts/StockVault.sol:StockVault","label":"isStock","offset":0,"slot":"0","type":"t_bool"},{"astId":4116,"contract":"contracts/StockVault.sol:StockVault","label":"decimals","offset":1,"slot":"0","type":"t_uint8"}],"numberOfBytes":"32"},"t_uint256":{"encoding":"inplace","label":"uint256","numberOfBytes":"32"},"t_uint8":{"encoding":"inplace","label":"uint8","numberOfBytes":"1"}}}}}}