{"contracts/FxVault.sol":{"FxVault":{"abi":[{"inputs":[{"internalType":"address","name":"_priceOracle","type":"address"}],"stateMutability":"nonpayable","type":"constructor"},{"inputs":[],"name":"ECDSAInvalidSignature","type":"error"},{"inputs":[{"internalType":"uint256","name":"length","type":"uint256"}],"name":"ECDSAInvalidSignatureLength","type":"error"},{"inputs":[{"internalType":"bytes32","name":"s","type":"bytes32"}],"name":"ECDSAInvalidSignatureS","type":"error"},{"inputs":[{"internalType":"address","name":"owner","type":"address"}],"name":"OwnableInvalidOwner","type":"error"},{"inputs":[{"internalType":"address","name":"account","type":"address"}],"name":"OwnableUnauthorizedAccount","type":"error"},{"inputs":[],"name":"ReentrancyGuardReentrantCall","type":"error"},{"anonymous":false,"inputs":[{"indexed":true,"internalType":"address","name":"account","type":"address"},{"indexed":true,"internalType":"address","name":"token","type":"address"},{"indexed":false,"internalType":"uint256","name":"amount","type":"uint256"}],"name":"CollateralDeposited","type":"event"},{"anonymous":false,"inputs":[{"indexed":true,"internalType":"address","name":"token","type":"address"},{"indexed":false,"internalType":"uint8","name":"decimals","type":"uint8"}],"name":"CollateralTokenRegistered","type":"event"},{"anonymous":false,"inputs":[{"indexed":true,"internalType":"address","name":"account","type":"address"},{"indexed":true,"internalType":"address","name":"token","type":"address"},{"indexed":false,"internalType":"uint256","name":"amount","type":"uint256"}],"name":"CollateralWithdrawn","type":"event"},{"anonymous":false,"inputs":[{"indexed":true,"internalType":"bytes32","name":"marketId","type":"bytes32"},{"indexed":false,"internalType":"address","name":"longToken","type":"address"},{"indexed":false,"internalType":"address","name":"shortToken","type":"address"}],"name":"MarketRegistered","type":"event"},{"anonymous":false,"inputs":[{"indexed":true,"internalType":"address","name":"previousOwner","type":"address"},{"indexed":true,"internalType":"address","name":"newOwner","type":"address"}],"name":"OwnershipTransferred","type":"event"},{"anonymous":false,"inputs":[{"indexed":true,"internalType":"address","name":"account","type":"address"},{"indexed":true,"internalType":"bytes32","name":"marketId","type":"bytes32"},{"indexed":false,"internalType":"bool","name":"isLong","type":"bool"},{"indexed":false,"internalType":"uint256","name":"sizeBaseClosed","type":"uint256"},{"indexed":false,"internalType":"int256","name":"pnlUsd","type":"int256"}],"name":"PositionClosed","type":"event"},{"anonymous":false,"inputs":[{"indexed":true,"internalType":"address","name":"account","type":"address"},{"indexed":true,"internalType":"bytes32","name":"marketId","type":"bytes32"},{"indexed":false,"internalType":"bool","name":"isLong","type":"bool"},{"indexed":false,"internalType":"uint256","name":"sizeBase","type":"uint256"},{"indexed":false,"internalType":"uint256","name":"marginUsd","type":"uint256"},{"indexed":false,"internalType":"uint256","name":"leverage","type":"uint256"}],"name":"PositionOpened","type":"event"},{"anonymous":false,"inputs":[{"indexed":true,"internalType":"address","name":"caller","type":"address"},{"indexed":true,"internalType":"address","name":"account","type":"address"},{"indexed":true,"internalType":"bytes32","name":"marketId","type":"bytes32"},{"indexed":false,"internalType":"bool","name":"isLong","type":"bool"},{"indexed":false,"internalType":"uint256","name":"sizeUsdToClose","type":"uint256"},{"indexed":false,"internalType":"uint256","name":"nonce","type":"uint256"}],"name":"PreSignedCloseExecuted","type":"event"},{"inputs":[],"name":"BPS_DENOMINATOR","outputs":[{"internalType":"uint256","name":"","type":"uint256"}],"stateMutability":"view","type":"function"},{"inputs":[{"internalType":"bytes32","name":"marketId","type":"bytes32"},{"internalType":"bool","name":"isLong","type":"bool"},{"internalType":"uint256","name":"sizeUsdToClose","type":"uint256"}],"name":"closePosition","outputs":[],"stateMutability":"nonpayable","type":"function"},{"inputs":[{"internalType":"address","name":"","type":"address"},{"internalType":"address","name":"","type":"address"}],"name":"collateralBalances","outputs":[{"internalType":"uint256","name":"","type":"uint256"}],"stateMutability":"view","type":"function"},{"inputs":[{"internalType":"address","name":"","type":"address"}],"name":"collateralDecimals","outputs":[{"internalType":"uint8","name":"","type":"uint8"}],"stateMutability":"view","type":"function"},{"inputs":[{"internalType":"address","name":"token","type":"address"},{"internalType":"uint256","name":"amount","type":"uint256"}],"name":"depositCollateral","outputs":[],"stateMutability":"nonpayable","type":"function"},{"inputs":[{"components":[{"internalType":"address","name":"account","type":"address"},{"internalType":"bytes32","name":"marketId","type":"bytes32"},{"internalType":"bool","name":"isLong","type":"bool"},{"internalType":"uint256","name":"sizeUsdToClose","type":"uint256"},{"internalType":"uint256","name":"maxSlippageBps","type":"uint256"},{"internalType":"uint256","name":"deadline","type":"uint256"},{"internalType":"uint256","name":"nonce","type":"uint256"}],"internalType":"struct FxVault.ClosePositionPayload","name":"payload","type":"tuple"},{"internalType":"bytes","name":"signature","type":"bytes"}],"name":"executePreSignedClose","outputs":[],"stateMutability":"nonpayable","type":"function"},{"inputs":[{"internalType":"address","name":"","type":"address"}],"name":"isCollateralToken","outputs":[{"internalType":"bool","name":"","type":"bool"}],"stateMutability":"view","type":"function"},{"inputs":[{"internalType":"bytes32","name":"","type":"bytes32"}],"name":"markets","outputs":[{"internalType":"bool","name":"isActive","type":"bool"},{"internalType":"bytes32","name":"marketId","type":"bytes32"},{"internalType":"contract FxPositionToken","name":"longToken","type":"address"},{"internalType":"contract FxPositionToken","name":"shortToken","type":"address"},{"internalType":"uint256","name":"maxLeverage","type":"uint256"},{"internalType":"uint256","name":"defaultLeverage","type":"uint256"},{"internalType":"uint256","name":"minInitialMarginBps","type":"uint256"},{"internalType":"uint256","name":"tradeFeeBps","type":"uint256"}],"stateMutability":"view","type":"function"},{"inputs":[{"internalType":"bytes32","name":"marketId","type":"bytes32"},{"internalType":"address","name":"collateralToken","type":"address"},{"internalType":"uint256","name":"collateralAmount","type":"uint256"},{"internalType":"uint256","name":"leverage","type":"uint256"},{"components":[{"internalType":"address","name":"account","type":"address"},{"internalType":"bytes32","name":"marketId","type":"bytes32"},{"internalType":"bool","name":"isLong","type":"bool"},{"internalType":"uint256","name":"sizeUsdToClose","type":"uint256"},{"internalType":"uint256","name":"maxSlippageBps","type":"uint256"},{"internalType":"uint256","name":"deadline","type":"uint256"},{"internalType":"uint256","name":"nonce","type":"uint256"}],"internalType":"struct FxVault.ClosePositionPayload","name":"closePayload","type":"tuple"},{"internalType":"bytes","name":"closeSignature","type":"bytes"}],"name":"openLong","outputs":[],"stateMutability":"nonpayable","type":"function"},{"inputs":[{"internalType":"bytes32","name":"marketId","type":"bytes32"},{"internalType":"address","name":"collateralToken","type":"address"},{"internalType":"uint256","name":"collateralAmount","type":"uint256"},{"components":[{"internalType":"address","name":"account","type":"address"},{"internalType":"bytes32","name":"marketId","type":"bytes32"},{"internalType":"bool","name":"isLong","type":"bool"},{"internalType":"uint256","name":"sizeUsdToClose","type":"uint256"},{"internalType":"uint256","name":"maxSlippageBps","type":"uint256"},{"internalType":"uint256","name":"deadline","type":"uint256"},{"internalType":"uint256","name":"nonce","type":"uint256"}],"internalType":"struct FxVault.ClosePositionPayload","name":"closePayload","type":"tuple"},{"internalType":"bytes","name":"closeSignature","type":"bytes"}],"name":"openShortCashSecured","outputs":[],"stateMutability":"nonpayable","type":"function"},{"inputs":[],"name":"owner","outputs":[{"internalType":"address","name":"","type":"address"}],"stateMutability":"view","type":"function"},{"inputs":[{"internalType":"address","name":"","type":"address"},{"internalType":"bytes32","name":"","type":"bytes32"},{"internalType":"bool","name":"","type":"bool"}],"name":"positions","outputs":[{"internalType":"bool","name":"exists","type":"bool"},{"internalType":"bytes32","name":"marketId","type":"bytes32"},{"internalType":"bool","name":"isLong","type":"bool"},{"internalType":"uint256","name":"sizeBase","type":"uint256"},{"internalType":"uint256","name":"entryPrice","type":"uint256"},{"internalType":"uint256","name":"marginUsd","type":"uint256"},{"internalType":"uint256","name":"leverage","type":"uint256"},{"internalType":"bytes32","name":"closeAuthHash","type":"bytes32"}],"stateMutability":"view","type":"function"},{"inputs":[],"name":"priceOracle","outputs":[{"internalType":"contract FxPriceOracle","name":"","type":"address"}],"stateMutability":"view","type":"function"},{"inputs":[{"internalType":"address","name":"token","type":"address"}],"name":"registerCollateralToken","outputs":[],"stateMutability":"nonpayable","type":"function"},{"inputs":[{"internalType":"bytes32","name":"marketId","type":"bytes32"},{"internalType":"address","name":"longToken","type":"address"},{"internalType":"address","name":"shortToken","type":"address"},{"internalType":"uint256","name":"maxLeverage","type":"uint256"},{"internalType":"uint256","name":"defaultLeverage","type":"uint256"},{"internalType":"uint256","name":"minInitialMarginBps","type":"uint256"},{"internalType":"uint256","name":"tradeFeeBps","type":"uint256"}],"name":"registerMarket","outputs":[],"stateMutability":"nonpayable","type":"function"},{"inputs":[],"name":"renounceOwnership","outputs":[],"stateMutability":"nonpayable","type":"function"},{"inputs":[{"internalType":"address","name":"newOwner","type":"address"}],"name":"transferOwnership","outputs":[],"stateMutability":"nonpayable","type":"function"},{"inputs":[{"internalType":"address","name":"","type":"address"},{"internalType":"uint256","name":"","type":"uint256"}],"name":"usedCloseNonces","outputs":[{"internalType":"bool","name":"","type":"bool"}],"stateMutability":"view","type":"function"},{"inputs":[{"internalType":"address","name":"token","type":"address"},{"internalType":"uint256","name":"amount","type":"uint256"}],"name":"withdrawCollateral","outputs":[],"stateMutability":"nonpayable","type":"function"}],"evm":{"bytecode":{"linkReferences":{},"object":"60a03461013957601f61296338819003918201601f19168301916001600160401b0383118484101761013e5780849260209460405283398101031261013957516001600160a01b038116908190036101395733156101235760008054336001600160a01b03198216811783556040519290916001600160a01b0316907f8be0079c531659141344cd1fd0a4f28419497f9722a3daafe3b4186f6b6457e09080a36001805581156100e1575060805260405161280e90816101558239608051818181610682015281816110ba015281816118ca01528181611c800152611edb0152f35b62461bcd60e51b815260206004820152601660248201527f496e76616c6964206f7261636c652061646472657373000000000000000000006044820152606490fd5b631e4fbdf760e01b600052600060045260246000fd5b600080fd5b634e487b7160e01b600052604160045260246000fdfe6080604052600436101561001257600080fd5b6000803560e01c8062d615f314611cf85780630e453f6414611caf5780632630c12f14611c6a578063350c35e914611b1a57806339ecf9ba14611ac55780634766162c14611a865780634d1a62651461170457806352dcc83314611541578063715018a6146114e757806374d3be02146114345780637564912b146113a757806384c55a5814610d865780638da5cb5b14610d5f578063a5d5db0c14610c66578063a6ee73fb14610499578063e1a452181461047c578063f1ae3c7f1461043f578063f2fde38b146103b95763fec60957146100ed57600080fd5b346103b65760e03660031901126103b65760043561010961218e565b6044356001600160a01b03811691908290036103b457606435916084359161012f6125ec565b841561037c57848652600560205260ff604087205416610347576001600160a01b0316908115158061033e575b1561030857670de0b6b3a764000084106102cd57670de0b6b3a7640000831015806102c3575b1561027e577f393bf4ff2983ac2030da8f04a013ff4ac3176d2440549a516edff6f881c4db3b93600786886040968751946101bc8661227f565b600180875260208088018681528b89018b815260608a018b815260808b0195865260a08b0196875260a43560c08c0190815260c43560e08d019081529989526005808652988f90209b518c5460ff191690151560ff16178c559251948b01949094555160028a0180546001600160a01b039283166001600160a01b031991821617909155935160038b0180549190921694169390931790925591516004880155915192860192909255516006850155905191909201558351928352820152a280f35b60405162461bcd60e51b815260206004820152601760248201527f496e76616c69642064656661756c744c657665726167650000000000000000006044820152606490fd5b5083831115610182565b60405162461bcd60e51b8152602060048201526013602482015272496e76616c6964206d61784c6576657261676560681b6044820152606490fd5b60405162461bcd60e51b815260206004820152600e60248201526d496e76616c696420746f6b656e7360901b6044820152606490fd5b5080151561015c565b60405162461bcd60e51b815260206004820152600d60248201526c4d61726b65742065786973747360981b6044820152606490fd5b60405162461bcd60e51b815260206004820152601060248201526f125b9d985b1a59081b585c9ad95d125960821b6044820152606490fd5b835b80fd5b50346103b65760203660031901126103b6576103d36121a4565b6103db6125ec565b6001600160a01b0316801561042b5781546001600160a01b03198116821783556001600160a01b03167f8be0079c531659141344cd1fd0a4f28419497f9722a3daafe3b4186f6b6457e08380a380f35b631e4fbdf760e01b82526004829052602482fd5b50346103b65760203660031901126103b65760209060ff906040906001600160a01b0361046a6121a4565b16815260038452205416604051908152f35b50346103b657806003193601126103b65760206040516127108152f35b50346103b6576101803660031901126103b6576004356104b761218e565b60643560443560e0366083190112610965576101643567ffffffffffffffff8111610c62576104ea9036906004016121ba565b90916104f46124b1565b858752600560205260408720946040519586926105108461227f565b60ff8254161515928385526001830154602086015261058260018060a01b03600285015416946040870195865260018060a01b03600386015416606088015260e0600760048701549660808a01978852600581015460a08b015260c060068201549a01998a5201549b019a8b526124d3565b6001600160a01b0316808b52600260205260408b20549092906105a79060ff166121e8565b8115610c2e57670de0b6b3a76400008810159081610c22575b5015610bea576040516323b872dd60e01b815233600482015230602482015260448101829052916020836064818e855af1928315610bdf576106479361060d918d91610bb0575b506122ec565b338b52600460205260408b208160005260205260406000206106308382546124a4565b90558a52600360205260ff60408b20541690612626565b93670de0b6b3a764000061065b8787612511565b04928051610b4f575b506040516331d98b3f60e01b815260048101899052946020866024817f00000000000000000000000000000000000000000000000000000000000000006001600160a01b03165afa958615610b44578a96610b0b575b506106c6861515612544565b670de0b6b3a76400008402848104670de0b6b3a76400001485151715610af7579061271061070d6106fa8961071495612524565b9a6107068c151561257b565b5187612511565b049061225c565b948515610ac157338a52600660205260408a20898b5260205260408a2060018b5260205260408a2080549060ff8216610a8a578892600160069360ff19161782558b600183015560028201600160ff198254161790558a6003830155600482015587600582015501556084359360018060a01b038516808603610a86573303610a535760a43594898603610a1f5760c435801515808203610a1b57600019016109eb5760e435928684116109b55761012435428110610978578d986108a295610834610889956108268d610883966108929a33835260076020526040832092610144359384825260205261080f60ff60408320541615612340565b50604051968795602087019961010435938b612388565b03601f1981018352826122b2565b5190209560405160208101907f19457468657265756d205369676e6564204d6573736167653a0a333200000000825288603c820152603c8152610878605c826122b2565b5190209236916123e7565b9061267f565b909291926126bb565b6001600160a01b0316331461242e565b3384526006602090815260408086208a8752825280862060018752909152842060070155516001600160a01b0316803b15610974576040516340c10f1960e01b8152336004820152602481019290925282908290604490829084905af1801561096957610950575b505060405192600184526020840152604083015260608201527f3b42d27f70ad0fdd7eeb05c9a1716722579dc5cd8a7f7c3d405751b15ca7dd6260803392a36001805580f35b8161095a916122b2565b61096557843861090a565b8480fd5b6040513d84823e3d90fd5b8280fd5b60405162461bcd60e51b815260206004820152601560248201527410db1bdcd9481c185e5b1bd85908195e1c1a5c9959605a1b6044820152606490fd5b60405162461bcd60e51b815260206004820152600e60248201526d546f6f206c617267652073697a6560901b6044820152606490fd5b60405162461bcd60e51b8152602060048201526008602482015267426164207369646560c01b6044820152606490fd5b8c80fd5b60405162461bcd60e51b815260206004820152600c60248201526b109859081b585c9ad95d125960a21b6044820152606490fd5b60405162461bcd60e51b815260206004820152600b60248201526a109859081858d8dbdd5b9d60aa1b6044820152606490fd5b8a80fd5b60405162461bcd60e51b815260206004820152600f60248201526e506f736974696f6e2065786973747360881b6044820152606490fd5b60405162461bcd60e51b815260206004820152600e60248201526d1199594f98dbdb1b185d195c985b60921b6044820152606490fd5b634e487b7160e01b8b52601160045260248bfd5b9095506020813d602011610b3c575b81610b27602093836122b2565b81010312610b37575194386106ba565b600080fd5b3d9150610b1a565b6040513d8c823e3d90fd5b6127108602908682046127101487151715610af757610b6f905185612511565b11610b7a5738610664565b60405162461bcd60e51b815260206004820152600e60248201526d4d617267696e20746f6f206c6f7760901b6044820152606490fd5b610bd2915060203d602011610bd8575b610bca81836122b2565b8101906122d4565b38610607565b503d610bc0565b6040513d8d823e3d90fd5b60405162461bcd60e51b815260206004820152601060248201526f496e76616c6964206c6576657261676560801b6044820152606490fd5b905051871115386105c0565b60405162461bcd60e51b815260206004820152600c60248201526b0436f6c6c61746572616c3d360a41b6044820152606490fd5b8580fd5b50346103b65760403660031901126103b657610c806121a4565b60243590610c8c6124b1565b6001600160a01b031680835260026020526040832054909190610cb19060ff166121e8565b610cbc811515612225565b6040516323b872dd60e01b81523360048201523060248201526044810182905260208160648187875af18015610d5457610cfc918591610bb057506122ec565b338352600460205260408320826000526020526040600020610d1f8282546124a4565b90556040519081527ff1c0dd7e9b98bbff859029005ef89b127af049cd18df1a8d79f0b7e019911e5660203392a36001805580f35b6040513d86823e3d90fd5b50346103b657806003193601126103b657546040516001600160a01b039091168152602090f35b50346103b6573660031901610100811261128a5760e0136103b65760e43567ffffffffffffffff811161128a57610dc19036906004016121ba565b90610dca6124b1565b60a43590428210611378576001600160a01b03610de561232a565b1684526007602052604084209060c43591828652602052610e0d60ff60408720541615612340565b610e74610e51610889610e1e61232a565b966108836024358099610834610e32612379565b6108268b6064359d8e956040519687956020870199608435938b612388565b6001600160a01b03610e6161232a565b6001600160a01b0390921691161461242e565b6001600160a01b03610e8461232a565b16855260066020526040852084865260205260408520610ea2612379565b15158652602052600760408620610ebc60ff82541661246a565b015403611343576001600160a01b03610ed361232a565b16845260076020526040842081855260205260408420600160ff19825416179055610efc61232a565b610f04612379565b831591610f11831561257b565b85875260056020526040872060405190610f2a8261227f565b610f9760ff82541615158084526001830154602085015260018060a01b03600284015416936040810194855260e0600760018060a01b03600387015416956060840196875260048101546080850152600581015460a0850152600681015460c085015201549101526124d3565b60018060a01b03831693848a52600660205260408a20898b5260205260408a209381151594858c5260205260408b2091610fd460ff84541661246a565b60038301918254958b600486019a670de0b6b3a7640000610ff68d548b612511565b04809211611312578d90670de0b6b3a76400008202918204670de0b6b3a76400001417156112fd578f9493929161103961104091670de0b6b3a764000093612524565b809a612511565b0496831561128e5750516001600160a01b0316803b156103b457604051632770a7eb60e21b81526001600160a01b03929092166004830152602482018d905283908290604490829084905af190811561126a578391611275575b50505b6040516331d98b3f60e01b8152600481018d90529860208a6024817f00000000000000000000000000000000000000000000000000000000000000006001600160a01b03165afa91821561126a578d9a849361121f575b509282670de0b6b3a76400009260609997956111357ff16c0216bcc5d9774e18f914d8b1e51775546c2f5a06eadd105f7e398bbc410f9c9a98961515612544565b156112085761114f916111499154906125b0565b866125c9565b905005935b6111866005840191670de0b6b3a764000061117184549283612511565b049061117e87865461225c565b80955561225c565b9055156111fa575b5060405192835260208301526040820152a36111a861232a565b906111b1612379565b9260405193151584526020840152604083015260018060a01b0316907f75e9c89de7f7735aec154359d78686bbdc92e4a8e6e99f38daf3f6cac7f6948660603392a46001805580f35b805460ff191690553861118e565b6112169161114991546125b0565b90500593611154565b98969492509694925098506020873d602011611262575b81611243602093836122b2565b81010312610b375795518b989496939592949193928d929060606110f4565b3d9150611236565b6040513d85823e3d90fd5b8161127f916122b2565b61128a57813861109a565b5080fd5b516001600160a01b03169050803b156103b457604051632770a7eb60e21b81526001600160a01b03929092166004830152602482018d905283908290604490829084905af190811561126a5783916112e8575b505061109d565b816112f2916122b2565b61128a5781386112e1565b50634e487b7160e01b8f52601160045260248ffd5b60405162461bcd60e51b8152602060048201526009602482015268546f6f206c6172676560b81b6044820152606490fd5b60405162461bcd60e51b815260206004820152600d60248201526c082eae8d040dad2e6dac2e8c6d609b1b6044820152606490fd5b60405162461bcd60e51b8152602060048201526007602482015266115e1c1a5c995960ca1b6044820152606490fd5b50346103b65760203660031901126103b657604061010091600435815260056020522060ff8154169060018101549060018060a01b0360028201541660018060a01b0360038301541660048301549060058401549260076006860154950154956040519715158852602088015260408701526060860152608085015260a084015260c083015260e0820152f35b50346103b65760603660031901126103b65761144e6121a4565b6044359081151580920361097457916040916101009360018060a01b03168252600660205282822060243583526020528282209082526020522060ff8154169060018101549060ff6002820154166003820154600483015490600584015492600760068601549501549560405197151588526020880152151560408701526060860152608085015260a084015260c083015260e0820152f35b50346103b657806003193601126103b6576115006125ec565b80546001600160a01b03198116825581906001600160a01b03167f8be0079c531659141344cd1fd0a4f28419497f9722a3daafe3b4186f6b6457e08280a380f35b50346103b65760203660031901126103b65761155b6121a4565b6115636125ec565b6001600160a01b031680156116cf57808252600260205260ff6040832054166116955760405163313ce56760e01b8152602081600481855afa801561126a578390611658575b60ff9150168015158061164d575b156116155760207fb294e40d4778adde6ba5c3ffe754b39514f1cb27896988847a038ecb3bda1e60918385526002825260408520600160ff1982541617905583855260038252604085208160ff19825416179055604051908152a280f35b60405162461bcd60e51b815260206004820152601060248201526f496e76616c696420646563696d616c7360801b6044820152606490fd5b5060128111156115b7565b506020813d60201161168d575b81611672602093836122b2565b81010312610974575160ff811681036109745760ff906115a9565b3d9150611665565b60405162461bcd60e51b8152602060048201526012602482015271105b1c9958591e4818dbdb1b185d195c985b60721b6044820152606490fd5b60405162461bcd60e51b815260206004820152600d60248201526c24b73b30b634b2103a37b5b2b760991b6044820152606490fd5b50346103b65760603660031901126103b657600435602435801515908181036103b4576044356117326124b1565b80159161173f831561257b565b84865260056020526040862091604051936117598561227f565b6117c660ff85541615158087526001860154602088015260018060a01b03600287015416966040810197885260e0600760018060a01b0360038a0154169860608401998a5260048101546080850152600581015460a0850152600681015460c085015201549101526124d3565b3388526006602052604088208789526020526040882086895260205260408820926117f460ff85541661246a565b60038401928354966004860193670de0b6b3a764000061181586548b612511565b049081841161131257670de0b6b3a7640000840290848204670de0b6b3a7640000141715611a725761185d6118568e959493670de0b6b3a764000093612524565b809b612511565b04978415611a105750516001600160a01b0316803b1561097457604051632770a7eb60e21b8152336004820152602481019290925282908290604490829084905af18015610969576119f7575b50505b6040516331d98b3f60e01b815260048101899052916020836024817f00000000000000000000000000000000000000000000000000000000000000006001600160a01b03165afa918215610b44578a926119bb575b670de0b6b3a76400009350611918831515612544565b156119a6576119329161192c9154906125b0565b856125c9565b05935b6119526005840191670de0b6b3a764000061117184549283612511565b905515611998575b50604051928352602083015260408201527ff16c0216bcc5d9774e18f914d8b1e51775546c2f5a06eadd105f7e398bbc410f60603392a36001805580f35b805460ff191690553861195a565b6119b49161192c91546125b0565b0593611935565b91506020833d6020116119ef575b816119d6602093836122b2565b81010312610b3757670de0b6b3a7640000925191611902565b3d91506119c9565b81611a01916122b2565b611a0c5788386118aa565b8880fd5b516001600160a01b03169050803b1561097457604051632770a7eb60e21b8152336004820152602481019290925282908290604490829084905af1801561096957611a5d575b50506118ad565b81611a67916122b2565b611a0c578838611a56565b634e487b7160e01b8d52601160045260248dfd5b50346103b65760203660031901126103b65760209060ff906040906001600160a01b03611ab16121a4565b168152600284522054166040519015158152f35b50346103b65760403660031901126103b6576040611ae16121a4565b91611aea61218e565b9260018060a01b031681526004602052209060018060a01b03166000526020526020604060002054604051908152f35b50346103b65760403660031901126103b657611b346121a4565b60243590611b406124b1565b6001600160a01b031680835260026020526040832054909190611b659060ff166121e8565b611b70811515612225565b33835260046020526040832082600052602052604060002054818110611c255781611b9a9161225c565b33808552600460208181526040808820600088815290835281902094909455925163a9059cbb60e01b81529081019190915260248101839052908160448187875af18015610d5457611bf2918591610bb057506122ec565b6040519081527f45892a46e6cef329bb642da6d69846d324db43d19008edc141ed82382eda1bee60203392a36001805580f35b60405162461bcd60e51b815260206004820152601760248201527f496e73756666696369656e7420636f6c6c61746572616c0000000000000000006044820152606490fd5b50346103b657806003193601126103b6576040517f00000000000000000000000000000000000000000000000000000000000000006001600160a01b03168152602090f35b50346103b65760403660031901126103b65760209060ff906040906001600160a01b03611cda6121a4565b16815260078452818120602435825284522054166040519015158152f35b50346103b6576101603660031901126103b657600435611d1661218e565b6044359060e03660631901126103b4576101443567ffffffffffffffff811161096557611d479036906004016121ba565b611d529291926124b1565b84865260056020526040862060405194611d6b8661227f565b815460ff1615158087526001830154602088015260028301546001600160a01b03908116604089015260038401541660608801908152600484015460808901908152600585015460a08a0152600685015460c08a0190815260079095015460e09099019889529095909291611ddf906124d3565b6001600160a01b0316808a52600260205260408a2054909290611e049060ff166121e8565b8115610c2e5751670de0b6b3a764000011610bea576040516323b872dd60e01b815233600482015230602482015260448101829052916020836064818d855af1928315610b4457611e9793611e5f918c91610bb057506122ec565b338a52600460205260408a20818b5260205260408a20611e808382546124a4565b90558952600360205260ff60408a20541690612626565b92670de0b6b3a76400009485850285810487148615171561217a5786900492805161214f575b506040516331d98b3f60e01b815260048101899052946020866024817f00000000000000000000000000000000000000000000000000000000000000006001600160a01b03165afa958615610b44578a96612117575b50611f1f861515612544565b868402848104881485151715610af7579061271061070d6106fa89611f4395612524565b948515610ac157338a52600660205260408a20898b5260205260408a208a805260205260408a2080549060ff8216610a8a578892600160069360ff19161782558b60018301556002820160ff1981541690558a6003830155600482015587600582015501556064359360018060a01b038516808603610a86573303610a535760843594898603610a1f5760a435801515808203610a1b576109eb5760c435928684116109b55761010435428110610978578d9861204c95610834610889956108268d610883966108929a33835260076020526040832092610124359384825260205261203660ff60408320541615612340565b50604051968795602087019960e435938b612388565b3384526006602090815260408086208a87528252808620868052909152842060070155516001600160a01b031690813b15610974576040516340c10f1960e01b8152336004820152602481019190915291908290604490829084905af1801561210c576120f8575b50604051928584526020840152604083015260608201527f3b42d27f70ad0fdd7eeb05c9a1716722579dc5cd8a7f7c3d405751b15ca7dd6260803392a36001805580f35b85612105919692966122b2565b93386120b4565b6040513d88823e3d90fd5b9095506020813d602011612147575b81612133602093836122b2565b8101031261214357519438611f13565b8980fd5b3d9150612126565b6127108602908682046127101487151715610af75761216f905185612511565b11610b7a5738611ebd565b634e487b7160e01b8a52601160045260248afd5b602435906001600160a01b0382168203610b3757565b600435906001600160a01b0382168203610b3757565b9181601f84011215610b375782359167ffffffffffffffff8311610b375760208381860195010111610b3757565b156121ef57565b60405162461bcd60e51b815260206004820152600e60248201526d139bdd0818dbdb1b185d195c985b60921b6044820152606490fd5b1561222c57565b60405162461bcd60e51b81526020600482015260086024820152670416d6f756e743d360c41b6044820152606490fd5b9190820391821161226957565b634e487b7160e01b600052601160045260246000fd5b610100810190811067ffffffffffffffff82111761229c57604052565b634e487b7160e01b600052604160045260246000fd5b90601f8019910116810190811067ffffffffffffffff82111761229c57604052565b90816020910312610b3757518015158103610b375790565b156122f357565b60405162461bcd60e51b815260206004820152600f60248201526e151c985b9cd9995c8819985a5b1959608a1b6044820152606490fd5b6004356001600160a01b0381168103610b375790565b1561234757565b60405162461bcd60e51b815260206004820152600a602482015269139bdb98d9481d5cd95960b21b6044820152606490fd5b6044358015158103610b375790565b93909796959260e095926101008601997f7d0d6d6052cdac14d130981ee83f7f07aa261f2ca2c69409944d1bfc9ad72641875260018060a01b03166020870152604086015215156060850152608084015260a083015260c08201520152565b92919267ffffffffffffffff821161229c5760405191612411601f8201601f1916602001846122b2565b829481845281830111610b37578281602093846000960137010152565b1561243557565b60405162461bcd60e51b815260206004820152600d60248201526c426164207369676e617475726560981b6044820152606490fd5b1561247157565b60405162461bcd60e51b815260206004820152600b60248201526a2737903837b9b4ba34b7b760a91b6044820152606490fd5b9190820180921161226957565b6002600154146124c2576002600155565b633ee5aeb560e01b60005260046000fd5b156124da57565b60405162461bcd60e51b815260206004820152600f60248201526e4d61726b657420696e61637469766560881b6044820152606490fd5b8181029291811591840414171561226957565b811561252e570490565b634e487b7160e01b600052601260045260246000fd5b1561254b57565b60405162461bcd60e51b81526020600482015260086024820152674e6f20707269636560c01b6044820152606490fd5b1561258257565b60405162461bcd60e51b8152602060048201526006602482015265053697a653d360d41b6044820152606490fd5b8181039291600013801582851316918412161761226957565b818102929160008212600160ff1b82141661226957818405149015171561226957565b6000546001600160a01b0316330361260057565b63118cdaa760e01b6000523360045260246000fd5b60ff16604d811161226957600a0a90565b9060ff1660128103612636575090565b6012811015612660576012039060ff82116122695761265761265d92612615565b90612511565b90565b601119019060ff82116122695761267961265d92612615565b90612524565b81519190604183036126b0576126a992506020820151906060604084015193015160001a90612743565b9192909190565b505060009160029190565b919091600481101561272d57806126d157509050565b6000600182036126ec5763f645eedf60e01b60005260046000fd5b506002810361270a578263fce698f760e01b60005260045260246000fd5b909160036000921461271a575050565b6335e2f38360e21b825260045260249150fd5b634e487b7160e01b600052602160045260246000fd5b91907f7fffffffffffffffffffffffffffffff5d576e7357a4501ddfe92f46681b20a084116127cc579160209360809260ff60009560405194855216868401526040830152606082015282805260015afa156127c0576000516001600160a01b038116156127b45790600090600090565b50600090600190600090565b6040513d6000823e3d90fd5b5050506000916003919056fea2646970667358221220a4b06b70c5a5e962c1d65adb9aa0428eef0ad40e5d6f2826f51bf66a47dcee8a64736f6c634300081b0033","opcodes":"PUSH1 0xA0 CALLVALUE PUSH2 0x139 JUMPI PUSH1 0x1F PUSH2 0x2963 CODESIZE DUP2 SWAP1 SUB SWAP2 DUP3 ADD PUSH1 0x1F NOT AND DUP4 ADD SWAP2 PUSH1 0x1 PUSH1 0x1 PUSH1 0x40 SHL SUB DUP4 GT DUP5 DUP5 LT OR PUSH2 0x13E JUMPI DUP1 DUP5 SWAP3 PUSH1 0x20 SWAP5 PUSH1 0x40 MSTORE DUP4 CODECOPY DUP2 ADD SUB SLT PUSH2 0x139 JUMPI MLOAD PUSH1 0x1 PUSH1 0x1 PUSH1 0xA0 SHL SUB DUP2 AND SWAP1 DUP2 SWAP1 SUB PUSH2 0x139 JUMPI CALLER ISZERO PUSH2 0x123 JUMPI PUSH1 0x0 DUP1 SLOAD CALLER PUSH1 0x1 PUSH1 0x1 PUSH1 0xA0 SHL SUB NOT DUP3 AND DUP2 OR DUP4 SSTORE PUSH1 0x40 MLOAD SWAP3 SWAP1 SWAP2 PUSH1 0x1 PUSH1 0x1 PUSH1 0xA0 SHL SUB AND SWAP1 PUSH32 0x8BE0079C531659141344CD1FD0A4F28419497F9722A3DAAFE3B4186F6B6457E0 SWAP1 DUP1 LOG3 PUSH1 0x1 DUP1 SSTORE DUP2 ISZERO PUSH2 0xE1 JUMPI POP PUSH1 0x80 MSTORE PUSH1 0x40 MLOAD PUSH2 0x280E SWAP1 DUP2 PUSH2 0x155 DUP3 CODECOPY PUSH1 0x80 MLOAD DUP2 DUP2 DUP2 PUSH2 0x682 ADD MSTORE DUP2 DUP2 PUSH2 0x10BA ADD MSTORE DUP2 DUP2 PUSH2 0x18CA ADD MSTORE DUP2 DUP2 PUSH2 0x1C80 ADD MSTORE PUSH2 0x1EDB ADD MSTORE RETURN JUMPDEST PUSH3 0x461BCD PUSH1 0xE5 SHL DUP2 MSTORE PUSH1 0x20 PUSH1 0x4 DUP3 ADD MSTORE PUSH1 0x16 PUSH1 0x24 DUP3 ADD MSTORE PUSH32 0x496E76616C6964206F7261636C65206164647265737300000000000000000000 PUSH1 0x44 DUP3 ADD MSTORE PUSH1 0x64 SWAP1 REVERT JUMPDEST PUSH4 0x1E4FBDF7 PUSH1 0xE0 SHL PUSH1 0x0 MSTORE PUSH1 0x0 PUSH1 0x4 MSTORE PUSH1 0x24 PUSH1 0x0 REVERT JUMPDEST PUSH1 0x0 DUP1 REVERT JUMPDEST PUSH4 0x4E487B71 PUSH1 0xE0 SHL PUSH1 0x0 MSTORE PUSH1 0x41 PUSH1 0x4 MSTORE PUSH1 0x24 PUSH1 0x0 REVERT INVALID PUSH1 0x80 PUSH1 0x40 MSTORE PUSH1 0x4 CALLDATASIZE LT ISZERO PUSH2 0x12 JUMPI PUSH1 0x0 DUP1 REVERT JUMPDEST PUSH1 0x0 DUP1 CALLDATALOAD PUSH1 0xE0 SHR DUP1 PUSH3 0xD615F3 EQ PUSH2 0x1CF8 JUMPI DUP1 PUSH4 0xE453F64 EQ PUSH2 0x1CAF JUMPI DUP1 PUSH4 0x2630C12F EQ PUSH2 0x1C6A JUMPI DUP1 PUSH4 0x350C35E9 EQ PUSH2 0x1B1A JUMPI DUP1 PUSH4 0x39ECF9BA EQ PUSH2 0x1AC5 JUMPI DUP1 PUSH4 0x4766162C EQ PUSH2 0x1A86 JUMPI DUP1 PUSH4 0x4D1A6265 EQ PUSH2 0x1704 JUMPI DUP1 PUSH4 0x52DCC833 EQ PUSH2 0x1541 JUMPI DUP1 PUSH4 0x715018A6 EQ PUSH2 0x14E7 JUMPI DUP1 PUSH4 0x74D3BE02 EQ PUSH2 0x1434 JUMPI DUP1 PUSH4 0x7564912B EQ PUSH2 0x13A7 JUMPI DUP1 PUSH4 0x84C55A58 EQ PUSH2 0xD86 JUMPI DUP1 PUSH4 0x8DA5CB5B EQ PUSH2 0xD5F JUMPI DUP1 PUSH4 0xA5D5DB0C EQ PUSH2 0xC66 JUMPI DUP1 PUSH4 0xA6EE73FB EQ PUSH2 0x499 JUMPI DUP1 PUSH4 0xE1A45218 EQ PUSH2 0x47C JUMPI DUP1 PUSH4 0xF1AE3C7F EQ PUSH2 0x43F JUMPI DUP1 PUSH4 0xF2FDE38B EQ PUSH2 0x3B9 JUMPI PUSH4 0xFEC60957 EQ PUSH2 0xED JUMPI PUSH1 0x0 DUP1 REVERT JUMPDEST CALLVALUE PUSH2 0x3B6 JUMPI PUSH1 0xE0 CALLDATASIZE PUSH1 0x3 NOT ADD SLT PUSH2 0x3B6 JUMPI PUSH1 0x4 CALLDATALOAD PUSH2 0x109 PUSH2 0x218E JUMP JUMPDEST PUSH1 0x44 CALLDATALOAD PUSH1 0x1 PUSH1 0x1 PUSH1 0xA0 SHL SUB DUP2 AND SWAP2 SWAP1 DUP3 SWAP1 SUB PUSH2 0x3B4 JUMPI PUSH1 0x64 CALLDATALOAD SWAP2 PUSH1 0x84 CALLDATALOAD SWAP2 PUSH2 0x12F PUSH2 0x25EC JUMP JUMPDEST DUP5 ISZERO PUSH2 0x37C JUMPI DUP5 DUP7 MSTORE PUSH1 0x5 PUSH1 0x20 MSTORE PUSH1 0xFF PUSH1 0x40 DUP8 KECCAK256 SLOAD AND PUSH2 0x347 JUMPI PUSH1 0x1 PUSH1 0x1 PUSH1 0xA0 SHL SUB AND SWAP1 DUP2 ISZERO ISZERO DUP1 PUSH2 0x33E JUMPI JUMPDEST ISZERO PUSH2 0x308 JUMPI PUSH8 0xDE0B6B3A7640000 DUP5 LT PUSH2 0x2CD JUMPI PUSH8 0xDE0B6B3A7640000 DUP4 LT ISZERO DUP1 PUSH2 0x2C3 JUMPI JUMPDEST ISZERO PUSH2 0x27E JUMPI PUSH32 0x393BF4FF2983AC2030DA8F04A013FF4AC3176D2440549A516EDFF6F881C4DB3B SWAP4 PUSH1 0x7 DUP7 DUP9 PUSH1 0x40 SWAP7 DUP8 MLOAD SWAP5 PUSH2 0x1BC DUP7 PUSH2 0x227F JUMP JUMPDEST PUSH1 0x1 DUP1 DUP8 MSTORE PUSH1 0x20 DUP1 DUP9 ADD DUP7 DUP2 MSTORE DUP12 DUP10 ADD DUP12 DUP2 MSTORE PUSH1 0x60 DUP11 ADD DUP12 DUP2 MSTORE PUSH1 0x80 DUP12 ADD SWAP6 DUP7 MSTORE PUSH1 0xA0 DUP12 ADD SWAP7 DUP8 MSTORE PUSH1 0xA4 CALLDATALOAD PUSH1 0xC0 DUP13 ADD SWAP1 DUP2 MSTORE PUSH1 0xC4 CALLDATALOAD PUSH1 0xE0 DUP14 ADD SWAP1 DUP2 MSTORE SWAP10 DUP10 MSTORE PUSH1 0x5 DUP1 DUP7 MSTORE SWAP9 DUP16 SWAP1 KECCAK256 SWAP12 MLOAD DUP13 SLOAD PUSH1 0xFF NOT AND SWAP1 ISZERO ISZERO PUSH1 0xFF AND OR DUP13 SSTORE SWAP3 MLOAD SWAP5 DUP12 ADD SWAP5 SWAP1 SWAP5 SSTORE MLOAD PUSH1 0x2 DUP11 ADD DUP1 SLOAD PUSH1 0x1 PUSH1 0x1 PUSH1 0xA0 SHL SUB SWAP3 DUP4 AND PUSH1 0x1 PUSH1 0x1 PUSH1 0xA0 SHL SUB NOT SWAP2 DUP3 AND OR SWAP1 SWAP2 SSTORE SWAP4 MLOAD PUSH1 0x3 DUP12 ADD DUP1 SLOAD SWAP2 SWAP1 SWAP3 AND SWAP5 AND SWAP4 SWAP1 SWAP4 OR SWAP1 SWAP3 SSTORE SWAP2 MLOAD PUSH1 0x4 DUP9 ADD SSTORE SWAP2 MLOAD SWAP3 DUP7 ADD SWAP3 SWAP1 SWAP3 SSTORE MLOAD PUSH1 0x6 DUP6 ADD SSTORE SWAP1 MLOAD SWAP2 SWAP1 SWAP3 ADD SSTORE DUP4 MLOAD SWAP3 DUP4 MSTORE DUP3 ADD MSTORE LOG2 DUP1 RETURN JUMPDEST PUSH1 0x40 MLOAD PUSH3 0x461BCD PUSH1 0xE5 SHL DUP2 MSTORE PUSH1 0x20 PUSH1 0x4 DUP3 ADD MSTORE PUSH1 0x17 PUSH1 0x24 DUP3 ADD MSTORE PUSH32 0x496E76616C69642064656661756C744C65766572616765000000000000000000 PUSH1 0x44 DUP3 ADD MSTORE PUSH1 0x64 SWAP1 REVERT JUMPDEST POP DUP4 DUP4 GT ISZERO PUSH2 0x182 JUMP JUMPDEST PUSH1 0x40 MLOAD PUSH3 0x461BCD PUSH1 0xE5 SHL DUP2 MSTORE PUSH1 0x20 PUSH1 0x4 DUP3 ADD MSTORE PUSH1 0x13 PUSH1 0x24 DUP3 ADD MSTORE PUSH19 0x496E76616C6964206D61784C65766572616765 PUSH1 0x68 SHL PUSH1 0x44 DUP3 ADD MSTORE PUSH1 0x64 SWAP1 REVERT JUMPDEST PUSH1 0x40 MLOAD PUSH3 0x461BCD PUSH1 0xE5 SHL DUP2 MSTORE PUSH1 0x20 PUSH1 0x4 DUP3 ADD MSTORE PUSH1 0xE PUSH1 0x24 DUP3 ADD MSTORE PUSH14 0x496E76616C696420746F6B656E73 PUSH1 0x90 SHL PUSH1 0x44 DUP3 ADD MSTORE PUSH1 0x64 SWAP1 REVERT JUMPDEST POP DUP1 ISZERO ISZERO PUSH2 0x15C JUMP JUMPDEST PUSH1 0x40 MLOAD PUSH3 0x461BCD PUSH1 0xE5 SHL DUP2 MSTORE PUSH1 0x20 PUSH1 0x4 DUP3 ADD MSTORE PUSH1 0xD PUSH1 0x24 DUP3 ADD MSTORE PUSH13 0x4D61726B657420657869737473 PUSH1 0x98 SHL PUSH1 0x44 DUP3 ADD MSTORE PUSH1 0x64 SWAP1 REVERT JUMPDEST PUSH1 0x40 MLOAD PUSH3 0x461BCD PUSH1 0xE5 SHL DUP2 MSTORE PUSH1 0x20 PUSH1 0x4 DUP3 ADD MSTORE PUSH1 0x10 PUSH1 0x24 DUP3 ADD MSTORE PUSH16 0x125B9D985B1A59081B585C9AD95D1259 PUSH1 0x82 SHL PUSH1 0x44 DUP3 ADD MSTORE PUSH1 0x64 SWAP1 REVERT JUMPDEST DUP4 JUMPDEST DUP1 REVERT JUMPDEST POP CALLVALUE PUSH2 0x3B6 JUMPI PUSH1 0x20 CALLDATASIZE PUSH1 0x3 NOT ADD SLT PUSH2 0x3B6 JUMPI PUSH2 0x3D3 PUSH2 0x21A4 JUMP JUMPDEST PUSH2 0x3DB PUSH2 0x25EC JUMP JUMPDEST PUSH1 0x1 PUSH1 0x1 PUSH1 0xA0 SHL SUB AND DUP1 ISZERO PUSH2 0x42B JUMPI DUP2 SLOAD PUSH1 0x1 PUSH1 0x1 PUSH1 0xA0 SHL SUB NOT DUP2 AND DUP3 OR DUP4 SSTORE PUSH1 0x1 PUSH1 0x1 PUSH1 0xA0 SHL SUB AND PUSH32 0x8BE0079C531659141344CD1FD0A4F28419497F9722A3DAAFE3B4186F6B6457E0 DUP4 DUP1 LOG3 DUP1 RETURN JUMPDEST PUSH4 0x1E4FBDF7 PUSH1 0xE0 SHL DUP3 MSTORE PUSH1 0x4 DUP3 SWAP1 MSTORE PUSH1 0x24 DUP3 REVERT JUMPDEST POP CALLVALUE PUSH2 0x3B6 JUMPI PUSH1 0x20 CALLDATASIZE PUSH1 0x3 NOT ADD SLT PUSH2 0x3B6 JUMPI PUSH1 0x20 SWAP1 PUSH1 0xFF SWAP1 PUSH1 0x40 SWAP1 PUSH1 0x1 PUSH1 0x1 PUSH1 0xA0 SHL SUB PUSH2 0x46A PUSH2 0x21A4 JUMP JUMPDEST AND DUP2 MSTORE PUSH1 0x3 DUP5 MSTORE KECCAK256 SLOAD AND PUSH1 0x40 MLOAD SWAP1 DUP2 MSTORE RETURN JUMPDEST POP CALLVALUE PUSH2 0x3B6 JUMPI DUP1 PUSH1 0x3 NOT CALLDATASIZE ADD SLT PUSH2 0x3B6 JUMPI PUSH1 0x20 PUSH1 0x40 MLOAD PUSH2 0x2710 DUP2 MSTORE RETURN JUMPDEST POP CALLVALUE PUSH2 0x3B6 JUMPI PUSH2 0x180 CALLDATASIZE PUSH1 0x3 NOT ADD SLT PUSH2 0x3B6 JUMPI PUSH1 0x4 CALLDATALOAD PUSH2 0x4B7 PUSH2 0x218E JUMP JUMPDEST PUSH1 0x64 CALLDATALOAD PUSH1 0x44 CALLDATALOAD PUSH1 0xE0 CALLDATASIZE PUSH1 0x83 NOT ADD SLT PUSH2 0x965 JUMPI PUSH2 0x164 CALLDATALOAD PUSH8 0xFFFFFFFFFFFFFFFF DUP2 GT PUSH2 0xC62 JUMPI PUSH2 0x4EA SWAP1 CALLDATASIZE SWAP1 PUSH1 0x4 ADD PUSH2 0x21BA JUMP JUMPDEST SWAP1 SWAP2 PUSH2 0x4F4 PUSH2 0x24B1 JUMP JUMPDEST DUP6 DUP8 MSTORE PUSH1 0x5 PUSH1 0x20 MSTORE PUSH1 0x40 DUP8 KECCAK256 SWAP5 PUSH1 0x40 MLOAD SWAP6 DUP7 SWAP3 PUSH2 0x510 DUP5 PUSH2 0x227F JUMP JUMPDEST PUSH1 0xFF DUP3 SLOAD AND ISZERO ISZERO SWAP3 DUP4 DUP6 MSTORE PUSH1 0x1 DUP4 ADD SLOAD PUSH1 0x20 DUP7 ADD MSTORE PUSH2 0x582 PUSH1 0x1 DUP1 PUSH1 0xA0 SHL SUB PUSH1 0x2 DUP6 ADD SLOAD AND SWAP5 PUSH1 0x40 DUP8 ADD SWAP6 DUP7 MSTORE PUSH1 0x1 DUP1 PUSH1 0xA0 SHL SUB PUSH1 0x3 DUP7 ADD SLOAD AND PUSH1 0x60 DUP9 ADD MSTORE PUSH1 0xE0 PUSH1 0x7 PUSH1 0x4 DUP8 ADD SLOAD SWAP7 PUSH1 0x80 DUP11 ADD SWAP8 DUP9 MSTORE PUSH1 0x5 DUP2 ADD SLOAD PUSH1 0xA0 DUP12 ADD MSTORE PUSH1 0xC0 PUSH1 0x6 DUP3 ADD SLOAD SWAP11 ADD SWAP10 DUP11 MSTORE ADD SLOAD SWAP12 ADD SWAP11 DUP12 MSTORE PUSH2 0x24D3 JUMP JUMPDEST PUSH1 0x1 PUSH1 0x1 PUSH1 0xA0 SHL SUB AND DUP1 DUP12 MSTORE PUSH1 0x2 PUSH1 0x20 MSTORE PUSH1 0x40 DUP12 KECCAK256 SLOAD SWAP1 SWAP3 SWAP1 PUSH2 0x5A7 SWAP1 PUSH1 0xFF AND PUSH2 0x21E8 JUMP JUMPDEST DUP2 ISZERO PUSH2 0xC2E JUMPI PUSH8 0xDE0B6B3A7640000 DUP9 LT ISZERO SWAP1 DUP2 PUSH2 0xC22 JUMPI JUMPDEST POP ISZERO PUSH2 0xBEA JUMPI PUSH1 0x40 MLOAD PUSH4 0x23B872DD PUSH1 0xE0 SHL DUP2 MSTORE CALLER PUSH1 0x4 DUP3 ADD MSTORE ADDRESS PUSH1 0x24 DUP3 ADD MSTORE PUSH1 0x44 DUP2 ADD DUP3 SWAP1 MSTORE SWAP2 PUSH1 0x20 DUP4 PUSH1 0x64 DUP2 DUP15 DUP6 GAS CALL SWAP3 DUP4 ISZERO PUSH2 0xBDF JUMPI PUSH2 0x647 SWAP4 PUSH2 0x60D SWAP2 DUP14 SWAP2 PUSH2 0xBB0 JUMPI JUMPDEST POP PUSH2 0x22EC JUMP JUMPDEST CALLER DUP12 MSTORE PUSH1 0x4 PUSH1 0x20 MSTORE PUSH1 0x40 DUP12 KECCAK256 DUP2 PUSH1 0x0 MSTORE PUSH1 0x20 MSTORE PUSH1 0x40 PUSH1 0x0 KECCAK256 PUSH2 0x630 DUP4 DUP3 SLOAD PUSH2 0x24A4 JUMP JUMPDEST SWAP1 SSTORE DUP11 MSTORE PUSH1 0x3 PUSH1 0x20 MSTORE PUSH1 0xFF PUSH1 0x40 DUP12 KECCAK256 SLOAD AND SWAP1 PUSH2 0x2626 JUMP JUMPDEST SWAP4 PUSH8 0xDE0B6B3A7640000 PUSH2 0x65B DUP8 DUP8 PUSH2 0x2511 JUMP JUMPDEST DIV SWAP3 DUP1 MLOAD PUSH2 0xB4F JUMPI JUMPDEST POP PUSH1 0x40 MLOAD PUSH4 0x31D98B3F PUSH1 0xE0 SHL DUP2 MSTORE PUSH1 0x4 DUP2 ADD DUP10 SWAP1 MSTORE SWAP5 PUSH1 0x20 DUP7 PUSH1 0x24 DUP2 PUSH32 0x0 PUSH1 0x1 PUSH1 0x1 PUSH1 0xA0 SHL SUB AND GAS STATICCALL SWAP6 DUP7 ISZERO PUSH2 0xB44 JUMPI DUP11 SWAP7 PUSH2 0xB0B JUMPI JUMPDEST POP PUSH2 0x6C6 DUP7 ISZERO ISZERO PUSH2 0x2544 JUMP JUMPDEST PUSH8 0xDE0B6B3A7640000 DUP5 MUL DUP5 DUP2 DIV PUSH8 0xDE0B6B3A7640000 EQ DUP6 ISZERO OR ISZERO PUSH2 0xAF7 JUMPI SWAP1 PUSH2 0x2710 PUSH2 0x70D PUSH2 0x6FA DUP10 PUSH2 0x714 SWAP6 PUSH2 0x2524 JUMP JUMPDEST SWAP11 PUSH2 0x706 DUP13 ISZERO ISZERO PUSH2 0x257B JUMP JUMPDEST MLOAD DUP8 PUSH2 0x2511 JUMP JUMPDEST DIV SWAP1 PUSH2 0x225C JUMP JUMPDEST SWAP5 DUP6 ISZERO PUSH2 0xAC1 JUMPI CALLER DUP11 MSTORE PUSH1 0x6 PUSH1 0x20 MSTORE PUSH1 0x40 DUP11 KECCAK256 DUP10 DUP12 MSTORE PUSH1 0x20 MSTORE PUSH1 0x40 DUP11 KECCAK256 PUSH1 0x1 DUP12 MSTORE PUSH1 0x20 MSTORE PUSH1 0x40 DUP11 KECCAK256 DUP1 SLOAD SWAP1 PUSH1 0xFF DUP3 AND PUSH2 0xA8A JUMPI DUP9 SWAP3 PUSH1 0x1 PUSH1 0x6 SWAP4 PUSH1 0xFF NOT AND OR DUP3 SSTORE DUP12 PUSH1 0x1 DUP4 ADD SSTORE PUSH1 0x2 DUP3 ADD PUSH1 0x1 PUSH1 0xFF NOT DUP3 SLOAD AND OR SWAP1 SSTORE DUP11 PUSH1 0x3 DUP4 ADD SSTORE PUSH1 0x4 DUP3 ADD SSTORE DUP8 PUSH1 0x5 DUP3 ADD SSTORE ADD SSTORE PUSH1 0x84 CALLDATALOAD SWAP4 PUSH1 0x1 DUP1 PUSH1 0xA0 SHL SUB DUP6 AND DUP1 DUP7 SUB PUSH2 0xA86 JUMPI CALLER SUB PUSH2 0xA53 JUMPI PUSH1 0xA4 CALLDATALOAD SWAP5 DUP10 DUP7 SUB PUSH2 0xA1F JUMPI PUSH1 0xC4 CALLDATALOAD DUP1 ISZERO ISZERO DUP1 DUP3 SUB PUSH2 0xA1B JUMPI PUSH1 0x0 NOT ADD PUSH2 0x9EB JUMPI PUSH1 0xE4 CALLDATALOAD SWAP3 DUP7 DUP5 GT PUSH2 0x9B5 JUMPI PUSH2 0x124 CALLDATALOAD TIMESTAMP DUP2 LT PUSH2 0x978 JUMPI DUP14 SWAP9 PUSH2 0x8A2 SWAP6 PUSH2 0x834 PUSH2 0x889 SWAP6 PUSH2 0x826 DUP14 PUSH2 0x883 SWAP7 PUSH2 0x892 SWAP11 CALLER DUP4 MSTORE PUSH1 0x7 PUSH1 0x20 MSTORE PUSH1 0x40 DUP4 KECCAK256 SWAP3 PUSH2 0x144 CALLDATALOAD SWAP4 DUP5 DUP3 MSTORE PUSH1 0x20 MSTORE PUSH2 0x80F PUSH1 0xFF PUSH1 0x40 DUP4 KECCAK256 SLOAD AND ISZERO PUSH2 0x2340 JUMP JUMPDEST POP PUSH1 0x40 MLOAD SWAP7 DUP8 SWAP6 PUSH1 0x20 DUP8 ADD SWAP10 PUSH2 0x104 CALLDATALOAD SWAP4 DUP12 PUSH2 0x2388 JUMP JUMPDEST SUB PUSH1 0x1F NOT DUP2 ADD DUP4 MSTORE DUP3 PUSH2 0x22B2 JUMP JUMPDEST MLOAD SWAP1 KECCAK256 SWAP6 PUSH1 0x40 MLOAD PUSH1 0x20 DUP2 ADD SWAP1 PUSH32 0x19457468657265756D205369676E6564204D6573736167653A0A333200000000 DUP3 MSTORE DUP9 PUSH1 0x3C DUP3 ADD MSTORE PUSH1 0x3C DUP2 MSTORE PUSH2 0x878 PUSH1 0x5C DUP3 PUSH2 0x22B2 JUMP JUMPDEST MLOAD SWAP1 KECCAK256 SWAP3 CALLDATASIZE SWAP2 PUSH2 0x23E7 JUMP JUMPDEST SWAP1 PUSH2 0x267F JUMP JUMPDEST SWAP1 SWAP3 SWAP2 SWAP3 PUSH2 0x26BB JUMP JUMPDEST PUSH1 0x1 PUSH1 0x1 PUSH1 0xA0 SHL SUB AND CALLER EQ PUSH2 0x242E JUMP JUMPDEST CALLER DUP5 MSTORE PUSH1 0x6 PUSH1 0x20 SWAP1 DUP2 MSTORE PUSH1 0x40 DUP1 DUP7 KECCAK256 DUP11 DUP8 MSTORE DUP3 MSTORE DUP1 DUP7 KECCAK256 PUSH1 0x1 DUP8 MSTORE SWAP1 SWAP2 MSTORE DUP5 KECCAK256 PUSH1 0x7 ADD SSTORE MLOAD PUSH1 0x1 PUSH1 0x1 PUSH1 0xA0 SHL SUB AND DUP1 EXTCODESIZE ISZERO PUSH2 0x974 JUMPI PUSH1 0x40 MLOAD PUSH4 0x40C10F19 PUSH1 0xE0 SHL DUP2 MSTORE CALLER PUSH1 0x4 DUP3 ADD MSTORE PUSH1 0x24 DUP2 ADD SWAP3 SWAP1 SWAP3 MSTORE DUP3 SWAP1 DUP3 SWAP1 PUSH1 0x44 SWAP1 DUP3 SWAP1 DUP5 SWAP1 GAS CALL DUP1 ISZERO PUSH2 0x969 JUMPI PUSH2 0x950 JUMPI JUMPDEST POP POP PUSH1 0x40 MLOAD SWAP3 PUSH1 0x1 DUP5 MSTORE PUSH1 0x20 DUP5 ADD MSTORE PUSH1 0x40 DUP4 ADD MSTORE PUSH1 0x60 DUP3 ADD MSTORE PUSH32 0x3B42D27F70AD0FDD7EEB05C9A1716722579DC5CD8A7F7C3D405751B15CA7DD62 PUSH1 0x80 CALLER SWAP3 LOG3 PUSH1 0x1 DUP1 SSTORE DUP1 RETURN JUMPDEST DUP2 PUSH2 0x95A SWAP2 PUSH2 0x22B2 JUMP JUMPDEST PUSH2 0x965 JUMPI DUP5 CODESIZE PUSH2 0x90A JUMP JUMPDEST DUP5 DUP1 REVERT JUMPDEST PUSH1 0x40 MLOAD RETURNDATASIZE DUP5 DUP3 RETURNDATACOPY RETURNDATASIZE SWAP1 REVERT JUMPDEST DUP3 DUP1 REVERT JUMPDEST PUSH1 0x40 MLOAD PUSH3 0x461BCD PUSH1 0xE5 SHL DUP2 MSTORE PUSH1 0x20 PUSH1 0x4 DUP3 ADD MSTORE PUSH1 0x15 PUSH1 0x24 DUP3 ADD MSTORE PUSH21 0x10DB1BDCD9481C185E5B1BD85908195E1C1A5C9959 PUSH1 0x5A SHL PUSH1 0x44 DUP3 ADD MSTORE PUSH1 0x64 SWAP1 REVERT JUMPDEST PUSH1 0x40 MLOAD PUSH3 0x461BCD PUSH1 0xE5 SHL DUP2 MSTORE PUSH1 0x20 PUSH1 0x4 DUP3 ADD MSTORE PUSH1 0xE PUSH1 0x24 DUP3 ADD MSTORE PUSH14 0x546F6F206C617267652073697A65 PUSH1 0x90 SHL PUSH1 0x44 DUP3 ADD MSTORE PUSH1 0x64 SWAP1 REVERT JUMPDEST PUSH1 0x40 MLOAD PUSH3 0x461BCD PUSH1 0xE5 SHL DUP2 MSTORE PUSH1 0x20 PUSH1 0x4 DUP3 ADD MSTORE PUSH1 0x8 PUSH1 0x24 DUP3 ADD MSTORE PUSH8 0x4261642073696465 PUSH1 0xC0 SHL PUSH1 0x44 DUP3 ADD MSTORE PUSH1 0x64 SWAP1 REVERT JUMPDEST DUP13 DUP1 REVERT JUMPDEST PUSH1 0x40 MLOAD PUSH3 0x461BCD PUSH1 0xE5 SHL DUP2 MSTORE PUSH1 0x20 PUSH1 0x4 DUP3 ADD MSTORE PUSH1 0xC PUSH1 0x24 DUP3 ADD MSTORE PUSH12 0x109859081B585C9AD95D1259 PUSH1 0xA2 SHL PUSH1 0x44 DUP3 ADD MSTORE PUSH1 0x64 SWAP1 REVERT JUMPDEST PUSH1 0x40 MLOAD PUSH3 0x461BCD PUSH1 0xE5 SHL DUP2 MSTORE PUSH1 0x20 PUSH1 0x4 DUP3 ADD MSTORE PUSH1 0xB PUSH1 0x24 DUP3 ADD MSTORE PUSH11 0x109859081858D8DBDD5B9D PUSH1 0xAA SHL PUSH1 0x44 DUP3 ADD MSTORE PUSH1 0x64 SWAP1 REVERT JUMPDEST DUP11 DUP1 REVERT JUMPDEST PUSH1 0x40 MLOAD PUSH3 0x461BCD PUSH1 0xE5 SHL DUP2 MSTORE PUSH1 0x20 PUSH1 0x4 DUP3 ADD MSTORE PUSH1 0xF PUSH1 0x24 DUP3 ADD MSTORE PUSH15 0x506F736974696F6E20657869737473 PUSH1 0x88 SHL PUSH1 0x44 DUP3 ADD MSTORE PUSH1 0x64 SWAP1 REVERT JUMPDEST PUSH1 0x40 MLOAD PUSH3 0x461BCD PUSH1 0xE5 SHL DUP2 MSTORE PUSH1 0x20 PUSH1 0x4 DUP3 ADD MSTORE PUSH1 0xE PUSH1 0x24 DUP3 ADD MSTORE PUSH14 0x1199594F98DBDB1B185D195C985B PUSH1 0x92 SHL PUSH1 0x44 DUP3 ADD MSTORE PUSH1 0x64 SWAP1 REVERT JUMPDEST PUSH4 0x4E487B71 PUSH1 0xE0 SHL DUP12 MSTORE PUSH1 0x11 PUSH1 0x4 MSTORE PUSH1 0x24 DUP12 REVERT JUMPDEST SWAP1 SWAP6 POP PUSH1 0x20 DUP2 RETURNDATASIZE PUSH1 0x20 GT PUSH2 0xB3C JUMPI JUMPDEST DUP2 PUSH2 0xB27 PUSH1 0x20 SWAP4 DUP4 PUSH2 0x22B2 JUMP JUMPDEST DUP2 ADD SUB SLT PUSH2 0xB37 JUMPI MLOAD SWAP5 CODESIZE PUSH2 0x6BA JUMP JUMPDEST PUSH1 0x0 DUP1 REVERT JUMPDEST RETURNDATASIZE SWAP2 POP PUSH2 0xB1A JUMP JUMPDEST PUSH1 0x40 MLOAD RETURNDATASIZE DUP13 DUP3 RETURNDATACOPY RETURNDATASIZE SWAP1 REVERT JUMPDEST PUSH2 0x2710 DUP7 MUL SWAP1 DUP7 DUP3 DIV PUSH2 0x2710 EQ DUP8 ISZERO OR ISZERO PUSH2 0xAF7 JUMPI PUSH2 0xB6F SWAP1 MLOAD DUP6 PUSH2 0x2511 JUMP JUMPDEST GT PUSH2 0xB7A JUMPI CODESIZE PUSH2 0x664 JUMP JUMPDEST PUSH1 0x40 MLOAD PUSH3 0x461BCD PUSH1 0xE5 SHL DUP2 MSTORE PUSH1 0x20 PUSH1 0x4 DUP3 ADD MSTORE PUSH1 0xE PUSH1 0x24 DUP3 ADD MSTORE PUSH14 0x4D617267696E20746F6F206C6F77 PUSH1 0x90 SHL PUSH1 0x44 DUP3 ADD MSTORE PUSH1 0x64 SWAP1 REVERT JUMPDEST PUSH2 0xBD2 SWAP2 POP PUSH1 0x20 RETURNDATASIZE PUSH1 0x20 GT PUSH2 0xBD8 JUMPI JUMPDEST PUSH2 0xBCA DUP2 DUP4 PUSH2 0x22B2 JUMP JUMPDEST DUP2 ADD SWAP1 PUSH2 0x22D4 JUMP JUMPDEST CODESIZE PUSH2 0x607 JUMP JUMPDEST POP RETURNDATASIZE PUSH2 0xBC0 JUMP JUMPDEST PUSH1 0x40 MLOAD RETURNDATASIZE DUP14 DUP3 RETURNDATACOPY RETURNDATASIZE SWAP1 REVERT JUMPDEST PUSH1 0x40 MLOAD PUSH3 0x461BCD PUSH1 0xE5 SHL DUP2 MSTORE PUSH1 0x20 PUSH1 0x4 DUP3 ADD MSTORE PUSH1 0x10 PUSH1 0x24 DUP3 ADD MSTORE PUSH16 0x496E76616C6964206C65766572616765 PUSH1 0x80 SHL PUSH1 0x44 DUP3 ADD MSTORE PUSH1 0x64 SWAP1 REVERT JUMPDEST SWAP1 POP MLOAD DUP8 GT ISZERO CODESIZE PUSH2 0x5C0 JUMP JUMPDEST PUSH1 0x40 MLOAD PUSH3 0x461BCD PUSH1 0xE5 SHL DUP2 MSTORE PUSH1 0x20 PUSH1 0x4 DUP3 ADD MSTORE PUSH1 0xC PUSH1 0x24 DUP3 ADD MSTORE PUSH12 0x436F6C6C61746572616C3D3 PUSH1 0xA4 SHL PUSH1 0x44 DUP3 ADD MSTORE PUSH1 0x64 SWAP1 REVERT JUMPDEST DUP6 DUP1 REVERT JUMPDEST POP CALLVALUE PUSH2 0x3B6 JUMPI PUSH1 0x40 CALLDATASIZE PUSH1 0x3 NOT ADD SLT PUSH2 0x3B6 JUMPI PUSH2 0xC80 PUSH2 0x21A4 JUMP JUMPDEST PUSH1 0x24 CALLDATALOAD SWAP1 PUSH2 0xC8C PUSH2 0x24B1 JUMP JUMPDEST PUSH1 0x1 PUSH1 0x1 PUSH1 0xA0 SHL SUB AND DUP1 DUP4 MSTORE PUSH1 0x2 PUSH1 0x20 MSTORE PUSH1 0x40 DUP4 KECCAK256 SLOAD SWAP1 SWAP2 SWAP1 PUSH2 0xCB1 SWAP1 PUSH1 0xFF AND PUSH2 0x21E8 JUMP JUMPDEST PUSH2 0xCBC DUP2 ISZERO ISZERO PUSH2 0x2225 JUMP JUMPDEST PUSH1 0x40 MLOAD PUSH4 0x23B872DD PUSH1 0xE0 SHL DUP2 MSTORE CALLER PUSH1 0x4 DUP3 ADD MSTORE ADDRESS PUSH1 0x24 DUP3 ADD MSTORE PUSH1 0x44 DUP2 ADD DUP3 SWAP1 MSTORE PUSH1 0x20 DUP2 PUSH1 0x64 DUP2 DUP8 DUP8 GAS CALL DUP1 ISZERO PUSH2 0xD54 JUMPI PUSH2 0xCFC SWAP2 DUP6 SWAP2 PUSH2 0xBB0 JUMPI POP PUSH2 0x22EC JUMP JUMPDEST CALLER DUP4 MSTORE PUSH1 0x4 PUSH1 0x20 MSTORE PUSH1 0x40 DUP4 KECCAK256 DUP3 PUSH1 0x0 MSTORE PUSH1 0x20 MSTORE PUSH1 0x40 PUSH1 0x0 KECCAK256 PUSH2 0xD1F DUP3 DUP3 SLOAD PUSH2 0x24A4 JUMP JUMPDEST SWAP1 SSTORE PUSH1 0x40 MLOAD SWAP1 DUP2 MSTORE PUSH32 0xF1C0DD7E9B98BBFF859029005EF89B127AF049CD18DF1A8D79F0B7E019911E56 PUSH1 0x20 CALLER SWAP3 LOG3 PUSH1 0x1 DUP1 SSTORE DUP1 RETURN JUMPDEST PUSH1 0x40 MLOAD RETURNDATASIZE DUP7 DUP3 RETURNDATACOPY RETURNDATASIZE SWAP1 REVERT JUMPDEST POP CALLVALUE PUSH2 0x3B6 JUMPI DUP1 PUSH1 0x3 NOT CALLDATASIZE ADD SLT PUSH2 0x3B6 JUMPI SLOAD PUSH1 0x40 MLOAD PUSH1 0x1 PUSH1 0x1 PUSH1 0xA0 SHL SUB SWAP1 SWAP2 AND DUP2 MSTORE PUSH1 0x20 SWAP1 RETURN JUMPDEST POP CALLVALUE PUSH2 0x3B6 JUMPI CALLDATASIZE PUSH1 0x3 NOT ADD PUSH2 0x100 DUP2 SLT PUSH2 0x128A JUMPI PUSH1 0xE0 SGT PUSH2 0x3B6 JUMPI PUSH1 0xE4 CALLDATALOAD PUSH8 0xFFFFFFFFFFFFFFFF DUP2 GT PUSH2 0x128A JUMPI PUSH2 0xDC1 SWAP1 CALLDATASIZE SWAP1 PUSH1 0x4 ADD PUSH2 0x21BA JUMP JUMPDEST SWAP1 PUSH2 0xDCA PUSH2 0x24B1 JUMP JUMPDEST PUSH1 0xA4 CALLDATALOAD SWAP1 TIMESTAMP DUP3 LT PUSH2 0x1378 JUMPI PUSH1 0x1 PUSH1 0x1 PUSH1 0xA0 SHL SUB PUSH2 0xDE5 PUSH2 0x232A JUMP JUMPDEST AND DUP5 MSTORE PUSH1 0x7 PUSH1 0x20 MSTORE PUSH1 0x40 DUP5 KECCAK256 SWAP1 PUSH1 0xC4 CALLDATALOAD SWAP2 DUP3 DUP7 MSTORE PUSH1 0x20 MSTORE PUSH2 0xE0D PUSH1 0xFF PUSH1 0x40 DUP8 KECCAK256 SLOAD AND ISZERO PUSH2 0x2340 JUMP JUMPDEST PUSH2 0xE74 PUSH2 0xE51 PUSH2 0x889 PUSH2 0xE1E PUSH2 0x232A JUMP JUMPDEST SWAP7 PUSH2 0x883 PUSH1 0x24 CALLDATALOAD DUP1 SWAP10 PUSH2 0x834 PUSH2 0xE32 PUSH2 0x2379 JUMP JUMPDEST PUSH2 0x826 DUP12 PUSH1 0x64 CALLDATALOAD SWAP14 DUP15 SWAP6 PUSH1 0x40 MLOAD SWAP7 DUP8 SWAP6 PUSH1 0x20 DUP8 ADD SWAP10 PUSH1 0x84 CALLDATALOAD SWAP4 DUP12 PUSH2 0x2388 JUMP JUMPDEST PUSH1 0x1 PUSH1 0x1 PUSH1 0xA0 SHL SUB PUSH2 0xE61 PUSH2 0x232A JUMP JUMPDEST PUSH1 0x1 PUSH1 0x1 PUSH1 0xA0 SHL SUB SWAP1 SWAP3 AND SWAP2 AND EQ PUSH2 0x242E JUMP JUMPDEST PUSH1 0x1 PUSH1 0x1 PUSH1 0xA0 SHL SUB PUSH2 0xE84 PUSH2 0x232A JUMP JUMPDEST AND DUP6 MSTORE PUSH1 0x6 PUSH1 0x20 MSTORE PUSH1 0x40 DUP6 KECCAK256 DUP5 DUP7 MSTORE PUSH1 0x20 MSTORE PUSH1 0x40 DUP6 KECCAK256 PUSH2 0xEA2 PUSH2 0x2379 JUMP JUMPDEST ISZERO ISZERO DUP7 MSTORE PUSH1 0x20 MSTORE PUSH1 0x7 PUSH1 0x40 DUP7 KECCAK256 PUSH2 0xEBC PUSH1 0xFF DUP3 SLOAD AND PUSH2 0x246A JUMP JUMPDEST ADD SLOAD SUB PUSH2 0x1343 JUMPI PUSH1 0x1 PUSH1 0x1 PUSH1 0xA0 SHL SUB PUSH2 0xED3 PUSH2 0x232A JUMP JUMPDEST AND DUP5 MSTORE PUSH1 0x7 PUSH1 0x20 MSTORE PUSH1 0x40 DUP5 KECCAK256 DUP2 DUP6 MSTORE PUSH1 0x20 MSTORE PUSH1 0x40 DUP5 KECCAK256 PUSH1 0x1 PUSH1 0xFF NOT DUP3 SLOAD AND OR SWAP1 SSTORE PUSH2 0xEFC PUSH2 0x232A JUMP JUMPDEST PUSH2 0xF04 PUSH2 0x2379 JUMP JUMPDEST DUP4 ISZERO SWAP2 PUSH2 0xF11 DUP4 ISZERO PUSH2 0x257B JUMP JUMPDEST DUP6 DUP8 MSTORE PUSH1 0x5 PUSH1 0x20 MSTORE PUSH1 0x40 DUP8 KECCAK256 PUSH1 0x40 MLOAD SWAP1 PUSH2 0xF2A DUP3 PUSH2 0x227F JUMP JUMPDEST PUSH2 0xF97 PUSH1 0xFF DUP3 SLOAD AND ISZERO ISZERO DUP1 DUP5 MSTORE PUSH1 0x1 DUP4 ADD SLOAD PUSH1 0x20 DUP6 ADD MSTORE PUSH1 0x1 DUP1 PUSH1 0xA0 SHL SUB PUSH1 0x2 DUP5 ADD SLOAD AND SWAP4 PUSH1 0x40 DUP2 ADD SWAP5 DUP6 MSTORE PUSH1 0xE0 PUSH1 0x7 PUSH1 0x1 DUP1 PUSH1 0xA0 SHL SUB PUSH1 0x3 DUP8 ADD SLOAD AND SWAP6 PUSH1 0x60 DUP5 ADD SWAP7 DUP8 MSTORE PUSH1 0x4 DUP2 ADD SLOAD PUSH1 0x80 DUP6 ADD MSTORE PUSH1 0x5 DUP2 ADD SLOAD PUSH1 0xA0 DUP6 ADD MSTORE PUSH1 0x6 DUP2 ADD SLOAD PUSH1 0xC0 DUP6 ADD MSTORE ADD SLOAD SWAP2 ADD MSTORE PUSH2 0x24D3 JUMP JUMPDEST PUSH1 0x1 DUP1 PUSH1 0xA0 SHL SUB DUP4 AND SWAP4 DUP5 DUP11 MSTORE PUSH1 0x6 PUSH1 0x20 MSTORE PUSH1 0x40 DUP11 KECCAK256 DUP10 DUP12 MSTORE PUSH1 0x20 MSTORE PUSH1 0x40 DUP11 KECCAK256 SWAP4 DUP2 ISZERO ISZERO SWAP5 DUP6 DUP13 MSTORE PUSH1 0x20 MSTORE PUSH1 0x40 DUP12 KECCAK256 SWAP2 PUSH2 0xFD4 PUSH1 0xFF DUP5 SLOAD AND PUSH2 0x246A JUMP JUMPDEST PUSH1 0x3 DUP4 ADD SWAP2 DUP3 SLOAD SWAP6 DUP12 PUSH1 0x4 DUP7 ADD SWAP11 PUSH8 0xDE0B6B3A7640000 PUSH2 0xFF6 DUP14 SLOAD DUP12 PUSH2 0x2511 JUMP JUMPDEST DIV DUP1 SWAP3 GT PUSH2 0x1312 JUMPI DUP14 SWAP1 PUSH8 0xDE0B6B3A7640000 DUP3 MUL SWAP2 DUP3 DIV PUSH8 0xDE0B6B3A7640000 EQ OR ISZERO PUSH2 0x12FD JUMPI DUP16 SWAP5 SWAP4 SWAP3 SWAP2 PUSH2 0x1039 PUSH2 0x1040 SWAP2 PUSH8 0xDE0B6B3A7640000 SWAP4 PUSH2 0x2524 JUMP JUMPDEST DUP1 SWAP11 PUSH2 0x2511 JUMP JUMPDEST DIV SWAP7 DUP4 ISZERO PUSH2 0x128E JUMPI POP MLOAD PUSH1 0x1 PUSH1 0x1 PUSH1 0xA0 SHL SUB AND DUP1 EXTCODESIZE ISZERO PUSH2 0x3B4 JUMPI PUSH1 0x40 MLOAD PUSH4 0x2770A7EB PUSH1 0xE2 SHL DUP2 MSTORE PUSH1 0x1 PUSH1 0x1 PUSH1 0xA0 SHL SUB SWAP3 SWAP1 SWAP3 AND PUSH1 0x4 DUP4 ADD MSTORE PUSH1 0x24 DUP3 ADD DUP14 SWAP1 MSTORE DUP4 SWAP1 DUP3 SWAP1 PUSH1 0x44 SWAP1 DUP3 SWAP1 DUP5 SWAP1 GAS CALL SWAP1 DUP2 ISZERO PUSH2 0x126A JUMPI DUP4 SWAP2 PUSH2 0x1275 JUMPI JUMPDEST POP POP JUMPDEST PUSH1 0x40 MLOAD PUSH4 0x31D98B3F PUSH1 0xE0 SHL DUP2 MSTORE PUSH1 0x4 DUP2 ADD DUP14 SWAP1 MSTORE SWAP9 PUSH1 0x20 DUP11 PUSH1 0x24 DUP2 PUSH32 0x0 PUSH1 0x1 PUSH1 0x1 PUSH1 0xA0 SHL SUB AND GAS STATICCALL SWAP2 DUP3 ISZERO PUSH2 0x126A JUMPI DUP14 SWAP11 DUP5 SWAP4 PUSH2 0x121F JUMPI JUMPDEST POP SWAP3 DUP3 PUSH8 0xDE0B6B3A7640000 SWAP3 PUSH1 0x60 SWAP10 SWAP8 SWAP6 PUSH2 0x1135 PUSH32 0xF16C0216BCC5D9774E18F914D8B1E51775546C2F5A06EADD105F7E398BBC410F SWAP13 SWAP11 SWAP9 SWAP7 ISZERO ISZERO PUSH2 0x2544 JUMP JUMPDEST ISZERO PUSH2 0x1208 JUMPI PUSH2 0x114F SWAP2 PUSH2 0x1149 SWAP2 SLOAD SWAP1 PUSH2 0x25B0 JUMP JUMPDEST DUP7 PUSH2 0x25C9 JUMP JUMPDEST SWAP1 POP SDIV SWAP4 JUMPDEST PUSH2 0x1186 PUSH1 0x5 DUP5 ADD SWAP2 PUSH8 0xDE0B6B3A7640000 PUSH2 0x1171 DUP5 SLOAD SWAP3 DUP4 PUSH2 0x2511 JUMP JUMPDEST DIV SWAP1 PUSH2 0x117E DUP8 DUP7 SLOAD PUSH2 0x225C JUMP JUMPDEST DUP1 SWAP6 SSTORE PUSH2 0x225C JUMP JUMPDEST SWAP1 SSTORE ISZERO PUSH2 0x11FA JUMPI JUMPDEST POP PUSH1 0x40 MLOAD SWAP3 DUP4 MSTORE PUSH1 0x20 DUP4 ADD MSTORE PUSH1 0x40 DUP3 ADD MSTORE LOG3 PUSH2 0x11A8 PUSH2 0x232A JUMP JUMPDEST SWAP1 PUSH2 0x11B1 PUSH2 0x2379 JUMP JUMPDEST SWAP3 PUSH1 0x40 MLOAD SWAP4 ISZERO ISZERO DUP5 MSTORE PUSH1 0x20 DUP5 ADD MSTORE PUSH1 0x40 DUP4 ADD MSTORE PUSH1 0x1 DUP1 PUSH1 0xA0 SHL SUB AND SWAP1 PUSH32 0x75E9C89DE7F7735AEC154359D78686BBDC92E4A8E6E99F38DAF3F6CAC7F69486 PUSH1 0x60 CALLER SWAP3 LOG4 PUSH1 0x1 DUP1 SSTORE DUP1 RETURN JUMPDEST DUP1 SLOAD PUSH1 0xFF NOT AND SWAP1 SSTORE CODESIZE PUSH2 0x118E JUMP JUMPDEST PUSH2 0x1216 SWAP2 PUSH2 0x1149 SWAP2 SLOAD PUSH2 0x25B0 JUMP JUMPDEST SWAP1 POP SDIV SWAP4 PUSH2 0x1154 JUMP JUMPDEST SWAP9 SWAP7 SWAP5 SWAP3 POP SWAP7 SWAP5 SWAP3 POP SWAP9 POP PUSH1 0x20 DUP8 RETURNDATASIZE PUSH1 0x20 GT PUSH2 0x1262 JUMPI JUMPDEST DUP2 PUSH2 0x1243 PUSH1 0x20 SWAP4 DUP4 PUSH2 0x22B2 JUMP JUMPDEST DUP2 ADD SUB SLT PUSH2 0xB37 JUMPI SWAP6 MLOAD DUP12 SWAP9 SWAP5 SWAP7 SWAP4 SWAP6 SWAP3 SWAP5 SWAP2 SWAP4 SWAP3 DUP14 SWAP3 SWAP1 PUSH1 0x60 PUSH2 0x10F4 JUMP JUMPDEST RETURNDATASIZE SWAP2 POP PUSH2 0x1236 JUMP JUMPDEST PUSH1 0x40 MLOAD RETURNDATASIZE DUP6 DUP3 RETURNDATACOPY RETURNDATASIZE SWAP1 REVERT JUMPDEST DUP2 PUSH2 0x127F SWAP2 PUSH2 0x22B2 JUMP JUMPDEST PUSH2 0x128A JUMPI DUP2 CODESIZE PUSH2 0x109A JUMP JUMPDEST POP DUP1 REVERT JUMPDEST MLOAD PUSH1 0x1 PUSH1 0x1 PUSH1 0xA0 SHL SUB AND SWAP1 POP DUP1 EXTCODESIZE ISZERO PUSH2 0x3B4 JUMPI PUSH1 0x40 MLOAD PUSH4 0x2770A7EB PUSH1 0xE2 SHL DUP2 MSTORE PUSH1 0x1 PUSH1 0x1 PUSH1 0xA0 SHL SUB SWAP3 SWAP1 SWAP3 AND PUSH1 0x4 DUP4 ADD MSTORE PUSH1 0x24 DUP3 ADD DUP14 SWAP1 MSTORE DUP4 SWAP1 DUP3 SWAP1 PUSH1 0x44 SWAP1 DUP3 SWAP1 DUP5 SWAP1 GAS CALL SWAP1 DUP2 ISZERO PUSH2 0x126A JUMPI DUP4 SWAP2 PUSH2 0x12E8 JUMPI JUMPDEST POP POP PUSH2 0x109D JUMP JUMPDEST DUP2 PUSH2 0x12F2 SWAP2 PUSH2 0x22B2 JUMP JUMPDEST PUSH2 0x128A JUMPI DUP2 CODESIZE PUSH2 0x12E1 JUMP JUMPDEST POP PUSH4 0x4E487B71 PUSH1 0xE0 SHL DUP16 MSTORE PUSH1 0x11 PUSH1 0x4 MSTORE PUSH1 0x24 DUP16 REVERT JUMPDEST PUSH1 0x40 MLOAD PUSH3 0x461BCD PUSH1 0xE5 SHL DUP2 MSTORE PUSH1 0x20 PUSH1 0x4 DUP3 ADD MSTORE PUSH1 0x9 PUSH1 0x24 DUP3 ADD MSTORE PUSH9 0x546F6F206C61726765 PUSH1 0xB8 SHL PUSH1 0x44 DUP3 ADD MSTORE PUSH1 0x64 SWAP1 REVERT JUMPDEST PUSH1 0x40 MLOAD PUSH3 0x461BCD PUSH1 0xE5 SHL DUP2 MSTORE PUSH1 0x20 PUSH1 0x4 DUP3 ADD MSTORE PUSH1 0xD PUSH1 0x24 DUP3 ADD MSTORE PUSH13 0x82EAE8D040DAD2E6DAC2E8C6D PUSH1 0x9B SHL PUSH1 0x44 DUP3 ADD MSTORE PUSH1 0x64 SWAP1 REVERT JUMPDEST PUSH1 0x40 MLOAD PUSH3 0x461BCD PUSH1 0xE5 SHL DUP2 MSTORE PUSH1 0x20 PUSH1 0x4 DUP3 ADD MSTORE PUSH1 0x7 PUSH1 0x24 DUP3 ADD MSTORE PUSH7 0x115E1C1A5C9959 PUSH1 0xCA SHL PUSH1 0x44 DUP3 ADD MSTORE PUSH1 0x64 SWAP1 REVERT JUMPDEST POP CALLVALUE PUSH2 0x3B6 JUMPI PUSH1 0x20 CALLDATASIZE PUSH1 0x3 NOT ADD SLT PUSH2 0x3B6 JUMPI PUSH1 0x40 PUSH2 0x100 SWAP2 PUSH1 0x4 CALLDATALOAD DUP2 MSTORE PUSH1 0x5 PUSH1 0x20 MSTORE KECCAK256 PUSH1 0xFF DUP2 SLOAD AND SWAP1 PUSH1 0x1 DUP2 ADD SLOAD SWAP1 PUSH1 0x1 DUP1 PUSH1 0xA0 SHL SUB PUSH1 0x2 DUP3 ADD SLOAD AND PUSH1 0x1 DUP1 PUSH1 0xA0 SHL SUB PUSH1 0x3 DUP4 ADD SLOAD AND PUSH1 0x4 DUP4 ADD SLOAD SWAP1 PUSH1 0x5 DUP5 ADD SLOAD SWAP3 PUSH1 0x7 PUSH1 0x6 DUP7 ADD SLOAD SWAP6 ADD SLOAD SWAP6 PUSH1 0x40 MLOAD SWAP8 ISZERO ISZERO DUP9 MSTORE PUSH1 0x20 DUP9 ADD MSTORE PUSH1 0x40 DUP8 ADD MSTORE PUSH1 0x60 DUP7 ADD MSTORE PUSH1 0x80 DUP6 ADD MSTORE PUSH1 0xA0 DUP5 ADD MSTORE PUSH1 0xC0 DUP4 ADD MSTORE PUSH1 0xE0 DUP3 ADD MSTORE RETURN JUMPDEST POP CALLVALUE PUSH2 0x3B6 JUMPI PUSH1 0x60 CALLDATASIZE PUSH1 0x3 NOT ADD SLT PUSH2 0x3B6 JUMPI PUSH2 0x144E PUSH2 0x21A4 JUMP JUMPDEST PUSH1 0x44 CALLDATALOAD SWAP1 DUP2 ISZERO ISZERO DUP1 SWAP3 SUB PUSH2 0x974 JUMPI SWAP2 PUSH1 0x40 SWAP2 PUSH2 0x100 SWAP4 PUSH1 0x1 DUP1 PUSH1 0xA0 SHL SUB AND DUP3 MSTORE PUSH1 0x6 PUSH1 0x20 MSTORE DUP3 DUP3 KECCAK256 PUSH1 0x24 CALLDATALOAD DUP4 MSTORE PUSH1 0x20 MSTORE DUP3 DUP3 KECCAK256 SWAP1 DUP3 MSTORE PUSH1 0x20 MSTORE KECCAK256 PUSH1 0xFF DUP2 SLOAD AND SWAP1 PUSH1 0x1 DUP2 ADD SLOAD SWAP1 PUSH1 0xFF PUSH1 0x2 DUP3 ADD SLOAD AND PUSH1 0x3 DUP3 ADD SLOAD PUSH1 0x4 DUP4 ADD SLOAD SWAP1 PUSH1 0x5 DUP5 ADD SLOAD SWAP3 PUSH1 0x7 PUSH1 0x6 DUP7 ADD SLOAD SWAP6 ADD SLOAD SWAP6 PUSH1 0x40 MLOAD SWAP8 ISZERO ISZERO DUP9 MSTORE PUSH1 0x20 DUP9 ADD MSTORE ISZERO ISZERO PUSH1 0x40 DUP8 ADD MSTORE PUSH1 0x60 DUP7 ADD MSTORE PUSH1 0x80 DUP6 ADD MSTORE PUSH1 0xA0 DUP5 ADD MSTORE PUSH1 0xC0 DUP4 ADD MSTORE PUSH1 0xE0 DUP3 ADD MSTORE RETURN JUMPDEST POP CALLVALUE PUSH2 0x3B6 JUMPI DUP1 PUSH1 0x3 NOT CALLDATASIZE ADD SLT PUSH2 0x3B6 JUMPI PUSH2 0x1500 PUSH2 0x25EC JUMP JUMPDEST DUP1 SLOAD PUSH1 0x1 PUSH1 0x1 PUSH1 0xA0 SHL SUB NOT DUP2 AND DUP3 SSTORE DUP2 SWAP1 PUSH1 0x1 PUSH1 0x1 PUSH1 0xA0 SHL SUB AND PUSH32 0x8BE0079C531659141344CD1FD0A4F28419497F9722A3DAAFE3B4186F6B6457E0 DUP3 DUP1 LOG3 DUP1 RETURN JUMPDEST POP CALLVALUE PUSH2 0x3B6 JUMPI PUSH1 0x20 CALLDATASIZE PUSH1 0x3 NOT ADD SLT PUSH2 0x3B6 JUMPI PUSH2 0x155B PUSH2 0x21A4 JUMP JUMPDEST PUSH2 0x1563 PUSH2 0x25EC JUMP JUMPDEST PUSH1 0x1 PUSH1 0x1 PUSH1 0xA0 SHL SUB AND DUP1 ISZERO PUSH2 0x16CF JUMPI DUP1 DUP3 MSTORE PUSH1 0x2 PUSH1 0x20 MSTORE PUSH1 0xFF PUSH1 0x40 DUP4 KECCAK256 SLOAD AND PUSH2 0x1695 JUMPI PUSH1 0x40 MLOAD PUSH4 0x313CE567 PUSH1 0xE0 SHL DUP2 MSTORE PUSH1 0x20 DUP2 PUSH1 0x4 DUP2 DUP6 GAS STATICCALL DUP1 ISZERO PUSH2 0x126A JUMPI DUP4 SWAP1 PUSH2 0x1658 JUMPI JUMPDEST PUSH1 0xFF SWAP2 POP AND DUP1 ISZERO ISZERO DUP1 PUSH2 0x164D JUMPI JUMPDEST ISZERO PUSH2 0x1615 JUMPI PUSH1 0x20 PUSH32 0xB294E40D4778ADDE6BA5C3FFE754B39514F1CB27896988847A038ECB3BDA1E60 SWAP2 DUP4 DUP6 MSTORE PUSH1 0x2 DUP3 MSTORE PUSH1 0x40 DUP6 KECCAK256 PUSH1 0x1 PUSH1 0xFF NOT DUP3 SLOAD AND OR SWAP1 SSTORE DUP4 DUP6 MSTORE PUSH1 0x3 DUP3 MSTORE PUSH1 0x40 DUP6 KECCAK256 DUP2 PUSH1 0xFF NOT DUP3 SLOAD AND OR SWAP1 SSTORE PUSH1 0x40 MLOAD SWAP1 DUP2 MSTORE LOG2 DUP1 RETURN JUMPDEST PUSH1 0x40 MLOAD PUSH3 0x461BCD PUSH1 0xE5 SHL DUP2 MSTORE PUSH1 0x20 PUSH1 0x4 DUP3 ADD MSTORE PUSH1 0x10 PUSH1 0x24 DUP3 ADD MSTORE PUSH16 0x496E76616C696420646563696D616C73 PUSH1 0x80 SHL PUSH1 0x44 DUP3 ADD MSTORE PUSH1 0x64 SWAP1 REVERT JUMPDEST POP PUSH1 0x12 DUP2 GT ISZERO PUSH2 0x15B7 JUMP JUMPDEST POP PUSH1 0x20 DUP2 RETURNDATASIZE PUSH1 0x20 GT PUSH2 0x168D JUMPI JUMPDEST DUP2 PUSH2 0x1672 PUSH1 0x20 SWAP4 DUP4 PUSH2 0x22B2 JUMP JUMPDEST DUP2 ADD SUB SLT PUSH2 0x974 JUMPI MLOAD PUSH1 0xFF DUP2 AND DUP2 SUB PUSH2 0x974 JUMPI PUSH1 0xFF SWAP1 PUSH2 0x15A9 JUMP JUMPDEST RETURNDATASIZE SWAP2 POP PUSH2 0x1665 JUMP JUMPDEST PUSH1 0x40 MLOAD PUSH3 0x461BCD PUSH1 0xE5 SHL DUP2 MSTORE PUSH1 0x20 PUSH1 0x4 DUP3 ADD MSTORE PUSH1 0x12 PUSH1 0x24 DUP3 ADD MSTORE PUSH18 0x105B1C9958591E4818DBDB1B185D195C985B PUSH1 0x72 SHL PUSH1 0x44 DUP3 ADD MSTORE PUSH1 0x64 SWAP1 REVERT JUMPDEST PUSH1 0x40 MLOAD PUSH3 0x461BCD PUSH1 0xE5 SHL DUP2 MSTORE PUSH1 0x20 PUSH1 0x4 DUP3 ADD MSTORE PUSH1 0xD PUSH1 0x24 DUP3 ADD MSTORE PUSH13 0x24B73B30B634B2103A37B5B2B7 PUSH1 0x99 SHL PUSH1 0x44 DUP3 ADD MSTORE PUSH1 0x64 SWAP1 REVERT JUMPDEST POP CALLVALUE PUSH2 0x3B6 JUMPI PUSH1 0x60 CALLDATASIZE PUSH1 0x3 NOT ADD SLT PUSH2 0x3B6 JUMPI PUSH1 0x4 CALLDATALOAD PUSH1 0x24 CALLDATALOAD DUP1 ISZERO ISZERO SWAP1 DUP2 DUP2 SUB PUSH2 0x3B4 JUMPI PUSH1 0x44 CALLDATALOAD PUSH2 0x1732 PUSH2 0x24B1 JUMP JUMPDEST DUP1 ISZERO SWAP2 PUSH2 0x173F DUP4 ISZERO PUSH2 0x257B JUMP JUMPDEST DUP5 DUP7 MSTORE PUSH1 0x5 PUSH1 0x20 MSTORE PUSH1 0x40 DUP7 KECCAK256 SWAP2 PUSH1 0x40 MLOAD SWAP4 PUSH2 0x1759 DUP6 PUSH2 0x227F JUMP JUMPDEST PUSH2 0x17C6 PUSH1 0xFF DUP6 SLOAD AND ISZERO ISZERO DUP1 DUP8 MSTORE PUSH1 0x1 DUP7 ADD SLOAD PUSH1 0x20 DUP9 ADD MSTORE PUSH1 0x1 DUP1 PUSH1 0xA0 SHL SUB PUSH1 0x2 DUP8 ADD SLOAD AND SWAP7 PUSH1 0x40 DUP2 ADD SWAP8 DUP9 MSTORE PUSH1 0xE0 PUSH1 0x7 PUSH1 0x1 DUP1 PUSH1 0xA0 SHL SUB PUSH1 0x3 DUP11 ADD SLOAD AND SWAP9 PUSH1 0x60 DUP5 ADD SWAP10 DUP11 MSTORE PUSH1 0x4 DUP2 ADD SLOAD PUSH1 0x80 DUP6 ADD MSTORE PUSH1 0x5 DUP2 ADD SLOAD PUSH1 0xA0 DUP6 ADD MSTORE PUSH1 0x6 DUP2 ADD SLOAD PUSH1 0xC0 DUP6 ADD MSTORE ADD SLOAD SWAP2 ADD MSTORE PUSH2 0x24D3 JUMP JUMPDEST CALLER DUP9 MSTORE PUSH1 0x6 PUSH1 0x20 MSTORE PUSH1 0x40 DUP9 KECCAK256 DUP8 DUP10 MSTORE PUSH1 0x20 MSTORE PUSH1 0x40 DUP9 KECCAK256 DUP7 DUP10 MSTORE PUSH1 0x20 MSTORE PUSH1 0x40 DUP9 KECCAK256 SWAP3 PUSH2 0x17F4 PUSH1 0xFF DUP6 SLOAD AND PUSH2 0x246A JUMP JUMPDEST PUSH1 0x3 DUP5 ADD SWAP3 DUP4 SLOAD SWAP7 PUSH1 0x4 DUP7 ADD SWAP4 PUSH8 0xDE0B6B3A7640000 PUSH2 0x1815 DUP7 SLOAD DUP12 PUSH2 0x2511 JUMP JUMPDEST DIV SWAP1 DUP2 DUP5 GT PUSH2 0x1312 JUMPI PUSH8 0xDE0B6B3A7640000 DUP5 MUL SWAP1 DUP5 DUP3 DIV PUSH8 0xDE0B6B3A7640000 EQ OR ISZERO PUSH2 0x1A72 JUMPI PUSH2 0x185D PUSH2 0x1856 DUP15 SWAP6 SWAP5 SWAP4 PUSH8 0xDE0B6B3A7640000 SWAP4 PUSH2 0x2524 JUMP JUMPDEST DUP1 SWAP12 PUSH2 0x2511 JUMP JUMPDEST DIV SWAP8 DUP5 ISZERO PUSH2 0x1A10 JUMPI POP MLOAD PUSH1 0x1 PUSH1 0x1 PUSH1 0xA0 SHL SUB AND DUP1 EXTCODESIZE ISZERO PUSH2 0x974 JUMPI PUSH1 0x40 MLOAD PUSH4 0x2770A7EB PUSH1 0xE2 SHL DUP2 MSTORE CALLER PUSH1 0x4 DUP3 ADD MSTORE PUSH1 0x24 DUP2 ADD SWAP3 SWAP1 SWAP3 MSTORE DUP3 SWAP1 DUP3 SWAP1 PUSH1 0x44 SWAP1 DUP3 SWAP1 DUP5 SWAP1 GAS CALL DUP1 ISZERO PUSH2 0x969 JUMPI PUSH2 0x19F7 JUMPI JUMPDEST POP POP JUMPDEST PUSH1 0x40 MLOAD PUSH4 0x31D98B3F PUSH1 0xE0 SHL DUP2 MSTORE PUSH1 0x4 DUP2 ADD DUP10 SWAP1 MSTORE SWAP2 PUSH1 0x20 DUP4 PUSH1 0x24 DUP2 PUSH32 0x0 PUSH1 0x1 PUSH1 0x1 PUSH1 0xA0 SHL SUB AND GAS STATICCALL SWAP2 DUP3 ISZERO PUSH2 0xB44 JUMPI DUP11 SWAP3 PUSH2 0x19BB JUMPI JUMPDEST PUSH8 0xDE0B6B3A7640000 SWAP4 POP PUSH2 0x1918 DUP4 ISZERO ISZERO PUSH2 0x2544 JUMP JUMPDEST ISZERO PUSH2 0x19A6 JUMPI PUSH2 0x1932 SWAP2 PUSH2 0x192C SWAP2 SLOAD SWAP1 PUSH2 0x25B0 JUMP JUMPDEST DUP6 PUSH2 0x25C9 JUMP JUMPDEST SDIV SWAP4 JUMPDEST PUSH2 0x1952 PUSH1 0x5 DUP5 ADD SWAP2 PUSH8 0xDE0B6B3A7640000 PUSH2 0x1171 DUP5 SLOAD SWAP3 DUP4 PUSH2 0x2511 JUMP JUMPDEST SWAP1 SSTORE ISZERO PUSH2 0x1998 JUMPI JUMPDEST POP PUSH1 0x40 MLOAD SWAP3 DUP4 MSTORE PUSH1 0x20 DUP4 ADD MSTORE PUSH1 0x40 DUP3 ADD MSTORE PUSH32 0xF16C0216BCC5D9774E18F914D8B1E51775546C2F5A06EADD105F7E398BBC410F PUSH1 0x60 CALLER SWAP3 LOG3 PUSH1 0x1 DUP1 SSTORE DUP1 RETURN JUMPDEST DUP1 SLOAD PUSH1 0xFF NOT AND SWAP1 SSTORE CODESIZE PUSH2 0x195A JUMP JUMPDEST PUSH2 0x19B4 SWAP2 PUSH2 0x192C SWAP2 SLOAD PUSH2 0x25B0 JUMP JUMPDEST SDIV SWAP4 PUSH2 0x1935 JUMP JUMPDEST SWAP2 POP PUSH1 0x20 DUP4 RETURNDATASIZE PUSH1 0x20 GT PUSH2 0x19EF JUMPI JUMPDEST DUP2 PUSH2 0x19D6 PUSH1 0x20 SWAP4 DUP4 PUSH2 0x22B2 JUMP JUMPDEST DUP2 ADD SUB SLT PUSH2 0xB37 JUMPI PUSH8 0xDE0B6B3A7640000 SWAP3 MLOAD SWAP2 PUSH2 0x1902 JUMP JUMPDEST RETURNDATASIZE SWAP2 POP PUSH2 0x19C9 JUMP JUMPDEST DUP2 PUSH2 0x1A01 SWAP2 PUSH2 0x22B2 JUMP JUMPDEST PUSH2 0x1A0C JUMPI DUP9 CODESIZE PUSH2 0x18AA JUMP JUMPDEST DUP9 DUP1 REVERT JUMPDEST MLOAD PUSH1 0x1 PUSH1 0x1 PUSH1 0xA0 SHL SUB AND SWAP1 POP DUP1 EXTCODESIZE ISZERO PUSH2 0x974 JUMPI PUSH1 0x40 MLOAD PUSH4 0x2770A7EB PUSH1 0xE2 SHL DUP2 MSTORE CALLER PUSH1 0x4 DUP3 ADD MSTORE PUSH1 0x24 DUP2 ADD SWAP3 SWAP1 SWAP3 MSTORE DUP3 SWAP1 DUP3 SWAP1 PUSH1 0x44 SWAP1 DUP3 SWAP1 DUP5 SWAP1 GAS CALL DUP1 ISZERO PUSH2 0x969 JUMPI PUSH2 0x1A5D JUMPI JUMPDEST POP POP PUSH2 0x18AD JUMP JUMPDEST DUP2 PUSH2 0x1A67 SWAP2 PUSH2 0x22B2 JUMP JUMPDEST PUSH2 0x1A0C JUMPI DUP9 CODESIZE PUSH2 0x1A56 JUMP JUMPDEST PUSH4 0x4E487B71 PUSH1 0xE0 SHL DUP14 MSTORE PUSH1 0x11 PUSH1 0x4 MSTORE PUSH1 0x24 DUP14 REVERT JUMPDEST POP CALLVALUE PUSH2 0x3B6 JUMPI PUSH1 0x20 CALLDATASIZE PUSH1 0x3 NOT ADD SLT PUSH2 0x3B6 JUMPI PUSH1 0x20 SWAP1 PUSH1 0xFF SWAP1 PUSH1 0x40 SWAP1 PUSH1 0x1 PUSH1 0x1 PUSH1 0xA0 SHL SUB PUSH2 0x1AB1 PUSH2 0x21A4 JUMP JUMPDEST AND DUP2 MSTORE PUSH1 0x2 DUP5 MSTORE KECCAK256 SLOAD AND PUSH1 0x40 MLOAD SWAP1 ISZERO ISZERO DUP2 MSTORE RETURN JUMPDEST POP CALLVALUE PUSH2 0x3B6 JUMPI PUSH1 0x40 CALLDATASIZE PUSH1 0x3 NOT ADD SLT PUSH2 0x3B6 JUMPI PUSH1 0x40 PUSH2 0x1AE1 PUSH2 0x21A4 JUMP JUMPDEST SWAP2 PUSH2 0x1AEA PUSH2 0x218E JUMP JUMPDEST SWAP3 PUSH1 0x1 DUP1 PUSH1 0xA0 SHL SUB AND DUP2 MSTORE PUSH1 0x4 PUSH1 0x20 MSTORE KECCAK256 SWAP1 PUSH1 0x1 DUP1 PUSH1 0xA0 SHL SUB AND PUSH1 0x0 MSTORE PUSH1 0x20 MSTORE PUSH1 0x20 PUSH1 0x40 PUSH1 0x0 KECCAK256 SLOAD PUSH1 0x40 MLOAD SWAP1 DUP2 MSTORE RETURN JUMPDEST POP CALLVALUE PUSH2 0x3B6 JUMPI PUSH1 0x40 CALLDATASIZE PUSH1 0x3 NOT ADD SLT PUSH2 0x3B6 JUMPI PUSH2 0x1B34 PUSH2 0x21A4 JUMP JUMPDEST PUSH1 0x24 CALLDATALOAD SWAP1 PUSH2 0x1B40 PUSH2 0x24B1 JUMP JUMPDEST PUSH1 0x1 PUSH1 0x1 PUSH1 0xA0 SHL SUB AND DUP1 DUP4 MSTORE PUSH1 0x2 PUSH1 0x20 MSTORE PUSH1 0x40 DUP4 KECCAK256 SLOAD SWAP1 SWAP2 SWAP1 PUSH2 0x1B65 SWAP1 PUSH1 0xFF AND PUSH2 0x21E8 JUMP JUMPDEST PUSH2 0x1B70 DUP2 ISZERO ISZERO PUSH2 0x2225 JUMP JUMPDEST CALLER DUP4 MSTORE PUSH1 0x4 PUSH1 0x20 MSTORE PUSH1 0x40 DUP4 KECCAK256 DUP3 PUSH1 0x0 MSTORE PUSH1 0x20 MSTORE PUSH1 0x40 PUSH1 0x0 KECCAK256 SLOAD DUP2 DUP2 LT PUSH2 0x1C25 JUMPI DUP2 PUSH2 0x1B9A SWAP2 PUSH2 0x225C JUMP JUMPDEST CALLER DUP1 DUP6 MSTORE PUSH1 0x4 PUSH1 0x20 DUP2 DUP2 MSTORE PUSH1 0x40 DUP1 DUP9 KECCAK256 PUSH1 0x0 DUP9 DUP2 MSTORE SWAP1 DUP4 MSTORE DUP2 SWAP1 KECCAK256 SWAP5 SWAP1 SWAP5 SSTORE SWAP3 MLOAD PUSH4 0xA9059CBB PUSH1 0xE0 SHL DUP2 MSTORE SWAP1 DUP2 ADD SWAP2 SWAP1 SWAP2 MSTORE PUSH1 0x24 DUP2 ADD DUP4 SWAP1 MSTORE SWAP1 DUP2 PUSH1 0x44 DUP2 DUP8 DUP8 GAS CALL DUP1 ISZERO PUSH2 0xD54 JUMPI PUSH2 0x1BF2 SWAP2 DUP6 SWAP2 PUSH2 0xBB0 JUMPI POP PUSH2 0x22EC JUMP JUMPDEST PUSH1 0x40 MLOAD SWAP1 DUP2 MSTORE PUSH32 0x45892A46E6CEF329BB642DA6D69846D324DB43D19008EDC141ED82382EDA1BEE PUSH1 0x20 CALLER SWAP3 LOG3 PUSH1 0x1 DUP1 SSTORE DUP1 RETURN JUMPDEST PUSH1 0x40 MLOAD PUSH3 0x461BCD PUSH1 0xE5 SHL DUP2 MSTORE PUSH1 0x20 PUSH1 0x4 DUP3 ADD MSTORE PUSH1 0x17 PUSH1 0x24 DUP3 ADD MSTORE PUSH32 0x496E73756666696369656E7420636F6C6C61746572616C000000000000000000 PUSH1 0x44 DUP3 ADD MSTORE PUSH1 0x64 SWAP1 REVERT JUMPDEST POP CALLVALUE PUSH2 0x3B6 JUMPI DUP1 PUSH1 0x3 NOT CALLDATASIZE ADD SLT PUSH2 0x3B6 JUMPI PUSH1 0x40 MLOAD PUSH32 0x0 PUSH1 0x1 PUSH1 0x1 PUSH1 0xA0 SHL SUB AND DUP2 MSTORE PUSH1 0x20 SWAP1 RETURN JUMPDEST POP CALLVALUE PUSH2 0x3B6 JUMPI PUSH1 0x40 CALLDATASIZE PUSH1 0x3 NOT ADD SLT PUSH2 0x3B6 JUMPI PUSH1 0x20 SWAP1 PUSH1 0xFF SWAP1 PUSH1 0x40 SWAP1 PUSH1 0x1 PUSH1 0x1 PUSH1 0xA0 SHL SUB PUSH2 0x1CDA PUSH2 0x21A4 JUMP JUMPDEST AND DUP2 MSTORE PUSH1 0x7 DUP5 MSTORE DUP2 DUP2 KECCAK256 PUSH1 0x24 CALLDATALOAD DUP3 MSTORE DUP5 MSTORE KECCAK256 SLOAD AND PUSH1 0x40 MLOAD SWAP1 ISZERO ISZERO DUP2 MSTORE RETURN JUMPDEST POP CALLVALUE PUSH2 0x3B6 JUMPI PUSH2 0x160 CALLDATASIZE PUSH1 0x3 NOT ADD SLT PUSH2 0x3B6 JUMPI PUSH1 0x4 CALLDATALOAD PUSH2 0x1D16 PUSH2 0x218E JUMP JUMPDEST PUSH1 0x44 CALLDATALOAD SWAP1 PUSH1 0xE0 CALLDATASIZE PUSH1 0x63 NOT ADD SLT PUSH2 0x3B4 JUMPI PUSH2 0x144 CALLDATALOAD PUSH8 0xFFFFFFFFFFFFFFFF DUP2 GT PUSH2 0x965 JUMPI PUSH2 0x1D47 SWAP1 CALLDATASIZE SWAP1 PUSH1 0x4 ADD PUSH2 0x21BA JUMP JUMPDEST PUSH2 0x1D52 SWAP3 SWAP2 SWAP3 PUSH2 0x24B1 JUMP JUMPDEST DUP5 DUP7 MSTORE PUSH1 0x5 PUSH1 0x20 MSTORE PUSH1 0x40 DUP7 KECCAK256 PUSH1 0x40 MLOAD SWAP5 PUSH2 0x1D6B DUP7 PUSH2 0x227F JUMP JUMPDEST DUP2 SLOAD PUSH1 0xFF AND ISZERO ISZERO DUP1 DUP8 MSTORE PUSH1 0x1 DUP4 ADD SLOAD PUSH1 0x20 DUP9 ADD MSTORE PUSH1 0x2 DUP4 ADD SLOAD PUSH1 0x1 PUSH1 0x1 PUSH1 0xA0 SHL SUB SWAP1 DUP2 AND PUSH1 0x40 DUP10 ADD MSTORE PUSH1 0x3 DUP5 ADD SLOAD AND PUSH1 0x60 DUP9 ADD SWAP1 DUP2 MSTORE PUSH1 0x4 DUP5 ADD SLOAD PUSH1 0x80 DUP10 ADD SWAP1 DUP2 MSTORE PUSH1 0x5 DUP6 ADD SLOAD PUSH1 0xA0 DUP11 ADD MSTORE PUSH1 0x6 DUP6 ADD SLOAD PUSH1 0xC0 DUP11 ADD SWAP1 DUP2 MSTORE PUSH1 0x7 SWAP1 SWAP6 ADD SLOAD PUSH1 0xE0 SWAP1 SWAP10 ADD SWAP9 DUP10 MSTORE SWAP1 SWAP6 SWAP1 SWAP3 SWAP2 PUSH2 0x1DDF SWAP1 PUSH2 0x24D3 JUMP JUMPDEST PUSH1 0x1 PUSH1 0x1 PUSH1 0xA0 SHL SUB AND DUP1 DUP11 MSTORE PUSH1 0x2 PUSH1 0x20 MSTORE PUSH1 0x40 DUP11 KECCAK256 SLOAD SWAP1 SWAP3 SWAP1 PUSH2 0x1E04 SWAP1 PUSH1 0xFF AND PUSH2 0x21E8 JUMP JUMPDEST DUP2 ISZERO PUSH2 0xC2E JUMPI MLOAD PUSH8 0xDE0B6B3A7640000 GT PUSH2 0xBEA JUMPI PUSH1 0x40 MLOAD PUSH4 0x23B872DD PUSH1 0xE0 SHL DUP2 MSTORE CALLER PUSH1 0x4 DUP3 ADD MSTORE ADDRESS PUSH1 0x24 DUP3 ADD MSTORE PUSH1 0x44 DUP2 ADD DUP3 SWAP1 MSTORE SWAP2 PUSH1 0x20 DUP4 PUSH1 0x64 DUP2 DUP14 DUP6 GAS CALL SWAP3 DUP4 ISZERO PUSH2 0xB44 JUMPI PUSH2 0x1E97 SWAP4 PUSH2 0x1E5F SWAP2 DUP13 SWAP2 PUSH2 0xBB0 JUMPI POP PUSH2 0x22EC JUMP JUMPDEST CALLER DUP11 MSTORE PUSH1 0x4 PUSH1 0x20 MSTORE PUSH1 0x40 DUP11 KECCAK256 DUP2 DUP12 MSTORE PUSH1 0x20 MSTORE PUSH1 0x40 DUP11 KECCAK256 PUSH2 0x1E80 DUP4 DUP3 SLOAD PUSH2 0x24A4 JUMP JUMPDEST SWAP1 SSTORE DUP10 MSTORE PUSH1 0x3 PUSH1 0x20 MSTORE PUSH1 0xFF PUSH1 0x40 DUP11 KECCAK256 SLOAD AND SWAP1 PUSH2 0x2626 JUMP JUMPDEST SWAP3 PUSH8 0xDE0B6B3A7640000 SWAP5 DUP6 DUP6 MUL DUP6 DUP2 DIV DUP8 EQ DUP7 ISZERO OR ISZERO PUSH2 0x217A JUMPI DUP7 SWAP1 DIV SWAP3 DUP1 MLOAD PUSH2 0x214F JUMPI JUMPDEST POP PUSH1 0x40 MLOAD PUSH4 0x31D98B3F PUSH1 0xE0 SHL DUP2 MSTORE PUSH1 0x4 DUP2 ADD DUP10 SWAP1 MSTORE SWAP5 PUSH1 0x20 DUP7 PUSH1 0x24 DUP2 PUSH32 0x0 PUSH1 0x1 PUSH1 0x1 PUSH1 0xA0 SHL SUB AND GAS STATICCALL SWAP6 DUP7 ISZERO PUSH2 0xB44 JUMPI DUP11 SWAP7 PUSH2 0x2117 JUMPI JUMPDEST POP PUSH2 0x1F1F DUP7 ISZERO ISZERO PUSH2 0x2544 JUMP JUMPDEST DUP7 DUP5 MUL DUP5 DUP2 DIV DUP9 EQ DUP6 ISZERO OR ISZERO PUSH2 0xAF7 JUMPI SWAP1 PUSH2 0x2710 PUSH2 0x70D PUSH2 0x6FA DUP10 PUSH2 0x1F43 SWAP6 PUSH2 0x2524 JUMP JUMPDEST SWAP5 DUP6 ISZERO PUSH2 0xAC1 JUMPI CALLER DUP11 MSTORE PUSH1 0x6 PUSH1 0x20 MSTORE PUSH1 0x40 DUP11 KECCAK256 DUP10 DUP12 MSTORE PUSH1 0x20 MSTORE PUSH1 0x40 DUP11 KECCAK256 DUP11 DUP1 MSTORE PUSH1 0x20 MSTORE PUSH1 0x40 DUP11 KECCAK256 DUP1 SLOAD SWAP1 PUSH1 0xFF DUP3 AND PUSH2 0xA8A JUMPI DUP9 SWAP3 PUSH1 0x1 PUSH1 0x6 SWAP4 PUSH1 0xFF NOT AND OR DUP3 SSTORE DUP12 PUSH1 0x1 DUP4 ADD SSTORE PUSH1 0x2 DUP3 ADD PUSH1 0xFF NOT DUP2 SLOAD AND SWAP1 SSTORE DUP11 PUSH1 0x3 DUP4 ADD SSTORE PUSH1 0x4 DUP3 ADD SSTORE DUP8 PUSH1 0x5 DUP3 ADD SSTORE ADD SSTORE PUSH1 0x64 CALLDATALOAD SWAP4 PUSH1 0x1 DUP1 PUSH1 0xA0 SHL SUB DUP6 AND DUP1 DUP7 SUB PUSH2 0xA86 JUMPI CALLER SUB PUSH2 0xA53 JUMPI PUSH1 0x84 CALLDATALOAD SWAP5 DUP10 DUP7 SUB PUSH2 0xA1F JUMPI PUSH1 0xA4 CALLDATALOAD DUP1 ISZERO ISZERO DUP1 DUP3 SUB PUSH2 0xA1B JUMPI PUSH2 0x9EB JUMPI PUSH1 0xC4 CALLDATALOAD SWAP3 DUP7 DUP5 GT PUSH2 0x9B5 JUMPI PUSH2 0x104 CALLDATALOAD TIMESTAMP DUP2 LT PUSH2 0x978 JUMPI DUP14 SWAP9 PUSH2 0x204C SWAP6 PUSH2 0x834 PUSH2 0x889 SWAP6 PUSH2 0x826 DUP14 PUSH2 0x883 SWAP7 PUSH2 0x892 SWAP11 CALLER DUP4 MSTORE PUSH1 0x7 PUSH1 0x20 MSTORE PUSH1 0x40 DUP4 KECCAK256 SWAP3 PUSH2 0x124 CALLDATALOAD SWAP4 DUP5 DUP3 MSTORE PUSH1 0x20 MSTORE PUSH2 0x2036 PUSH1 0xFF PUSH1 0x40 DUP4 KECCAK256 SLOAD AND ISZERO PUSH2 0x2340 JUMP JUMPDEST POP PUSH1 0x40 MLOAD SWAP7 DUP8 SWAP6 PUSH1 0x20 DUP8 ADD SWAP10 PUSH1 0xE4 CALLDATALOAD SWAP4 DUP12 PUSH2 0x2388 JUMP JUMPDEST CALLER DUP5 MSTORE PUSH1 0x6 PUSH1 0x20 SWAP1 DUP2 MSTORE PUSH1 0x40 DUP1 DUP7 KECCAK256 DUP11 DUP8 MSTORE DUP3 MSTORE DUP1 DUP7 KECCAK256 DUP7 DUP1 MSTORE SWAP1 SWAP2 MSTORE DUP5 KECCAK256 PUSH1 0x7 ADD SSTORE MLOAD PUSH1 0x1 PUSH1 0x1 PUSH1 0xA0 SHL SUB AND SWAP1 DUP2 EXTCODESIZE ISZERO PUSH2 0x974 JUMPI PUSH1 0x40 MLOAD PUSH4 0x40C10F19 PUSH1 0xE0 SHL DUP2 MSTORE CALLER PUSH1 0x4 DUP3 ADD MSTORE PUSH1 0x24 DUP2 ADD SWAP2 SWAP1 SWAP2 MSTORE SWAP2 SWAP1 DUP3 SWAP1 PUSH1 0x44 SWAP1 DUP3 SWAP1 DUP5 SWAP1 GAS CALL DUP1 ISZERO PUSH2 0x210C JUMPI PUSH2 0x20F8 JUMPI JUMPDEST POP PUSH1 0x40 MLOAD SWAP3 DUP6 DUP5 MSTORE PUSH1 0x20 DUP5 ADD MSTORE PUSH1 0x40 DUP4 ADD MSTORE PUSH1 0x60 DUP3 ADD MSTORE PUSH32 0x3B42D27F70AD0FDD7EEB05C9A1716722579DC5CD8A7F7C3D405751B15CA7DD62 PUSH1 0x80 CALLER SWAP3 LOG3 PUSH1 0x1 DUP1 SSTORE DUP1 RETURN JUMPDEST DUP6 PUSH2 0x2105 SWAP2 SWAP7 SWAP3 SWAP7 PUSH2 0x22B2 JUMP JUMPDEST SWAP4 CODESIZE PUSH2 0x20B4 JUMP JUMPDEST PUSH1 0x40 MLOAD RETURNDATASIZE DUP9 DUP3 RETURNDATACOPY RETURNDATASIZE SWAP1 REVERT JUMPDEST SWAP1 SWAP6 POP PUSH1 0x20 DUP2 RETURNDATASIZE PUSH1 0x20 GT PUSH2 0x2147 JUMPI JUMPDEST DUP2 PUSH2 0x2133 PUSH1 0x20 SWAP4 DUP4 PUSH2 0x22B2 JUMP JUMPDEST DUP2 ADD SUB SLT PUSH2 0x2143 JUMPI MLOAD SWAP5 CODESIZE PUSH2 0x1F13 JUMP JUMPDEST DUP10 DUP1 REVERT JUMPDEST RETURNDATASIZE SWAP2 POP PUSH2 0x2126 JUMP JUMPDEST PUSH2 0x2710 DUP7 MUL SWAP1 DUP7 DUP3 DIV PUSH2 0x2710 EQ DUP8 ISZERO OR ISZERO PUSH2 0xAF7 JUMPI PUSH2 0x216F SWAP1 MLOAD DUP6 PUSH2 0x2511 JUMP JUMPDEST GT PUSH2 0xB7A JUMPI CODESIZE PUSH2 0x1EBD JUMP JUMPDEST PUSH4 0x4E487B71 PUSH1 0xE0 SHL DUP11 MSTORE PUSH1 0x11 PUSH1 0x4 MSTORE PUSH1 0x24 DUP11 REVERT JUMPDEST PUSH1 0x24 CALLDATALOAD SWAP1 PUSH1 0x1 PUSH1 0x1 PUSH1 0xA0 SHL SUB DUP3 AND DUP3 SUB PUSH2 0xB37 JUMPI JUMP JUMPDEST PUSH1 0x4 CALLDATALOAD SWAP1 PUSH1 0x1 PUSH1 0x1 PUSH1 0xA0 SHL SUB DUP3 AND DUP3 SUB PUSH2 0xB37 JUMPI JUMP JUMPDEST SWAP2 DUP2 PUSH1 0x1F DUP5 ADD SLT ISZERO PUSH2 0xB37 JUMPI DUP3 CALLDATALOAD SWAP2 PUSH8 0xFFFFFFFFFFFFFFFF DUP4 GT PUSH2 0xB37 JUMPI PUSH1 0x20 DUP4 DUP2 DUP7 ADD SWAP6 ADD ADD GT PUSH2 0xB37 JUMPI JUMP JUMPDEST ISZERO PUSH2 0x21EF JUMPI JUMP JUMPDEST PUSH1 0x40 MLOAD PUSH3 0x461BCD PUSH1 0xE5 SHL DUP2 MSTORE PUSH1 0x20 PUSH1 0x4 DUP3 ADD MSTORE PUSH1 0xE PUSH1 0x24 DUP3 ADD MSTORE PUSH14 0x139BDD0818DBDB1B185D195C985B PUSH1 0x92 SHL PUSH1 0x44 DUP3 ADD MSTORE PUSH1 0x64 SWAP1 REVERT JUMPDEST ISZERO PUSH2 0x222C JUMPI JUMP JUMPDEST PUSH1 0x40 MLOAD PUSH3 0x461BCD PUSH1 0xE5 SHL DUP2 MSTORE PUSH1 0x20 PUSH1 0x4 DUP3 ADD MSTORE PUSH1 0x8 PUSH1 0x24 DUP3 ADD MSTORE PUSH8 0x416D6F756E743D3 PUSH1 0xC4 SHL PUSH1 0x44 DUP3 ADD MSTORE PUSH1 0x64 SWAP1 REVERT JUMPDEST SWAP2 SWAP1 DUP3 SUB SWAP2 DUP3 GT PUSH2 0x2269 JUMPI JUMP JUMPDEST PUSH4 0x4E487B71 PUSH1 0xE0 SHL PUSH1 0x0 MSTORE PUSH1 0x11 PUSH1 0x4 MSTORE PUSH1 0x24 PUSH1 0x0 REVERT JUMPDEST PUSH2 0x100 DUP2 ADD SWAP1 DUP2 LT PUSH8 0xFFFFFFFFFFFFFFFF DUP3 GT OR PUSH2 0x229C JUMPI PUSH1 0x40 MSTORE JUMP JUMPDEST PUSH4 0x4E487B71 PUSH1 0xE0 SHL PUSH1 0x0 MSTORE PUSH1 0x41 PUSH1 0x4 MSTORE PUSH1 0x24 PUSH1 0x0 REVERT JUMPDEST SWAP1 PUSH1 0x1F DUP1 NOT SWAP2 ADD AND DUP2 ADD SWAP1 DUP2 LT PUSH8 0xFFFFFFFFFFFFFFFF DUP3 GT OR PUSH2 0x229C JUMPI PUSH1 0x40 MSTORE JUMP JUMPDEST SWAP1 DUP2 PUSH1 0x20 SWAP2 SUB SLT PUSH2 0xB37 JUMPI MLOAD DUP1 ISZERO ISZERO DUP2 SUB PUSH2 0xB37 JUMPI SWAP1 JUMP JUMPDEST ISZERO PUSH2 0x22F3 JUMPI JUMP JUMPDEST PUSH1 0x40 MLOAD PUSH3 0x461BCD PUSH1 0xE5 SHL DUP2 MSTORE PUSH1 0x20 PUSH1 0x4 DUP3 ADD MSTORE PUSH1 0xF PUSH1 0x24 DUP3 ADD MSTORE PUSH15 0x151C985B9CD9995C8819985A5B1959 PUSH1 0x8A SHL PUSH1 0x44 DUP3 ADD MSTORE PUSH1 0x64 SWAP1 REVERT JUMPDEST PUSH1 0x4 CALLDATALOAD PUSH1 0x1 PUSH1 0x1 PUSH1 0xA0 SHL SUB DUP2 AND DUP2 SUB PUSH2 0xB37 JUMPI SWAP1 JUMP JUMPDEST ISZERO PUSH2 0x2347 JUMPI JUMP JUMPDEST PUSH1 0x40 MLOAD PUSH3 0x461BCD PUSH1 0xE5 SHL DUP2 MSTORE PUSH1 0x20 PUSH1 0x4 DUP3 ADD MSTORE PUSH1 0xA PUSH1 0x24 DUP3 ADD MSTORE PUSH10 0x139BDB98D9481D5CD959 PUSH1 0xB2 SHL PUSH1 0x44 DUP3 ADD MSTORE PUSH1 0x64 SWAP1 REVERT JUMPDEST PUSH1 0x44 CALLDATALOAD DUP1 ISZERO ISZERO DUP2 SUB PUSH2 0xB37 JUMPI SWAP1 JUMP JUMPDEST SWAP4 SWAP1 SWAP8 SWAP7 SWAP6 SWAP3 PUSH1 0xE0 SWAP6 SWAP3 PUSH2 0x100 DUP7 ADD SWAP10 PUSH32 0x7D0D6D6052CDAC14D130981EE83F7F07AA261F2CA2C69409944D1BFC9AD72641 DUP8 MSTORE PUSH1 0x1 DUP1 PUSH1 0xA0 SHL SUB AND PUSH1 0x20 DUP8 ADD MSTORE PUSH1 0x40 DUP7 ADD MSTORE ISZERO ISZERO PUSH1 0x60 DUP6 ADD MSTORE PUSH1 0x80 DUP5 ADD MSTORE PUSH1 0xA0 DUP4 ADD MSTORE PUSH1 0xC0 DUP3 ADD MSTORE ADD MSTORE JUMP JUMPDEST SWAP3 SWAP2 SWAP3 PUSH8 0xFFFFFFFFFFFFFFFF DUP3 GT PUSH2 0x229C JUMPI PUSH1 0x40 MLOAD SWAP2 PUSH2 0x2411 PUSH1 0x1F DUP3 ADD PUSH1 0x1F NOT AND PUSH1 0x20 ADD DUP5 PUSH2 0x22B2 JUMP JUMPDEST DUP3 SWAP5 DUP2 DUP5 MSTORE DUP2 DUP4 ADD GT PUSH2 0xB37 JUMPI DUP3 DUP2 PUSH1 0x20 SWAP4 DUP5 PUSH1 0x0 SWAP7 ADD CALLDATACOPY ADD ADD MSTORE JUMP JUMPDEST ISZERO PUSH2 0x2435 JUMPI JUMP JUMPDEST PUSH1 0x40 MLOAD PUSH3 0x461BCD PUSH1 0xE5 SHL DUP2 MSTORE PUSH1 0x20 PUSH1 0x4 DUP3 ADD MSTORE PUSH1 0xD PUSH1 0x24 DUP3 ADD MSTORE PUSH13 0x426164207369676E6174757265 PUSH1 0x98 SHL PUSH1 0x44 DUP3 ADD MSTORE PUSH1 0x64 SWAP1 REVERT JUMPDEST ISZERO PUSH2 0x2471 JUMPI JUMP JUMPDEST PUSH1 0x40 MLOAD PUSH3 0x461BCD PUSH1 0xE5 SHL DUP2 MSTORE PUSH1 0x20 PUSH1 0x4 DUP3 ADD MSTORE PUSH1 0xB PUSH1 0x24 DUP3 ADD MSTORE PUSH11 0x2737903837B9B4BA34B7B7 PUSH1 0xA9 SHL PUSH1 0x44 DUP3 ADD MSTORE PUSH1 0x64 SWAP1 REVERT JUMPDEST SWAP2 SWAP1 DUP3 ADD DUP1 SWAP3 GT PUSH2 0x2269 JUMPI JUMP JUMPDEST PUSH1 0x2 PUSH1 0x1 SLOAD EQ PUSH2 0x24C2 JUMPI PUSH1 0x2 PUSH1 0x1 SSTORE JUMP JUMPDEST PUSH4 0x3EE5AEB5 PUSH1 0xE0 SHL PUSH1 0x0 MSTORE PUSH1 0x4 PUSH1 0x0 REVERT JUMPDEST ISZERO PUSH2 0x24DA JUMPI JUMP JUMPDEST PUSH1 0x40 MLOAD PUSH3 0x461BCD PUSH1 0xE5 SHL DUP2 MSTORE PUSH1 0x20 PUSH1 0x4 DUP3 ADD MSTORE PUSH1 0xF PUSH1 0x24 DUP3 ADD MSTORE PUSH15 0x4D61726B657420696E616374697665 PUSH1 0x88 SHL PUSH1 0x44 DUP3 ADD MSTORE PUSH1 0x64 SWAP1 REVERT JUMPDEST DUP2 DUP2 MUL SWAP3 SWAP2 DUP2 ISZERO SWAP2 DUP5 DIV EQ OR ISZERO PUSH2 0x2269 JUMPI JUMP JUMPDEST DUP2 ISZERO PUSH2 0x252E JUMPI DIV SWAP1 JUMP JUMPDEST PUSH4 0x4E487B71 PUSH1 0xE0 SHL PUSH1 0x0 MSTORE PUSH1 0x12 PUSH1 0x4 MSTORE PUSH1 0x24 PUSH1 0x0 REVERT JUMPDEST ISZERO PUSH2 0x254B JUMPI JUMP JUMPDEST PUSH1 0x40 MLOAD PUSH3 0x461BCD PUSH1 0xE5 SHL DUP2 MSTORE PUSH1 0x20 PUSH1 0x4 DUP3 ADD MSTORE PUSH1 0x8 PUSH1 0x24 DUP3 ADD MSTORE PUSH8 0x4E6F207072696365 PUSH1 0xC0 SHL PUSH1 0x44 DUP3 ADD MSTORE PUSH1 0x64 SWAP1 REVERT JUMPDEST ISZERO PUSH2 0x2582 JUMPI JUMP JUMPDEST PUSH1 0x40 MLOAD PUSH3 0x461BCD PUSH1 0xE5 SHL DUP2 MSTORE PUSH1 0x20 PUSH1 0x4 DUP3 ADD MSTORE PUSH1 0x6 PUSH1 0x24 DUP3 ADD MSTORE PUSH6 0x53697A653D3 PUSH1 0xD4 SHL PUSH1 0x44 DUP3 ADD MSTORE PUSH1 0x64 SWAP1 REVERT JUMPDEST DUP2 DUP2 SUB SWAP3 SWAP2 PUSH1 0x0 SGT DUP1 ISZERO DUP3 DUP6 SGT AND SWAP2 DUP5 SLT AND OR PUSH2 0x2269 JUMPI JUMP JUMPDEST DUP2 DUP2 MUL SWAP3 SWAP2 PUSH1 0x0 DUP3 SLT PUSH1 0x1 PUSH1 0xFF SHL DUP3 EQ AND PUSH2 0x2269 JUMPI DUP2 DUP5 SDIV EQ SWAP1 ISZERO OR ISZERO PUSH2 0x2269 JUMPI JUMP JUMPDEST PUSH1 0x0 SLOAD PUSH1 0x1 PUSH1 0x1 PUSH1 0xA0 SHL SUB AND CALLER SUB PUSH2 0x2600 JUMPI JUMP JUMPDEST PUSH4 0x118CDAA7 PUSH1 0xE0 SHL PUSH1 0x0 MSTORE CALLER PUSH1 0x4 MSTORE PUSH1 0x24 PUSH1 0x0 REVERT JUMPDEST PUSH1 0xFF AND PUSH1 0x4D DUP2 GT PUSH2 0x2269 JUMPI PUSH1 0xA EXP SWAP1 JUMP JUMPDEST SWAP1 PUSH1 0xFF AND PUSH1 0x12 DUP2 SUB PUSH2 0x2636 JUMPI POP SWAP1 JUMP JUMPDEST PUSH1 0x12 DUP2 LT ISZERO PUSH2 0x2660 JUMPI PUSH1 0x12 SUB SWAP1 PUSH1 0xFF DUP3 GT PUSH2 0x2269 JUMPI PUSH2 0x2657 PUSH2 0x265D SWAP3 PUSH2 0x2615 JUMP JUMPDEST SWAP1 PUSH2 0x2511 JUMP JUMPDEST SWAP1 JUMP JUMPDEST PUSH1 0x11 NOT ADD SWAP1 PUSH1 0xFF DUP3 GT PUSH2 0x2269 JUMPI PUSH2 0x2679 PUSH2 0x265D SWAP3 PUSH2 0x2615 JUMP JUMPDEST SWAP1 PUSH2 0x2524 JUMP JUMPDEST DUP2 MLOAD SWAP2 SWAP1 PUSH1 0x41 DUP4 SUB PUSH2 0x26B0 JUMPI PUSH2 0x26A9 SWAP3 POP PUSH1 0x20 DUP3 ADD MLOAD SWAP1 PUSH1 0x60 PUSH1 0x40 DUP5 ADD MLOAD SWAP4 ADD MLOAD PUSH1 0x0 BYTE SWAP1 PUSH2 0x2743 JUMP JUMPDEST SWAP2 SWAP3 SWAP1 SWAP2 SWAP1 JUMP JUMPDEST POP POP PUSH1 0x0 SWAP2 PUSH1 0x2 SWAP2 SWAP1 JUMP JUMPDEST SWAP2 SWAP1 SWAP2 PUSH1 0x4 DUP2 LT ISZERO PUSH2 0x272D JUMPI DUP1 PUSH2 0x26D1 JUMPI POP SWAP1 POP JUMP JUMPDEST PUSH1 0x0 PUSH1 0x1 DUP3 SUB PUSH2 0x26EC JUMPI PUSH4 0xF645EEDF PUSH1 0xE0 SHL PUSH1 0x0 MSTORE PUSH1 0x4 PUSH1 0x0 REVERT JUMPDEST POP PUSH1 0x2 DUP2 SUB PUSH2 0x270A JUMPI DUP3 PUSH4 0xFCE698F7 PUSH1 0xE0 SHL PUSH1 0x0 MSTORE PUSH1 0x4 MSTORE PUSH1 0x24 PUSH1 0x0 REVERT JUMPDEST SWAP1 SWAP2 PUSH1 0x3 PUSH1 0x0 SWAP3 EQ PUSH2 0x271A JUMPI POP POP JUMP JUMPDEST PUSH4 0x35E2F383 PUSH1 0xE2 SHL DUP3 MSTORE PUSH1 0x4 MSTORE PUSH1 0x24 SWAP2 POP REVERT JUMPDEST PUSH4 0x4E487B71 PUSH1 0xE0 SHL PUSH1 0x0 MSTORE PUSH1 0x21 PUSH1 0x4 MSTORE PUSH1 0x24 PUSH1 0x0 REVERT JUMPDEST SWAP2 SWAP1 PUSH32 0x7FFFFFFFFFFFFFFFFFFFFFFFFFFFFFFF5D576E7357A4501DDFE92F46681B20A0 DUP5 GT PUSH2 0x27CC JUMPI SWAP2 PUSH1 0x20 SWAP4 PUSH1 0x80 SWAP3 PUSH1 0xFF PUSH1 0x0 SWAP6 PUSH1 0x40 MLOAD SWAP5 DUP6 MSTORE AND DUP7 DUP5 ADD MSTORE PUSH1 0x40 DUP4 ADD MSTORE PUSH1 0x60 DUP3 ADD MSTORE DUP3 DUP1 MSTORE PUSH1 0x1 GAS STATICCALL ISZERO PUSH2 0x27C0 JUMPI PUSH1 0x0 MLOAD PUSH1 0x1 PUSH1 0x1 PUSH1 0xA0 SHL SUB DUP2 AND ISZERO PUSH2 0x27B4 JUMPI SWAP1 PUSH1 0x0 SWAP1 PUSH1 0x0 SWAP1 JUMP JUMPDEST POP PUSH1 0x0 SWAP1 PUSH1 0x1 SWAP1 PUSH1 0x0 SWAP1 JUMP JUMPDEST PUSH1 0x40 MLOAD RETURNDATASIZE PUSH1 0x0 DUP3 RETURNDATACOPY RETURNDATASIZE SWAP1 REVERT JUMPDEST POP POP POP PUSH1 0x0 SWAP2 PUSH1 0x3 SWAP2 SWAP1 JUMP INVALID LOG2 PUSH5 0x6970667358 0x22 SLT KECCAK256 LOG4 0xB0 PUSH12 0x70C5A5E962C1D65ADB9AA042 DUP15 0xEF EXP 0xD4 0xE TSTORE PUSH16 0x2826F51BF66A47DCEE8A64736F6C6343 STOP ADDMOD SHL STOP CALLER "},"methodIdentifiers":{"BPS_DENOMINATOR()":"e1a45218","closePosition(bytes32,bool,uint256)":"4d1a6265","collateralBalances(address,address)":"39ecf9ba","collateralDecimals(address)":"f1ae3c7f","depositCollateral(address,uint256)":"a5d5db0c","executePreSignedClose((address,bytes32,bool,uint256,uint256,uint256,uint256),bytes)":"84c55a58","isCollateralToken(address)":"4766162c","markets(bytes32)":"7564912b","openLong(bytes32,address,uint256,uint256,(address,bytes32,bool,uint256,uint256,uint256,uint256),bytes)":"a6ee73fb","openShortCashSecured(bytes32,address,uint256,(address,bytes32,bool,uint256,uint256,uint256,uint256),bytes)":"00d615f3","owner()":"8da5cb5b","positions(address,bytes32,bool)":"74d3be02","priceOracle()":"2630c12f","registerCollateralToken(address)":"52dcc833","registerMarket(bytes32,address,address,uint256,uint256,uint256,uint256)":"fec60957","renounceOwnership()":"715018a6","transferOwnership(address)":"f2fde38b","usedCloseNonces(address,uint256)":"0e453f64","withdrawCollateral(address,uint256)":"350c35e9"}},"storageLayout":{"storage":[{"astId":8,"contract":"contracts/FxVault.sol:FxVault","label":"_owner","offset":0,"slot":"0","type":"t_address"},{"astId":1498,"contract":"contracts/FxVault.sol:FxVault","label":"_status","offset":0,"slot":"1","type":"t_uint256"},{"astId":2444,"contract":"contracts/FxVault.sol:FxVault","label":"isCollateralToken","offset":0,"slot":"2","type":"t_mapping(t_address,t_bool)"},{"astId":2448,"contract":"contracts/FxVault.sol:FxVault","label":"collateralDecimals","offset":0,"slot":"3","type":"t_mapping(t_address,t_uint8)"},{"astId":2454,"contract":"contracts/FxVault.sol:FxVault","label":"collateralBalances","offset":0,"slot":"4","type":"t_mapping(t_address,t_mapping(t_address,t_uint256))"},{"astId":2459,"contract":"contracts/FxVault.sol:FxVault","label":"markets","offset":0,"slot":"5","type":"t_mapping(t_bytes32,t_struct(MarketConfig)2405_storage)"},{"astId":2468,"contract":"contracts/FxVault.sol:FxVault","label":"positions","offset":0,"slot":"6","type":"t_mapping(t_address,t_mapping(t_bytes32,t_mapping(t_bool,t_struct(Position)2422_storage)))"},{"astId":2474,"contract":"contracts/FxVault.sol:FxVault","label":"usedCloseNonces","offset":0,"slot":"7","type":"t_mapping(t_address,t_mapping(t_uint256,t_bool))"}],"types":{"t_address":{"encoding":"inplace","label":"address","numberOfBytes":"20"},"t_bool":{"encoding":"inplace","label":"bool","numberOfBytes":"1"},"t_bytes32":{"encoding":"inplace","label":"bytes32","numberOfBytes":"32"},"t_contract(FxPositionToken)2078":{"encoding":"inplace","label":"contract FxPositionToken","numberOfBytes":"20"},"t_mapping(t_address,t_bool)":{"encoding":"mapping","key":"t_address","label":"mapping(address => bool)","numberOfBytes":"32","value":"t_bool"},"t_mapping(t_address,t_mapping(t_address,t_uint256))":{"encoding":"mapping","key":"t_address","label":"mapping(address => mapping(address => uint256))","numberOfBytes":"32","value":"t_mapping(t_address,t_uint256)"},"t_mapping(t_address,t_mapping(t_bytes32,t_mapping(t_bool,t_struct(Position)2422_storage)))":{"encoding":"mapping","key":"t_address","label":"mapping(address => mapping(bytes32 => mapping(bool => struct FxVault.Position)))","numberOfBytes":"32","value":"t_mapping(t_bytes32,t_mapping(t_bool,t_struct(Position)2422_storage))"},"t_mapping(t_address,t_mapping(t_uint256,t_bool))":{"encoding":"mapping","key":"t_address","label":"mapping(address => mapping(uint256 => bool))","numberOfBytes":"32","value":"t_mapping(t_uint256,t_bool)"},"t_mapping(t_address,t_uint256)":{"encoding":"mapping","key":"t_address","label":"mapping(address => uint256)","numberOfBytes":"32","value":"t_uint256"},"t_mapping(t_address,t_uint8)":{"encoding":"mapping","key":"t_address","label":"mapping(address => uint8)","numberOfBytes":"32","value":"t_uint8"},"t_mapping(t_bool,t_struct(Position)2422_storage)":{"encoding":"mapping","key":"t_bool","label":"mapping(bool => struct FxVault.Position)","numberOfBytes":"32","value":"t_struct(Position)2422_storage"},"t_mapping(t_bytes32,t_mapping(t_bool,t_struct(Position)2422_storage))":{"encoding":"mapping","key":"t_bytes32","label":"mapping(bytes32 => mapping(bool => struct FxVault.Position))","numberOfBytes":"32","value":"t_mapping(t_bool,t_struct(Position)2422_storage)"},"t_mapping(t_bytes32,t_struct(MarketConfig)2405_storage)":{"encoding":"mapping","key":"t_bytes32","label":"mapping(bytes32 => struct FxVault.MarketConfig)","numberOfBytes":"32","value":"t_struct(MarketConfig)2405_storage"},"t_mapping(t_uint256,t_bool)":{"encoding":"mapping","key":"t_uint256","label":"mapping(uint256 => bool)","numberOfBytes":"32","value":"t_bool"},"t_struct(MarketConfig)2405_storage":{"encoding":"inplace","label":"struct FxVault.MarketConfig","members":[{"astId":2388,"contract":"contracts/FxVault.sol:FxVault","label":"isActive","offset":0,"slot":"0","type":"t_bool"},{"astId":2390,"contract":"contracts/FxVault.sol:FxVault","label":"marketId","offset":0,"slot":"1","type":"t_bytes32"},{"astId":2393,"contract":"contracts/FxVault.sol:FxVault","label":"longToken","offset":0,"slot":"2","type":"t_contract(FxPositionToken)2078"},{"astId":2396,"contract":"contracts/FxVault.sol:FxVault","label":"shortToken","offset":0,"slot":"3","type":"t_contract(FxPositionToken)2078"},{"astId":2398,"contract":"contracts/FxVault.sol:FxVault","label":"maxLeverage","offset":0,"slot":"4","type":"t_uint256"},{"astId":2400,"contract":"contracts/FxVault.sol:FxVault","label":"defaultLeverage","offset":0,"slot":"5","type":"t_uint256"},{"astId":2402,"contract":"contracts/FxVault.sol:FxVault","label":"minInitialMarginBps","offset":0,"slot":"6","type":"t_uint256"},{"astId":2404,"contract":"contracts/FxVault.sol:FxVault","label":"tradeFeeBps","offset":0,"slot":"7","type":"t_uint256"}],"numberOfBytes":"256"},"t_struct(Position)2422_storage":{"encoding":"inplace","label":"struct FxVault.Position","members":[{"astId":2407,"contract":"contracts/FxVault.sol:FxVault","label":"exists","offset":0,"slot":"0","type":"t_bool"},{"astId":2409,"contract":"contracts/FxVault.sol:FxVault","label":"marketId","offset":0,"slot":"1","type":"t_bytes32"},{"astId":2411,"contract":"contracts/FxVault.sol:FxVault","label":"isLong","offset":0,"slot":"2","type":"t_bool"},{"astId":2413,"contract":"contracts/FxVault.sol:FxVault","label":"sizeBase","offset":0,"slot":"3","type":"t_uint256"},{"astId":2415,"contract":"contracts/FxVault.sol:FxVault","label":"entryPrice","offset":0,"slot":"4","type":"t_uint256"},{"astId":2417,"contract":"contracts/FxVault.sol:FxVault","label":"marginUsd","offset":0,"slot":"5","type":"t_uint256"},{"astId":2419,"contract":"contracts/FxVault.sol:FxVault","label":"leverage","offset":0,"slot":"6","type":"t_uint256"},{"astId":2421,"contract":"contracts/FxVault.sol:FxVault","label":"closeAuthHash","offset":0,"slot":"7","type":"t_bytes32"}],"numberOfBytes":"256"},"t_uint256":{"encoding":"inplace","label":"uint256","numberOfBytes":"32"},"t_uint8":{"encoding":"inplace","label":"uint8","numberOfBytes":"1"}}}}}}