{"contracts/StockPriceOracle.sol":{"StockPriceOracle":{"abi":[{"inputs":[],"stateMutability":"nonpayable","type":"constructor"},{"inputs":[{"internalType":"address","name":"owner","type":"address"}],"name":"OwnableInvalidOwner","type":"error"},{"inputs":[{"internalType":"address","name":"account","type":"address"}],"name":"OwnableUnauthorizedAccount","type":"error"},{"anonymous":false,"inputs":[{"indexed":true,"internalType":"address","name":"previousOwner","type":"address"},{"indexed":true,"internalType":"address","name":"newOwner","type":"address"}],"name":"OwnershipTransferred","type":"event"},{"anonymous":false,"inputs":[{"indexed":true,"internalType":"address","name":"token","type":"address"},{"indexed":false,"internalType":"uint256","name":"price","type":"uint256"},{"indexed":false,"internalType":"uint256","name":"timestamp","type":"uint256"}],"name":"PriceUpdated","type":"event"},{"anonymous":false,"inputs":[{"indexed":false,"internalType":"address[]","name":"tokens","type":"address[]"},{"indexed":false,"internalType":"uint256[]","name":"prices","type":"uint256[]"},{"indexed":false,"internalType":"uint256","name":"timestamp","type":"uint256"}],"name":"PricesBatchUpdated","type":"event"},{"inputs":[],"name":"PRICE_DECIMALS","outputs":[{"internalType":"uint8","name":"","type":"uint8"}],"stateMutability":"view","type":"function"},{"inputs":[{"internalType":"address","name":"token","type":"address"}],"name":"getLastUpdated","outputs":[{"internalType":"uint256","name":"","type":"uint256"}],"stateMutability":"view","type":"function"},{"inputs":[{"internalType":"address","name":"token","type":"address"}],"name":"getPrice","outputs":[{"internalType":"uint256","name":"","type":"uint256"}],"stateMutability":"view","type":"function"},{"inputs":[{"internalType":"address[]","name":"tokens","type":"address[]"}],"name":"getPrices","outputs":[{"internalType":"uint256[]","name":"","type":"uint256[]"}],"stateMutability":"view","type":"function"},{"inputs":[{"internalType":"address","name":"token","type":"address"}],"name":"hasPrice","outputs":[{"internalType":"bool","name":"","type":"bool"}],"stateMutability":"view","type":"function"},{"inputs":[],"name":"owner","outputs":[{"internalType":"address","name":"","type":"address"}],"stateMutability":"view","type":"function"},{"inputs":[],"name":"renounceOwnership","outputs":[],"stateMutability":"nonpayable","type":"function"},{"inputs":[{"internalType":"address","name":"newOwner","type":"address"}],"name":"transferOwnership","outputs":[],"stateMutability":"nonpayable","type":"function"},{"inputs":[{"internalType":"address","name":"token","type":"address"},{"internalType":"uint256","name":"price","type":"uint256"}],"name":"updatePrice","outputs":[],"stateMutability":"nonpayable","type":"function"},{"inputs":[{"internalType":"address[]","name":"tokens","type":"address[]"},{"internalType":"uint256[]","name":"newPrices","type":"uint256[]"}],"name":"updatePrices","outputs":[],"stateMutability":"nonpayable","type":"function"}],"evm":{"bytecode":{"linkReferences":{},"object":"608080604052346075573315605f5760008054336001600160a01b0319821681178355916001600160a01b03909116907f8be0079c531659141344cd1fd0a4f28419497f9722a3daafe3b4186f6b6457e09080a3610822908161007b8239f35b631e4fbdf760e01b600052600060045260246000fd5b600080fdfe6080604052600436101561001257600080fd5b60003560e01c806341976e091461061f578063457972de1461058b578063715018a6146105325780638da5cb5b146105095780638fb5a482146103c957806396f77060146101aa578063c4164cd41461016e578063ef12969b14610134578063f1a640f8146101185763f2fde38b1461008a57600080fd5b34610113576020366003190112610113576100a3610664565b6100ab6107c3565b6001600160a01b031680156100fd57600080546001600160a01b03198116831782556001600160a01b0316907f8be0079c531659141344cd1fd0a4f28419497f9722a3daafe3b4186f6b6457e09080a3005b631e4fbdf760e01b600052600060045260246000fd5b600080fd5b3461011357600036600319011261011357602060405160128152f35b34610113576020366003190112610113576001600160a01b03610155610664565b1660005260026020526020604060002054604051908152f35b34610113576020366003190112610113576001600160a01b0361018f610664565b16600052600160205260206040600020541515604051908152f35b346101135760403660031901126101135760043567ffffffffffffffff8111610113576101db90369060040161067a565b60243567ffffffffffffffff8111610113576101fb90369060040161067a565b6102069391936107c3565b80830361038b5782156103575760005b8381106102c0575060405192806060850160608652526080840192906000905b8082106102965750505082820360208401528082526001600160fb1b038111610113577f2b7d8b3d279bc4f93c121b319009e76ae91765f1f05f43c6345f29f4ee17146593602092849260051b80928583013742604084015201030190a1005b90919384359060018060a01b03821680920361011357602081600193829352019501920190610236565b6001906102e96001600160a01b036102e16102dc84898961079f565b6107af565b1615156106f7565b6102ff6102f782858961079f565b35151561073b565b61030a81848861079f565b35828060a01b0361031f6102dc84898961079f565b1660005282602052604060002055818060a01b036103416102dc83888861079f565b1660005260026020524260406000205501610216565b60405162461bcd60e51b815260206004820152600c60248201526b456d7074792061727261797360a01b6044820152606490fd5b60405162461bcd60e51b8152602060048201526016602482015275082e4e4c2f2e640d8cadccee8d040dad2e6dac2e8c6d60531b6044820152606490fd5b346101135760203660031901126101135760043567ffffffffffffffff8111610113576103fa90369060040161067a565b9061040482610787565b6040519290601f01601f1916830167ffffffffffffffff8111848210176104f35760405280835261043481610787565b602084019290601f190136843760005b8281106104905783856040519182916020830190602084525180915260408301919060005b818110610477575050500390f35b8251845285945060209384019390920191600101610469565b6001600160a01b036104a66102dc83868661079f565b166000526001602052604060002054906104c18215156106ab565b85518110156104dd5760019160208260051b8801015201610444565b634e487b7160e01b600052603260045260246000fd5b634e487b7160e01b600052604160045260246000fd5b34610113576000366003190112610113576000546040516001600160a01b039091168152602090f35b346101135760003660031901126101135761054b6107c3565b600080546001600160a01b0319811682556001600160a01b03167f8be0079c531659141344cd1fd0a4f28419497f9722a3daafe3b4186f6b6457e08280a3005b34610113576040366003190112610113576105a4610664565b7fb556fac599c3c70efb9ab1fa725ecace6c81cc48d1455f886607def065f3e0c06040602435926105d36107c3565b6001600160a01b0316926105e88415156106f7565b6105f381151561073b565b8360005260016020528082600020558360005260026020524282600020558151908152426020820152a2005b34610113576020366003190112610113576001600160a01b03610640610664565b166000526001602052602060406000205461065c8115156106ab565b604051908152f35b600435906001600160a01b038216820361011357565b9181601f840112156101135782359167ffffffffffffffff8311610113576020808501948460051b01011161011357565b156106b257565b60405162461bcd60e51b815260206004820152601760248201527f5072696365206e6f742073657420666f7220746f6b656e0000000000000000006044820152606490fd5b156106fe57565b60405162461bcd60e51b8152602060048201526015602482015274496e76616c696420746f6b656e206164647265737360581b6044820152606490fd5b1561074257565b60405162461bcd60e51b815260206004820152601f60248201527f5072696365206d7573742062652067726561746572207468616e207a65726f006044820152606490fd5b67ffffffffffffffff81116104f35760051b60200190565b91908110156104dd5760051b0190565b356001600160a01b03811681036101135790565b6000546001600160a01b031633036107d757565b63118cdaa760e01b6000523360045260246000fdfea2646970667358221220e008d72b5d6b8e01941638133d31eeb007923e459d5d3d5905ba1d23365817ba64736f6c634300081b0033","opcodes":"PUSH1 0x80 DUP1 PUSH1 0x40 MSTORE CALLVALUE PUSH1 0x75 JUMPI CALLER ISZERO PUSH1 0x5F JUMPI PUSH1 0x0 DUP1 SLOAD CALLER PUSH1 0x1 PUSH1 0x1 PUSH1 0xA0 SHL SUB NOT DUP3 AND DUP2 OR DUP4 SSTORE SWAP2 PUSH1 0x1 PUSH1 0x1 PUSH1 0xA0 SHL SUB SWAP1 SWAP2 AND SWAP1 PUSH32 0x8BE0079C531659141344CD1FD0A4F28419497F9722A3DAAFE3B4186F6B6457E0 SWAP1 DUP1 LOG3 PUSH2 0x822 SWAP1 DUP2 PUSH2 0x7B DUP3 CODECOPY RETURN JUMPDEST PUSH4 0x1E4FBDF7 PUSH1 0xE0 SHL PUSH1 0x0 MSTORE PUSH1 0x0 PUSH1 0x4 MSTORE PUSH1 0x24 PUSH1 0x0 REVERT JUMPDEST PUSH1 0x0 DUP1 REVERT INVALID PUSH1 0x80 PUSH1 0x40 MSTORE PUSH1 0x4 CALLDATASIZE LT ISZERO PUSH2 0x12 JUMPI PUSH1 0x0 DUP1 REVERT JUMPDEST PUSH1 0x0 CALLDATALOAD PUSH1 0xE0 SHR DUP1 PUSH4 0x41976E09 EQ PUSH2 0x61F JUMPI DUP1 PUSH4 0x457972DE EQ PUSH2 0x58B JUMPI DUP1 PUSH4 0x715018A6 EQ PUSH2 0x532 JUMPI DUP1 PUSH4 0x8DA5CB5B EQ PUSH2 0x509 JUMPI DUP1 PUSH4 0x8FB5A482 EQ PUSH2 0x3C9 JUMPI DUP1 PUSH4 0x96F77060 EQ PUSH2 0x1AA JUMPI DUP1 PUSH4 0xC4164CD4 EQ PUSH2 0x16E JUMPI DUP1 PUSH4 0xEF12969B EQ PUSH2 0x134 JUMPI DUP1 PUSH4 0xF1A640F8 EQ PUSH2 0x118 JUMPI PUSH4 0xF2FDE38B EQ PUSH2 0x8A JUMPI PUSH1 0x0 DUP1 REVERT JUMPDEST CALLVALUE PUSH2 0x113 JUMPI PUSH1 0x20 CALLDATASIZE PUSH1 0x3 NOT ADD SLT PUSH2 0x113 JUMPI PUSH2 0xA3 PUSH2 0x664 JUMP JUMPDEST PUSH2 0xAB PUSH2 0x7C3 JUMP JUMPDEST PUSH1 0x1 PUSH1 0x1 PUSH1 0xA0 SHL SUB AND DUP1 ISZERO PUSH2 0xFD JUMPI PUSH1 0x0 DUP1 SLOAD PUSH1 0x1 PUSH1 0x1 PUSH1 0xA0 SHL SUB NOT DUP2 AND DUP4 OR DUP3 SSTORE PUSH1 0x1 PUSH1 0x1 PUSH1 0xA0 SHL SUB AND SWAP1 PUSH32 0x8BE0079C531659141344CD1FD0A4F28419497F9722A3DAAFE3B4186F6B6457E0 SWAP1 DUP1 LOG3 STOP JUMPDEST PUSH4 0x1E4FBDF7 PUSH1 0xE0 SHL PUSH1 0x0 MSTORE PUSH1 0x0 PUSH1 0x4 MSTORE PUSH1 0x24 PUSH1 0x0 REVERT JUMPDEST PUSH1 0x0 DUP1 REVERT JUMPDEST CALLVALUE PUSH2 0x113 JUMPI PUSH1 0x0 CALLDATASIZE PUSH1 0x3 NOT ADD SLT PUSH2 0x113 JUMPI PUSH1 0x20 PUSH1 0x40 MLOAD PUSH1 0x12 DUP2 MSTORE RETURN JUMPDEST CALLVALUE PUSH2 0x113 JUMPI PUSH1 0x20 CALLDATASIZE PUSH1 0x3 NOT ADD SLT PUSH2 0x113 JUMPI PUSH1 0x1 PUSH1 0x1 PUSH1 0xA0 SHL SUB PUSH2 0x155 PUSH2 0x664 JUMP JUMPDEST AND PUSH1 0x0 MSTORE PUSH1 0x2 PUSH1 0x20 MSTORE PUSH1 0x20 PUSH1 0x40 PUSH1 0x0 KECCAK256 SLOAD PUSH1 0x40 MLOAD SWAP1 DUP2 MSTORE RETURN JUMPDEST CALLVALUE PUSH2 0x113 JUMPI PUSH1 0x20 CALLDATASIZE PUSH1 0x3 NOT ADD SLT PUSH2 0x113 JUMPI PUSH1 0x1 PUSH1 0x1 PUSH1 0xA0 SHL SUB PUSH2 0x18F PUSH2 0x664 JUMP JUMPDEST AND PUSH1 0x0 MSTORE PUSH1 0x1 PUSH1 0x20 MSTORE PUSH1 0x20 PUSH1 0x40 PUSH1 0x0 KECCAK256 SLOAD ISZERO ISZERO PUSH1 0x40 MLOAD SWAP1 DUP2 MSTORE RETURN JUMPDEST CALLVALUE PUSH2 0x113 JUMPI PUSH1 0x40 CALLDATASIZE PUSH1 0x3 NOT ADD SLT PUSH2 0x113 JUMPI PUSH1 0x4 CALLDATALOAD PUSH8 0xFFFFFFFFFFFFFFFF DUP2 GT PUSH2 0x113 JUMPI PUSH2 0x1DB SWAP1 CALLDATASIZE SWAP1 PUSH1 0x4 ADD PUSH2 0x67A JUMP JUMPDEST PUSH1 0x24 CALLDATALOAD PUSH8 0xFFFFFFFFFFFFFFFF DUP2 GT PUSH2 0x113 JUMPI PUSH2 0x1FB SWAP1 CALLDATASIZE SWAP1 PUSH1 0x4 ADD PUSH2 0x67A JUMP JUMPDEST PUSH2 0x206 SWAP4 SWAP2 SWAP4 PUSH2 0x7C3 JUMP JUMPDEST DUP1 DUP4 SUB PUSH2 0x38B JUMPI DUP3 ISZERO PUSH2 0x357 JUMPI PUSH1 0x0 JUMPDEST DUP4 DUP2 LT PUSH2 0x2C0 JUMPI POP PUSH1 0x40 MLOAD SWAP3 DUP1 PUSH1 0x60 DUP6 ADD PUSH1 0x60 DUP7 MSTORE MSTORE PUSH1 0x80 DUP5 ADD SWAP3 SWAP1 PUSH1 0x0 SWAP1 JUMPDEST DUP1 DUP3 LT PUSH2 0x296 JUMPI POP POP POP DUP3 DUP3 SUB PUSH1 0x20 DUP5 ADD MSTORE DUP1 DUP3 MSTORE PUSH1 0x1 PUSH1 0x1 PUSH1 0xFB SHL SUB DUP2 GT PUSH2 0x113 JUMPI PUSH32 0x2B7D8B3D279BC4F93C121B319009E76AE91765F1F05F43C6345F29F4EE171465 SWAP4 PUSH1 0x20 SWAP3 DUP5 SWAP3 PUSH1 0x5 SHL DUP1 SWAP3 DUP6 DUP4 ADD CALLDATACOPY TIMESTAMP PUSH1 0x40 DUP5 ADD MSTORE ADD SUB ADD SWAP1 LOG1 STOP JUMPDEST SWAP1 SWAP2 SWAP4 DUP5 CALLDATALOAD SWAP1 PUSH1 0x1 DUP1 PUSH1 0xA0 SHL SUB DUP3 AND DUP1 SWAP3 SUB PUSH2 0x113 JUMPI PUSH1 0x20 DUP2 PUSH1 0x1 SWAP4 DUP3 SWAP4 MSTORE ADD SWAP6 ADD SWAP3 ADD SWAP1 PUSH2 0x236 JUMP JUMPDEST PUSH1 0x1 SWAP1 PUSH2 0x2E9 PUSH1 0x1 PUSH1 0x1 PUSH1 0xA0 SHL SUB PUSH2 0x2E1 PUSH2 0x2DC DUP5 DUP10 DUP10 PUSH2 0x79F JUMP JUMPDEST PUSH2 0x7AF JUMP JUMPDEST AND ISZERO ISZERO PUSH2 0x6F7 JUMP JUMPDEST PUSH2 0x2FF PUSH2 0x2F7 DUP3 DUP6 DUP10 PUSH2 0x79F JUMP JUMPDEST CALLDATALOAD ISZERO ISZERO PUSH2 0x73B JUMP JUMPDEST PUSH2 0x30A DUP2 DUP5 DUP9 PUSH2 0x79F JUMP JUMPDEST CALLDATALOAD DUP3 DUP1 PUSH1 0xA0 SHL SUB PUSH2 0x31F PUSH2 0x2DC DUP5 DUP10 DUP10 PUSH2 0x79F JUMP JUMPDEST AND PUSH1 0x0 MSTORE DUP3 PUSH1 0x20 MSTORE PUSH1 0x40 PUSH1 0x0 KECCAK256 SSTORE DUP2 DUP1 PUSH1 0xA0 SHL SUB PUSH2 0x341 PUSH2 0x2DC DUP4 DUP9 DUP9 PUSH2 0x79F JUMP JUMPDEST AND PUSH1 0x0 MSTORE PUSH1 0x2 PUSH1 0x20 MSTORE TIMESTAMP PUSH1 0x40 PUSH1 0x0 KECCAK256 SSTORE ADD PUSH2 0x216 JUMP JUMPDEST PUSH1 0x40 MLOAD PUSH3 0x461BCD PUSH1 0xE5 SHL DUP2 MSTORE PUSH1 0x20 PUSH1 0x4 DUP3 ADD MSTORE PUSH1 0xC PUSH1 0x24 DUP3 ADD MSTORE PUSH12 0x456D70747920617272617973 PUSH1 0xA0 SHL PUSH1 0x44 DUP3 ADD MSTORE PUSH1 0x64 SWAP1 REVERT JUMPDEST PUSH1 0x40 MLOAD PUSH3 0x461BCD PUSH1 0xE5 SHL DUP2 MSTORE PUSH1 0x20 PUSH1 0x4 DUP3 ADD MSTORE PUSH1 0x16 PUSH1 0x24 DUP3 ADD MSTORE PUSH22 0x82E4E4C2F2E640D8CADCCEE8D040DAD2E6DAC2E8C6D PUSH1 0x53 SHL PUSH1 0x44 DUP3 ADD MSTORE PUSH1 0x64 SWAP1 REVERT JUMPDEST CALLVALUE PUSH2 0x113 JUMPI PUSH1 0x20 CALLDATASIZE PUSH1 0x3 NOT ADD SLT PUSH2 0x113 JUMPI PUSH1 0x4 CALLDATALOAD PUSH8 0xFFFFFFFFFFFFFFFF DUP2 GT PUSH2 0x113 JUMPI PUSH2 0x3FA SWAP1 CALLDATASIZE SWAP1 PUSH1 0x4 ADD PUSH2 0x67A JUMP JUMPDEST SWAP1 PUSH2 0x404 DUP3 PUSH2 0x787 JUMP JUMPDEST PUSH1 0x40 MLOAD SWAP3 SWAP1 PUSH1 0x1F ADD PUSH1 0x1F NOT AND DUP4 ADD PUSH8 0xFFFFFFFFFFFFFFFF DUP2 GT DUP5 DUP3 LT OR PUSH2 0x4F3 JUMPI PUSH1 0x40 MSTORE DUP1 DUP4 MSTORE PUSH2 0x434 DUP2 PUSH2 0x787 JUMP JUMPDEST PUSH1 0x20 DUP5 ADD SWAP3 SWAP1 PUSH1 0x1F NOT ADD CALLDATASIZE DUP5 CALLDATACOPY PUSH1 0x0 JUMPDEST DUP3 DUP2 LT PUSH2 0x490 JUMPI DUP4 DUP6 PUSH1 0x40 MLOAD SWAP2 DUP3 SWAP2 PUSH1 0x20 DUP4 ADD SWAP1 PUSH1 0x20 DUP5 MSTORE MLOAD DUP1 SWAP2 MSTORE PUSH1 0x40 DUP4 ADD SWAP2 SWAP1 PUSH1 0x0 JUMPDEST DUP2 DUP2 LT PUSH2 0x477 JUMPI POP POP POP SUB SWAP1 RETURN JUMPDEST DUP3 MLOAD DUP5 MSTORE DUP6 SWAP5 POP PUSH1 0x20 SWAP4 DUP5 ADD SWAP4 SWAP1 SWAP3 ADD SWAP2 PUSH1 0x1 ADD PUSH2 0x469 JUMP JUMPDEST PUSH1 0x1 PUSH1 0x1 PUSH1 0xA0 SHL SUB PUSH2 0x4A6 PUSH2 0x2DC DUP4 DUP7 DUP7 PUSH2 0x79F JUMP JUMPDEST AND PUSH1 0x0 MSTORE PUSH1 0x1 PUSH1 0x20 MSTORE PUSH1 0x40 PUSH1 0x0 KECCAK256 SLOAD SWAP1 PUSH2 0x4C1 DUP3 ISZERO ISZERO PUSH2 0x6AB JUMP JUMPDEST DUP6 MLOAD DUP2 LT ISZERO PUSH2 0x4DD JUMPI PUSH1 0x1 SWAP2 PUSH1 0x20 DUP3 PUSH1 0x5 SHL DUP9 ADD ADD MSTORE ADD PUSH2 0x444 JUMP JUMPDEST PUSH4 0x4E487B71 PUSH1 0xE0 SHL PUSH1 0x0 MSTORE PUSH1 0x32 PUSH1 0x4 MSTORE PUSH1 0x24 PUSH1 0x0 REVERT JUMPDEST PUSH4 0x4E487B71 PUSH1 0xE0 SHL PUSH1 0x0 MSTORE PUSH1 0x41 PUSH1 0x4 MSTORE PUSH1 0x24 PUSH1 0x0 REVERT JUMPDEST CALLVALUE PUSH2 0x113 JUMPI PUSH1 0x0 CALLDATASIZE PUSH1 0x3 NOT ADD SLT PUSH2 0x113 JUMPI PUSH1 0x0 SLOAD PUSH1 0x40 MLOAD PUSH1 0x1 PUSH1 0x1 PUSH1 0xA0 SHL SUB SWAP1 SWAP2 AND DUP2 MSTORE PUSH1 0x20 SWAP1 RETURN JUMPDEST CALLVALUE PUSH2 0x113 JUMPI PUSH1 0x0 CALLDATASIZE PUSH1 0x3 NOT ADD SLT PUSH2 0x113 JUMPI PUSH2 0x54B PUSH2 0x7C3 JUMP JUMPDEST PUSH1 0x0 DUP1 SLOAD PUSH1 0x1 PUSH1 0x1 PUSH1 0xA0 SHL SUB NOT DUP2 AND DUP3 SSTORE PUSH1 0x1 PUSH1 0x1 PUSH1 0xA0 SHL SUB AND PUSH32 0x8BE0079C531659141344CD1FD0A4F28419497F9722A3DAAFE3B4186F6B6457E0 DUP3 DUP1 LOG3 STOP JUMPDEST CALLVALUE PUSH2 0x113 JUMPI PUSH1 0x40 CALLDATASIZE PUSH1 0x3 NOT ADD SLT PUSH2 0x113 JUMPI PUSH2 0x5A4 PUSH2 0x664 JUMP JUMPDEST PUSH32 0xB556FAC599C3C70EFB9AB1FA725ECACE6C81CC48D1455F886607DEF065F3E0C0 PUSH1 0x40 PUSH1 0x24 CALLDATALOAD SWAP3 PUSH2 0x5D3 PUSH2 0x7C3 JUMP JUMPDEST PUSH1 0x1 PUSH1 0x1 PUSH1 0xA0 SHL SUB AND SWAP3 PUSH2 0x5E8 DUP5 ISZERO ISZERO PUSH2 0x6F7 JUMP JUMPDEST PUSH2 0x5F3 DUP2 ISZERO ISZERO PUSH2 0x73B JUMP JUMPDEST DUP4 PUSH1 0x0 MSTORE PUSH1 0x1 PUSH1 0x20 MSTORE DUP1 DUP3 PUSH1 0x0 KECCAK256 SSTORE DUP4 PUSH1 0x0 MSTORE PUSH1 0x2 PUSH1 0x20 MSTORE TIMESTAMP DUP3 PUSH1 0x0 KECCAK256 SSTORE DUP2 MLOAD SWAP1 DUP2 MSTORE TIMESTAMP PUSH1 0x20 DUP3 ADD MSTORE LOG2 STOP JUMPDEST CALLVALUE PUSH2 0x113 JUMPI PUSH1 0x20 CALLDATASIZE PUSH1 0x3 NOT ADD SLT PUSH2 0x113 JUMPI PUSH1 0x1 PUSH1 0x1 PUSH1 0xA0 SHL SUB PUSH2 0x640 PUSH2 0x664 JUMP JUMPDEST AND PUSH1 0x0 MSTORE PUSH1 0x1 PUSH1 0x20 MSTORE PUSH1 0x20 PUSH1 0x40 PUSH1 0x0 KECCAK256 SLOAD PUSH2 0x65C DUP2 ISZERO ISZERO PUSH2 0x6AB JUMP JUMPDEST PUSH1 0x40 MLOAD SWAP1 DUP2 MSTORE RETURN JUMPDEST PUSH1 0x4 CALLDATALOAD SWAP1 PUSH1 0x1 PUSH1 0x1 PUSH1 0xA0 SHL SUB DUP3 AND DUP3 SUB PUSH2 0x113 JUMPI JUMP JUMPDEST SWAP2 DUP2 PUSH1 0x1F DUP5 ADD SLT ISZERO PUSH2 0x113 JUMPI DUP3 CALLDATALOAD SWAP2 PUSH8 0xFFFFFFFFFFFFFFFF DUP4 GT PUSH2 0x113 JUMPI PUSH1 0x20 DUP1 DUP6 ADD SWAP5 DUP5 PUSH1 0x5 SHL ADD ADD GT PUSH2 0x113 JUMPI JUMP JUMPDEST ISZERO PUSH2 0x6B2 JUMPI JUMP JUMPDEST PUSH1 0x40 MLOAD PUSH3 0x461BCD PUSH1 0xE5 SHL DUP2 MSTORE PUSH1 0x20 PUSH1 0x4 DUP3 ADD MSTORE PUSH1 0x17 PUSH1 0x24 DUP3 ADD MSTORE PUSH32 0x5072696365206E6F742073657420666F7220746F6B656E000000000000000000 PUSH1 0x44 DUP3 ADD MSTORE PUSH1 0x64 SWAP1 REVERT JUMPDEST ISZERO PUSH2 0x6FE JUMPI JUMP JUMPDEST PUSH1 0x40 MLOAD PUSH3 0x461BCD PUSH1 0xE5 SHL DUP2 MSTORE PUSH1 0x20 PUSH1 0x4 DUP3 ADD MSTORE PUSH1 0x15 PUSH1 0x24 DUP3 ADD MSTORE PUSH21 0x496E76616C696420746F6B656E2061646472657373 PUSH1 0x58 SHL PUSH1 0x44 DUP3 ADD MSTORE PUSH1 0x64 SWAP1 REVERT JUMPDEST ISZERO PUSH2 0x742 JUMPI JUMP JUMPDEST PUSH1 0x40 MLOAD PUSH3 0x461BCD PUSH1 0xE5 SHL DUP2 MSTORE PUSH1 0x20 PUSH1 0x4 DUP3 ADD MSTORE PUSH1 0x1F PUSH1 0x24 DUP3 ADD MSTORE PUSH32 0x5072696365206D7573742062652067726561746572207468616E207A65726F00 PUSH1 0x44 DUP3 ADD MSTORE PUSH1 0x64 SWAP1 REVERT JUMPDEST PUSH8 0xFFFFFFFFFFFFFFFF DUP2 GT PUSH2 0x4F3 JUMPI PUSH1 0x5 SHL PUSH1 0x20 ADD SWAP1 JUMP JUMPDEST SWAP2 SWAP1 DUP2 LT ISZERO PUSH2 0x4DD JUMPI PUSH1 0x5 SHL ADD SWAP1 JUMP JUMPDEST CALLDATALOAD PUSH1 0x1 PUSH1 0x1 PUSH1 0xA0 SHL SUB DUP2 AND DUP2 SUB PUSH2 0x113 JUMPI SWAP1 JUMP JUMPDEST PUSH1 0x0 SLOAD PUSH1 0x1 PUSH1 0x1 PUSH1 0xA0 SHL SUB AND CALLER SUB PUSH2 0x7D7 JUMPI JUMP JUMPDEST PUSH4 0x118CDAA7 PUSH1 0xE0 SHL PUSH1 0x0 MSTORE CALLER PUSH1 0x4 MSTORE PUSH1 0x24 PUSH1 0x0 REVERT INVALID LOG2 PUSH5 0x6970667358 0x22 SLT KECCAK256 0xE0 ADDMOD 0xD7 0x2B TSTORE PUSH12 0x8E01941638133D31EEB00792 RETURNDATACOPY GASLIMIT SWAP14 TSTORE RETURNDATASIZE MSIZE SDIV 0xBA SAR 0x23 CALLDATASIZE PC OR 0xBA PUSH5 0x736F6C6343 STOP ADDMOD SHL STOP CALLER "},"methodIdentifiers":{"PRICE_DECIMALS()":"f1a640f8","getLastUpdated(address)":"ef12969b","getPrice(address)":"41976e09","getPrices(address[])":"8fb5a482","hasPrice(address)":"c4164cd4","owner()":"8da5cb5b","renounceOwnership()":"715018a6","transferOwnership(address)":"f2fde38b","updatePrice(address,uint256)":"457972de","updatePrices(address[],uint256[])":"96f77060"}},"storageLayout":{"storage":[{"astId":8,"contract":"contracts/StockPriceOracle.sol:StockPriceOracle","label":"_owner","offset":0,"slot":"0","type":"t_address"},{"astId":3776,"contract":"contracts/StockPriceOracle.sol:StockPriceOracle","label":"prices","offset":0,"slot":"1","type":"t_mapping(t_address,t_uint256)"},{"astId":3780,"contract":"contracts/StockPriceOracle.sol:StockPriceOracle","label":"lastUpdated","offset":0,"slot":"2","type":"t_mapping(t_address,t_uint256)"}],"types":{"t_address":{"encoding":"inplace","label":"address","numberOfBytes":"20"},"t_mapping(t_address,t_uint256)":{"encoding":"mapping","key":"t_address","label":"mapping(address => uint256)","numberOfBytes":"32","value":"t_uint256"},"t_uint256":{"encoding":"inplace","label":"uint256","numberOfBytes":"32"}}}}}}