{"contracts/FxPriceOracle.sol":{"FxPriceOracle":{"abi":[{"inputs":[],"stateMutability":"nonpayable","type":"constructor"},{"inputs":[{"internalType":"address","name":"owner","type":"address"}],"name":"OwnableInvalidOwner","type":"error"},{"inputs":[{"internalType":"address","name":"account","type":"address"}],"name":"OwnableUnauthorizedAccount","type":"error"},{"anonymous":false,"inputs":[{"indexed":true,"internalType":"address","name":"previousOwner","type":"address"},{"indexed":true,"internalType":"address","name":"newOwner","type":"address"}],"name":"OwnershipTransferred","type":"event"},{"anonymous":false,"inputs":[{"indexed":true,"internalType":"bytes32","name":"marketId","type":"bytes32"},{"indexed":false,"internalType":"uint256","name":"price","type":"uint256"},{"indexed":false,"internalType":"uint256","name":"timestamp","type":"uint256"}],"name":"PriceUpdated","type":"event"},{"anonymous":false,"inputs":[{"indexed":false,"internalType":"bytes32[]","name":"marketIds","type":"bytes32[]"},{"indexed":false,"internalType":"uint256[]","name":"prices","type":"uint256[]"},{"indexed":false,"internalType":"uint256","name":"timestamp","type":"uint256"}],"name":"PricesBatchUpdated","type":"event"},{"inputs":[],"name":"PRICE_DECIMALS","outputs":[{"internalType":"uint8","name":"","type":"uint8"}],"stateMutability":"view","type":"function"},{"inputs":[{"internalType":"bytes32","name":"marketId","type":"bytes32"}],"name":"getLastUpdated","outputs":[{"internalType":"uint256","name":"","type":"uint256"}],"stateMutability":"view","type":"function"},{"inputs":[{"internalType":"bytes32","name":"marketId","type":"bytes32"}],"name":"getPrice","outputs":[{"internalType":"uint256","name":"","type":"uint256"}],"stateMutability":"view","type":"function"},{"inputs":[{"internalType":"bytes32[]","name":"marketIds","type":"bytes32[]"}],"name":"getPrices","outputs":[{"internalType":"uint256[]","name":"","type":"uint256[]"}],"stateMutability":"view","type":"function"},{"inputs":[{"internalType":"bytes32","name":"marketId","type":"bytes32"}],"name":"hasPrice","outputs":[{"internalType":"bool","name":"","type":"bool"}],"stateMutability":"view","type":"function"},{"inputs":[],"name":"owner","outputs":[{"internalType":"address","name":"","type":"address"}],"stateMutability":"view","type":"function"},{"inputs":[],"name":"renounceOwnership","outputs":[],"stateMutability":"nonpayable","type":"function"},{"inputs":[{"internalType":"address","name":"newOwner","type":"address"}],"name":"transferOwnership","outputs":[],"stateMutability":"nonpayable","type":"function"},{"inputs":[{"internalType":"bytes32","name":"marketId","type":"bytes32"},{"internalType":"uint256","name":"price","type":"uint256"}],"name":"updatePrice","outputs":[],"stateMutability":"nonpayable","type":"function"},{"inputs":[{"internalType":"bytes32[]","name":"marketIds","type":"bytes32[]"},{"internalType":"uint256[]","name":"newPrices","type":"uint256[]"}],"name":"updatePrices","outputs":[],"stateMutability":"nonpayable","type":"function"}],"evm":{"bytecode":{"linkReferences":{},"object":"608080604052346075573315605f5760008054336001600160a01b0319821681178355916001600160a01b03909116907f8be0079c531659141344cd1fd0a4f28419497f9722a3daafe3b4186f6b6457e09080a3610773908161007b8239f35b631e4fbdf760e01b600052600060045260246000fd5b600080fdfe6080604052600436101561001257600080fd5b60003560e01c8063082d2c601461040e57806326ee4836146102cf57806331d98b3f1461029857806337c482021461026a5780634e900d481461023e5780635f704f3e146101ba578063715018a6146101615780638da5cb5b14610138578063f1a640f81461011c5763f2fde38b1461008a57600080fd5b34610117576020366003190112610117576004356001600160a01b03811690819003610117576100b8610714565b801561010157600080546001600160a01b03198116831782556001600160a01b0316907f8be0079c531659141344cd1fd0a4f28419497f9722a3daafe3b4186f6b6457e09080a3005b631e4fbdf760e01b600052600060045260246000fd5b600080fd5b3461011757600036600319011261011757602060405160128152f35b34610117576000366003190112610117576000546040516001600160a01b039091168152602090f35b346101175760003660031901126101175761017a610714565b600080546001600160a01b0319811682556001600160a01b03167f8be0079c531659141344cd1fd0a4f28419497f9722a3daafe3b4186f6b6457e08280a3005b34610117576040366003190112610117576004357fbcd10d64fce9dcf9568572ed92e371df336d32649e8960a045c9548794a44b2660406024356101fc610714565b610207841515610601565b610212811515610640565b8360005260016020528082600020558360005260026020524282600020558151908152426020820152a2005b346101175760203660031901126101175760043560005260026020526020604060002054604051908152f35b3461011757602036600319011261011757600435600052600160205260206040600020541515604051908152f35b3461011757602036600319011261011757600435600052600160205260206040600020546102c78115156106c8565b604051908152f35b346101175760203660031901126101175760043567ffffffffffffffff8111610117576103009036906004016105c0565b9061030a826106b0565b6040519290601f01601f1916830167ffffffffffffffff8111848210176103f857604052808352828261033c836106b0565b602083019390601f190136853760005b818110610399575050506040519182916020830190602084525180915260408301919060005b818110610380575050500390f35b8251845285945060209384019390920191600101610372565b6103a78183859697956105f1565b356000526001602052604060002054906103c28215156106c8565b85518110156103e25760019160208260051b88010152019392919361034c565b634e487b7160e01b600052603260045260246000fd5b634e487b7160e01b600052604160045260246000fd5b346101175760403660031901126101175760043567ffffffffffffffff81116101175761043f9036906004016105c0565b9060243567ffffffffffffffff8111610117576104609036906004016105c0565b61046b939193610714565b80820361058257811561054e5760005b8281106104d957507f02e2c3883459fcf82cb05b06ab698fcde18a7aaf590a9c9b4d6c69e4d281ffd0936104ce916104c060405195869560608752606087019161068c565b91848303602086015261068c565b4260408301520390a1005b806104f26104ea60019386886105f1565b351515610601565b6105086105008285896105f1565b351515610640565b6105138184886105f1565b3561051f8286886105f1565b35600052826020526040600020556105388185876105f1565b356000526002602052426040600020550161047b565b60405162461bcd60e51b815260206004820152600c60248201526b456d7074792061727261797360a01b6044820152606490fd5b60405162461bcd60e51b8152602060048201526016602482015275082e4e4c2f2e640d8cadccee8d040dad2e6dac2e8c6d60531b6044820152606490fd5b9181601f840112156101175782359167ffffffffffffffff8311610117576020808501948460051b01011161011757565b91908110156103e25760051b0190565b1561060857565b60405162461bcd60e51b815260206004820152601060248201526f125b9d985b1a59081b585c9ad95d125960821b6044820152606490fd5b1561064757565b60405162461bcd60e51b815260206004820152601f60248201527f5072696365206d7573742062652067726561746572207468616e207a65726f006044820152606490fd5b81835290916001600160fb1b0383116101175760209260051b809284830137010190565b67ffffffffffffffff81116103f85760051b60200190565b156106cf57565b60405162461bcd60e51b815260206004820152601860248201527f5072696365206e6f742073657420666f72206d61726b657400000000000000006044820152606490fd5b6000546001600160a01b0316330361072857565b63118cdaa760e01b6000523360045260246000fdfea26469706673582212202c7c65502d39fe8c7006f41de6333489d98a70124aa40ba67b5484b665469e4a64736f6c634300081b0033","opcodes":"PUSH1 0x80 DUP1 PUSH1 0x40 MSTORE CALLVALUE PUSH1 0x75 JUMPI CALLER ISZERO PUSH1 0x5F JUMPI PUSH1 0x0 DUP1 SLOAD CALLER PUSH1 0x1 PUSH1 0x1 PUSH1 0xA0 SHL SUB NOT DUP3 AND DUP2 OR DUP4 SSTORE SWAP2 PUSH1 0x1 PUSH1 0x1 PUSH1 0xA0 SHL SUB SWAP1 SWAP2 AND SWAP1 PUSH32 0x8BE0079C531659141344CD1FD0A4F28419497F9722A3DAAFE3B4186F6B6457E0 SWAP1 DUP1 LOG3 PUSH2 0x773 SWAP1 DUP2 PUSH2 0x7B DUP3 CODECOPY RETURN JUMPDEST PUSH4 0x1E4FBDF7 PUSH1 0xE0 SHL PUSH1 0x0 MSTORE PUSH1 0x0 PUSH1 0x4 MSTORE PUSH1 0x24 PUSH1 0x0 REVERT JUMPDEST PUSH1 0x0 DUP1 REVERT INVALID PUSH1 0x80 PUSH1 0x40 MSTORE PUSH1 0x4 CALLDATASIZE LT ISZERO PUSH2 0x12 JUMPI PUSH1 0x0 DUP1 REVERT JUMPDEST PUSH1 0x0 CALLDATALOAD PUSH1 0xE0 SHR DUP1 PUSH4 0x82D2C60 EQ PUSH2 0x40E JUMPI DUP1 PUSH4 0x26EE4836 EQ PUSH2 0x2CF JUMPI DUP1 PUSH4 0x31D98B3F EQ PUSH2 0x298 JUMPI DUP1 PUSH4 0x37C48202 EQ PUSH2 0x26A JUMPI DUP1 PUSH4 0x4E900D48 EQ PUSH2 0x23E JUMPI DUP1 PUSH4 0x5F704F3E EQ PUSH2 0x1BA JUMPI DUP1 PUSH4 0x715018A6 EQ PUSH2 0x161 JUMPI DUP1 PUSH4 0x8DA5CB5B EQ PUSH2 0x138 JUMPI DUP1 PUSH4 0xF1A640F8 EQ PUSH2 0x11C JUMPI PUSH4 0xF2FDE38B EQ PUSH2 0x8A JUMPI PUSH1 0x0 DUP1 REVERT JUMPDEST CALLVALUE PUSH2 0x117 JUMPI PUSH1 0x20 CALLDATASIZE PUSH1 0x3 NOT ADD SLT PUSH2 0x117 JUMPI PUSH1 0x4 CALLDATALOAD PUSH1 0x1 PUSH1 0x1 PUSH1 0xA0 SHL SUB DUP2 AND SWAP1 DUP2 SWAP1 SUB PUSH2 0x117 JUMPI PUSH2 0xB8 PUSH2 0x714 JUMP JUMPDEST DUP1 ISZERO PUSH2 0x101 JUMPI PUSH1 0x0 DUP1 SLOAD PUSH1 0x1 PUSH1 0x1 PUSH1 0xA0 SHL SUB NOT DUP2 AND DUP4 OR DUP3 SSTORE PUSH1 0x1 PUSH1 0x1 PUSH1 0xA0 SHL SUB AND SWAP1 PUSH32 0x8BE0079C531659141344CD1FD0A4F28419497F9722A3DAAFE3B4186F6B6457E0 SWAP1 DUP1 LOG3 STOP JUMPDEST PUSH4 0x1E4FBDF7 PUSH1 0xE0 SHL PUSH1 0x0 MSTORE PUSH1 0x0 PUSH1 0x4 MSTORE PUSH1 0x24 PUSH1 0x0 REVERT JUMPDEST PUSH1 0x0 DUP1 REVERT JUMPDEST CALLVALUE PUSH2 0x117 JUMPI PUSH1 0x0 CALLDATASIZE PUSH1 0x3 NOT ADD SLT PUSH2 0x117 JUMPI PUSH1 0x20 PUSH1 0x40 MLOAD PUSH1 0x12 DUP2 MSTORE RETURN JUMPDEST CALLVALUE PUSH2 0x117 JUMPI PUSH1 0x0 CALLDATASIZE PUSH1 0x3 NOT ADD SLT PUSH2 0x117 JUMPI PUSH1 0x0 SLOAD PUSH1 0x40 MLOAD PUSH1 0x1 PUSH1 0x1 PUSH1 0xA0 SHL SUB SWAP1 SWAP2 AND DUP2 MSTORE PUSH1 0x20 SWAP1 RETURN JUMPDEST CALLVALUE PUSH2 0x117 JUMPI PUSH1 0x0 CALLDATASIZE PUSH1 0x3 NOT ADD SLT PUSH2 0x117 JUMPI PUSH2 0x17A PUSH2 0x714 JUMP JUMPDEST PUSH1 0x0 DUP1 SLOAD PUSH1 0x1 PUSH1 0x1 PUSH1 0xA0 SHL SUB NOT DUP2 AND DUP3 SSTORE PUSH1 0x1 PUSH1 0x1 PUSH1 0xA0 SHL SUB AND PUSH32 0x8BE0079C531659141344CD1FD0A4F28419497F9722A3DAAFE3B4186F6B6457E0 DUP3 DUP1 LOG3 STOP JUMPDEST CALLVALUE PUSH2 0x117 JUMPI PUSH1 0x40 CALLDATASIZE PUSH1 0x3 NOT ADD SLT PUSH2 0x117 JUMPI PUSH1 0x4 CALLDATALOAD PUSH32 0xBCD10D64FCE9DCF9568572ED92E371DF336D32649E8960A045C9548794A44B26 PUSH1 0x40 PUSH1 0x24 CALLDATALOAD PUSH2 0x1FC PUSH2 0x714 JUMP JUMPDEST PUSH2 0x207 DUP5 ISZERO ISZERO PUSH2 0x601 JUMP JUMPDEST PUSH2 0x212 DUP2 ISZERO ISZERO PUSH2 0x640 JUMP JUMPDEST DUP4 PUSH1 0x0 MSTORE PUSH1 0x1 PUSH1 0x20 MSTORE DUP1 DUP3 PUSH1 0x0 KECCAK256 SSTORE DUP4 PUSH1 0x0 MSTORE PUSH1 0x2 PUSH1 0x20 MSTORE TIMESTAMP DUP3 PUSH1 0x0 KECCAK256 SSTORE DUP2 MLOAD SWAP1 DUP2 MSTORE TIMESTAMP PUSH1 0x20 DUP3 ADD MSTORE LOG2 STOP JUMPDEST CALLVALUE PUSH2 0x117 JUMPI PUSH1 0x20 CALLDATASIZE PUSH1 0x3 NOT ADD SLT PUSH2 0x117 JUMPI PUSH1 0x4 CALLDATALOAD PUSH1 0x0 MSTORE PUSH1 0x2 PUSH1 0x20 MSTORE PUSH1 0x20 PUSH1 0x40 PUSH1 0x0 KECCAK256 SLOAD PUSH1 0x40 MLOAD SWAP1 DUP2 MSTORE RETURN JUMPDEST CALLVALUE PUSH2 0x117 JUMPI PUSH1 0x20 CALLDATASIZE PUSH1 0x3 NOT ADD SLT PUSH2 0x117 JUMPI PUSH1 0x4 CALLDATALOAD PUSH1 0x0 MSTORE PUSH1 0x1 PUSH1 0x20 MSTORE PUSH1 0x20 PUSH1 0x40 PUSH1 0x0 KECCAK256 SLOAD ISZERO ISZERO PUSH1 0x40 MLOAD SWAP1 DUP2 MSTORE RETURN JUMPDEST CALLVALUE PUSH2 0x117 JUMPI PUSH1 0x20 CALLDATASIZE PUSH1 0x3 NOT ADD SLT PUSH2 0x117 JUMPI PUSH1 0x4 CALLDATALOAD PUSH1 0x0 MSTORE PUSH1 0x1 PUSH1 0x20 MSTORE PUSH1 0x20 PUSH1 0x40 PUSH1 0x0 KECCAK256 SLOAD PUSH2 0x2C7 DUP2 ISZERO ISZERO PUSH2 0x6C8 JUMP JUMPDEST PUSH1 0x40 MLOAD SWAP1 DUP2 MSTORE RETURN JUMPDEST CALLVALUE PUSH2 0x117 JUMPI PUSH1 0x20 CALLDATASIZE PUSH1 0x3 NOT ADD SLT PUSH2 0x117 JUMPI PUSH1 0x4 CALLDATALOAD PUSH8 0xFFFFFFFFFFFFFFFF DUP2 GT PUSH2 0x117 JUMPI PUSH2 0x300 SWAP1 CALLDATASIZE SWAP1 PUSH1 0x4 ADD PUSH2 0x5C0 JUMP JUMPDEST SWAP1 PUSH2 0x30A DUP3 PUSH2 0x6B0 JUMP JUMPDEST PUSH1 0x40 MLOAD SWAP3 SWAP1 PUSH1 0x1F ADD PUSH1 0x1F NOT AND DUP4 ADD PUSH8 0xFFFFFFFFFFFFFFFF DUP2 GT DUP5 DUP3 LT OR PUSH2 0x3F8 JUMPI PUSH1 0x40 MSTORE DUP1 DUP4 MSTORE DUP3 DUP3 PUSH2 0x33C DUP4 PUSH2 0x6B0 JUMP JUMPDEST PUSH1 0x20 DUP4 ADD SWAP4 SWAP1 PUSH1 0x1F NOT ADD CALLDATASIZE DUP6 CALLDATACOPY PUSH1 0x0 JUMPDEST DUP2 DUP2 LT PUSH2 0x399 JUMPI POP POP POP PUSH1 0x40 MLOAD SWAP2 DUP3 SWAP2 PUSH1 0x20 DUP4 ADD SWAP1 PUSH1 0x20 DUP5 MSTORE MLOAD DUP1 SWAP2 MSTORE PUSH1 0x40 DUP4 ADD SWAP2 SWAP1 PUSH1 0x0 JUMPDEST DUP2 DUP2 LT PUSH2 0x380 JUMPI POP POP POP SUB SWAP1 RETURN JUMPDEST DUP3 MLOAD DUP5 MSTORE DUP6 SWAP5 POP PUSH1 0x20 SWAP4 DUP5 ADD SWAP4 SWAP1 SWAP3 ADD SWAP2 PUSH1 0x1 ADD PUSH2 0x372 JUMP JUMPDEST PUSH2 0x3A7 DUP2 DUP4 DUP6 SWAP7 SWAP8 SWAP6 PUSH2 0x5F1 JUMP JUMPDEST CALLDATALOAD PUSH1 0x0 MSTORE PUSH1 0x1 PUSH1 0x20 MSTORE PUSH1 0x40 PUSH1 0x0 KECCAK256 SLOAD SWAP1 PUSH2 0x3C2 DUP3 ISZERO ISZERO PUSH2 0x6C8 JUMP JUMPDEST DUP6 MLOAD DUP2 LT ISZERO PUSH2 0x3E2 JUMPI PUSH1 0x1 SWAP2 PUSH1 0x20 DUP3 PUSH1 0x5 SHL DUP9 ADD ADD MSTORE ADD SWAP4 SWAP3 SWAP2 SWAP4 PUSH2 0x34C JUMP JUMPDEST PUSH4 0x4E487B71 PUSH1 0xE0 SHL PUSH1 0x0 MSTORE PUSH1 0x32 PUSH1 0x4 MSTORE PUSH1 0x24 PUSH1 0x0 REVERT JUMPDEST PUSH4 0x4E487B71 PUSH1 0xE0 SHL PUSH1 0x0 MSTORE PUSH1 0x41 PUSH1 0x4 MSTORE PUSH1 0x24 PUSH1 0x0 REVERT JUMPDEST CALLVALUE PUSH2 0x117 JUMPI PUSH1 0x40 CALLDATASIZE PUSH1 0x3 NOT ADD SLT PUSH2 0x117 JUMPI PUSH1 0x4 CALLDATALOAD PUSH8 0xFFFFFFFFFFFFFFFF DUP2 GT PUSH2 0x117 JUMPI PUSH2 0x43F SWAP1 CALLDATASIZE SWAP1 PUSH1 0x4 ADD PUSH2 0x5C0 JUMP JUMPDEST SWAP1 PUSH1 0x24 CALLDATALOAD PUSH8 0xFFFFFFFFFFFFFFFF DUP2 GT PUSH2 0x117 JUMPI PUSH2 0x460 SWAP1 CALLDATASIZE SWAP1 PUSH1 0x4 ADD PUSH2 0x5C0 JUMP JUMPDEST PUSH2 0x46B SWAP4 SWAP2 SWAP4 PUSH2 0x714 JUMP JUMPDEST DUP1 DUP3 SUB PUSH2 0x582 JUMPI DUP2 ISZERO PUSH2 0x54E JUMPI PUSH1 0x0 JUMPDEST DUP3 DUP2 LT PUSH2 0x4D9 JUMPI POP PUSH32 0x2E2C3883459FCF82CB05B06AB698FCDE18A7AAF590A9C9B4D6C69E4D281FFD0 SWAP4 PUSH2 0x4CE SWAP2 PUSH2 0x4C0 PUSH1 0x40 MLOAD SWAP6 DUP7 SWAP6 PUSH1 0x60 DUP8 MSTORE PUSH1 0x60 DUP8 ADD SWAP2 PUSH2 0x68C JUMP JUMPDEST SWAP2 DUP5 DUP4 SUB PUSH1 0x20 DUP7 ADD MSTORE PUSH2 0x68C JUMP JUMPDEST TIMESTAMP PUSH1 0x40 DUP4 ADD MSTORE SUB SWAP1 LOG1 STOP JUMPDEST DUP1 PUSH2 0x4F2 PUSH2 0x4EA PUSH1 0x1 SWAP4 DUP7 DUP9 PUSH2 0x5F1 JUMP JUMPDEST CALLDATALOAD ISZERO ISZERO PUSH2 0x601 JUMP JUMPDEST PUSH2 0x508 PUSH2 0x500 DUP3 DUP6 DUP10 PUSH2 0x5F1 JUMP JUMPDEST CALLDATALOAD ISZERO ISZERO PUSH2 0x640 JUMP JUMPDEST PUSH2 0x513 DUP2 DUP5 DUP9 PUSH2 0x5F1 JUMP JUMPDEST CALLDATALOAD PUSH2 0x51F DUP3 DUP7 DUP9 PUSH2 0x5F1 JUMP JUMPDEST CALLDATALOAD PUSH1 0x0 MSTORE DUP3 PUSH1 0x20 MSTORE PUSH1 0x40 PUSH1 0x0 KECCAK256 SSTORE PUSH2 0x538 DUP2 DUP6 DUP8 PUSH2 0x5F1 JUMP JUMPDEST CALLDATALOAD PUSH1 0x0 MSTORE PUSH1 0x2 PUSH1 0x20 MSTORE TIMESTAMP PUSH1 0x40 PUSH1 0x0 KECCAK256 SSTORE ADD PUSH2 0x47B JUMP JUMPDEST PUSH1 0x40 MLOAD PUSH3 0x461BCD PUSH1 0xE5 SHL DUP2 MSTORE PUSH1 0x20 PUSH1 0x4 DUP3 ADD MSTORE PUSH1 0xC PUSH1 0x24 DUP3 ADD MSTORE PUSH12 0x456D70747920617272617973 PUSH1 0xA0 SHL PUSH1 0x44 DUP3 ADD MSTORE PUSH1 0x64 SWAP1 REVERT JUMPDEST PUSH1 0x40 MLOAD PUSH3 0x461BCD PUSH1 0xE5 SHL DUP2 MSTORE PUSH1 0x20 PUSH1 0x4 DUP3 ADD MSTORE PUSH1 0x16 PUSH1 0x24 DUP3 ADD MSTORE PUSH22 0x82E4E4C2F2E640D8CADCCEE8D040DAD2E6DAC2E8C6D PUSH1 0x53 SHL PUSH1 0x44 DUP3 ADD MSTORE PUSH1 0x64 SWAP1 REVERT JUMPDEST SWAP2 DUP2 PUSH1 0x1F DUP5 ADD SLT ISZERO PUSH2 0x117 JUMPI DUP3 CALLDATALOAD SWAP2 PUSH8 0xFFFFFFFFFFFFFFFF DUP4 GT PUSH2 0x117 JUMPI PUSH1 0x20 DUP1 DUP6 ADD SWAP5 DUP5 PUSH1 0x5 SHL ADD ADD GT PUSH2 0x117 JUMPI JUMP JUMPDEST SWAP2 SWAP1 DUP2 LT ISZERO PUSH2 0x3E2 JUMPI PUSH1 0x5 SHL ADD SWAP1 JUMP JUMPDEST ISZERO PUSH2 0x608 JUMPI JUMP JUMPDEST PUSH1 0x40 MLOAD PUSH3 0x461BCD PUSH1 0xE5 SHL DUP2 MSTORE PUSH1 0x20 PUSH1 0x4 DUP3 ADD MSTORE PUSH1 0x10 PUSH1 0x24 DUP3 ADD MSTORE PUSH16 0x125B9D985B1A59081B585C9AD95D1259 PUSH1 0x82 SHL PUSH1 0x44 DUP3 ADD MSTORE PUSH1 0x64 SWAP1 REVERT JUMPDEST ISZERO PUSH2 0x647 JUMPI JUMP JUMPDEST PUSH1 0x40 MLOAD PUSH3 0x461BCD PUSH1 0xE5 SHL DUP2 MSTORE PUSH1 0x20 PUSH1 0x4 DUP3 ADD MSTORE PUSH1 0x1F PUSH1 0x24 DUP3 ADD MSTORE PUSH32 0x5072696365206D7573742062652067726561746572207468616E207A65726F00 PUSH1 0x44 DUP3 ADD MSTORE PUSH1 0x64 SWAP1 REVERT JUMPDEST DUP2 DUP4 MSTORE SWAP1 SWAP2 PUSH1 0x1 PUSH1 0x1 PUSH1 0xFB SHL SUB DUP4 GT PUSH2 0x117 JUMPI PUSH1 0x20 SWAP3 PUSH1 0x5 SHL DUP1 SWAP3 DUP5 DUP4 ADD CALLDATACOPY ADD ADD SWAP1 JUMP JUMPDEST PUSH8 0xFFFFFFFFFFFFFFFF DUP2 GT PUSH2 0x3F8 JUMPI PUSH1 0x5 SHL PUSH1 0x20 ADD SWAP1 JUMP JUMPDEST ISZERO PUSH2 0x6CF JUMPI JUMP JUMPDEST PUSH1 0x40 MLOAD PUSH3 0x461BCD PUSH1 0xE5 SHL DUP2 MSTORE PUSH1 0x20 PUSH1 0x4 DUP3 ADD MSTORE PUSH1 0x18 PUSH1 0x24 DUP3 ADD MSTORE PUSH32 0x5072696365206E6F742073657420666F72206D61726B65740000000000000000 PUSH1 0x44 DUP3 ADD MSTORE PUSH1 0x64 SWAP1 REVERT JUMPDEST PUSH1 0x0 SLOAD PUSH1 0x1 PUSH1 0x1 PUSH1 0xA0 SHL SUB AND CALLER SUB PUSH2 0x728 JUMPI JUMP JUMPDEST PUSH4 0x118CDAA7 PUSH1 0xE0 SHL PUSH1 0x0 MSTORE CALLER PUSH1 0x4 MSTORE PUSH1 0x24 PUSH1 0x0 REVERT INVALID LOG2 PUSH5 0x6970667358 0x22 SLT KECCAK256 0x2C PUSH29 0x65502D39FE8C7006F41DE6333489D98A70124AA40BA67B5484B665469E BLOBBASEFEE PUSH5 0x736F6C6343 STOP ADDMOD SHL STOP CALLER "},"methodIdentifiers":{"PRICE_DECIMALS()":"f1a640f8","getLastUpdated(bytes32)":"4e900d48","getPrice(bytes32)":"31d98b3f","getPrices(bytes32[])":"26ee4836","hasPrice(bytes32)":"37c48202","owner()":"8da5cb5b","renounceOwnership()":"715018a6","transferOwnership(address)":"f2fde38b","updatePrice(bytes32,uint256)":"5f704f3e","updatePrices(bytes32[],uint256[])":"082d2c60"}},"storageLayout":{"storage":[{"astId":8,"contract":"contracts/FxPriceOracle.sol:FxPriceOracle","label":"_owner","offset":0,"slot":"0","type":"t_address"},{"astId":2090,"contract":"contracts/FxPriceOracle.sol:FxPriceOracle","label":"prices","offset":0,"slot":"1","type":"t_mapping(t_bytes32,t_uint256)"},{"astId":2094,"contract":"contracts/FxPriceOracle.sol:FxPriceOracle","label":"lastUpdated","offset":0,"slot":"2","type":"t_mapping(t_bytes32,t_uint256)"}],"types":{"t_address":{"encoding":"inplace","label":"address","numberOfBytes":"20"},"t_bytes32":{"encoding":"inplace","label":"bytes32","numberOfBytes":"32"},"t_mapping(t_bytes32,t_uint256)":{"encoding":"mapping","key":"t_bytes32","label":"mapping(bytes32 => uint256)","numberOfBytes":"32","value":"t_uint256"},"t_uint256":{"encoding":"inplace","label":"uint256","numberOfBytes":"32"}}}}}}