{
  "_format": "hh-sol-artifact-1",
  "contractName": "ChainUSD",
  "sourceName": "contracts/ChainUSD.sol",
  "abi": [
    {
      "inputs": [],
      "stateMutability": "nonpayable",
      "type": "constructor"
    },
    {
      "inputs": [],
      "name": "ECDSAInvalidSignature",
      "type": "error"
    },
    {
      "inputs": [
        {
          "internalType": "uint256",
          "name": "length",
          "type": "uint256"
        }
      ],
      "name": "ECDSAInvalidSignatureLength",
      "type": "error"
    },
    {
      "inputs": [
        {
          "internalType": "bytes32",
          "name": "s",
          "type": "bytes32"
        }
      ],
      "name": "ECDSAInvalidSignatureS",
      "type": "error"
    },
    {
      "inputs": [
        {
          "internalType": "address",
          "name": "spender",
          "type": "address"
        },
        {
          "internalType": "uint256",
          "name": "allowance",
          "type": "uint256"
        },
        {
          "internalType": "uint256",
          "name": "needed",
          "type": "uint256"
        }
      ],
      "name": "ERC20InsufficientAllowance",
      "type": "error"
    },
    {
      "inputs": [
        {
          "internalType": "address",
          "name": "sender",
          "type": "address"
        },
        {
          "internalType": "uint256",
          "name": "balance",
          "type": "uint256"
        },
        {
          "internalType": "uint256",
          "name": "needed",
          "type": "uint256"
        }
      ],
      "name": "ERC20InsufficientBalance",
      "type": "error"
    },
    {
      "inputs": [
        {
          "internalType": "address",
          "name": "approver",
          "type": "address"
        }
      ],
      "name": "ERC20InvalidApprover",
      "type": "error"
    },
    {
      "inputs": [
        {
          "internalType": "address",
          "name": "receiver",
          "type": "address"
        }
      ],
      "name": "ERC20InvalidReceiver",
      "type": "error"
    },
    {
      "inputs": [
        {
          "internalType": "address",
          "name": "sender",
          "type": "address"
        }
      ],
      "name": "ERC20InvalidSender",
      "type": "error"
    },
    {
      "inputs": [
        {
          "internalType": "address",
          "name": "spender",
          "type": "address"
        }
      ],
      "name": "ERC20InvalidSpender",
      "type": "error"
    },
    {
      "inputs": [
        {
          "internalType": "uint256",
          "name": "deadline",
          "type": "uint256"
        }
      ],
      "name": "ERC2612ExpiredSignature",
      "type": "error"
    },
    {
      "inputs": [
        {
          "internalType": "address",
          "name": "signer",
          "type": "address"
        },
        {
          "internalType": "address",
          "name": "owner",
          "type": "address"
        }
      ],
      "name": "ERC2612InvalidSigner",
      "type": "error"
    },
    {
      "inputs": [
        {
          "internalType": "address",
          "name": "account",
          "type": "address"
        },
        {
          "internalType": "uint256",
          "name": "currentNonce",
          "type": "uint256"
        }
      ],
      "name": "InvalidAccountNonce",
      "type": "error"
    },
    {
      "inputs": [],
      "name": "InvalidShortString",
      "type": "error"
    },
    {
      "inputs": [
        {
          "internalType": "address",
          "name": "owner",
          "type": "address"
        }
      ],
      "name": "OwnableInvalidOwner",
      "type": "error"
    },
    {
      "inputs": [
        {
          "internalType": "address",
          "name": "account",
          "type": "address"
        }
      ],
      "name": "OwnableUnauthorizedAccount",
      "type": "error"
    },
    {
      "inputs": [
        {
          "internalType": "string",
          "name": "str",
          "type": "string"
        }
      ],
      "name": "StringTooLong",
      "type": "error"
    },
    {
      "anonymous": false,
      "inputs": [
        {
          "indexed": true,
          "internalType": "address",
          "name": "owner",
          "type": "address"
        },
        {
          "indexed": true,
          "internalType": "address",
          "name": "spender",
          "type": "address"
        },
        {
          "indexed": false,
          "internalType": "uint256",
          "name": "value",
          "type": "uint256"
        }
      ],
      "name": "Approval",
      "type": "event"
    },
    {
      "anonymous": false,
      "inputs": [],
      "name": "EIP712DomainChanged",
      "type": "event"
    },
    {
      "anonymous": false,
      "inputs": [
        {
          "indexed": true,
          "internalType": "address",
          "name": "previousOwner",
          "type": "address"
        },
        {
          "indexed": true,
          "internalType": "address",
          "name": "newOwner",
          "type": "address"
        }
      ],
      "name": "OwnershipTransferred",
      "type": "event"
    },
    {
      "anonymous": false,
      "inputs": [
        {
          "indexed": true,
          "internalType": "address",
          "name": "from",
          "type": "address"
        },
        {
          "indexed": true,
          "internalType": "address",
          "name": "to",
          "type": "address"
        },
        {
          "indexed": false,
          "internalType": "uint256",
          "name": "value",
          "type": "uint256"
        }
      ],
      "name": "Transfer",
      "type": "event"
    },
    {
      "inputs": [],
      "name": "DOMAIN_SEPARATOR",
      "outputs": [
        {
          "internalType": "bytes32",
          "name": "",
          "type": "bytes32"
        }
      ],
      "stateMutability": "view",
      "type": "function"
    },
    {
      "inputs": [
        {
          "internalType": "address",
          "name": "owner",
          "type": "address"
        },
        {
          "internalType": "address",
          "name": "spender",
          "type": "address"
        }
      ],
      "name": "allowance",
      "outputs": [
        {
          "internalType": "uint256",
          "name": "",
          "type": "uint256"
        }
      ],
      "stateMutability": "view",
      "type": "function"
    },
    {
      "inputs": [
        {
          "internalType": "address",
          "name": "spender",
          "type": "address"
        },
        {
          "internalType": "uint256",
          "name": "value",
          "type": "uint256"
        }
      ],
      "name": "approve",
      "outputs": [
        {
          "internalType": "bool",
          "name": "",
          "type": "bool"
        }
      ],
      "stateMutability": "nonpayable",
      "type": "function"
    },
    {
      "inputs": [
        {
          "internalType": "address",
          "name": "account",
          "type": "address"
        }
      ],
      "name": "balanceOf",
      "outputs": [
        {
          "internalType": "uint256",
          "name": "",
          "type": "uint256"
        }
      ],
      "stateMutability": "view",
      "type": "function"
    },
    {
      "inputs": [
        {
          "internalType": "uint256",
          "name": "value",
          "type": "uint256"
        }
      ],
      "name": "burn",
      "outputs": [],
      "stateMutability": "nonpayable",
      "type": "function"
    },
    {
      "inputs": [
        {
          "internalType": "address",
          "name": "account",
          "type": "address"
        },
        {
          "internalType": "uint256",
          "name": "value",
          "type": "uint256"
        }
      ],
      "name": "burnFrom",
      "outputs": [],
      "stateMutability": "nonpayable",
      "type": "function"
    },
    {
      "inputs": [],
      "name": "decimals",
      "outputs": [
        {
          "internalType": "uint8",
          "name": "",
          "type": "uint8"
        }
      ],
      "stateMutability": "pure",
      "type": "function"
    },
    {
      "inputs": [],
      "name": "eip712Domain",
      "outputs": [
        {
          "internalType": "bytes1",
          "name": "fields",
          "type": "bytes1"
        },
        {
          "internalType": "string",
          "name": "name",
          "type": "string"
        },
        {
          "internalType": "string",
          "name": "version",
          "type": "string"
        },
        {
          "internalType": "uint256",
          "name": "chainId",
          "type": "uint256"
        },
        {
          "internalType": "address",
          "name": "verifyingContract",
          "type": "address"
        },
        {
          "internalType": "bytes32",
          "name": "salt",
          "type": "bytes32"
        },
        {
          "internalType": "uint256[]",
          "name": "extensions",
          "type": "uint256[]"
        }
      ],
      "stateMutability": "view",
      "type": "function"
    },
    {
      "inputs": [
        {
          "internalType": "address",
          "name": "to",
          "type": "address"
        },
        {
          "internalType": "uint256",
          "name": "amount",
          "type": "uint256"
        }
      ],
      "name": "mint",
      "outputs": [],
      "stateMutability": "nonpayable",
      "type": "function"
    },
    {
      "inputs": [],
      "name": "name",
      "outputs": [
        {
          "internalType": "string",
          "name": "",
          "type": "string"
        }
      ],
      "stateMutability": "view",
      "type": "function"
    },
    {
      "inputs": [
        {
          "internalType": "address",
          "name": "owner",
          "type": "address"
        }
      ],
      "name": "nonces",
      "outputs": [
        {
          "internalType": "uint256",
          "name": "",
          "type": "uint256"
        }
      ],
      "stateMutability": "view",
      "type": "function"
    },
    {
      "inputs": [],
      "name": "owner",
      "outputs": [
        {
          "internalType": "address",
          "name": "",
          "type": "address"
        }
      ],
      "stateMutability": "view",
      "type": "function"
    },
    {
      "inputs": [
        {
          "internalType": "address",
          "name": "owner",
          "type": "address"
        },
        {
          "internalType": "address",
          "name": "spender",
          "type": "address"
        },
        {
          "internalType": "uint256",
          "name": "value",
          "type": "uint256"
        },
        {
          "internalType": "uint256",
          "name": "deadline",
          "type": "uint256"
        },
        {
          "internalType": "uint8",
          "name": "v",
          "type": "uint8"
        },
        {
          "internalType": "bytes32",
          "name": "r",
          "type": "bytes32"
        },
        {
          "internalType": "bytes32",
          "name": "s",
          "type": "bytes32"
        }
      ],
      "name": "permit",
      "outputs": [],
      "stateMutability": "nonpayable",
      "type": "function"
    },
    {
      "inputs": [],
      "name": "renounceOwnership",
      "outputs": [],
      "stateMutability": "nonpayable",
      "type": "function"
    },
    {
      "inputs": [],
      "name": "symbol",
      "outputs": [
        {
          "internalType": "string",
          "name": "",
          "type": "string"
        }
      ],
      "stateMutability": "view",
      "type": "function"
    },
    {
      "inputs": [],
      "name": "totalSupply",
      "outputs": [
        {
          "internalType": "uint256",
          "name": "",
          "type": "uint256"
        }
      ],
      "stateMutability": "view",
      "type": "function"
    },
    {
      "inputs": [
        {
          "internalType": "address",
          "name": "to",
          "type": "address"
        },
        {
          "internalType": "uint256",
          "name": "value",
          "type": "uint256"
        }
      ],
      "name": "transfer",
      "outputs": [
        {
          "internalType": "bool",
          "name": "",
          "type": "bool"
        }
      ],
      "stateMutability": "nonpayable",
      "type": "function"
    },
    {
      "inputs": [
        {
          "internalType": "address",
          "name": "from",
          "type": "address"
        },
        {
          "internalType": "address",
          "name": "to",
          "type": "address"
        },
        {
          "internalType": "uint256",
          "name": "value",
          "type": "uint256"
        }
      ],
      "name": "transferFrom",
      "outputs": [
        {
          "internalType": "bool",
          "name": "",
          "type": "bool"
        }
      ],
      "stateMutability": "nonpayable",
      "type": "function"
    },
    {
      "inputs": [
        {
          "internalType": "address",
          "name": "newOwner",
          "type": "address"
        }
      ],
      "name": "transferOwnership",
      "outputs": [],
      "stateMutability": "nonpayable",
      "type": "function"
    }
  ],
  "bytecode": "0x6101606040523461049b576040516100186040826104a0565b60088152602081016710da185a5b9554d160c21b81526040519061003d6040836104a0565b600882526710da185a5b9554d160c21b6020830152604051926100616040856104a0565b600484526310d554d160e21b6020850152604051936100816040866104a0565b60018552603160f81b60208601908152845190946001600160401b0382116103985760035490600182811c92168015610491575b60208310146103785781601f849311610421575b50602090601f83116001146103b9576000926103ae575b50508160011b916000199060031b1c1916176003555b8051906001600160401b0382116103985760045490600182811c9216801561038e575b60208310146103785781601f849311610308575b50602090601f83116001146102a057600092610295575b50508160011b916000199060031b1c1916176004555b610163816104c3565b6101205261017084610671565b61014052519020918260e05251902080610100524660a0526040519060208201927f8b73c3c69bb8fe3d512ecc4cf759cc79239f7b179b0ffacaa9a75d522b39400f8452604083015260608201524660808201523060a082015260a081526101d960c0826104a0565b5190206080523060c052331561027f5760088054336001600160a01b03198216811790925560405191906001600160a01b03167f8be0079c531659141344cd1fd0a4f28419497f9722a3daafe3b4186f6b6457e0600080a3610f8f9081610810823960805181610baa015260a05181610c67015260c05181610b74015260e05181610bf901526101005181610c1f015261012051816104730152610140518161049c0152f35b631e4fbdf760e01b600052600060045260246000fd5b015190503880610144565b600460009081528281209350601f198516905b8181106102f057509084600195949392106102d7575b505050811b0160045561015a565b015160001960f88460031b161c191690553880806102c9565b929360206001819287860151815501950193016102b3565b60046000529091507f8a35acfbc15ff81a39ae7d344fd709f28e8600b4aa8c65c6b64bfe7fe36bd19b601f840160051c8101916020851061036e575b90601f859493920160051c01905b81811061035f575061012d565b60008155849350600101610352565b9091508190610344565b634e487b7160e01b600052602260045260246000fd5b91607f1691610119565b634e487b7160e01b600052604160045260246000fd5b0151905038806100e0565b600360009081528281209350601f198516905b81811061040957509084600195949392106103f0575b505050811b016003556100f6565b015160001960f88460031b161c191690553880806103e2565b929360206001819287860151815501950193016103cc565b60036000529091507fc2575a0e9e593c00f959f8c92f12db2869c3395a3b0502d05e2516446f71f85b601f840160051c81019160208510610487575b90601f859493920160051c01905b81811061047857506100c9565b6000815584935060010161046b565b909150819061045d565b91607f16916100b5565b600080fd5b601f909101601f19168101906001600160401b0382119082101761039857604052565b9081516020811060001461055b575090601f8151116104ff5760208151910151602082106104ef571790565b6000198260200360031b1b161790565b6040519063305a27a960e01b8252602060048301528181519182602483015260005b8381106105435750508160006044809484010152601f80199101168101030190fd5b60208282018101516044878401015285935001610521565b6001600160401b03811161039857600554600181811c91168015610667575b602082101461037857601f8111610631575b50602092601f82116001146105cc57928192936000926105c1575b50508160011b916000199060031b1c19161760055560ff90565b0151905038806105a7565b601f198216936005600052806000209160005b8681106106195750836001959610610600575b505050811b0160055560ff90565b015160001960f88460031b161c191690553880806105f2565b919260206001819286850151815501940192016105df565b6005600052601f6020600020910160051c810190601f830160051c015b81811061065b575061058c565b6000815560010161064e565b90607f169061057a565b908151602081106000146106f9575090601f81511161069d5760208151910151602082106104ef571790565b6040519063305a27a960e01b8252602060048301528181519182602483015260005b8381106106e15750508160006044809484010152601f80199101168101030190fd5b602082820181015160448784010152859350016106bf565b6001600160401b03811161039857600654600181811c91168015610805575b602082101461037857601f81116107cf575b50602092601f821160011461076a579281929360009261075f575b50508160011b916000199060031b1c19161760065560ff90565b015190503880610745565b601f198216936006600052806000209160005b8681106107b7575083600195961061079e575b505050811b0160065560ff90565b015160001960f88460031b161c19169055388080610790565b9192602060018192868501518155019401920161077d565b6006600052601f6020600020910160051c810190601f830160051c015b8181106107f9575061072a565b600081556001016107ec565b90607f169061071856fe608080604052600436101561001357600080fd5b60003560e01c90816306fdde03146107e457508063095ea7b3146107be57806318160ddd146107a057806323b872dd14610768578063313ce5671461074c5780633644e5151461072957806340c10f191461067557806342966c681461065857806370a082311461061e578063715018a6146105c157806379cc6790146105915780637ecebe001461055757806384b0196e1461045a5780638da5cb5b1461043157806395d89b411461034c578063a9059cbb1461031b578063d505accf146101d0578063dd62ed3e1461017f5763f2fde38b146100f057600080fd5b3461017a57602036600319011261017a576101096108ca565b610111610c8d565b6001600160a01b0316801561016457600880546001600160a01b0319811683179091556001600160a01b03167f8be0079c531659141344cd1fd0a4f28419497f9722a3daafe3b4186f6b6457e0600080a3005b631e4fbdf760e01b600052600060045260246000fd5b600080fd5b3461017a57604036600319011261017a576101986108ca565b6101a06108e0565b6001600160a01b039182166000908152600160209081526040808320949093168252928352819020549051908152f35b3461017a5760e036600319011261017a576101e96108ca565b6101f16108e0565b604435906064359260843560ff8116810361017a57844211610306576102c76102d09160018060a01b038416968760005260076020526040600020908154916001830190556040519060208201927f6e71edae12b1b97f4d1f60370fef10105fa2faae0126114a169c64845d6126c984528a604084015260018060a01b038916606084015289608084015260a083015260c082015260c0815261029560e0826109b3565b5190206102a0610b71565b906040519161190160f01b83526002830152602282015260c43591604260a4359220610e3c565b90929192610ed1565b6001600160a01b03168481036102ed57506102eb9350610d37565b005b84906325c0072360e11b60005260045260245260446000fd5b8463313c898160e11b60005260045260246000fd5b3461017a57604036600319011261017a576103416103376108ca565b6024359033610ac2565b602060405160018152f35b3461017a57600036600319011261017a57604051600060045461036e816108f6565b808452906001811690811561040d57506001146103ae575b6103aa83610396818503826109b3565b604051918291602083526020830190610889565b0390f35b600460009081527f8a35acfbc15ff81a39ae7d344fd709f28e8600b4aa8c65c6b64bfe7fe36bd19b939250905b8082106103f357509091508101602001610396610386565b9192600181602092548385880101520191019092916103db565b60ff191660208086019190915291151560051b840190910191506103969050610386565b3461017a57600036600319011261017a576008546040516001600160a01b039091168152602090f35b3461017a57600036600319011261017a576104f96104977f0000000000000000000000000000000000000000000000000000000000000000610d9e565b6104c07f0000000000000000000000000000000000000000000000000000000000000000610e05565b6020610507604051926104d383856109b3565b600084526000368137604051958695600f60f81b875260e08588015260e0870190610889565b908582036040870152610889565b466060850152306080850152600060a085015283810360c085015281808451928381520193019160005b82811061054057505050500390f35b835185528695509381019392810192600101610531565b3461017a57602036600319011261017a576001600160a01b036105786108ca565b1660005260076020526020604060002054604051908152f35b3461017a57604036600319011261017a576102eb6105ad6108ca565b602435906105bc8233836109eb565b610cb6565b3461017a57600036600319011261017a576105da610c8d565b600880546001600160a01b031981169091556000906001600160a01b03167f8be0079c531659141344cd1fd0a4f28419497f9722a3daafe3b4186f6b6457e08280a3005b3461017a57602036600319011261017a576001600160a01b0361063f6108ca565b1660005260006020526020604060002054604051908152f35b3461017a57602036600319011261017a576102eb60043533610cb6565b3461017a57604036600319011261017a5761068e6108ca565b6024359061069a610c8d565b6001600160a01b0316801561071357600254918083018093116106fd576020926002557fddf252ad1be2c89b69c2b068fc378daa952ba7f163c4a11628f55a4df523b3ef600093849284845283825260408420818154019055604051908152a380f35b634e487b7160e01b600052601160045260246000fd5b63ec442f0560e01b600052600060045260246000fd5b3461017a57600036600319011261017a576020610744610b71565b604051908152f35b3461017a57600036600319011261017a57602060405160128152f35b3461017a57606036600319011261017a576103416107846108ca565b61078c6108e0565b6044359161079b8333836109eb565b610ac2565b3461017a57600036600319011261017a576020600254604051908152f35b3461017a57604036600319011261017a576103416107da6108ca565b6024359033610d37565b3461017a57600036600319011261017a576000600354610803816108f6565b808452906001811690811561040d575060011461082a576103aa83610396818503826109b3565b600360009081527fc2575a0e9e593c00f959f8c92f12db2869c3395a3b0502d05e2516446f71f85b939250905b80821061086f57509091508101602001610396610386565b919260018160209254838588010152019101909291610857565b919082519283825260005b8481106108b5575050826000602080949584010152601f8019910116010190565b80602080928401015182828601015201610894565b600435906001600160a01b038216820361017a57565b602435906001600160a01b038216820361017a57565b90600182811c92168015610926575b602083101461091057565b634e487b7160e01b600052602260045260246000fd5b91607f1691610905565b60009291815491610940836108f6565b8083529260018116908115610996575060011461095c57505050565b60009081526020812093945091925b83831061097c575060209250010190565b60018160209294939454838587010152019101919061096b565b915050602093945060ff929192191683830152151560051b010190565b90601f8019910116810190811067ffffffffffffffff8211176109d557604052565b634e487b7160e01b600052604160045260246000fd5b6001600160a01b039081166000818152600160209081526040808320948616835293905291909120549291906000198410610a27575b50505050565b828410610a9d578015610a87576001600160a01b03821615610a7157600052600160205260406000209060018060a01b031660005260205260406000209103905538808080610a21565b634a1406b160e11b600052600060045260246000fd5b63e602df0560e01b600052600060045260246000fd5b508290637dc7a0d960e11b60005260018060a01b031660045260245260445260646000fd5b6001600160a01b0316908115610b5b576001600160a01b0316918215610713576000828152806020526040812054828110610b415791604082827fddf252ad1be2c89b69c2b068fc378daa952ba7f163c4a11628f55a4df523b3ef958760209652828652038282205586815280845220818154019055604051908152a3565b916064928463391434e360e21b8452600452602452604452fd5b634b637e8f60e11b600052600060045260246000fd5b307f00000000000000000000000000000000000000000000000000000000000000006001600160a01b03161480610c64575b15610bcc577f000000000000000000000000000000000000000000000000000000000000000090565b60405160208101907f8b73c3c69bb8fe3d512ecc4cf759cc79239f7b179b0ffacaa9a75d522b39400f82527f000000000000000000000000000000000000000000000000000000000000000060408201527f000000000000000000000000000000000000000000000000000000000000000060608201524660808201523060a082015260a08152610c5e60c0826109b3565b51902090565b507f00000000000000000000000000000000000000000000000000000000000000004614610ba3565b6008546001600160a01b03163303610ca157565b63118cdaa760e01b6000523360045260246000fd5b6001600160a01b03168015610b5b57600091818352826020526040832054818110610d1e57817fddf252ad1be2c89b69c2b068fc378daa952ba7f163c4a11628f55a4df523b3ef926020928587528684520360408620558060025403600255604051908152a3565b6064939263391434e360e21b8452600452602452604452fd5b6001600160a01b0316908115610a87576001600160a01b0316918215610a715760207f8c5be1e5ebec7d5bd14f71427d1e84f3dd0314c0f7b2291e5b200ac8c7c3b925918360005260018252604060002085600052825280604060002055604051908152a3565b60ff8114610de85760ff811690601f8211610dd7576040805192610dc282856109b3565b6020808552840191601f190136833783525290565b632cd44ac360e21b60005260046000fd5b50604051610e0281610dfb816005610930565b03826109b3565b90565b60ff8114610e295760ff811690601f8211610dd7576040805192610dc282856109b3565b50604051610e0281610dfb816006610930565b91907f7fffffffffffffffffffffffffffffff5d576e7357a4501ddfe92f46681b20a08411610ec5579160209360809260ff60009560405194855216868401526040830152606082015282805260015afa15610eb9576000516001600160a01b03811615610ead5790600090600090565b50600090600190600090565b6040513d6000823e3d90fd5b50505060009160039190565b9190916004811015610f435780610ee757509050565b600060018203610f025763f645eedf60e01b60005260046000fd5b5060028103610f20578263fce698f760e01b60005260045260246000fd5b9091600360009214610f30575050565b6335e2f38360e21b825260045260249150fd5b634e487b7160e01b600052602160045260246000fdfea2646970667358221220eccdf1e7e37b38738a9d869e1da21a50855708c80bbaa85980a5bbdf37b14dc564736f6c634300081b0033",
  "linkReferences": {},
  "deployedLinkReferences": {}
}