{
  "_format": "hh-sol-artifact-1",
  "contractName": "TokenizedStock",
  "sourceName": "contracts/TokenizedStock.sol",
  "abi": [
    {
      "inputs": [
        {
          "internalType": "string",
          "name": "name_",
          "type": "string"
        },
        {
          "internalType": "string",
          "name": "symbol_",
          "type": "string"
        },
        {
          "internalType": "address",
          "name": "initialVault",
          "type": "address"
        }
      ],
      "stateMutability": "nonpayable",
      "type": "constructor"
    },
    {
      "inputs": [
        {
          "internalType": "address",
          "name": "spender",
          "type": "address"
        },
        {
          "internalType": "uint256",
          "name": "allowance",
          "type": "uint256"
        },
        {
          "internalType": "uint256",
          "name": "needed",
          "type": "uint256"
        }
      ],
      "name": "ERC20InsufficientAllowance",
      "type": "error"
    },
    {
      "inputs": [
        {
          "internalType": "address",
          "name": "sender",
          "type": "address"
        },
        {
          "internalType": "uint256",
          "name": "balance",
          "type": "uint256"
        },
        {
          "internalType": "uint256",
          "name": "needed",
          "type": "uint256"
        }
      ],
      "name": "ERC20InsufficientBalance",
      "type": "error"
    },
    {
      "inputs": [
        {
          "internalType": "address",
          "name": "approver",
          "type": "address"
        }
      ],
      "name": "ERC20InvalidApprover",
      "type": "error"
    },
    {
      "inputs": [
        {
          "internalType": "address",
          "name": "receiver",
          "type": "address"
        }
      ],
      "name": "ERC20InvalidReceiver",
      "type": "error"
    },
    {
      "inputs": [
        {
          "internalType": "address",
          "name": "sender",
          "type": "address"
        }
      ],
      "name": "ERC20InvalidSender",
      "type": "error"
    },
    {
      "inputs": [
        {
          "internalType": "address",
          "name": "spender",
          "type": "address"
        }
      ],
      "name": "ERC20InvalidSpender",
      "type": "error"
    },
    {
      "inputs": [
        {
          "internalType": "address",
          "name": "owner",
          "type": "address"
        }
      ],
      "name": "OwnableInvalidOwner",
      "type": "error"
    },
    {
      "inputs": [
        {
          "internalType": "address",
          "name": "account",
          "type": "address"
        }
      ],
      "name": "OwnableUnauthorizedAccount",
      "type": "error"
    },
    {
      "anonymous": false,
      "inputs": [
        {
          "indexed": true,
          "internalType": "address",
          "name": "owner",
          "type": "address"
        },
        {
          "indexed": true,
          "internalType": "address",
          "name": "spender",
          "type": "address"
        },
        {
          "indexed": false,
          "internalType": "uint256",
          "name": "value",
          "type": "uint256"
        }
      ],
      "name": "Approval",
      "type": "event"
    },
    {
      "anonymous": false,
      "inputs": [
        {
          "indexed": true,
          "internalType": "address",
          "name": "previousOwner",
          "type": "address"
        },
        {
          "indexed": true,
          "internalType": "address",
          "name": "newOwner",
          "type": "address"
        }
      ],
      "name": "OwnershipTransferred",
      "type": "event"
    },
    {
      "anonymous": false,
      "inputs": [
        {
          "indexed": true,
          "internalType": "address",
          "name": "from",
          "type": "address"
        },
        {
          "indexed": true,
          "internalType": "address",
          "name": "to",
          "type": "address"
        },
        {
          "indexed": false,
          "internalType": "uint256",
          "name": "value",
          "type": "uint256"
        }
      ],
      "name": "Transfer",
      "type": "event"
    },
    {
      "anonymous": false,
      "inputs": [
        {
          "indexed": true,
          "internalType": "address",
          "name": "oldVault",
          "type": "address"
        },
        {
          "indexed": true,
          "internalType": "address",
          "name": "newVault",
          "type": "address"
        }
      ],
      "name": "VaultUpdated",
      "type": "event"
    },
    {
      "inputs": [
        {
          "internalType": "address",
          "name": "owner",
          "type": "address"
        },
        {
          "internalType": "address",
          "name": "spender",
          "type": "address"
        }
      ],
      "name": "allowance",
      "outputs": [
        {
          "internalType": "uint256",
          "name": "",
          "type": "uint256"
        }
      ],
      "stateMutability": "view",
      "type": "function"
    },
    {
      "inputs": [
        {
          "internalType": "address",
          "name": "spender",
          "type": "address"
        },
        {
          "internalType": "uint256",
          "name": "value",
          "type": "uint256"
        }
      ],
      "name": "approve",
      "outputs": [
        {
          "internalType": "bool",
          "name": "",
          "type": "bool"
        }
      ],
      "stateMutability": "nonpayable",
      "type": "function"
    },
    {
      "inputs": [
        {
          "internalType": "address",
          "name": "account",
          "type": "address"
        }
      ],
      "name": "balanceOf",
      "outputs": [
        {
          "internalType": "uint256",
          "name": "",
          "type": "uint256"
        }
      ],
      "stateMutability": "view",
      "type": "function"
    },
    {
      "inputs": [
        {
          "internalType": "address",
          "name": "to",
          "type": "address"
        }
      ],
      "name": "bootstrapMint",
      "outputs": [],
      "stateMutability": "nonpayable",
      "type": "function"
    },
    {
      "inputs": [],
      "name": "bootstrapped",
      "outputs": [
        {
          "internalType": "bool",
          "name": "",
          "type": "bool"
        }
      ],
      "stateMutability": "view",
      "type": "function"
    },
    {
      "inputs": [
        {
          "internalType": "address",
          "name": "from",
          "type": "address"
        },
        {
          "internalType": "uint256",
          "name": "amount",
          "type": "uint256"
        }
      ],
      "name": "burn",
      "outputs": [],
      "stateMutability": "nonpayable",
      "type": "function"
    },
    {
      "inputs": [],
      "name": "decimals",
      "outputs": [
        {
          "internalType": "uint8",
          "name": "",
          "type": "uint8"
        }
      ],
      "stateMutability": "view",
      "type": "function"
    },
    {
      "inputs": [
        {
          "internalType": "address",
          "name": "to",
          "type": "address"
        },
        {
          "internalType": "uint256",
          "name": "amount",
          "type": "uint256"
        }
      ],
      "name": "mint",
      "outputs": [],
      "stateMutability": "nonpayable",
      "type": "function"
    },
    {
      "inputs": [],
      "name": "name",
      "outputs": [
        {
          "internalType": "string",
          "name": "",
          "type": "string"
        }
      ],
      "stateMutability": "view",
      "type": "function"
    },
    {
      "inputs": [],
      "name": "owner",
      "outputs": [
        {
          "internalType": "address",
          "name": "",
          "type": "address"
        }
      ],
      "stateMutability": "view",
      "type": "function"
    },
    {
      "inputs": [],
      "name": "renounceOwnership",
      "outputs": [],
      "stateMutability": "nonpayable",
      "type": "function"
    },
    {
      "inputs": [
        {
          "internalType": "address",
          "name": "newVault",
          "type": "address"
        }
      ],
      "name": "setVault",
      "outputs": [],
      "stateMutability": "nonpayable",
      "type": "function"
    },
    {
      "inputs": [],
      "name": "symbol",
      "outputs": [
        {
          "internalType": "string",
          "name": "",
          "type": "string"
        }
      ],
      "stateMutability": "view",
      "type": "function"
    },
    {
      "inputs": [],
      "name": "totalSupply",
      "outputs": [
        {
          "internalType": "uint256",
          "name": "",
          "type": "uint256"
        }
      ],
      "stateMutability": "view",
      "type": "function"
    },
    {
      "inputs": [
        {
          "internalType": "address",
          "name": "to",
          "type": "address"
        },
        {
          "internalType": "uint256",
          "name": "value",
          "type": "uint256"
        }
      ],
      "name": "transfer",
      "outputs": [
        {
          "internalType": "bool",
          "name": "",
          "type": "bool"
        }
      ],
      "stateMutability": "nonpayable",
      "type": "function"
    },
    {
      "inputs": [
        {
          "internalType": "address",
          "name": "from",
          "type": "address"
        },
        {
          "internalType": "address",
          "name": "to",
          "type": "address"
        },
        {
          "internalType": "uint256",
          "name": "value",
          "type": "uint256"
        }
      ],
      "name": "transferFrom",
      "outputs": [
        {
          "internalType": "bool",
          "name": "",
          "type": "bool"
        }
      ],
      "stateMutability": "nonpayable",
      "type": "function"
    },
    {
      "inputs": [
        {
          "internalType": "address",
          "name": "newOwner",
          "type": "address"
        }
      ],
      "name": "transferOwnership",
      "outputs": [],
      "stateMutability": "nonpayable",
      "type": "function"
    },
    {
      "inputs": [],
      "name": "vault",
      "outputs": [
        {
          "internalType": "address",
          "name": "",
          "type": "address"
        }
      ],
      "stateMutability": "view",
      "type": "function"
    }
  ],
  "bytecode": "0x608060405234610401576110338038038061001981610406565b9283398101906060818303126104015780516001600160401b038111610401578261004591830161042b565b60208201519092906001600160401b0381116104015760409161006991840161042b565b9101516001600160a01b038116908190036104015782516001600160401b03811161030a57600354600181811c911680156103f7575b60208210146102ea57601f8111610392575b506020601f821160011461032b5781929394600092610320575b50508160011b916000199060031b1c1916176003555b81516001600160401b03811161030a57600454600181811c91168015610300575b60208210146102ea57601f8111610285575b50602092601f82116001146102205792819293600092610215575b50508160011b916000199060031b1c1916176004555b33156101ff5760058054336001600160a01b03198216811790925560405191906001600160a01b03167f8be0079c531659141344cd1fd0a4f28419497f9722a3daafe3b4186f6b6457e0600080a381156101bd5750600680546001600160a01b031916919091179055604051610b9c90816104978239f35b62461bcd60e51b815260206004820152601560248201527f496e76616c6964207661756c74206164647265737300000000000000000000006044820152606490fd5b631e4fbdf760e01b600052600060045260246000fd5b01519050388061012f565b601f198216936004600052806000209160005b86811061026d5750836001959610610254575b505050811b01600455610145565b015160001960f88460031b161c19169055388080610246565b91926020600181928685015181550194019201610233565b60046000527f8a35acfbc15ff81a39ae7d344fd709f28e8600b4aa8c65c6b64bfe7fe36bd19b601f830160051c810191602084106102e0575b601f0160051c01905b8181106102d45750610114565b600081556001016102c7565b90915081906102be565b634e487b7160e01b600052602260045260246000fd5b90607f1690610102565b634e487b7160e01b600052604160045260246000fd5b0151905038806100cb565b601f198216906003600052806000209160005b81811061037a57509583600195969710610361575b505050811b016003556100e1565b015160001960f88460031b161c19169055388080610353565b9192602060018192868b01518155019401920161033e565b60036000527fc2575a0e9e593c00f959f8c92f12db2869c3395a3b0502d05e2516446f71f85b601f830160051c810191602084106103ed575b601f0160051c01905b8181106103e157506100b1565b600081556001016103d4565b90915081906103cb565b90607f169061009f565b600080fd5b6040519190601f01601f191682016001600160401b0381118382101761030a57604052565b81601f82011215610401578051906001600160401b03821161030a5761045a601f8301601f1916602001610406565b92828452602083830101116104015760005b82811061048157505060206000918301015290565b8060208092840101518282870101520161046c56fe608080604052600436101561001357600080fd5b60003560e01c90816306fdde031461088857508063095ea7b31461080257806318160ddd146107e457806323b872dd146106f7578063313ce567146106db57806335142c8c146106b557806340c10f19146106555780636817031b146105a457806370a082311461056a578063715018a61461050d5780638da5cb5b146104e457806395d89b41146103c35780639dc29fac146102f7578063a9059cbb146102c6578063b19c6733146101ee578063dd62ed3e1461019d578063f2fde38b146101135763fbfa77cf146100e557600080fd5b3461010e57600036600319011261010e576006546040516001600160a01b039091168152602090f35b600080fd5b3461010e57602036600319011261010e5761012c6109a4565b610134610ab5565b6001600160a01b0316801561018757600580546001600160a01b0319811683179091556001600160a01b03167f8be0079c531659141344cd1fd0a4f28419497f9722a3daafe3b4186f6b6457e0600080a3005b631e4fbdf760e01b600052600060045260246000fd5b3461010e57604036600319011261010e576101b66109a4565b6101be6109ba565b6001600160a01b039182166000908152600160209081526040808320949093168252928352819020549051908152f35b3461010e57602036600319011261010e576102076109a4565b61020f610ab5565b60065460ff8160a01c1661028a576001600160a01b038216156102515760ff60a01b1916600160a01b1760065561024f90670de0b6b3a764000090610ade565b005b60405162461bcd60e51b8152602060048201526011602482015270125b9d985b1a59081c9958da5c1a595b9d607a1b6044820152606490fd5b60405162461bcd60e51b8152602060048201526014602482015273105b1c9958591e48189bdbdd1cdd1c985c1c195960621b6044820152606490fd5b3461010e57604036600319011261010e576102ec6102e26109a4565b6024359033610a1c565b602060405160018152f35b3461010e57604036600319011261010e576103106109a4565b6024359061032960018060a01b036006541633146109d0565b6001600160a01b03169081156103ad576000908282528160205260408220548181106103955760208285937fddf252ad1be2c89b69c2b068fc378daa952ba7f163c4a11628f55a4df523b3ef93869787528684520360408620558060025403600255604051908152a380f35b60649363391434e360e21b8452600452602452604452fd5b634b637e8f60e11b600052600060045260246000fd5b3461010e57600036600319011261010e5760405160006004548060011c906001811680156104da575b6020831081146104c6578285529081156104aa5750600114610453575b50819003601f01601f191681019067ffffffffffffffff82118183101761043d576104398291826040528261095b565b0390f35b634e487b7160e01b600052604160045260246000fd5b905060046000527f8a35acfbc15ff81a39ae7d344fd709f28e8600b4aa8c65c6b64bfe7fe36bd19b6000905b82821061049457506020915082010182610409565b600181602092548385880101520191019061047f565b90506020925060ff191682840152151560051b82010182610409565b634e487b7160e01b84526022600452602484fd5b91607f16916103ec565b3461010e57600036600319011261010e576005546040516001600160a01b039091168152602090f35b3461010e57600036600319011261010e57610526610ab5565b600580546001600160a01b031981169091556000906001600160a01b03167f8be0079c531659141344cd1fd0a4f28419497f9722a3daafe3b4186f6b6457e08280a3005b3461010e57602036600319011261010e576001600160a01b0361058b6109a4565b1660005260006020526020604060002054604051908152f35b3461010e57602036600319011261010e576105bd6109a4565b6105c5610ab5565b6001600160a01b0316801561061857600680546001600160a01b0319811683179091556001600160a01b03167f483bdedaaf23706a9800ac1af0d852b34927780d79f9d6ba60a80c7cad75ea39600080a3005b60405162461bcd60e51b8152602060048201526015602482015274496e76616c6964207661756c74206164647265737360581b6044820152606490fd5b3461010e57604036600319011261010e5761066e6109a4565b61068360018060a01b036006541633146109d0565b6001600160a01b0381161561069f5761024f9060243590610ade565b63ec442f0560e01b600052600060045260246000fd5b3461010e57600036600319011261010e57602060ff60065460a01c166040519015158152f35b3461010e57600036600319011261010e57602060405160128152f35b3461010e57606036600319011261010e576107106109a4565b6107186109ba565b6001600160a01b0382166000818152600160209081526040808320338452909152902054909260443592916000198110610758575b506102ec9350610a1c565b8381106107c75784156107b157331561079b576102ec946000526001602052604060002060018060a01b033316600052602052836040600020910390558461074d565b634a1406b160e11b600052600060045260246000fd5b63e602df0560e01b600052600060045260246000fd5b8390637dc7a0d960e11b6000523360045260245260445260646000fd5b3461010e57600036600319011261010e576020600254604051908152f35b3461010e57604036600319011261010e5761081b6109a4565b6024359033156107b1576001600160a01b031690811561079b57336000526001602052604060002082600052602052806040600020556040519081527f8c5be1e5ebec7d5bd14f71427d1e84f3dd0314c0f7b2291e5b200ac8c7c3b92560203392a3602060405160018152f35b3461010e57600036600319011261010e5760006003548060011c90600181168015610951575b6020831081146104c6578285529081156104aa57506001146108fa5750819003601f01601f191681019067ffffffffffffffff82118183101761043d576104398291826040528261095b565b905060036000527fc2575a0e9e593c00f959f8c92f12db2869c3395a3b0502d05e2516446f71f85b6000905b82821061093b57506020915082010182610409565b6001816020925483858801015201910190610926565b91607f16916108ae565b91909160208152825180602083015260005b81811061098e575060409293506000838284010152601f8019910116010190565b806020809287010151604082860101520161096d565b600435906001600160a01b038216820361010e57565b602435906001600160a01b038216820361010e57565b156109d757565b60405162461bcd60e51b815260206004820152601760248201527f43616c6c6572206973206e6f7420746865207661756c740000000000000000006044820152606490fd5b6001600160a01b03169081156103ad576001600160a01b031691821561069f576000828152806020526040812054828110610a9b5791604082827fddf252ad1be2c89b69c2b068fc378daa952ba7f163c4a11628f55a4df523b3ef958760209652828652038282205586815280845220818154019055604051908152a3565b916064928463391434e360e21b8452600452602452604452fd5b6005546001600160a01b03163303610ac957565b63118cdaa760e01b6000523360045260246000fd5b60025490828201809211610b50576002919091556001600160a01b0316906000907fddf252ad1be2c89b69c2b068fc378daa952ba7f163c4a11628f55a4df523b3ef9060209084610b3b5780600254036002555b604051908152a3565b84845283825260408420818154019055610b32565b634e487b7160e01b600052601160045260246000fdfea2646970667358221220137da5d3974dbfa68f28d40db60dcd230f300d237560045383a4f7d5b7bf639d64736f6c634300081b0033",
  "linkReferences": {},
  "deployedLinkReferences": {}
}