{
  "_format": "hh-sol-artifact-1",
  "contractName": "StockVault",
  "sourceName": "contracts/StockVault.sol",
  "abi": [
    {
      "inputs": [
        {
          "internalType": "address",
          "name": "_priceOracle",
          "type": "address"
        },
        {
          "internalType": "address",
          "name": "_cusd",
          "type": "address"
        },
        {
          "internalType": "address",
          "name": "_usdc",
          "type": "address"
        },
        {
          "internalType": "address",
          "name": "_usdt",
          "type": "address"
        }
      ],
      "stateMutability": "nonpayable",
      "type": "constructor"
    },
    {
      "inputs": [
        {
          "internalType": "address",
          "name": "owner",
          "type": "address"
        }
      ],
      "name": "OwnableInvalidOwner",
      "type": "error"
    },
    {
      "inputs": [
        {
          "internalType": "address",
          "name": "account",
          "type": "address"
        }
      ],
      "name": "OwnableUnauthorizedAccount",
      "type": "error"
    },
    {
      "inputs": [],
      "name": "ReentrancyGuardReentrantCall",
      "type": "error"
    },
    {
      "inputs": [
        {
          "internalType": "address",
          "name": "token",
          "type": "address"
        }
      ],
      "name": "SafeERC20FailedOperation",
      "type": "error"
    },
    {
      "anonymous": false,
      "inputs": [
        {
          "indexed": true,
          "internalType": "address",
          "name": "user",
          "type": "address"
        },
        {
          "indexed": true,
          "internalType": "address",
          "name": "stableToken",
          "type": "address"
        },
        {
          "indexed": true,
          "internalType": "address",
          "name": "stockToken",
          "type": "address"
        },
        {
          "indexed": false,
          "internalType": "uint256",
          "name": "stableAmountIn",
          "type": "uint256"
        },
        {
          "indexed": false,
          "internalType": "uint256",
          "name": "stockAmountOut",
          "type": "uint256"
        }
      ],
      "name": "BuyStock",
      "type": "event"
    },
    {
      "anonymous": false,
      "inputs": [
        {
          "indexed": true,
          "internalType": "address",
          "name": "previousOwner",
          "type": "address"
        },
        {
          "indexed": true,
          "internalType": "address",
          "name": "newOwner",
          "type": "address"
        }
      ],
      "name": "OwnershipTransferred",
      "type": "event"
    },
    {
      "anonymous": false,
      "inputs": [
        {
          "indexed": true,
          "internalType": "address",
          "name": "user",
          "type": "address"
        },
        {
          "indexed": true,
          "internalType": "address",
          "name": "stableToken",
          "type": "address"
        },
        {
          "indexed": true,
          "internalType": "address",
          "name": "stockToken",
          "type": "address"
        },
        {
          "indexed": false,
          "internalType": "uint256",
          "name": "stockAmountIn",
          "type": "uint256"
        },
        {
          "indexed": false,
          "internalType": "uint256",
          "name": "stableAmountOut",
          "type": "uint256"
        }
      ],
      "name": "SellStock",
      "type": "event"
    },
    {
      "anonymous": false,
      "inputs": [
        {
          "indexed": true,
          "internalType": "address",
          "name": "stock",
          "type": "address"
        },
        {
          "indexed": false,
          "internalType": "uint8",
          "name": "decimals",
          "type": "uint8"
        }
      ],
      "name": "StockRegistered",
      "type": "event"
    },
    {
      "inputs": [],
      "name": "CUSD",
      "outputs": [
        {
          "internalType": "address",
          "name": "",
          "type": "address"
        }
      ],
      "stateMutability": "view",
      "type": "function"
    },
    {
      "inputs": [],
      "name": "USDC",
      "outputs": [
        {
          "internalType": "address",
          "name": "",
          "type": "address"
        }
      ],
      "stateMutability": "view",
      "type": "function"
    },
    {
      "inputs": [],
      "name": "USDT",
      "outputs": [
        {
          "internalType": "address",
          "name": "",
          "type": "address"
        }
      ],
      "stateMutability": "view",
      "type": "function"
    },
    {
      "inputs": [
        {
          "internalType": "address",
          "name": "stableToken",
          "type": "address"
        },
        {
          "internalType": "address",
          "name": "stockToken",
          "type": "address"
        },
        {
          "internalType": "uint256",
          "name": "stableAmount",
          "type": "uint256"
        },
        {
          "internalType": "uint256",
          "name": "minStockOut",
          "type": "uint256"
        }
      ],
      "name": "buyStock",
      "outputs": [],
      "stateMutability": "nonpayable",
      "type": "function"
    },
    {
      "inputs": [
        {
          "internalType": "address",
          "name": "token",
          "type": "address"
        },
        {
          "internalType": "uint256",
          "name": "amount",
          "type": "uint256"
        }
      ],
      "name": "emergencyWithdraw",
      "outputs": [],
      "stateMutability": "nonpayable",
      "type": "function"
    },
    {
      "inputs": [
        {
          "internalType": "address",
          "name": "token",
          "type": "address"
        }
      ],
      "name": "getStableInfo",
      "outputs": [
        {
          "internalType": "bool",
          "name": "isStable",
          "type": "bool"
        },
        {
          "internalType": "uint8",
          "name": "decimals",
          "type": "uint8"
        }
      ],
      "stateMutability": "view",
      "type": "function"
    },
    {
      "inputs": [
        {
          "internalType": "address",
          "name": "token",
          "type": "address"
        }
      ],
      "name": "getStockInfo",
      "outputs": [
        {
          "internalType": "bool",
          "name": "isStock",
          "type": "bool"
        },
        {
          "internalType": "uint8",
          "name": "decimals",
          "type": "uint8"
        }
      ],
      "stateMutability": "view",
      "type": "function"
    },
    {
      "inputs": [],
      "name": "owner",
      "outputs": [
        {
          "internalType": "address",
          "name": "",
          "type": "address"
        }
      ],
      "stateMutability": "view",
      "type": "function"
    },
    {
      "inputs": [],
      "name": "priceOracle",
      "outputs": [
        {
          "internalType": "contract IStockPriceOracle",
          "name": "",
          "type": "address"
        }
      ],
      "stateMutability": "view",
      "type": "function"
    },
    {
      "inputs": [
        {
          "internalType": "address",
          "name": "stableToken",
          "type": "address"
        },
        {
          "internalType": "address",
          "name": "stockToken",
          "type": "address"
        },
        {
          "internalType": "uint256",
          "name": "stableAmount",
          "type": "uint256"
        }
      ],
      "name": "quoteBuy",
      "outputs": [
        {
          "internalType": "uint256",
          "name": "",
          "type": "uint256"
        }
      ],
      "stateMutability": "view",
      "type": "function"
    },
    {
      "inputs": [
        {
          "internalType": "address",
          "name": "stockToken",
          "type": "address"
        },
        {
          "internalType": "address",
          "name": "stableToken",
          "type": "address"
        },
        {
          "internalType": "uint256",
          "name": "stockAmount",
          "type": "uint256"
        }
      ],
      "name": "quoteSell",
      "outputs": [
        {
          "internalType": "uint256",
          "name": "",
          "type": "uint256"
        }
      ],
      "stateMutability": "view",
      "type": "function"
    },
    {
      "inputs": [
        {
          "internalType": "address",
          "name": "stockToken",
          "type": "address"
        }
      ],
      "name": "registerStock",
      "outputs": [],
      "stateMutability": "nonpayable",
      "type": "function"
    },
    {
      "inputs": [],
      "name": "renounceOwnership",
      "outputs": [],
      "stateMutability": "nonpayable",
      "type": "function"
    },
    {
      "inputs": [
        {
          "internalType": "address",
          "name": "stockToken",
          "type": "address"
        },
        {
          "internalType": "address",
          "name": "stableToken",
          "type": "address"
        },
        {
          "internalType": "uint256",
          "name": "stockAmount",
          "type": "uint256"
        },
        {
          "internalType": "uint256",
          "name": "minStableOut",
          "type": "uint256"
        }
      ],
      "name": "sellStock",
      "outputs": [],
      "stateMutability": "nonpayable",
      "type": "function"
    },
    {
      "inputs": [
        {
          "internalType": "address",
          "name": "",
          "type": "address"
        }
      ],
      "name": "stables",
      "outputs": [
        {
          "internalType": "bool",
          "name": "isStable",
          "type": "bool"
        },
        {
          "internalType": "uint8",
          "name": "decimals",
          "type": "uint8"
        }
      ],
      "stateMutability": "view",
      "type": "function"
    },
    {
      "inputs": [
        {
          "internalType": "address",
          "name": "",
          "type": "address"
        }
      ],
      "name": "stocks",
      "outputs": [
        {
          "internalType": "bool",
          "name": "isStock",
          "type": "bool"
        },
        {
          "internalType": "uint8",
          "name": "decimals",
          "type": "uint8"
        }
      ],
      "stateMutability": "view",
      "type": "function"
    },
    {
      "inputs": [
        {
          "internalType": "address",
          "name": "newOwner",
          "type": "address"
        }
      ],
      "name": "transferOwnership",
      "outputs": [],
      "stateMutability": "nonpayable",
      "type": "function"
    }
  ],
  "bytecode": "0x6101008060405234610292576080816115f080380380916100208285610297565b83398101031261029257610033816102d0565b90610040602082016102d0565b6100586060610051604085016102d0565b93016102d0565b91331561027c5760008054336001600160a01b0319821681178355604051969290916001600160a01b0316907f8be0079c531659141344cd1fd0a4f28419497f9722a3daafe3b4186f6b6457e09080a3600180556001600160a01b031693841561023a57506001600160a01b038216156101f5576001600160a01b038116156101b0576001600160a01b0383161561016b576101096101099261010e956080528060a0528260c0528460e0526102e4565b6102e4565b60405161123190816103bf8239608051818181610251015281816105110152818161077a01528181610b9001528181610c2201528181610f2001526110f1015260a05181610663015260c0518161061e015260e051816104610152f35b60405162461bcd60e51b815260206004820152601460248201527f496e76616c6964205553445420616464726573730000000000000000000000006044820152606490fd5b60405162461bcd60e51b815260206004820152601460248201527f496e76616c6964205553444320616464726573730000000000000000000000006044820152606490fd5b60405162461bcd60e51b815260206004820152601460248201527f496e76616c6964204355534420616464726573730000000000000000000000006044820152606490fd5b62461bcd60e51b815260206004820152601660248201527f496e76616c6964206f7261636c652061646472657373000000000000000000006044820152606490fd5b631e4fbdf760e01b600052600060045260246000fd5b600080fd5b601f909101601f19168101906001600160401b038211908210176102ba57604052565b634e487b7160e01b600052604160045260246000fd5b51906001600160a01b038216820361029257565b60405163313ce56760e01b81526001600160a01b039190911690602081600481855afa9081156103b25760009161036f575b5060408051929083016001600160401b038111848210176102ba576040526001835260ff602084019216825260005260026020526040600020915115159060ff61ff008454925160081b1692169061ffff191617179055565b6020813d6020116103aa575b8161038860209383610297565b810103126103a657519060ff821682036103a3575038610316565b80fd5b5080fd5b3d915061037b565b6040513d6000823e3d90fdfe608080604052600436101561001357600080fd5b600090813560e01c9081632630c12f14610c0e5750806334259b1b14610b1157806339e2846b14610ada5780634743a51014610a7f5780635269b58c146108e8578063543a1178146108925780636fe5793c146106ec578063715018a614610692578063758316c91461064d57806389a30271146106085780638da5cb5b146105e157806395ccea67146105a15780639981d63214610490578063c54e44eb1461044b578063db6c7f1d146101c3578063e5792884146101645763f2fde38b146100dc57600080fd5b34610161576020366003190112610161576100f5610c55565b6100fd610fc7565b6001600160a01b0316801561014d5781546001600160a01b03198116821783556001600160a01b03167f8be0079c531659141344cd1fd0a4f28419497f9722a3daafe3b4186f6b6457e08380a380f35b631e4fbdf760e01b82526004829052602482fd5b80fd5b5034610161576020366003190112610161576101bf906040906001600160a01b0361018d610c55565b16815260036020522054604051918160ff80859460081c1691168390929160ff60209160408401951515845216910152565b0390f35b5034610161576101d236610ca5565b6101dd939293610ff0565b6001600160a01b038416808652600260205260408620549093906102039060ff16610ce3565b6001600160a01b038116808752600360205260408720549095906102299060ff16610d24565b610234841515610d64565b6040516341976e0960e01b815260048101879052906020826024817f00000000000000000000000000000000000000000000000000000000000000006001600160a01b03165afa9283156104405785928994610404575b50916102a4939161029b93611099565b91821015610e36565b6040516370a0823160e01b8152306004820152602081602481875afa80156103f957829187916103bf575b5010610381576102e182303387611012565b833b1561037257604051632770a7eb60e21b81523060048201526024810183905285908181604481838a5af180156103765761035d575b505061032581338561105d565b60405191825260208201527fe0af7bd1c7af549f1358ffb9853efb55d890ff7d77578bb809df4c6687632ba060403392a46001805580f35b8161036791610dd7565b610372578438610318565b8480fd5b6040513d84823e3d90fd5b60405162461bcd60e51b8152602060048201526016602482015275496e73756666696369656e74206c697175696469747960501b6044820152606490fd5b9150506020813d6020116103f1575b816103db60209383610dd7565b810103126103ec57819051386102cf565b600080fd5b3d91506103ce565b6040513d88823e3d90fd5b93509091506020833d602011610438575b8161042260209383610dd7565b810103126103ec5791519184919061029b61028b565b3d9150610415565b6040513d8a823e3d90fd5b50346101615780600319360112610161576040517f00000000000000000000000000000000000000000000000000000000000000006001600160a01b03168152602090f35b50346101615761049f36610c6b565b6001600160a01b03821684526002602052604084205491939290916104c69060ff16610ce3565b6001600160a01b038116808452600360205260408420546104e99060ff16610d24565b6104f4831515610d64565b6040516341976e0960e01b815260048101919091526020816024817f00000000000000000000000000000000000000000000000000000000000000006001600160a01b03165afa938415610595579361055e575b602061055685858886611099565b604051908152f35b9250906020833d60201161058d575b8161057a60209383610dd7565b810103126103ec57915191906020610548565b3d915061056d565b604051903d90823e3d90fd5b5034610161576040366003190112610161576105de6105be610c55565b6105c6610fc7565b8254602435916001600160a01b03918216911661105d565b80f35b5034610161578060031936011261016157546040516001600160a01b039091168152602090f35b50346101615780600319360112610161576040517f00000000000000000000000000000000000000000000000000000000000000006001600160a01b03168152602090f35b50346101615780600319360112610161576040517f00000000000000000000000000000000000000000000000000000000000000006001600160a01b03168152602090f35b50346101615780600319360112610161576106ab610fc7565b80546001600160a01b03198116825581906001600160a01b03167f8be0079c531659141344cd1fd0a4f28419497f9722a3daafe3b4186f6b6457e08280a380f35b5034610161576106fb36610ca5565b610706939293610ff0565b6001600160a01b0383168086526002602052604086205490939061072c9060ff16610ce3565b6001600160a01b038516808752600360205260408720549095906107529060ff16610d24565b61075d841515610d64565b6040516341976e0960e01b815260048101879052906020826024817f00000000000000000000000000000000000000000000000000000000000000006001600160a01b03165afa9283156104405785928994610852575b50916107c4939161029b93610ec7565b6107d082303386611012565b833b15610372576040516340c10f1960e01b815233600482015260248101829052858160448183895af180156103f95761083e575b5060405191825260208201527ff4e116c5af669bd0b672b4498a0a9b172a0029e608d2ab109e51480f6abc841460403392a46001805580f35b8561084b91969296610dd7565b9338610805565b93509091506020833d60201161088a575b8161087060209383610dd7565b810103126108865791519184919061029b6107b4565b8780fd5b3d9150610863565b5034610161576020366003190112610161576108c9906040906001600160a01b036108bb610c55565b168152600360205220610df9565b805160209182015160408051921515835260ff90911692820192909252f35b503461016157602036600319011261016157610902610c55565b61090a610fc7565b6001600160a01b03168015610a4257808252600360205260ff6040832054166109fd5760405163313ce56760e01b8152602081600481855afa9081156109f2577f174ad176d0e8343187c8118a29856f0af35e9054d527fd8726319c5e91f9b45d9160209185916109c5575b5060405161098381610da5565b6001815260ff8382019216918281528587526003845260408720915115159060ff61ff008454925160081b1692169061ffff191617179055604051908152a280f35b6109e59150823d84116109eb575b6109dd8183610dd7565b810190610e1d565b38610976565b503d6109d3565b6040513d85823e3d90fd5b60405162461bcd60e51b815260206004820152601860248201527f53746f636b20616c7265616479207265676973746572656400000000000000006044820152606490fd5b60405162461bcd60e51b8152602060048201526015602482015274496e76616c69642073746f636b206164647265737360581b6044820152606490fd5b5034610161576020366003190112610161576101bf906040906001600160a01b03610aa8610c55565b16815260026020522054604051918160ff80859460081c1691168390929160ff60209160408401951515845216910152565b5034610161576020366003190112610161576108c9906040906001600160a01b03610b03610c55565b168152600260205220610df9565b503461016157610b2036610c6b565b6001600160a01b038316845260026020526040842054909290610b459060ff16610ce3565b6001600160a01b03821680855260036020526040852054610b689060ff16610d24565b610b73841515610d64565b6040516341976e0960e01b815260048101919091526020816024817f00000000000000000000000000000000000000000000000000000000000000006001600160a01b03165afa948515610595578095610bd6575b602061055687878787610ec7565b909194506020823d602011610c06575b81610bf360209383610dd7565b8101031261016157505192816020610bc8565b3d9150610be6565b905034610c515781600319360112610c51577f00000000000000000000000000000000000000000000000000000000000000006001600160a01b03168152602090f35b5080fd5b600435906001600160a01b03821682036103ec57565b60609060031901126103ec576004356001600160a01b03811681036103ec57906024356001600160a01b03811681036103ec579060443590565b60809060031901126103ec576004356001600160a01b03811681036103ec57906024356001600160a01b03811681036103ec57906044359060643590565b15610cea57565b60405162461bcd60e51b8152602060048201526012602482015271556e737570706f7274656420737461626c6560701b6044820152606490fd5b15610d2b57565b60405162461bcd60e51b8152602060048201526011602482015270556e737570706f727465642073746f636b60781b6044820152606490fd5b15610d6b57565b60405162461bcd60e51b81526020600482015260126024820152710416d6f756e74206d757374206265203e20360741b6044820152606490fd5b6040810190811067ffffffffffffffff821117610dc157604052565b634e487b7160e01b600052604160045260246000fd5b90601f8019910116810190811067ffffffffffffffff821117610dc157604052565b90604051610e0681610da5565b602060ff8294548181161515845260081c16910152565b908160209103126103ec575160ff811681036103ec5790565b15610e3d57565b60405162461bcd60e51b8152602060048201526008602482015267536c69707061676560c01b6044820152606490fd5b60ff16604d8111610e7e57600a0a90565b634e487b7160e01b600052601160045260246000fd5b81810292918115918404141715610e7e57565b8115610eb1570490565b634e487b7160e01b600052601260045260246000fd5b6001600160a01b0316600090815260026020526040902091929091610eeb90610df9565b9160018060a01b03166000526003602052610f096040600020610df9565b604051631e34c81f60e31b815291906020836004817f00000000000000000000000000000000000000000000000000000000000000006001600160a01b03165afa8015610fbb576020610f8c610f7d93610f7d60ff84610f83610f9b9c610f7d8499610f959d600091610f9e575b50610e6d565b90610e94565b93015116610e6d565b95015116610e6d565b90610ea7565b90565b610fb59150853d87116109eb576109dd8183610dd7565b38610f77565b6040513d6000823e3d90fd5b6000546001600160a01b03163303610fdb57565b63118cdaa760e01b6000523360045260246000fd5b600260015414611001576002600155565b633ee5aeb560e01b60005260046000fd5b6040516323b872dd60e01b60208201526001600160a01b03928316602482015292909116604483015260648083019390935291815261105b91611056608483610dd7565b6111a0565b565b60405163a9059cbb60e01b60208201526001600160a01b0392909216602483015260448083019390935291815261105b91611056606483610dd7565b9092919260018060a01b031660005260026020526110ba6040600020610df9565b9060018060a01b031660005260036020526110d86040600020610df9565b604051631e34c81f60e31b8152909290916020836004817f00000000000000000000000000000000000000000000000000000000000000006001600160a01b03165afa918215610fbb57610f9b95610f959460009461115f575b506020611150610f7d94610f7d60ff84610f83611159988398610e94565b96015116610e6d565b91610e6d565b60ff919450611150610f7d94610f7d846020610f836111599861118f8398843d86116109eb576109dd8183610dd7565b9b9850985050505050945050611132565b906000602091828151910182855af115610fbb576000513d6111f257506001600160a01b0381163b155b6111d15750565b635274afe760e01b60009081526001600160a01b0391909116600452602490fd5b600114156111ca56fea26469706673582212208f5eb3f54ac8109e9b0e72c88ba8d780468364489785ed0059854a2c292313a264736f6c634300081b0033",
  "linkReferences": {},
  "deployedLinkReferences": {}
}