{
  "_format": "hh-sol-artifact-1",
  "contractName": "StockPriceOracle",
  "sourceName": "contracts/StockPriceOracle.sol",
  "abi": [
    {
      "inputs": [],
      "stateMutability": "nonpayable",
      "type": "constructor"
    },
    {
      "inputs": [
        {
          "internalType": "address",
          "name": "owner",
          "type": "address"
        }
      ],
      "name": "OwnableInvalidOwner",
      "type": "error"
    },
    {
      "inputs": [
        {
          "internalType": "address",
          "name": "account",
          "type": "address"
        }
      ],
      "name": "OwnableUnauthorizedAccount",
      "type": "error"
    },
    {
      "anonymous": false,
      "inputs": [
        {
          "indexed": true,
          "internalType": "address",
          "name": "previousOwner",
          "type": "address"
        },
        {
          "indexed": true,
          "internalType": "address",
          "name": "newOwner",
          "type": "address"
        }
      ],
      "name": "OwnershipTransferred",
      "type": "event"
    },
    {
      "anonymous": false,
      "inputs": [
        {
          "indexed": true,
          "internalType": "address",
          "name": "token",
          "type": "address"
        },
        {
          "indexed": false,
          "internalType": "uint256",
          "name": "price",
          "type": "uint256"
        },
        {
          "indexed": false,
          "internalType": "uint256",
          "name": "timestamp",
          "type": "uint256"
        }
      ],
      "name": "PriceUpdated",
      "type": "event"
    },
    {
      "anonymous": false,
      "inputs": [
        {
          "indexed": false,
          "internalType": "address[]",
          "name": "tokens",
          "type": "address[]"
        },
        {
          "indexed": false,
          "internalType": "uint256[]",
          "name": "prices",
          "type": "uint256[]"
        },
        {
          "indexed": false,
          "internalType": "uint256",
          "name": "timestamp",
          "type": "uint256"
        }
      ],
      "name": "PricesBatchUpdated",
      "type": "event"
    },
    {
      "inputs": [],
      "name": "PRICE_DECIMALS",
      "outputs": [
        {
          "internalType": "uint8",
          "name": "",
          "type": "uint8"
        }
      ],
      "stateMutability": "view",
      "type": "function"
    },
    {
      "inputs": [
        {
          "internalType": "address",
          "name": "token",
          "type": "address"
        }
      ],
      "name": "getLastUpdated",
      "outputs": [
        {
          "internalType": "uint256",
          "name": "",
          "type": "uint256"
        }
      ],
      "stateMutability": "view",
      "type": "function"
    },
    {
      "inputs": [
        {
          "internalType": "address",
          "name": "token",
          "type": "address"
        }
      ],
      "name": "getPrice",
      "outputs": [
        {
          "internalType": "uint256",
          "name": "",
          "type": "uint256"
        }
      ],
      "stateMutability": "view",
      "type": "function"
    },
    {
      "inputs": [
        {
          "internalType": "address[]",
          "name": "tokens",
          "type": "address[]"
        }
      ],
      "name": "getPrices",
      "outputs": [
        {
          "internalType": "uint256[]",
          "name": "",
          "type": "uint256[]"
        }
      ],
      "stateMutability": "view",
      "type": "function"
    },
    {
      "inputs": [
        {
          "internalType": "address",
          "name": "token",
          "type": "address"
        }
      ],
      "name": "hasPrice",
      "outputs": [
        {
          "internalType": "bool",
          "name": "",
          "type": "bool"
        }
      ],
      "stateMutability": "view",
      "type": "function"
    },
    {
      "inputs": [],
      "name": "owner",
      "outputs": [
        {
          "internalType": "address",
          "name": "",
          "type": "address"
        }
      ],
      "stateMutability": "view",
      "type": "function"
    },
    {
      "inputs": [],
      "name": "renounceOwnership",
      "outputs": [],
      "stateMutability": "nonpayable",
      "type": "function"
    },
    {
      "inputs": [
        {
          "internalType": "address",
          "name": "newOwner",
          "type": "address"
        }
      ],
      "name": "transferOwnership",
      "outputs": [],
      "stateMutability": "nonpayable",
      "type": "function"
    },
    {
      "inputs": [
        {
          "internalType": "address",
          "name": "token",
          "type": "address"
        },
        {
          "internalType": "uint256",
          "name": "price",
          "type": "uint256"
        }
      ],
      "name": "updatePrice",
      "outputs": [],
      "stateMutability": "nonpayable",
      "type": "function"
    },
    {
      "inputs": [
        {
          "internalType": "address[]",
          "name": "tokens",
          "type": "address[]"
        },
        {
          "internalType": "uint256[]",
          "name": "newPrices",
          "type": "uint256[]"
        }
      ],
      "name": "updatePrices",
      "outputs": [],
      "stateMutability": "nonpayable",
      "type": "function"
    }
  ],
  "bytecode": "0x608080604052346075573315605f5760008054336001600160a01b0319821681178355916001600160a01b03909116907f8be0079c531659141344cd1fd0a4f28419497f9722a3daafe3b4186f6b6457e09080a3610822908161007b8239f35b631e4fbdf760e01b600052600060045260246000fd5b600080fdfe6080604052600436101561001257600080fd5b60003560e01c806341976e091461061f578063457972de1461058b578063715018a6146105325780638da5cb5b146105095780638fb5a482146103c957806396f77060146101aa578063c4164cd41461016e578063ef12969b14610134578063f1a640f8146101185763f2fde38b1461008a57600080fd5b34610113576020366003190112610113576100a3610664565b6100ab6107c3565b6001600160a01b031680156100fd57600080546001600160a01b03198116831782556001600160a01b0316907f8be0079c531659141344cd1fd0a4f28419497f9722a3daafe3b4186f6b6457e09080a3005b631e4fbdf760e01b600052600060045260246000fd5b600080fd5b3461011357600036600319011261011357602060405160128152f35b34610113576020366003190112610113576001600160a01b03610155610664565b1660005260026020526020604060002054604051908152f35b34610113576020366003190112610113576001600160a01b0361018f610664565b16600052600160205260206040600020541515604051908152f35b346101135760403660031901126101135760043567ffffffffffffffff8111610113576101db90369060040161067a565b60243567ffffffffffffffff8111610113576101fb90369060040161067a565b6102069391936107c3565b80830361038b5782156103575760005b8381106102c0575060405192806060850160608652526080840192906000905b8082106102965750505082820360208401528082526001600160fb1b038111610113577f2b7d8b3d279bc4f93c121b319009e76ae91765f1f05f43c6345f29f4ee17146593602092849260051b80928583013742604084015201030190a1005b90919384359060018060a01b03821680920361011357602081600193829352019501920190610236565b6001906102e96001600160a01b036102e16102dc84898961079f565b6107af565b1615156106f7565b6102ff6102f782858961079f565b35151561073b565b61030a81848861079f565b35828060a01b0361031f6102dc84898961079f565b1660005282602052604060002055818060a01b036103416102dc83888861079f565b1660005260026020524260406000205501610216565b60405162461bcd60e51b815260206004820152600c60248201526b456d7074792061727261797360a01b6044820152606490fd5b60405162461bcd60e51b8152602060048201526016602482015275082e4e4c2f2e640d8cadccee8d040dad2e6dac2e8c6d60531b6044820152606490fd5b346101135760203660031901126101135760043567ffffffffffffffff8111610113576103fa90369060040161067a565b9061040482610787565b6040519290601f01601f1916830167ffffffffffffffff8111848210176104f35760405280835261043481610787565b602084019290601f190136843760005b8281106104905783856040519182916020830190602084525180915260408301919060005b818110610477575050500390f35b8251845285945060209384019390920191600101610469565b6001600160a01b036104a66102dc83868661079f565b166000526001602052604060002054906104c18215156106ab565b85518110156104dd5760019160208260051b8801015201610444565b634e487b7160e01b600052603260045260246000fd5b634e487b7160e01b600052604160045260246000fd5b34610113576000366003190112610113576000546040516001600160a01b039091168152602090f35b346101135760003660031901126101135761054b6107c3565b600080546001600160a01b0319811682556001600160a01b03167f8be0079c531659141344cd1fd0a4f28419497f9722a3daafe3b4186f6b6457e08280a3005b34610113576040366003190112610113576105a4610664565b7fb556fac599c3c70efb9ab1fa725ecace6c81cc48d1455f886607def065f3e0c06040602435926105d36107c3565b6001600160a01b0316926105e88415156106f7565b6105f381151561073b565b8360005260016020528082600020558360005260026020524282600020558151908152426020820152a2005b34610113576020366003190112610113576001600160a01b03610640610664565b166000526001602052602060406000205461065c8115156106ab565b604051908152f35b600435906001600160a01b038216820361011357565b9181601f840112156101135782359167ffffffffffffffff8311610113576020808501948460051b01011161011357565b156106b257565b60405162461bcd60e51b815260206004820152601760248201527f5072696365206e6f742073657420666f7220746f6b656e0000000000000000006044820152606490fd5b156106fe57565b60405162461bcd60e51b8152602060048201526015602482015274496e76616c696420746f6b656e206164647265737360581b6044820152606490fd5b1561074257565b60405162461bcd60e51b815260206004820152601f60248201527f5072696365206d7573742062652067726561746572207468616e207a65726f006044820152606490fd5b67ffffffffffffffff81116104f35760051b60200190565b91908110156104dd5760051b0190565b356001600160a01b03811681036101135790565b6000546001600160a01b031633036107d757565b63118cdaa760e01b6000523360045260246000fdfea2646970667358221220e008d72b5d6b8e01941638133d31eeb007923e459d5d3d5905ba1d23365817ba64736f6c634300081b0033",
  "linkReferences": {},
  "deployedLinkReferences": {}
}